:020000022000DC
:10600000B8FB00204D9D0200759D0200B96502009D
:10601000799D02007B9D02007D9D02000000000032
:106020000000000000000000000000007F9D020052
:10603000819D020000000000839D0200859D0200FA
:10604000879D0200879D0200FD660200879D020079
:10605000879D0200879D020001660200879D020065
:10606000879D0200879D020065670200879D0200F0
:10607000879D0200879D0200879D0200879D020088
:10608000D565020015670200879D0200879D02000A
:10609000879D0200879D0200D19B0200879D020020
:1060A000879D0200879D0200879D0200879D020058
:1060B000879D0200879D0200000000000000000094
:1060C000879D0200879D0200879D0200879D020038
:1060D000879D0200879D0200879D0200000000004E
:1060E00000000000000000000000000000000000B0
:1060F00000000000000000000000000000000000A0
:10610000000000000000000000000000000000008F
:10611000000000000000000000000000000000007F
:10612000000000000000000000000000000000006F
:10613000000000000000000000000000000000005F
:10614000000000000000000000000000000000004F
:10615000000000000000000000000000000000003F
:10616000000000000000000000000000000000002F
:10617000000000000000000000000000000000001F
:10618000000000000000000000000000000000000F
:1061900000000000000000000000000000000000FF
:1061A00000000000000000000000000000000000EF
:1061B00000000000000000000000000000000000DF
:1061C00000000000000000000000000000000000CF
:1061D00000000000000000000000000000000000BF
:1061E00000000000000000000000000000000000AF
:1061F000000000000000000000000000000000009F
:1062000010B5054C237833B9044B13B10448AFF3F0
:1062100000800123237010BDD8330020000000004F
:106220000C44050008B5034B1BB103490348AFF309
:10623000008008BD00000000DC3300200C44050095
:10624000154B002B08BF134B9D46A3F5803A002148
:106250008B460F461348144A121A21F0CCF90F4B03
:10626000002B00D098470E4B002B00D09847002001
:10627000002104000D000D48002802D00C48AFF3A7
:10628000008020F08DFF2000290000F013F820F09E
:106290007DFC00BF00000800B8FB002000000000EB
:1062A00000000000D8330020AC4C002000000000AB
:1062B000000000002DE9F84F72B62C4C204600F08B
:1062C000E5FA62B6204604F0E9FA03F0B1FDDFF822
:1062D000A4B0DFF8A4A0A0463FE002B1904740463A
:1062E00004F0DCFAAC4218D004342268002AF9D059
:1062F0001388002BF6D0013B9BB21380002B18BFF4
:10630000012623689A68D86893F802C0BCF1000F90
:10631000E3D0C3F804902760DFE79BF800309AF8D9
:106320000020DBB2934208D1A6B1114C04F18005E4
:1063300000264FF0FF393746D6E704F0E9F940462A
:1063400004F0ACFA9BF800309AF80020DBB29342DC
:10635000EBD1E9E7054B1B7C1BB9404604F09EFAE4
:10636000E3E7024800F0CAFBF7E700BF083400206B
:10637000443700202C3700202D37002008B5FE219F
:10638000014806F001F908BDF4330020704710B54C
:106390000446082104F006FA204610BD10B582B06C
:1063A000074C002100910B460A46204606F060F992
:1063B000044A0549204606F0E9FC02B010BD00BFC2
:1063C000FC330020D03000208D63020008017047AC
:1063D000080970470268084B1A6042685A60826870
:1063E0009A60C268DA6002691A6142695A61826918
:1063F0009A61C269DA617047B8FB00207047704744
:1064000008B5034B01221A60024804F06BFF08BD77
:10641000009000405836002010B50446002205497F
:1064200004F068FC044B03F1080222603833636116
:10643000204610BD0090D003B8F50400032900D910
:10644000704708B50B460021024AD05604F0BEFF43
:1064500008BD00BFB4F50400032900D9704708B592
:106460000B460121024AD05604F0B0FF08BD00BF20
:10647000B4F50400032900D9704710B51446084646
:1064800000230C222146024C205604F0CFFF10BD01
:10649000B0F504002DE9F8439046012827D00A28DA
:1064A00027D00B2818BF4FF0FF381DD1124DB8F17F
:1064B000000F17DD4C1E04EB08074FF00D0906E036
:1064C0002B681B68317828469847BC420CD00134B1
:1064D000264623780A2BF3D12B681B6849462846A9
:1064E0009847EDE74FF000084046BDE8F883034DBC
:1064F000DDE7024DDBE700BF0836002058360020FC
:106500000020704710B503681F4C23604368636028
:106510008368A360C368E3600369236143696361BF
:106520008369A361C369E361184822F0D7F9216840
:10653000174822F04BF96168164822F047F9A16824
:10654000154822F043F9E168144822F03FF9216927
:10655000134822F03BF96169124822F037F9A1692A
:10656000114822F033F9E169104822F02FF9EFF3D6
:1065700008810F4822F02AF90E480368DB68984723
:1065800004F02EF910BD00BFB8FB00200CF504008C
:106590001CF504002CF504003CF504004CF5040047
:1065A0005CF504006CF504007CF504008CF5040037
:1065B0009CF504005836002004207146084203D0A0
:1065C000EFF30980FFF79EBFEFF30880FFF79ABF54
:1065D00070470000084BD3F8003163B1064B00222E
:1065E000C3F800211EF0040F0CBFEFF30880EFF397
:1065F000098002490847704700000140D563020046
:1066000000B585B03A48FFF7FBFE0021684604F06C
:10661000BBF9384BD3F800311BBB364BD3F80431F0
:1066200043BB344BD3F808316BBB324BD3F80C313E
:10663000002B31D12F4BD3F81031002B35D12D4BFE
:10664000D3F81431002B39D12A4BD3F81831002B51
:106650003DD1284BD3F81C31002B41D105B05DF85A
:1066600004FB0020234BC3F800010246694605F0F5
:1066700069FDD2E700221F4BC3F8042169460120BF
:1066800005F060FDCDE700221A4BC3F808216946EA
:10669000022005F057FDC8E70022164BC3F80C2175
:1066A0006946032005F04EFDC4E70022114BC3F8F4
:1066B00010216946042005F045FDC0E700220D4B7E
:1066C000C3F814216946052005F03CFDBCE7002213
:1066D000084BC3F818216946062005F033FDB8E7DA
:1066E000054805F001FA034B0022C3F81C21B5E769
:1066F00008340020006000400836002008B5034838
:10670000FFF77EFE024804F0CBFD08BD08340020F0
:106710005836002010B5114C2046FFF771FE0021BD
:106720002046FFF78BFE0E4BD3F8403143B90C4B9C
:10673000D3F844315BB900210848FFF78DFE10BD46
:10674000074B0022C3F8402105F04AFBF3E7044B56
:106750000022C3F8442105F055FBECE70834002083
:106760000010014008B51B48FFF74AFE1A4BD3F84A
:10677000403143B1184B0022C3F84021174BB3F905
:106780000430934221DA144BD3F844311BB1124B3D
:106790000022C3F84421104BD3F848311BB10E4BF3
:1067A0000022C3F848210C4BD3F84C3163B10A4B9B
:1067B0000022C3F84C21094BB3F90430934203DBA8
:1067C0001146162004F002FE08BD0121162004F037
:1067D000FDFDD8E70834002000A00040D4300020A0
:1067E00010B50446542103F0DDFF204610BD10B55E
:1067F0000446502103F0D6FF204610BD70B582B08C
:10680000184D402401940094082306221649284676
:1068100004F0BAFC154E32461549284606F0B6FA81
:10682000144D009423460B220C21284605F046F90E
:1068300032461149284606F0A9FA19230093182375
:1068400017220E490E4804F017FB1A231B224FF0A3
:1068500040210C4804F076FE0B48FFF7DDFD02B046
:1068600070BD00BF5836002000200040D03000200E
:10687000FD63020008360020FF6302000030004084
:1068800060340020703400200834002030B583B01C
:10689000044604F00DF8914B1A6822F002021A60C7
:1068A0001A6822F001021A6003F54F634FF000628C
:1068B0005A60A3F540634FF48032C3F88021402230
:1068C00083F8102393F810335A09EC23134113F083
:1068D000010F08D0824B9B68002B40F0E080814B79
:1068E0004FF480321A600121112004F031FD0121A2
:1068F000122004F02DFD0121132004F029FD0121B7
:10690000142004F025FD00212046FFF7A5FD0121FC
:106910002046FFF7A1FD02212046FFF79DFD032140
:106920002046FFF799FD02210D2004F011FD022100
:106930000E2004F00DFD02210F2004F009FD0221BC
:10694000102004F005FD674B4022C3F8802160222F
:1069500083F8062393F806335A09EC23134113F006
:10696000010F07D05E4B9B68002B40F09E805D4B73
:1069700040221A605B4B0422C3F88021602283F816
:10698000022393F802335A09EC23134113F0010F49
:1069900007D0534B9B68002B40F08D80514B042255
:1069A0001A60514D2868002302221946806821F0A0
:1069B000D1FF2868002302221946406821F0CAFF4F
:1069C0002868002302221946C06821F0C3FF4FF057
:1069D00080420123C2F87835C2F8183502F5827278
:1069E0000021116012680192019A404A1360FC3242
:1069F0001368002BFCD001233D4A1360043213605E
:106A0000384B4FF40032C3F88021602283F8112301
:106A100093F811335A09EC23134113F0010F07D0F7
:106A20002F4B9B68002B4CD12E4B4FF400321A6039
:106A3000304B01221A6005F07DF9002104F1480075
:106A400003F0A2FF274B4FF48062C3F8802140225D
:106A500083F80A2393F80A335A09EC23134113F0FD
:106A6000010F07D01E4B9B68002B30D11D4B4FF4FC
:106A700080621A600121162004F06AFC00211620B1
:106A800004F0A4FC1C4B4FF40022C3F8042501229F
:106A9000C3F804231A6003F0D1FD03B030BD104ADF
:106AA000136843F4803313601DE70D4A136843F005
:106AB000400313605EE70A4A136843F0040313605F
:106AC0006FE7074A136843F400331360B0E7044AE2
:106AD000136843F480631360CCE700BF10E000E06C
:106AE0003C37002000E100E0703100200800004049
:106AF000041001400010014000000140037C03B974
:106B0000704710B504460F4805F0A4FA38B10D4897
:106B100005F0A2FAA8B90B4805F0A3FA88B90A480B
:106B200005F098FA50B1084805F096FA48B90648B9
:106B300005F097FA28B9044804F0CEFB204603F08C
:106B4000EFFE10BD083600205836002072DF704777
:106B500073DF704774DF704710B50446002303608D
:106B600043608360C36003744374012383744FF4F0
:106B7000047003F009FE80B303462060FF22027018
:106B800001210171427902F0FE026FF3410242716C
:106B9000002282604FF44860D8601A829A74C3F869
:106BA0001320DA751A7659769A76D97E01F0F001BB
:106BB00041F01001D97603F13401D9611A8403F54B
:106BC000917159621A854FF6FF729A85DA8540F203
:106BD000F31119865A86204610BD00220249034847
:106BE00005F066FEF7E700BF5CF7040080F70400DD
:106BF0002DE9F041B0B00646002530AC44F8945D74
:106C0000624F2346027C6249384605F0ADFE2346BA
:106C1000727C6049384605F0A7FE376807AB0593DC
:106C200006958DF81C507368B2689A4216D02C46AF
:106C3000DFF87C81234403F10C0207CA8DE80700CA
:106C40000ECB05A801F0D6FD013573681834B26883
:106C5000D21AD21008FB02F2AA42EBD805A90CA85E
:106C600001F098FD3C8D0D9B1C440C980EAB984296
:106C700001D003F093FDEE2C27D90023049305A93E
:106C800012A801F087FD04AB139A43493F4805F071
:106C9000C9FE129814AB984201D003F07FFD3B4C23
:106CA00004AB3A8D3D49204605F0BCFE04ABEE2214
:106CB0003B49204605F0B6FE059807AB984201D047
:106CC00003F06CFD30B0BDE8F0813B8D7C6A1C4464
:106CD00005A918A801F05EFD189D05A91EA801F0E0
:106CE00059FD1F9A2946204620F061FC1E9820ABD2
:106CF000984201D003F052FD18981AAB984201D087
:106D000003F04CFD05A924A801F044FD3A8D259B14
:106D100013443B85249826AB984201D003F03EFDF6
:106D20003A1D07F11C013846FFF710FF044605A97C
:106D30002AA801F02FFD3B8D2B9A9B1A3B852A98A0
:106D40002CAB984201D003F029FD34B10023224638
:106D500014490E4805F008FEAEE701213878FFF728
:106D6000F7FE024628B100230F49084805F0FCFD54
:106D7000A2E700220D49054805F09AFD059807ABEA
:106D800098429FD003F00AFD9CE700BF80F7040003
:106D9000BCF60400D4F60400ECF6040004F704008A
:106DA00010F7040014F7040038F7040050F704004B
:106DB000ABAAAAAA10B5044600220B490B4805F05D
:106DC00077FD23681878FFF7C5FE28B90022084927
:106DD000064805F06DFD10BD024600230549034835
:106DE00005F0C2FDF7E700BF98F6040080F7040045
:106DF000B4F60400A0F60400F0B599B005460E46BE
:106E00000468684601F0C6FC019F009802AB9842F6
:106E100001D003F0C3FCEE2F10D9314606A801F0D3
:106E2000B9FC0023079A1749174805F0FBFD06989F
:106E300008AB984223D003F0B1FC20E031460CA807
:106E400001F0A8FC0D9B23840C980EAB984201D056
:106E500003F0A4FCE769314612A801F09BFC228CE8
:106E60001299384620F0A3FB129814AB984201D037
:106E700003F094FC01232B74207800F051F819B032
:106E8000F0BD00BF84F6040080F70400F0B599B0AF
:106E900004460E460568684601F07CFC019F009898
:106EA00002AB984201D003F079FCEE2F10D93146A5
:106EB00006A801F06FFC0023079A1549154805F054
:106EC000B1FD069808AB984220D003F067FC1DE0A6
:106ED00031460CA801F05EFC0D9B2B850C980EAB87
:106EE000984201D003F05AFC6F6A314612A801F0B3
:106EF00051FC2A8D1299384620F059FB129814AB98
:106F0000984201D003F04AFC0123637419B0F0BD2C
:106F100084F6040080F7040070477CDF70470000AF
:106F2000054B1B78984202D0FF2B01D07047704769
:106F3000014B1870704700BFE430002008B5044BC7
:106F40001B681BB10146184600F0D0FC08BD00BF0D
:106F5000D43600202D4B1B7803B1704730B583B079
:106F6000044602F0D5FD024630B1002328492948E5
:106F700005F058FD03B030BD02A9002341F8043DDF
:106F8000012002F05FFE024628B100232249214879
:106F900005F048FDEEE702A850F8045D02F0A6FEF9
:106FA000024670B1042805D000231C49194805F099
:106FB00039FDDFE70023019A1949164805F090FDD5
:106FC000D8E7019AAA421BD1104B01221A706268BD
:106FD000002ACFD09DF8003003F0F0036FF30713C1
:106FE00002A800F8083D92B22168FFF796FF02461A
:106FF0000028BFD000230B49064805F013FDB9E770
:1070000000230949034805F06BFDDDE7AC3600209D
:10701000C0F70400D4F70400E4F7040028F80400E3
:1070200000F8040054F8040040F8040010B50446C9
:107030000748FFF7E5F9A31E012B00D910BD054B4A
:1070400018680028FAD0214603F0BCFBF6E700BF21
:10705000083400203037002010B504461348FFF7ED
:10706000CFF92388102B15D0112B19D0104B1B688A
:1070700023B101F033FE214600F0E2F90D4B1B680D
:1070800023B101F03FFE2146FFF746FF2046FFF700
:1070900055FF10BD00220849084805F009FCE5E746
:1070A00000220749054805F003FCDFE7083400200B
:1070B000D0360020B036002094F70400D4F7040046
:1070C000A8F704000379002BFCD10123037170475A
:1070D00000230371704781600023037170470379B7
:1070E000002BFCD1806870478ADF704710B50446DA
:1070F0000023436001220272154AC2600374436197
:107100000377036200F11C0242628262C3624FF4A1
:10711000847003F039FB206098B1037803F0F80322
:107120006FF3C403037000234370A0224280828067
:107130008360037300F118030361EE23838220460A
:1071400010BD00220349044805F0B2FBF7E700BF79
:107150007CF80400B4F80400C8F8040070B50646D2
:107160000C4631B970BD204603F018FB2C46002DAB
:10717000F8D0E1683046FFF7F1FFA568206904F117
:1071800018039842EFD003F009FBECE72DE9F84330
:107190008468071D7CB34E68D1F80090B84606E0BD
:1071A000AB1B002BA6BFA046A468E46874B1656958
:1071B0002A46B54228BF3246002AF1D04946206906
:1071C00020F0E6F903460028EAD0EAE7474512D066
:1071D000D8F814403246A64228BF224632B1D8F829
:1071E0001010484620F0D4F9034600B9331B002B99
:1071F00001DB404600E03846BDE8F8832DE9F84F52
:107200008146884617468C6801F1040B002C37D064
:107210005668D2F800A008E0731B002BB9BFA36822
:107220000122E36800227BB11C4665693246AE420A
:1072300028BF2A46002AEFD02169504620F0A8F93D
:1072400003460028E8D0E8E7DAB92546D4F814A0C8
:107250007E685246B24528BF32462AB13968206955
:1072600020F096F9034608B9AAEB0603002B5DDB74
:10727000C9F80040002389F804304846BDE8F88F7B
:107280005C46D8F80C50A54250D0204606F0CCFC05
:1072900025460446DAE701261DE0D3F800E0D3F8DE
:1072A00004C09868DA68C4F818E0C4F81CC020620A
:1072B000626222E05D45EED07E686C693246A6428D
:1072C00028BF22462AB12969386820F061F90346AF
:1072D00000B9331BDE0F2C2003F056FA044610F1E0
:1072E000100F12D000F1180101613B4653F8082B32
:1072F0009A42D2D00261BA6882617A6862613B6068
:1073000000237B603B72BB69A3625B462A46214631
:10731000304606F08BFCD8F814300133C8F814302E
:10732000C9F80040012389F80430A6E7002DC1D137
:1073300000249DE770B582B0054669B10E46541A27
:1073400001940F2C0FD82868012C14D0ACB1224620
:10735000314620F02CF910E012B9002301930CE023
:10736000094816F0EBFC002201A914F07DFC28600E
:10737000019BAB60E7E733780370019B6B602A6881
:107380000021D15402B070BDD8F804002DE9F84FA7
:1073900082460C4615469B462C2003F0F5F906461E
:1073A00010300BD006F118033361216962694FF088
:1073B00000030A44FFF7BEFFA36AB3622378337069
:1073C0000023B360F3607560E16839B9A5689DB3C7
:1073D00037464FF02C094FF0000813E05B46324669
:1073E0005046FFF7D3FFF060F0E72B782370C4F826
:1073F0000880C4F80C80BC606760E968A9B9AD6812
:107400002746CDB1484603F0BFF904461030ECD012
:1074100004F11803236129696A694FF000030A44E3
:10742000FFF788FFAB6AA362DFE75B462246504660
:10743000FFF7ACFFE060E2E73046BDE8F88F000000
:107440002DE9F047ADF5147D05460C460B881B2B46
:1074500005D01D2B32D00DF5147DBDE8F0870B7AD9
:10746000012BF8D1037200230374446B002CF2D07B
:107470008DF8E8317B937AAA7C927D927E93016AA3
:10748000A9B179A8029002ABFFF780FF024600E0A5
:107490001A469368002BFBD17C92024600E01A4604
:1074A000D368002BFBD17D92EB6A7E937B9079A809
:1074B000A0477B9979A8FFF751FECCE7067A002E0A
:1074C000C9D10B31684600F0C9FA69467FA800F0BF
:1074D000CBFA05F118087FA94046FFF757FE07468B
:1074E0007F9881AB984201D003F058F905F11C0355
:1074F0009F421CD0BF6A6B4693E80600384600F0F6
:10750000B5FD94F91B10384600F0E0FDA28C002A6E
:1075100036D12946384600F0DCFD6868002800F0C6
:107520004D8195F83030002B00F048817EE0237AC1
:1075300013F0080F1ED195F83120EB6A9A428AD9D0
:10754000A82003F021F9074600F02CFD002F82D07F
:107550006B4693E80600384600F088FD94F91B104E
:10756000384600F0B3FDA28C5AB92946384600F0DF
:10757000B0FD2FE000229D499D4805F099F96AE78A
:107580000126237A13F0080F00F01E81384600F020
:10759000B7FD8146384600F0B6FD0246494602A8CE
:1075A00020F005F8384600F0AEFDA28C216A02AB4F
:1075B00018441FF0FCFF384600F0A5FDA28C0244E1
:1075C00002A9384600F0AAFE2946384600F081FD9F
:1075D000002EA2D169468EA800F046FA89AB8793A7
:1075E0008E9B90AA934200F0F4808793909B89939E
:1075F0008F9B889390AB8E9300238F938DF84032AE
:107600008D9787AA414685A8FFF7F8FD879889AB33
:10761000984201D003F0C2F88E9890AB984201D006
:1076200003F0BCF86868002800F0C8800368DB68D5
:1076300039469847D5F80480D8F80030D3F8089038
:107640003B788DF808307B788DF80930BB788DF861
:107650000A30FB788DF80B303A1D92E80300039056
:10766000ADF81010BB7A8DF81230BB89ADF814302C
:107670003B69069309AB07937969BA694FF0000338
:107680000A4407A8FFF756FE0FAB0D93F96A3A6B51
:107690004FF000030A440DA8FFF74CFE7B6C1393D8
:1076A000B7F94830ADF850303C6DFB6CE41AE2108D
:1076B000504B03FB02F30022159216921792002BF7
:1076C00000F090804C4A934200F28A80204603F0FA
:1076D0005BF88446CDF854C0CDF858C06444179484
:1076E000FA6C3B6D9A4222D002F1180EA3EB0E0AFF
:1076F0004FEADA0A414B03FB0AFA2AF0604A0AF120
:10770000010A0AEB4A0A0CEBCA0ABCF1000F08D0C6
:107710006446AEF118060FCE0FC496E8030084E865
:1077200003000CF1180C0EF1180ED445EDD1CDF874
:1077300058C097F958308DF860301BAB1993F96D2C
:107740003A6E4FF000030A4419A8FFF7F3FD1FAC8F
:1077500007F174060FCE0FC496E8030084E8030017
:1077600027AC2594D7F88C10D7F890204FF0000361
:107770000A4425A8FFF7DEFD97F8A4308DF8AC3059
:1077800002A94046C8472598A04201D003F006F858
:1077900019981BAB984201D003F000F8159808B176
:1077A00002F0FCFF0D980FAB984201D002F0F6FFFB
:1077B000079809AB984201D002F0F0FF2968103118
:1077C0000020FFF791FC46E6216A384600F0A6FD4E
:1077D000FAE689AC94AB13E90F0084E80F0007E7E1
:1077E00016F0A6FA4FF0000C74E700BF8CF8040006
:1077F000C8F80400ABAAAAAAAAAAAA0AABAAAA0A0B
:1078000075DF7047B5DF7047002242600274426145
:1078100000F110018161C16102621149416280F889
:107820002820C262016380F834208263C16380F83B
:107830004020426480F84C20026500F14C01416513
:107840008165C26580F86420826600F16401C166CA
:10785000016742678267C2674FF6FF720280704716
:107860007CF8040010B5094C00230A46084920465C
:1078700005F07AF800220749204605F019F80022A1
:107880000549204605F014F810BD00BF18F90400A2
:1078900004F9040028F9040040F9040070B5064614
:1078A0000C4651B1E1683046FFF7F8FFA568204665
:1078B00002F074FF2C46002DF4D170BD83680430B3
:1078C0009BB110B4098804461A8A8A4226BF1C4616
:1078D0009B68DB68002BF7D1A04203D0238A8B4240
:1078E00098BF20465DF8044B704770472DE9F04182
:1078F00084B005460C468B88ADF80E300B88112BF2
:107900005AD034D9122B75D0552B28D104AE002370
:1079100046F8083DDFF840813346CA884B49404667
:1079200005F080F8E788B7F5007FA8BF4FF400772F
:1079300033463A464649404605F016F83A46BDF801
:107940000E10284601F086FB3946BDF80E00FFF701
:1079500059FF334602463F49404605F063F8214649
:1079600005F1480001F0D8FB04B0BDE8F081102B10
:10797000F5D101F01CFB0028F1D00368227E1B78B2
:107980009A42ECD1BDF80E3000222946284601F07B
:10799000A5FB638A228ABDF80E10E08A0190A08AB6
:1079A0000090284601F008FBE86F0028D7D0036854
:1079B0009B6829469847D2E70DF10E010C30FFF77E
:1079C0007DFF05F110018142C9D006F091F902F066
:1079D000E5FE2B6A013B2B62E86F18B10368DB6898
:1079E00029469847284601F0E2FA0028B7D0FFF769
:1079F000FFF8B4E70DF10E010C30FFF75FFF05F162
:107A000010039842ABD0828B23899A4203D1428BD8
:107A100063899A4211D004F10801BDF80E00FFF706
:107A2000EFFE63892289BDF80E10E0890190A089DC
:107A30000090284601F0C0FA91E7C28BA3899A42D0
:107A4000E9D1028CE3899A42E5D188E750F9040034
:107A500060F9040068F9040018F904000A6802607B
:107A60008A888280704700002DE9F041C2B0064646
:107A70000F4602AC14A816F007FFBB4BA364002509
:107A8000C4F8B85084F8BC5084F8BD50C4F8C05055
:107A9000C4F8C450C4F8C850C4F8CC50DFF8D88239
:107AA000D8F80830236053F80C3CD8F80C20E2508A
:107AB0006560236853F80C0C2946204406F0EDFD60
:107AC000D8F81030A36053F80C3C42AA1344D8F8FD
:107AD000142043F8F82CA36853F80C0C294604AB87
:107AE000184406F0DAFDD8F80430236053F80C3C53
:107AF000D8F81820E2509D4B236003F12802A264BD
:107B00001433A3609A4BE36025616561A561E5616B
:107B1000256265620CA805F0AFFC964BE360182364
:107B2000E36210AB2363656384F8385005A914A899
:107B300006F0B3FDA36853F80C4C04AB1C4494F856
:107B4000753053B9E56F002D00F09C812B7F002B21
:107B500000F09A81012384F87530302384F8743062
:107B6000049B53F80C3C42AA1344022243F8F02C25
:107B7000049B53F80C2C04AB1A44D36823F04A033B
:107B800043F00803D360397804A80DF0F9F83A23DC
:107B90008DF8073001220DF107010DF065F8049B07
:107BA00053F80C4C04AB1C4494F8753053B9E56F92
:107BB000002D00F072812B7F002B00F070810123DB
:107BC00084F87530302384F87430049B53F80C3CEF
:107BD00042AA1344022243F8F02C049B53F80C2CC5
:107BE00004AB1A44D36823F04A0343F00803D3607C
:107BF000797804A80DF0C4F83A238DF806300122F4
:107C00000DF106010DF030F8049B53F80C4C04AB59
:107C10001C4494F8753053B9E56F002D00F048818D
:107C20002B7F002B00F04681012384F87530302330
:107C300084F87430049B53F80C3C42AA134402228B
:107C400043F8F02C049B53F80C2C04AB1A44D36873
:107C500023F04A0343F00803D360B97804A80DF079
:107C60008FF83A238DF8053001220DF105010CF053
:107C7000FBFF049B53F80C4C04AB1C4494F8753088
:107C800053B9E56F002D00F01E812B7F002B00F013
:107C90001C81012384F87530302384F87430049BF0
:107CA00053F80C3C42AA1344022243F8F02C049BE4
:107CB00053F80C2C04AB1A44D36823F04A0343F066
:107CC0000803D360F97804A80DF05AF83A238DF828
:107CD0000430012201A90CF0C7FF049B53F80C4C9F
:107CE00004AB1C4494F8753053B9E56F002D00F0D7
:107CF000F5802B7F002B00F0F380012384F8753092
:107D0000302384F87430049B53F80C3C42AA13448B
:107D1000022243F8F02C049B53F80C2C04AB1A44B9
:107D2000D36823F04A0343F00803D360397904A8E9
:107D30000DF026F83A238DF8033001220DF10301EE
:107D40000CF092FF049B53F80C4C04AB1C4494F8C9
:107D50007530B3B9E56F002D00F0CB802B7F002B81
:107D600000F0C9800AE000BFD0030500C42505006B
:107D700024040500CC24050090250500012384F887
:107D80007530302384F87430049B53F80C3C42AABD
:107D90001344022243F8F02C049B53F80C2C04AB40
:107DA0001A44D36823F04A0343F00803D360797977
:107DB00004A80CF0E5FF06F10804346000237360AA
:107DC00033720A9A002A00F0CD8008998A4240F264
:107DD000A0803EAD3C9509993CA8FFF7ABFA33680B
:107DE0003C9AAA4200F090809C4200F0C080B168AA
:107DF00032603D9A72603E9AB260002B00F0BC8007
:107E00003C933E9100233D933C9A13703C983EABCB
:107E1000984201D002F0C2FC5D4B029303F12802AC
:107E20001492143304935B4B05930E9810AB984255
:107E300001D002F0B3FC02AC574B05930CA806F03E
:107E400013F9564B5A68226052F80C2C9969A150CC
:107E50001A69A26052F80C2C42A90A44596942F8E6
:107E6000F81C9A68226052F80C2CDB68A35000239F
:107E700063604B4BA36414A816F046FD304642B035
:107E8000BDE8F08115F057FF284613F0B6FE2B68C9
:107E90009B692021284698475CE615F04CFF284650
:107EA00013F0ABFE2B689B6920212846984786E695
:107EB00015F041FF284613F0A0FE2B689B69202196
:107EC00028469847B0E615F036FF284613F095FE91
:107ED0002B689B69202128469847DAE615F02BFF8E
:107EE000284613F08AFE2B689B6920212846984774
:107EF00003E715F020FF284613F07FFE2B689B69EF
:107F000020212846984739E73CA9304613F039FF2D
:107F100078E738AD36954FF000030A46099936A840
:107F2000FFF708FA3368369AAA4216D09C4226D048
:107F3000B1683260379A7260389AB26023B3369370
:107F4000389100233793369A1370369838AB98429D
:107F50003FF462AF02F022FC5EE736A9304613F030
:107F600010FFEEE70EA9304613F00BFF54E7326026
:107F70003D9B73603E9BB3603EAB3C9342E73260F7
:107F8000379B7360389BB36038AB3693D9E700BF3B
:107F9000C4250500CC240500240405009025050017
:107FA000D00305002DE9F04782B004462D49043086
:107FB000FFF754FD04F1140A04F11C03636100256A
:107FC000A561257704F12C0904F13403E3622563EC
:107FD00084F83450E5642565656504F15C0804F1B6
:107FE0006403E365256684F8645004F1740001F0CD
:107FF0006BF904F18C0704F19403C4F88C30C4F8D5
:10800000905084F89450A572A5812561164E009574
:108010003346A2692946504614F04AF80095334683
:10802000226B2946484614F043F84FF40043A4F865
:10803000483000953346226E2946404614F038F801
:1080400084F85850656400953346D4F8902029464A
:10805000384614F02DF82570E570204602B0BDE8D2
:10806000F08700BF94F9040028F5040010B483B031
:1080700004466B4683E8060093E8030060602181B4
:1080800003B05DF8044B704708B50A4681810123AF
:10809000037000230249034804F066FC08BD00BFDA
:1080A000A8F90400B8F9040010B504462C3013F008
:1080B00068FE0123A3700023E26A0249024804F02B
:1080C000D9FD10BD98FA0400B8F90400A0F84810D2
:1080D00070474164704708B50123C3705C3013F0EA
:1080E00050FE08BD08B50A4680F858100023024922
:1080F000024804F039FC08BD9CF90400B8F90400FA
:10810000D0F88C007047D0F8900070472DE9F04F00
:1081100083B01646046843681B1BDA104A4B03FB06
:1081200002F34A4A934209D081460D46ABB15A0048
:10813000934206D90C1BDFF814A111E0444815F056
:1081400000FE424B934228BF13469A460C1B3AB995
:108150004FF000080AE0464636E00C1B4FF0010ADB
:108160000AEB4A00C00002F00FFB804618EB040443
:1081700005D00FCE0FC496E8030084E80300D9F8B9
:1081800000E0AE45E7D00EF1180CA5EB0C0B4FEA62
:10819000DB0B304B03FB0BFB2BF0604B0BF1010BAC
:1081A0000BEB4B0B08EBCB0B464646B13446ACF120
:1081B00018070FCF0FC497E8030084E803001836B0
:1081C0000CF1180C5E45F0D106F1180BD9F804300B
:1081D000AB4225D005F1180CA3EB0C03DB081D4ABC
:1081E00002FB03F323F06043019303EB430306EB2D
:1081F000C30630365F4647B13C46ACF118050FCD9B
:108200000FC495E8030084E8030018370CF1180C3C
:10821000B742F0D1019B013303EB43030BEBC30BDC
:10822000BEF1000F02D0704602F0B8FAC9F8008023
:10823000C9F804B00AEB4A0A08EBCA03C9F80830C7
:1082400003B0BDE8F08F00BFABAAAAAAAAAAAA0AE7
:10825000A4FA0400ABAAAA0A84B070B586B0064698
:108260000BA880E80E00346D736D9C421FD034B1B2
:1082700005460FCD0FC495E8030084E80300336D75
:10828000183333650BA9684601F084F80023009A7F
:108290000A490B4804F0EEFC009802AB984201D06A
:1082A00002F07CFA06B0BDE8704004B070470BAA3B
:1082B000214606F14C00FFF729FFE3E7CCF9040063
:1082C000B8F9040070B582B0054669B10E46541A7B
:1082D00001940F2C0FD82868012C14D0ACB1224681
:1082E00031461FF064F910E012B9002301930CE04D
:1082F000094815F023FD002201A913F0B5FC286000
:10830000019BAB60E7E733780370019B6B602A68E1
:108310000021D15402B070BDD8F804002DE9F04F0F
:10832000E9B00646884693461CAC1A944FF0000309
:108330008A181AA8FFF7C6FFD6F88C301A9AA242FC
:108340004DD006F194018B4200F00882D6F89410CB
:10835000C6F88C201B9AC6F890201C9AC6F8942068
:10836000002B00F003821A931C9100231B931A9A8E
:1083700013701A981CAB984201D002F00FFAA94D65
:10838000002400942B46326B214606F12C0013F09A
:108390008FFE86F858403470B472F470F36C336515
:1083A00006F114031846059300942B46B269214642
:1083B00013F07EFE199419AB5A469B499B4804F072
:1083C00031FB049698F800506B1C1C44E4B265B96C
:1083D00008F101085C45F5D369B0BDE8F08F1AA932
:1083E00006F18C0013F0CDFCBFE798F8017008F19E
:1083F0000206013DEDB20DF164094B463A468C4947
:108400008A4804F06DFBCDF800902B46324689492E
:10841000864804F0C3FB072F00F0968010D9192F6F
:1084200058D02CD80A2F4DD0162F00F0B280092F2B
:1084300035D019AB3A4680497C4804F051FB46E000
:10844000032F08D8022F4BD2012FF2D198F8023017
:10845000049A93723BE0052F5CD938AF00231022B9
:108460003146384600F0FAFE3BAB93E807008DE852
:10847000070097E80E000498FFF7EEFE27E0212F93
:1084800000F02181FF2F71D0202FD2D1032D00F2D7
:10849000D98019AA6949654804F00AFA17E022AFA1
:1084A00020974FF000037219314620A8FFF70AFF0A
:1084B00020A90498FFF7F8FD2098B84207D002F0F1
:1084C0006DF904E098F902100498FFF70BFE06EB33
:1084D00005087FE7B8F802100498FFF7D5FDF6E726
:1084E0005FEA550AF3D0B14606EB4A0A26AF0DF112
:1084F000A40839F8021B384600F0DAFE98E80700B5
:108500008DE8070097E80E000498FFF7A5FED14517
:10851000EFD1DCE75FEA950AD9D0B14606EB8A0ACB
:108520002CAF0DF1BC0859F8041B384600F0C6FE0C
:1085300098E807008DE8070097E80E000498FFF719
:108540008BFECA45EFD1C2E732AF0023102231467D
:10855000384600F083FE35AB93E807008DE807004E
:1085600097E80E000498FFF777FEB0E740AF3E971C
:108570004FF00003721931463EA8FFF7A3FE3EA953
:10858000059813F0FEFB3E98B842A0D002F006F921
:108590009DE7012D40D9B8F8021044A800F088FEEC
:1085A0000DF11C0C44AF0FCFACE80F0097E80300AF
:1085B0008CE803000123049AD37002F1740C07AF16
:1085C000BE46BEE80F00049F7867CCF80410CCF8D4
:1085D0000820CCF80C30DEF80000CCF810009EF833
:1085E00004308CF81430022D7FF671AF08F10401CD
:1085F0004CAF4A97AA1E4FF000030A444AA8FFF75F
:1086000061FE4AA90498FFF766FD4A98B8423FF414
:108610005EAF02F0C3F85AE719AA0949034804F00B
:1086200047F954E728F50400C0FA0400B8F904003B
:10863000E0F90400E8F9040084FA040020FA0400D8
:10864000F0F90400D8F8021050A800F037FE0DF140
:10865000340C50AF0FCFACE80F0097E803008CE864
:1086600003000123049AD37002F1740C0DAFBE46CF
:10867000BEE80F00049F7867CCF80410CCF80820FF
:10868000CCF80C30DEF80000CCF810009EF8043076
:108690008CF81430042D7FF61AAF08F1060158AF9C
:1086A00056972A1F4FF000030A4456A8FFF70AFE08
:1086B00056A90498FFF70FFD5698B8423FF407AF4C
:1086C00002F06CF803E70F2D05D819AA29492A48AA
:1086D00004F0EEF8FBE60023102231465CA800F01F
:1086E000BDFD0DF14C0C5CAF0FCFACE80F0097E86F
:1086F00003008CE803000123049AD37002F1740C88
:1087000013AFBE46BEE80F00049F7867CCF8041094
:10871000CCF80820CCF80C30DEF80000CCF81000C3
:108720009EF804308CF81430102D7FF6D0AE08F18E
:10873000120164AF6297A5F110024FF000030A44E2
:1087400062A8FFF7BFFD62A90498FFF7C4FC629816
:10875000B8423FF4BCAE02F021F8B8E6C6F88C206F
:108760001B9BC6F890301C9BC6F894301CAB1A9328
:10877000FBE500BF50FA0400B8F9040008B54A68E8
:10878000436813441F2B00D908BD096813F014FD7A
:10879000FAE7000070B582B0044600F108030360F8
:1087A0000E684D6876B101950F2D10D82068012D07
:1087B00016D0C5B9019B636022680021D1542046C0
:1087C00002B070BD002DEED0094815F0B7FA0022B6
:1087D00001A9204613F048FA2060019BA360E5E759
:1087E00033780370E6E72A4631461EF0E0FEE1E703
:1087F000D8F8040084B0F0B5BBB0044641A880E8C6
:108800000E0000F065FD202871D0802800F0D78090
:10881000102804D03BB0BDE8F04004B070470323FB
:108820008DF80C308DF80D300CAD0A954FF000032B
:108830000DF10E0203A90AA8FFF744FD12AB109335
:108840004FF000030DF5857242A910A8FFF73AFD1D
:108850000B98119A81180A9BAB4214BF0C9D0F25EF
:10886000A94207D912AD109EAE4214BF129D0F252A
:10887000A9422BD910990AA813F09EFC054606AB15
:1088800004932E4656F8083BB34227D00493AB68B6
:1088900006936B6805932E6000236B602B7204A90E
:1088A0002046FFF76BFF049806AB984201D001F019
:1088B00075FF109812AB984201D001F06FFF0A9833
:1088C0000CAB9842A6D001F069FFA3E7009000220C
:1088D000114610A813F0ECFB0546D0E706AF2B4677
:1088E00053F8080F59689A68DB680FC7D1E705236A
:1088F0008DF80C308DF80D301EAD1C954FF0000337
:108900000DF10E0203A91CA8FFF7DCFC24AB229397
:108910004FF0000343AA42A922A8FFF7D3FC1D98F9
:10892000239A81181C9BAB4214BF1E9D0F25A942A0
:1089300007D924AD229EAE4214BF249D0F25A94223
:108940002CD922991CA813F037FC054618AB1693B6
:108950002E4656F8083BB34228D01693AB681893BE
:108960006B6817932E6000236B602B7216A920464C
:10897000FFF704FF169818AB984201D001F00EFFE4
:10898000229824AB984201D001F008FF1C981EAB3E
:1089900098423FF43FAF01F001FF3BE70090002217
:1089A000114622A813F084FB0546CFE718AF2B46EB
:1089B00053F8080F59689A68DB680FC7D0E711238E
:1089C0008DF80C3007238DF80D3030AD2E954FF01B
:1089D00000030DF10E0203A92EA8FFF773FC36ABBE
:1089E00034934FF0000346AA42A934A8FFF76AFC6B
:1089F0002F98359A81182E9BAB4214BF309D0F25BE
:108A0000A94207D936AD349EAE4214BF369D0F251C
:108A1000A9422CD934992EA813F0CEFB05462AABD7
:108A200028932E4656F8083BB34228D02893AB68CB
:108A30002A936B6829932E6000236B602B7228A900
:108A40002046FFF79BFE28982AAB984201D001F000
:108A5000A5FE349836AB984201D001F09FFE2E98C7
:108A600030AB98423FF4D6AE01F098FED2E60090CB
:108A70000022114634A813F01BFB0546CFE72AAFAE
:108A80002B4653F8080F59689A68DB680FC7D0E780
:108A900030B589B0054602238DF8043001238DF8E6
:108AA00005308DF8061004AC02944FF000030DF170
:108AB000070201A902A8FFF705FC02A92846FFF753
:108AC0005DFE0298A04201D001F068FE09B030BD01
:108AD000F0B58FB006460C4600230A6825492648A3
:108AE00004F0C8F8636801338DF8043009238DF869
:108AF00005300AAB08934FF000030DF1060201A9FF
:108B000008A8FFF7DFFB6268216808A813F054FB90
:108B1000044604AB0293054655F8083BAB421FD010
:108B20000293836804936368039325600023636062
:108B3000237202A93046FFF721FE029804AB984247
:108B400001D001F02BFE08980AAB984201D001F049
:108B500025FE00220949084803F0AAFE0FB0F0BD27
:108B600004AF034653F8080F59689A68DB680FC7CB
:108B7000D9E700BF1CFB0400ECFA040028FB04004A
:108B8000002202704C214170022181701521C170B8
:108B9000027542758275C275027642608260C2605B
:108BA0000261704770B582B000F10803036099B1AB
:108BB00004460E4619250195002201A913F054F828
:108BC0002060019BA36055B9019B6360226800216E
:108BD000D154204602B070BD034815F0AFF82A46C4
:108BE00031461EF0E4FCEFE7D8F804000B0203EB7B
:108BF0001121818270470B0203EB11210180704724
:108C00000B0203EB1121C182704784B070B586B0AE
:108C100006460BAC84E80E002146684600F076FB61
:108C20006D460FCD0FC495E8030044F8040B217086
:108C30000CAC0FCC7060B160F260336106B0BDE87F
:108C4000704004B0704770B50E46C468051DAC4254
:108C500009D03146206901F0B0FD204604F0D0FF74
:108C600004468542F5D170BD70B50E46C468051D39
:108C7000AC4209D03146206902F03BF8204604F0AE
:108C8000BFFF04468542F5D170BD000070B50E4DA2
:108C900000220E49284603F00BFE802001F074FDEF
:108CA0000646FEF7B1FD0A4C26600A4B19884A1C9D
:108CB0001A80304600F076F900220749284603F072
:108CC000F7FD206870BD00BF44FB040060FB04009A
:108CD000D4360020CC36002070FB0400084B1B6803
:108CE00013B1074B1868704710B5382001F04CFDE0
:108CF0000446FEF7FBF9024B1C60014B186810BDDF
:108D0000D036002010B50C4B1B683BB100220B493C
:108D10000B4803F0CDFD084B186810BD142001F07E
:108D200033FD0446FDF718FF034B1C600022054984
:108D3000034803F0BDFDE9E7B036002094FB0400D2
:108D400044FB040080FB040010B504468168FEF774
:108D5000A5FD204610BD71B110B40C461988238AB8
:108D60008B4226BF2246A468E468002CF7D1104647
:108D70005DF8044B704710467047F8B50546174636
:108D80008C6824B110884FF0000C01260AE00C1DFD
:108D9000CB68A3421BD0204604F046FF2146044680
:108DA0000CE01C46238A834287BFA3683246E368EF
:108DB0006246002BF5D1002AEAD12146228A3B885F
:108DC0009A4208D32C6000236B602846F8BD00232C
:108DD0002B606C60F9E700232B606960F5E72DE9F3
:108DE000F04782B006460D469846242001F0CCFCA0
:108DF000044610F1100708D0D8F800301B88038211
:108E0000002242618261C2610262A94606F1040841
:108E1000454513D0B4F810A02B8A9A4537D2F26892
:108E2000954250D0284604F0FFFE0246038A53457F
:108E300024D2C368002B4AD02A460EE0736923B1BE
:108E40003269118A238A994241D33A4631466846AB
:108E5000FFF793FFDDF80090019A002A42D001202D
:108E6000B9F1000F34D04346214604F0DFFE7369A8
:108E700001337361204602B0BDE8F0873A463146BF
:108E80006846FFF77AFFDDF80090019AE5E79A451A
:108E900028D9326995421AD0284604F0B1FE02461C
:108EA000038A534506D9EB680BB18146D5E7CDB1AE
:108EB0002A460FE03A4631466846FFF75EFFDDF886
:108EC0000090019AC9E79146C7E70120CBE742B17C
:108ED0009045FAD0208A138A98422CBF00200120A6
:108EE000C1E79146204601F059FC4846C3E72DE909
:108EF000F04383B00546884614466846FFF73DFFB9
:108F0000009B019E36B92B6000232B71284603B0CD
:108F1000BDE8F0830BB34FF00109242001F034FCCD
:108F2000074610F1100F08D0224632F8043B0382A6
:108F300000F114040FCA84E80F0008F1040332465C
:108F40003946484604F072FED8F814300133C8F8A8
:108F500014302F6001232B71D8E708F104039E42DF
:108F600009D0B4F80090338A99452CBF4FF000091E
:108F70004FF00109D1E74FF00109CEE708B50648E7
:108F8000002303718360021DC26002614361034AD2
:108F9000034903F0FBFE08BDB4360020D0300020AA
:108FA000498D020008B50180FEF75CFC08BD08B5DC
:108FB000FFF7A8FE08BD00002DE9F0438BB0054681
:108FC000914698460AAB23F81A1D00F10C07194682
:108FD0003846FEF773FC05F11006864234D004468D
:108FE000A0F81C90A0F81A80BDF84830C383BDF8E3
:108FF0004C3003840DF10E03324669693846FFF7A1
:10900000AAFE864204D0BDF80E20038A9A420BD2F3
:109010000AAB0DF10E0243F8042D08AA00920C4A87
:1090200001463846FFF7DBFE04AE00F1140595E873
:109030000F0086E80F00143494E80F0085E80F0055
:1090400096E80F0084E80F000BB0BDE8F08300BF86
:10905000A4FB04002DE9F0418AB0054690460AAB16
:1090600023F81A1D00F10C0719463846FEF726FCB6
:1090700005F1100686422CD00446A0F818800DF1A8
:109080000E03324669693846FFF765FE864204D012
:10909000BDF80E20038A9A420BD20AAB0DF10E02E4
:1090A00043F8042D08AA00920B4A01463846FFF700
:1090B00096FE04AE00F1140595E80F0086E80F0057
:1090C000143494E80F0085E80F0096E80F0084E858
:1090D0000F000AB0BDE8F081A4FB040010B58CB00D
:1090E00004460022CDF80A20CDF80E20ADF812205B
:1090F000ADF81C3001911723ADF8083001AB0FCB50
:109100000DF1300C0CE90F0007AA04F10C0105A8C1
:10911000FFF7EDFE0CB010BD70B50E46446A00F1CD
:109120001C05AC4209D03146206901F0DDFD204626
:1091300004F066FD04468542F5D170BD38B504469D
:10914000012303754B68042B24D0082B4BD0102B24
:109150006AD0242B76D10546102325F8143B0868E5
:109160000022835C2D2B08BF0132815C83185B7861
:10917000392984BF0739C9B2392B84BF073BDBB219
:1091800003F00F0343EA011305F8013D0232232ADD
:10919000E7D926E0022303800023838009680B7847
:1091A0004A78392B84BF073BDBB2392A84BF073AA0
:1091B000D2B21B01DBB202F00F0213431B02838009
:1091C0008A78C978392A84BF073AD2B2392984BF4C
:1091D0000739C9B21201D2B201F00F010A43134498
:1091E0008380204638BD0423038000234360096840
:1091F0000131182011F8013C0A78392B84BF073B54
:10920000DBB2392A84BF073AD2B21B01DBB202F0CB
:109210000F021343834062681344636008380231CD
:1092200010F1080FE6D1DCE70346102223F8132BD8
:109230000A68013A033012F8011F03F8011983424A
:10924000F9D1CEE700220349034803F031FB0023A4
:109250002375C6E7F0FB04001CFC040070B504464F
:1092600000202075102A0DD11022228083B104F134
:1092700013030139E01C11F8012F03F8012998426A
:10928000F9D10DE002460849084803F011FB09E056
:109290000E684D688868CA686660A560E0602261F3
:1092A00001232375204670BD24FC04001CFC04002F
:1092B000022202808180012202757047042202800E
:1092C000416001220275704700220275704700005C
:1092D00008B5037D8BB10288042A0AD0102A0AD06F
:1092E000022A0CD000230749074803F03DFB002069
:1092F00004E0202002E0802000E0002008BD1020D3
:10930000FCE700BFA8FB04001CFC040070B4064688
:109310000B7D1BB30B88102B20D0022B29D0042BE4
:109320002FD00023CB738B7310224A730B738020D2
:10933000C8728B724B7208725F23CB719B238B7147
:1093400034234B71FB230B710A8035460C460FCC3E
:109350000FC594E8030085E8030007E034460D4696
:109360000FCD0FC495E8030084E80300304670BCBD
:1093700070478B880022CA748A741A0A4A740B7464
:10938000CFE74B681A0ECA741A0C8A741A0A4A7408
:109390000B74C6E72DE9F041D8B005460B7D002BD4
:1093A00000F099810E4612A815F06EFAB64B129392
:1093B00000242E948DF8BC408DF8BD40309431943B
:1093C00032943394B14FBB68009353F80C3CFA6865
:1093D0004DF803200194009B53F80C0C214668447F
:1093E00005F05BF93B69029353F80C2C02AB7969E9
:1093F0009950029A52F80C0C2146184405F04DF988
:109400007B68009353F80C3CBA694DF80320A04BDD
:10941000009303F128021292143302939D4B03939D
:109420000494059406940794089409940AA804F0F7
:1094300023F8994B039318230B930EAB0C930D94C5
:109440008DF8384003A912A805F027F93388022BBC
:1094500000F04C81042B00F0EC81029951F80C2CA7
:1094600002AB1A44D36823F04A0343F00803D360E5
:1094700051F80C4C02AB1C4494F8753053B9E76FAB
:10948000002F00F07B823B7F002B00F079820123CC
:1094900084F87530302384F87430029B53F80C3C08
:1094A00002AA134402249C60F17C10460BF068FC75
:1094B0000346026852F80C2C13449C60B17C0BF0FC
:1094C0005FFC0346026852F80C2C13449C60717CCC
:1094D0000BF056FC0346026852F80C2C13449C60B7
:1094E000317C0BF04DFC80466C4F012239460BF06D
:1094F000BBFBD8F8003053F80C3C43449C60F17B34
:1095000040460BF03DFC0346026852F80C2C134415
:109510009C60B17B0BF034FC8046012239460BF095
:10952000A3FBD8F8003053F80C3C43449C60717B9B
:1095300040460BF025FC0346026852F80C2C1344FD
:109540009C60317B0BF01CFC8046012239460BF0FD
:109550008BFBD8F8003053F80C3C43449C60F17A04
:1095600040460BF00DFC0346026852F80C2C1344E5
:109570009C60B17A0BF004FC8046012239460BF066
:1095800073FBD8F8003053F80C3C43449C60717A6C
:1095900040460BF0F5FB0346026852F80C2C1344CE
:1095A0009C60317A0BF0ECFB0346026852F80C2CFD
:1095B00013449C60F1790BF0E3FB0346026852F818
:1095C0000C2C13449C60B1790BF0DAFB0346026863
:1095D00052F80C2C13449C6071790BF0D1FB0346BC
:1095E000026852F80C2C13449C6031790BF0C8FBD4
:1095F00005F108042C6000236B602B72089A002A86
:1096000000F0F6810698824240F2C881079954AE74
:10961000529652A8FDF78EFE2B68529AB24200F085
:10962000B8819C4200F00982A9682A60539A6A6056
:10963000549AAA60002B00F00582529354910023A3
:109640005393529A1370529854AB984201D001F040
:10965000A5F80F4B009303F12802129214330293E2
:109660000D4B03930C980EAB984201D001F096F885
:10967000084B03930AA804F0F7FC044B5A680092C5
:1096800052F80C2C99690BE0D003050090250500D9
:10969000C425050024040500CC240500ECFB0400CF
:1096A0004DF802101A69029252F80C2C586902A95E
:1096B00088509A68009252F80C2CDB684DF8023002
:1096C00000230193A94B129312A815F01DF9284607
:1096D00058B0BDE8F08100F108030360A4494FF0E1
:1096E00000030A460639FEF7EDFDF0E70422A14922
:1096F00002A80BF0B9FA029951F80C2C02AB1A44EB
:10970000D36823F04A0343F00803D36051F80C4CAC
:1097100002AB1C4494F8753043B9E76F002F47D073
:109720003B7F002B46D0012384F87530302384F82A
:109730007430029B53F80C3C02AA134404229A6032
:10974000B18802A80BF020FB1C228B490BF08CFA8D
:1097500005F108042C6000236B602B72089A002A24
:1097600062D00698824233D907993CAE3A963AA81D
:10977000FDF7E0FD2B683A9AB24224D09C4200F0FB
:109780003C81A9682A603B9A6A603C9AAA60002BD7
:1097900000F038813A933C9100233B933A9A13703E
:1097A0003A983CAB98423FF454AF00F0F7FF50E7D3
:1097B00014F0C1FA384612F020FA3B689B69202168
:1097C00038469847AFE73AA9284612F0DAFAE3E7B5
:1097D000079936AE34964FF00003024634A8FDF7E1
:1097E000A9FD2B68349AB24219D09C4200F00D8139
:1097F000A9682A60359A6A60369AAA60002B00F040
:1098000009813493369100233593349A1370349838
:1098100036AB98423FF41DAF00F0C0FF19E734A902
:10982000284612F0AEFAEEE70CA9284612F0A9FA83
:109830000FE7029951F80C2C02AB1A44D36823F0BD
:109840004A0343F00803D36051F80C4C02AB1C44AC
:1098500094F8753043B9E76F002F48D03B7F002B59
:1098600047D0012384F87530302384F87430029B8C
:1098700053F80C3C02AA134408229A6071680DEB5D
:1098800002000BF081FA1C223B490BF0EDF905F1C7
:1098900008042C6000236B602B72089A002A60D0A9
:1098A0000698824233D9079948AE469646A8FDF7F6
:1098B00041FD2B68469AB24224D09C4200F0AD8014
:1098C000A9682A60479A6A60489AAA60002B00F04B
:1098D000A9804693489100234793469A137046986F
:1098E00048AB98423FF4B5AE00F058FFB1E614F033
:1098F00022FA384612F081F93B689B6920213846EC
:109900009847AEE746A9284612F03BFAE3E70799E5
:1099100042AE40964FF00003024640A8FDF70AFD14
:109920002B68409AB24217D09C427ED0A9682A6028
:10993000419A6A60429AAA60002B7BD04093429180
:1099400000234193409A1370409842AB98423FF4F1
:1099500080AE00F023FF7CE640A9284612F011FA01
:10996000EEE70CA9284612F00CFA72E6D0030500C7
:10997000C2FB0400C4FB0400CCFB040014F0DBF9C0
:10998000384612F03AF93B689B69202138469847DF
:109990007DE552A9284612F0F4F950E607994EAE3B
:1099A0004C964FF0000302464CA8FDF7C3FC2B6811
:1099B0004C9AB24217D09C4247D0A9682A604D9A6F
:1099C0006A604E9AAA60002B44D04C934E910023BB
:1099D0004D934C9A13704C984EAB98423FF439AE6D
:1099E00000F0DCFE35E64CA9284612F0CAF9EEE795
:1099F0000CA9284612F0C5F92BE62A603B9B6B6048
:109A00003C9BAB603CAB3A93C6E62A60359B6B60EF
:109A1000369BAB6036AB3493F5E62A60479B6B60B0
:109A2000489BAB6048AB469355E72A60419B6B600F
:109A3000429BAB6042AB409382E72A60539B6B60D2
:109A4000549BAB6054AB5293F9E52A604D9B6B601D
:109A50004E9BAB604EAB4C93B9E700BF10DF704735
:109A600010B582B004460C49684600F065FD019BC4
:109A700063B11A6859682046904748B1684600F0BB
:109A800064FD019B002BF4D1002002E0002000E0E7
:109A9000112002B010BD00BF48FC040010B582B018
:109AA00004460949684600F047FD019B4BB11A681E
:109AB000596820469047684600F047FD019B002BFF
:109AC000F5D102B010BD00BF60FC040008B50E4B1C
:109AD00093F816335A09EC23134113F0010F0DD0FC
:109AE0000A4B9B682BB1094A136843F48003136047
:109AF00008E0054B4FF480021A6003E042F20200D6
:109B000000F02FFD08BD00BF00E100E03C37002061
:109B100010B582B01B4B1B786BBB1B4B01221A701C
:109B20000020FFF79DFF112829D00020FFF7B6FF86
:109B3000164B1B68019302A8002300F8053D00F0B6
:109B400039FD134901A8FFF789FF0446B0FA80F0F8
:109B500040090C4B18709DF8030000F057FD5CB9EC
:109B60000023094A13700B4A1370FFF7AFFF01205F
:109B7000FFF794FF00E00824204602B010BD002447
:109B8000FAE700BFD9360020D836002044FC040094
:109B900081A50200DA360020014B1878704700BF1B
:109BA000D936002000B583B00849684600F0C4FCEF
:109BB000019B43B11A6858689047684600F0C5FC9D
:109BC000019B002BF6D103B05DF804FB54FC0400AC
:109BD00008B5FFF7E7FF08BD60DF704769DF704732
:109BE00061DF7047154B1B7833B330B5ADF2144DC0
:109BF00040F20444124DADF802400DF1020103A8F9
:109C0000FFF7EEFF88B9294601A800F095FC029BFA
:109C1000002BF0D01A68596803A8904701A800F0FB
:109C200094FC029B002BF5D1E5E7052801D000F05C
:109C300098FC0DF2144D30BD704700BFDB3600209C
:109C40006CFC040000294CD0F0B585B00D460646EA
:109C5000254A0A6000240194029403948DF80400BC
:109C600001278DF806700623ADF8083001A92020E1
:109C7000FFF7B4FF0194029403948DF805702A68ED
:109C800001A94020FFF7AAFF0194029403948DF8E4
:109C900004604FF40073ADF806302A6801A9232050
:109CA000FFF79CFF0194029403948DF804702A68D6
:109CB00001A93846FFF792FF029403944FF4B06372
:109CC00001932A6801A9A120FFF788FF019402945B
:109CD00003942A6801A9A020FFF780FF204605B061
:109CE000F0BD0E20704700BFD030002008B5FFF750
:109CF00073FF034610B9024A01211170184608BDCE
:109D0000DB3600204BDF704710B584B00E4C01A845
:109D1000FFF7F8FF88B9214602A800F00DFC039B6D
:109D2000002BF4D01A6859680198904702A800F0F7
:109D30000CFC039B002BF5D1E9E7052801D000F0CE
:109D400010FC04B010BD00BF78FC04000649074AAF
:109D5000074B9B1A03DD043BC858D050FBDC00F0D6
:109D6000FBF9FCF76DFA000038440500D030002004
:109D7000D8330020FEE7FEE7FEE7FEE7FEE7FEE75A
:109D8000FEE7FEE7FEE7FEE708B50121112002F03D
:109D9000D1F908BD08B5184B186898B1174B1B7856
:109DA000BBB1174B186803685B6B16499847124B99
:109DB0001868FCF7FFFF144802F0DCFA0F4B002292
:109DC0001A7008BD0E4B186803685B6B0F49984703
:109DD000F7E7FCF70DFF0A4B186803685B6B0C494B
:109DE000984700224FF47A71074802F095FA034B26
:109DF00001221A70E5E700BFE0360020DC360020C3
:109E0000ACF5040018FD0400E4360020F0FC04006A
:109E10002CFD040008B50021112002F08BF900226E
:109E20000A21024802F058FA08BD00BF003700209E
:109E3000F0B5C3B0A14B1C6823685B6A03224FF4E2
:109E4000E13120469847204602F038F89C492046E8
:109E500002F03EF89B4D00212846FCF7EFFA012165
:109E6000112002F05FF90121112002F063F90022B4
:109E70009549964802F071FA00229549954802F0FA
:109E80006CFA954A00212846FCF7F4FA20AD1E959D
:109E900092494FF000030A461EA8FEF713FA1EA8C7
:109EA000FDF758F81E98A84201D000F077FCFEF7A5
:109EB000EDFEFFF77CF88A4B186017A8FEF760FEEE
:109EC0004FF4984117A8FEF796FE2CAE2A968549C6
:109ED0004FF000030A4624392AA8FEF7F3F924AD0F
:109EE0002AA92846FFF72AF927AB93E807008DE84F
:109EF000070095E80E0017A8FEF787FE2A98B042E3
:109F000001D000F04BFC4FF4817117A8FEF76EFEF4
:109F10004FF4417117A8FEF773FE13AB11930023A2
:109F200012938DF84C30042111A8FEF7B1FD0DAF4E
:109F30000B976A494FF000030A460BA8FEF7C2F9D7
:109F40000C9E751C0B9BBB4214BF0D9B0F239D42A7
:109F500000F28B800B9B1A229A550C950B9B0022CA
:109F60005A550C9E751C0DAB0B9A9A4214BF0D9B53
:109F70000F239D4200F282800B9BFF229A550C9585
:109F80000B9B00225A5517A930A8FEF70BFE319AF9
:109F900030990BA812F010F9309832AB984201D0EA
:109FA00000F0FCFB38AB36930B9E0C9D002E6ED060
:109FB00004950F2D70D83698012D76D0002D77D1CD
:109FC000049B379342A951F8302D0020D05411A89A
:109FD000FEF7D4FB369838AB984201D000F0DEFB98
:109FE00011A93F4B1868FCF707FF07AB0593002347
:109FF00006938DF81C303EAD3C953B490A46063928
:10A000003CA8FEF75FF93CA905A8FEF761FD3C9866
:10A01000A84201D000F0C2FB314D05A92868FCF729
:10A0200035FF00224FF47A71284802F075F928684C
:10A03000FCF7DEFD2D4B01221A702D49204601F060
:10A0400047FF059807AB984201D000F0A7FB0B989B
:10A050000DAB984201D000F0A1FB119813AB9842D0
:10A0600001D000F09BFB43B0F0BD0123009300231F
:10A070001A4631460BA811F0ABFE6BE701230093A3
:10A0800000231A4631460BA811F0A2FE74E7002DFA
:10A090008ED0184813F052FE002204A936A811F001
:10A0A000E3FD3690049B389385E73378037087E7A8
:10A0B0002A4631461DF07BFA82E700BFACF504006A
:10A0C00084FC040008340020159E0200E4360020C1
:10A0D000899D020000370020959D020028F50400AC
:10A0E000E0360020C8FC0400D2FC0400DC3600206E
:10A0F000D4FC0400D8F8040070B50A4C204602F0E5
:10A1000073F8094E094D32462946204602F03EFEBC
:10A11000074C204602F068F832462946204602F0F5
:10A1200035FE70BDE4360020D0300020F9C10200B9
:10A1300000370020BFF34F8F0549CA6802F4E06280
:10A14000044B1343CB60BFF34F8F00BFFDE700BF4D
:10A1500000ED00E00400FA0508B5B34B1B78062BB0
:10A160003BD0B14B1B78062B5CD0AF4B1B78062B3A
:10A170007DD0AD4B1B78062B00F0A280AA4B1B783C
:10A18000062B00F0B580A94B1B68062B00F0EA8077
:10A19000A74AD2F8883043F47003C2F88830BFF37E
:10A1A0004F8FBFF36F8F4FF01023D3F80C3213F0A3
:10A1B000010F40F0E2804FF01023D3F80032002B63
:10A1C000C0F2FC804FF01023D3F80432002BC0F211
:10A1D000F580984B984A1A6008BD984B1B6813F09D
:10A1E0000F0F13D1964B1B6803F0F002302A03D0F7
:10A1F00003F0E003402B09D1924B1B68C3F3042307
:10A20000914A1360884B1B78062B20D18B4B1B681F
:10A2100013F00F0F06D18A4B1B6803F0F003302BAD
:10A2200000F0F480854B1B6813F00F0F13D1844BA3
:10A230001B6803F0F002302A03D003F0E003402B48
:10A2400009D1824B1B68C3F34233814A1360764BBA
:10A250001B78062B23D1794B1B6813F00F0F06D107
:10A26000774B1B6803F0F003302B00F0D380734B67
:10A270001B6813F00F0F17D1714B1B6803F0F0022E
:10A28000302A03D003F0E003402B0DD14FF0804380
:10A290000022C3F80C21C3F81021C3F83825624B03
:10A2A0001B78062B40F0F480644B1B6813F00F0FF3
:10A2B00006D1634B1B6803F0F003302B00F0B08035
:10A2C0005E4B1B6813F00F0F06D15D4B1B6803F04C
:10A2D000F003302B00F0D080584B1B6813F00F0FA9
:10A2E00006D1574B1B6803F0F003502B00F0D680CB
:10A2F000524B1B6813F00F0F14D1514B1B6803F026
:10A30000F002302A03D003F0E003402B0AD1514B76
:10A310001B6803F04F03504A1360434B1B78062B16
:10A320007FF431AF454B1B6813F00F0F7FF42BAF59
:10A33000434B1B6803F0F002302A04D003F0E00323
:10A34000402B7FF420AF4FF08043D3F8003413F05C
:10A35000010F3FF418AF4FF080436FF00102C3F8D4
:10A36000002410E73D4B1B68062B7FF411AF3C4ADD
:10A37000136843F4806313600AE73A4B0122C3F881
:10A3800004251A46D2F80034002BFBD04FF01022DF
:10A39000D2F80C3223F00103C2F80C32314AD2F861
:10A3A0000034002BFBD02F4B0022C3F804251A46A3
:10A3B000D2F80034002BFBD0FFF7BCFE294B012262
:10A3C000C3F804251A46D2F80034002BFBD04FF016
:10A3D00010231522C3F80022224AD2F80034002BA1
:10A3E000FBD04FF010231522C3F804221D4AD2F8E7
:10A3F0000034002BFBD01B4B0022C3F804251A4667
:10A40000D2F80034002BFBD0FFF794FE164B174A0E
:10A410001A60A6E6164AD36823F08073D360A4E6D8
:10A42000144B03221A60A4E6E00F00F03001001084
:10A4300000ED00E0E83000200090D003E40F00F0D1
:10A44000E80F00F0240300104035014044020010E2
:10A450003C05004058020010E40E0040340100109A
:10A460003C17004000E0014074C007400DF0ADBA59
:10A47000F0ED00E0A00500402C4B05221A60783377
:10A4800001221A60703B00221A60043B3F221A60CE
:10A49000274B1B78062B3FF41FAF3EE74FF080524F
:10A4A000D2F80414234BC3F82015D2F80814C3F8CB
:10A4B0002415D2F80C14C3F82815D2F81014C3F8D8
:10A4C0002C15D2F81414C3F83015D2F81814C3F8A8
:10A4D0003415D2F81C14C3F84015D2F82014C3F870
:10A4E0004415D2F82414C3F84815D2F82814C3F838
:10A4F0004C15D2F82C14C3F85015D2F83014C3F808
:10A500005415D2F83414C3F86015D2F83814C3F8CF
:10A510006415D2F83C14C3F86815D2F84014C3F897
:10A520006C15D2F84424C3F8702527E61056004075
:10A53000E00F00F000C0004001600B6843604A6813
:10A54000934204BF002343607047436843B10268ED
:10A5500091680B4443605268934204BF00234360F8
:10A56000704700B585B0002101910291039001AAC6
:10A5700044F2010000F004F805B05DF804FB0000AF
:10A5800072B6094B1B6813F0010F00D000BEBFF379
:10A590004F8F0649CA6802F4E062054B1343CB6053
:10A5A000BFF34F8F00BFFDE7F0ED00E000ED00E0EE
:10A5B0000400FA05EFF3108272B6114B9B68C3B921
:10A5C00030B40F4901238B600E4BD3F880400E4D01
:10A5D0002C400C60C3F88050D3F884404C604FF09E
:10A5E000FF31C3F884100023037002B962B630BC97
:10A5F0007047012303700AB962B67047704700BF05
:10A600003C37002000E100E0FC06FFBD084B9B68E2
:10A610006BB160B9EFF3108172B6054B1868054A4B
:10A6200010605868506000229A6001B962B67047A5
:10A630003C37002000E100E041DF704710B5002406
:10A64000054B1C70054B1C60BFF35F8F0449054828
:10A65000FFF772FF204610BD243700202837002066
:10A6600040FD04001C37002000B583B002A8002381
:10A6700000F8013DFFF79EFFF1EE103A23F09F0333
:10A68000E1EE103ABFF35F8F094B4022C3F88421FB
:10A690009DF80700FFF7BAFFFFF77EFA28B920BF41
:10A6A00040BF20BF03B05DF804FBFFF7C5FFF9E72B
:10A6B00000E100E038B505460C4600F0A3F8114B68
:10A6C0001B7801335A4203F07F0302F07F0258BF28
:10A6D0005342DBB20C4A1278D2B29A420FD00949E7
:10A6E0000878C0B2094A42F83050087802EBC0023C
:10A6F00054600B70012400F08FF8204638BD002410
:10A70000F9E700BF2D3700202C370020A848002093
:10A7100038B50D4D2B78DCB200F074F82B7801338E
:10A720005A4203F07F0302F07F0258BF5342DBB26C
:10A730002B7000F071F8054B53F8342003EBC40381
:10A740005868904738BD00BF2C370020A84800202B
:10A7500038B5054600F056F828461CF06BFE044656
:10A7600000F05AF824B12A46002120461CF043FF8D
:10A77000204638BD10B5044600F044F820461CF0D1
:10A7800061FE00F049F810BD08B580B2FFF7E0FFA8
:10A7900008BD08B580B2FFF7DBFF08BD08B5FFF7BD
:10A7A000E9FF08BD08B5FFF7E5FF08BD08B5FFF7ED
:10A7B000E1FF08BD08B51CF08FF908B51C30FEF7A5
:10A7C00053FA08BD037ADBB2012B00D0704702298F
:10A7D00002D002230372F9E70323037270470000DB
:10A7E000BFF34F8F0549CA6802F4E062044B13437C
:10A7F000CB60BFF34F8F00BFFDE700BF00ED00E06F
:10A800000400FA0572B6034A13780133DBB2137001
:10A81000704700BF38370020034A1378013BDBB292
:10A82000137003B962B67047383700204FF0FF301D
:10A8300070474FF400534B60002070474FF0FF30DB
:10A84000704700207047000008B50C4B1B684BB1E7
:10A850000A4B19680B180A4A934207D8074A136033
:10A86000084608BD054B074A1A60F1E70246044B4B
:10A8700005481DF0ABFF4FF0FF31F1E73437002002
:10A88000B8BB0020B04C00204CFD0400FEE74FF0A8
:10A89000FF3070470120704770470000024B034AA9
:10A8A000C3F80026704700BF000001403546526ED5
:10A8B00038B50446194B0122C3F804251A601A461C
:10A8C000D2F80031002BFBD0144B0022C3F800213A
:10A8D000D3F8080580B21A46D2F80031002BFBD01D
:10A8E0000E4BD3F8082501255D6040EA022080B2B6
:10A8F0001DF0FCFF4FF08043D3F800242262C3F820
:10A90000002403F510430022C3F80425C3F81025E2
:10A910000322C3F808251D6038BD00BF00D00040E9
:10A9200008B5034B01225A60FFF79EFE08BD00BF29
:10A930000090004038B504461546104B0360416056
:10A940000F4B83604FF0FF33C36001230374143057
:10A9500002F014FA0B4B03F10802226038336361F2
:10A960000C2384F82430A56200220023C4E90C23C0
:10A97000C4E90E2300232364204638BD88FD04006B
:10A980000024F400A0FD0400002863D02DE9F04B62
:10A990000646FFF737FF314DD5E90E23C6E9002300
:10A9A00001F0F8F980464FF000092B6C984247D32C
:10A9B000C41A69F10005FFF72FFF01F009FA6901D8
:10A9C000620141EAD463121B63EB0503590241EAB9
:10A9D000D25157023A1941EB05034FEA831C4CEA66
:10A9E000926C4FEA821BBBEB02086CEB0309024638
:10A9F000002318EB040049EB05011BF0EDFEB060ED
:10AA0000174B83FB0023C217D2EBA34310D0D6E928
:10AA10000045E11845F10002C6E90012104A82FB28
:10AA20000032C317C3EBA2430E4A02FB1300B0600F
:10AA30000D4C96E80F0084E80F000020BDE8F08B75
:10AA400001F0C9F9054B1B6CC01A18EB000449F161
:10AA50000005B0E74FF0FF30704700BF083400201A
:10AA600083DE1B4340420F00D8FB00202DE9F04756
:10AA700084B08A46914698460C9F0D9E0E9D0F9C71
:10AA800000216846FFF780FF68461CF0C9FA02689B
:10AA90004168D0F808C0D0F80CE00369BAF1000FA3
:10AAA00004D0406900F26C70AAF80000B9F1000F00
:10AAB00002D0013389F80030B8F1000F01D088F8D6
:10AAC00000E00FB187F800C006B1317005B12A70FF
:10AAD0000CB1029B236004B0BDE8F087A0F1140024
:10AAE000FFF7C4BF2DE9F0438FB006468946904674
:10AAF0001F4600210AA8FFF747FF0AA81CF090FA9A
:10AB000001AC05460FCD0FC40FCD0FC42B682360D9
:10AB1000CDF80C90CDF808800EA840F8347D1CF0DC
:10AB20004DFEDDE90A23904271EB030303DA044A88
:10AB3000002380185941C6E90C010FB0BDE8F0832D
:10AB400080510100A0F11400FFF7CCBF31B3F0B584
:10AB500085B00C46054600216846FFF715FFD5E98C
:10AB60001267DDE90023921B63EB070310461946C9
:10AB7000C4E900012A6D029B9B1AA360002B01DB34
:10AB800005B0F0BD10F1FF3641F1FF37C4E90067B1
:10AB900003F5742303F51073A360F1E77047A0F188
:10ABA0001400FFF7D3BF0000002869D02DE9F04F53
:10ABB00087B0044680684FF4004300930023324A74
:10ABC0001946C0F5742000F5107001F08BF90646A7
:10ABD000002102A8FFF7D8FE2C4FD7E91289DDE942
:10ABE0000223B2EB080263EB090392469B46049DE5
:10ABF0003B6DED1A23D4FFF705FED4E9002323496A
:10AC0000C1E90E23202E23D8D4E90001B0EB0A00BD
:10AC100061EB0B0106460F461C4AC2E91267A368A6
:10AC20005B1B1365002B1FDBFFF7F6FD184D94E847
:10AC30000F0085E80F00002007B0BDE8F08F12F18B
:10AC4000FF3A4BF1FF3B05F5742505F51075D2E78A
:10AC500001F0A0F80644304601F0CEF801F0B8F853
:10AC6000361A0A4B1E64CFE710F1FF3041F1FF3175
:10AC7000C2E9120103F5742303F510731365D3E7DA
:10AC80004FF0FF30704700BF40420F0008340020F3
:10AC9000D8FB002010B58EB0139CA1F26C710A9104
:10ACA000013A099208939DF8403007939DF844308B
:10ACB00006930EA89DF8483040F8243D1CF07EFD18
:10ACC000CDE90001054B9C4288BF0024029400217D
:10ACD0006846FFF769FF0EB010BD00BF3F420F008E
:10ACE000A0F11400FFF7D6BF08B50430FDF7ABFFA5
:10ACF00008BD704710B50446FFF71CFE024B2360E9
:10AD000030336361204610BDF4FD040083680422E3
:10AD1000C3F8082383680022C3F808218368C3F8B6
:10AD20001C158268D2F80831002BFBD00023C2F832
:10AD300008318368D3F81805C0B2704738B50446A7
:10AD400083680025C3F80055294690F90C0000F0EF
:10AD5000FFFA294694F90D0000F0FAFA294694F911
:10AD60000E0000F0F5FA38BD70B504460E461546E3
:10AD700001F030FA012194F90C0000F0E9FA012108
:10AD800094F90D0000F0E4FA002194F90E0000F0AF
:10AD9000DFFAA268314B94F90C1013F82110C2F8B5
:10ADA0000815A26894F90D1013F82110C2F80C15BB
:10ADB000A26894F90E1013F82130C2F81035284B10
:10ADC0009E421BD9A3684FF00042C3F824250035EA
:10ADD00018BF0125204601F0FFF908B145F0040530
:10ADE000204601F0FDF908B145F00205A368C3F85B
:10ADF0005455A3680122C3F8002570BD194B9E422B
:10AE000005D9A3684FF08042C3F82425DFE7164B2D
:10AE10009E4205D9A3684FF00052C3F82425D6E717
:10AE2000124B9E4205D9A3684FF08052C3F82425E7
:10AE3000CDE70F4B9E4205D9A3684FF00062C3F8DF
:10AE40002425C4E70B4B9E42A3688CBF4FF0806261
:10AE50004FF00072C3F82425B9E700BF04F60400E0
:10AE6000FF117A00FF083D007F841E003F420F0063
:10AE70001FA107008FD0030030B4054D056081602D
:10AE80009DF9081001734273837330BC704700BF93
:10AE900040FE0400437C3BB9836C0422C3F80423C6
:10AEA000826C0123136043747047437C43B1836C0D
:10AEB0000422C3F80823836C01225A6000234374E0
:10AEC0007047000030B4012416491BE0836C9C607D
:10AED000438D9BB2826C456AEB5CC2F81C35826C78
:10AEE000D2F81C31002BFBD0438D5A1C058C92FBF1
:10AEF000F5F305FB13239BB24385438D028D9BB273
:10AF0000934207D0EFF31083012BDFD00B78002B97
:10AF1000F3D0DBE7836C8022C3F808230023C374DB
:10AF200030BC70473837002038B590F95030002BCE
:10AF3000C0F2888090F95120002AC0F2838001225B
:10AF400002FA03F34FF0A042C2F8083590F95030EE
:10AF500003F5E073032442F8234090F9513003F5E0
:10AF6000E0730C2442F82340836C90F95020C3F81E
:10AF70000C25836C90F95120C3F81425B1F5966F18
:10AF800032D0B1F5166F5ED0B1F5965F61D0B1F5F4
:10AF9000165F63D0B1F5615F65D0B1F5964F68D0AB
:10AFA000B1F5E14F6AD0B1F5164F6CD0B1F5614FF4
:10AFB0006ED0B1F5963F70D0B1F5E13F72D0B1F5EA
:10AFC000613F74D0474B994276D0B1F5E12F79D0EB
:10AFD000B1F5612F7BD0444B994233D1836C4FF054
:10AFE0008052C3F8242504E0836C4FF49E22C3F8FA
:10AFF00024250446836C0025C3F86C55836C042219
:10B00000C3F80025836CC3F80851836CC3F81C5146
:10B01000826C4FF0FF33C2F80835826CC2F81035ED
:10B02000836C01229A6031490A201BF03FFEE064E4
:10B030002B46022229461DF08DFC637C002B4BD150
:10B040000123237438BD836C4FF41D22C3F82425DB
:10B05000CFE7836C264AC3F82425CAE7836C254AC8
:10B06000C3F82425C5E7836C4FF46C12C3F824257C
:10B07000BFE7836C204AC3F82425BAE7836C1F4AD4
:10B08000C3F82425B5E7836C1D4AC3F82425B0E72F
:10B09000836C1C4AC3F82425ABE7836C1A4AC3F8B7
:10B0A0002425A6E7836C194AC3F82425A1E7836CFD
:10B0B000174AC3F824259CE7836C4FF08062C3F8DD
:10B0C000242596E7836C134AC3F8242591E7836C03
:10B0D000114AC3F824258CE72368DB6A2046984789
:10B0E000AEE700BF90D0030040420F004CFE0400CA
:10B0F00000B013000050270000A04E0000F07500C3
:10B1000000509D0000F0EB0000903A0100E0D701F4
:10B1100000B0AF0300705F0700D0BE0E38B5044624
:10B1200000250574836CC3F8005590F950204FF04A
:10B13000A04302F5E072032043F8220094F9501076
:10B14000012202FA01F1C3F80C1594F9511001F52E
:10B15000E07143F8210094F951108A40C3F80C259E
:10B16000E06C1BF079FDE56438BD0EB400B582B02B
:10B1700003AA52F8041B0192C06C1CF0C1FE02B07D
:10B180005DF804EB03B07047F8B504460F46164669
:10B190001D46BDF81C20BDF8181000F02FFF064B0F
:10B1A0002360A7640023E36484F8506084F851505E
:10B1B00084F852302046F8BD58FE0400438D5A1CD6
:10B1C000018C92FBF1F301FB13239BB24385038DAA
:10B1D000428D9BB293420ED0836C01229A60438DC4
:10B1E0009BB2826C416ACB5CC2F81C35836C8022B6
:10B1F000C3F804237047836C8022C3F8082300231C
:10B20000C3747047037C43B12DE9F0410E460446F8
:10B2100005464FF00008214F06E000207047A36C60
:10B22000D3F81C21012A0CD023689B682846984734
:10B2300068B9EFF31083012BF1D03B78002BF3D0EA
:10B24000EDE7C3F81C812846FFF7B8FFECE7FFF7EE
:10B25000D9FAB4F828801FFA88F8678DBFB2314652
:10B26000284600F077FEB84504D0FFF7D5FA012054
:10B27000BDE8F081E37C002BF7D10123E374A26CDD
:10B280008021C2F80413A26C9360638D9BB2A26C00
:10B29000616ACB5CC2F81C35E7E700BF3837002095
:10B2A00010B50446836CD3F8082122B9A36CD3F8F7
:10B2B0001C2152B910BD0022C3F80821836CD3F8B9
:10B2C0001815C9B200F0D9FEF0E70022C3F81C211E
:10B2D0002046FFF773FFEDE7826C0123D36180F80E
:10B2E00052307047037C63B190F852304BB1836C9D
:10B2F00001229A60437C0BB1836C1A60002380F8B2
:10B3000052307047104B13F820301B020B2912D01B
:10B310000C2913D00A2908BF43F4403343F001033A
:10B32000094A02EB800090F9012002F5A272074958
:10B3300041F82230704743F00113F1E743F4003342
:10B3400043F00103ECE700BF04F604000060004096
:10B35000002836DB39B1012910D0022919D0032980
:10B3600023D000207047184B13F8203003F5E0730A
:10B370004FF0A04242F8231001207047124B13F8FF
:10B38000203003F5E07301204FF0A04242F8230083
:10B3900070470D4B13F8203003F5E0734FF0A042D7
:10B3A0000C2142F8231001207047074B13F820307E
:10B3B00003F5E0734FF0A042042142F8231001206E
:10B3C00070470020704700BF04F60400002816DB19
:10B3D00051B10C4B13F82030012000FA03F34FF069
:10B3E000A042C2F808357047064B13F82030012000
:10B3F00000FA03F34FF0A042C2F80C35704700206A
:10B40000704700BF04F60400031E0ADB4FF0A042A1
:10B41000D2F81005044A12F82330D84000F0010099
:10B4200070474FF0FF30704704F604002DE9F843F1
:10B43000051E3ADB204C04EB850494F901C0BCF1F5
:10B44000000F35DB98460E461C4F4FEA8C0404EB88
:10B450000C0307EBC3034FF0000983F80390C3F814
:10B4600004901146E8B2FFF74DFF134800EB850545
:10B4700095F9012002EB8203DB00F91807F803902D
:10B4800081F801804E6046B1012303FA02F20C4BB1
:10B49000C3F804234846BDE8F883012303FA02F207
:10B4A000074BC3F808230020F5E76FF00200F2E72E
:10B4B0006FF00400EFE700BF04F60400C83400207A
:10B4C00000600040094B99420AD8094B9942036D2C
:10B4D0008CBF4FF080624FF0CC72C3F824257047C8
:10B4E000036D4FF0CD62C3F8242570477F1A060024
:10B4F0008FD0030010B5036D114A90F9541012F863
:10B50000211090F9554012F82420C3F80815C3F80B
:10B510000C25036DD3F82425B2F1CD6F0DD0D3F8EF
:10B520002425B2F1806F08D0D3F82425B2F1CC7F66
:10B530001CBF4FF0CC72C3F8242500F03FFE10BDB5
:10B5400004F6040030B442F2107585800025857140
:10B55000C571057280F8295080F82A5080F84B5048
:10B5600080F84C50044D0560016580F8542080F847
:10B57000553030BC704700BF98FE040010B4036D16
:10B58000134A90F9541012F8211090F9554012F80E
:10B590002420C3F80815C3F80C25036DD3F824251F
:10B5A000B2F1CD6F0DD0D3F82425B2F1806F08D061
:10B5B000D3F82425B2F1CC7F1CBF4FF0CC72C3F876
:10B5C0002425036D0522C3F800255DF8044B704760
:10B5D00004F6040082B0026DD2F80431002BFBD0D7
:10B5E0000023C2F80431D2F804210192019A026DBD
:10B5F000C2F80035026DC2F8FC3F036DD3F8FC2F92
:10B600000122C3F8FC2F02B0704708B5036D012278
:10B610005A61FFF7DFFF08BD90F84C30002B00F0B7
:10B62000C1802DE9F04F8BB089460446026D00239E
:10B63000C2F80431D2F804210492049A026DC2F8CF
:10B640002431D2F824210392039A026DC2F81C31EE
:10B65000D2F81C210292029A026DC2F80831D2F887
:10B6600008210192019A026DC2F80032037A002B80
:10B670003FD000230372002384F84B30A58806A92D
:10B680004E48FFF763FA4E49A1FB053189098EB296
:10B690000027DDE9062316EB020A47EB030B4FF404
:10B6A0007A7303FB1155ADB2089A03FB0525454B90
:10B6B0009D4207DD1AF1010A4BF1000BA5F5742537
:10B6C000A5F51075226D01231362226D936094F825
:10B6D0004B3094F84C209A424AD9DFF8E080226D32
:10B6E000591C84F84B10234493F82B30C2F81C35B6
:10B6F0000EE0FFF743FF236D94F84D20C3F8882533
:10B70000B9E7089BAB42D4BF00230123002B4BD1E8
:10B71000236DD3F81C2182B906A94046FFF716FA1B
:10B72000DDE906235B4508BF5245EAD092457BEB35
:10B730000303B4BF01230023E8E7D3F8C424C3F80C
:10B74000C42412F0020F33D112F0040F32D112F0E0
:10B75000010F31D1236D0022C3F81C21D3F81C3115
:10B760000593059B94F84B3094F84C209A42B6D838
:10B77000B9F1000F0DD0236D01225A61002584F824
:10B780004B5084F84C50A5712046FFF723FF284604
:10B790000BE001232372002084F84B0084F84C0056
:10B7A000A07102E00420704704200BB0BDE8F08FC8
:10B7B0000220FAE70320F8E70420F6E70834002027
:10B7C000D34D62103F420F00202A00F2B3802DE9D2
:10B7D000F04F87B0994615460E460446037A002B73
:10B7E0004AD000230372002384F82930EAB284F897
:10B7F0002A20012A236D0CBF02220122C3F8002255
:10B80000A58802A95048FFF7A1F95049A1FB0531CD
:10B8100089098EB20027DDE9022316EB020A47EB05
:10B82000030B4FF47A7303FB1155ADB2049A03FB7B
:10B830000525474B9D4207DD1AF1010A4BF1000B2C
:10B84000A5F57425A5F51075226D01231362226DEF
:10B850001360DFF8F48094F8292094F82A309A4293
:10B8600016D3B9F1000F67D101232372002384F8A6
:10B87000293094F82A0027E0FFF780FE236DC3F8F3
:10B880008865B0E7049AAA42D4BF00220122A2B977
:10B89000236DD3F80821D2B902A94046FFF756F923
:10B8A000DDE902235B4508BF5245EBD092457BEBB7
:10B8B0000303B4BF01220022E9E794F8290084F8C9
:10B8C0002A00002384F8293007B0BDE8F08FD3F8B0
:10B8D000C424C3F8C4242ABB226D94F82930591C0F
:10B8E00084F82910D2F81815234459720023C2F89D
:10B8F0000831D2F808310193019B94F8292094F87B
:10B900002A309A42A7D2236D01221A6294F8292084
:10B9100094F82A30013B9A429DD1236D0222C3F84C
:10B92000002298E794F8290084F82A00002384F87C
:10B930002930C9E700207047002384F829302046C9
:10B94000FFF748FE95E700BF08340020D34D621092
:10B950003F420F0001220B4B1A6090F947100A4B2F
:10B9600013F821301B0243F4003313430749C1F895
:10B970002C358023C1F80433054BC3F804254274E9
:10B98000704700BF00A0014004F6040000600040C2
:10B9900000F0014090F94720094B13F822301B02B8
:10B9A00043F40033074AC2F82C35012302F5C832AC
:10B9B000C2F8083500224274034A5360704700BF42
:10B9C00004F604000060004000A0014070B5044689
:10B9D000234BB3FBF1F1A0F84810022190F9470086
:10B9E000FFF7B6FC012194F94600FFF7B1FC0121F5
:10B9F00094F94600FFF7EAFC1A4B01265E60DE6010
:10BA00000025C3F80455C3F80855C3F8105594F938
:10BA10004720154B13F822301B0243F40033134A1E
:10BA2000C2F82C358023C2F80833114B02F58E7210
:10BA3000C3F8102502F59F3202F59272C3F814255F
:10BA4000C3F808650B490B201BF030F9E0642B4666
:10BA5000022229461CF07EFF6574267470BD00BF6B
:10BA60000024F40000A0014004F60400006000403F
:10BA700000F001404CFE040010B50446064B0122C4
:10BA80005A60DA6003681B6B9847E06C1BF0E4F8BF
:10BA90000023E36410BD00BF00A001400EB400B558
:10BAA00082B003AA52F8041B0192C06C1CF028FA61
:10BAB00002B05DF804EB03B07047000070B50446B7
:10BAC0000E461546BDF81020194600F097FA054BB2
:10BAD000236084F8466084F847500023E3642046DE
