:020000022000DC
:10600000B8FB0020E9A1020011A20200B96502005C
:1060100015A2020017A2020019A20200000000004F
:106020000000000000000000000000001BA20200B1
:106030001DA20200000000001FA2020021A2020017
:1060400023A2020023A20200FD66020023A2020096
:1060500023A2020023A202000166020023A2020082
:1060600023A2020023A202006567020023A202000D
:1060700023A2020023A2020023A2020023A2020004
:10608000D56502001567020023A2020023A20200C8
:1060900023A2020023A202006DA0020023A202009C
:1060A00023A2020023A2020023A2020023A20200D4
:1060B00023A2020023A20200000000000000000052
:1060C00023A2020023A2020023A2020023A20200B4
:1060D00023A2020023A2020023A20200000000006B
:1060E00000000000000000000000000000000000B0
:1060F00000000000000000000000000000000000A0
:10610000000000000000000000000000000000008F
:10611000000000000000000000000000000000007F
:10612000000000000000000000000000000000006F
:10613000000000000000000000000000000000005F
:10614000000000000000000000000000000000004F
:10615000000000000000000000000000000000003F
:10616000000000000000000000000000000000002F
:10617000000000000000000000000000000000001F
:10618000000000000000000000000000000000000F
:1061900000000000000000000000000000000000FF
:1061A00000000000000000000000000000000000EF
:1061B00000000000000000000000000000000000DF
:1061C00000000000000000000000000000000000CF
:1061D00000000000000000000000000000000000BF
:1061E00000000000000000000000000000000000AF
:1061F000000000000000000000000000000000009F
:1062000010B5054C237833B9044B13B10448AFF3F0
:1062100000800123237010BDD8330020000000004F
:106220004C48050008B5034B1BB103490348AFF3C5
:10623000008008BD00000000DC3300204C48050051
:10624000154B002B08BF134B9D46A3F5803A002148
:106250008B460F461348144A121A21F054FB0F4B79
:10626000002B00D098470E4B002B00D09847002001
:10627000002104000D000D48002802D00C48AFF3A7
:10628000008021F015F92000290000F013F820F01B
:1062900005FE00BF00000800B8FB00200000000061
:1062A00000000000D8330020704C002000000000E7
:1062B000000000002DE9F84F72B62C4C204600F08B
:1062C000E5FA62B6204604F075FD04F035F9DFF812
:1062D000A4B0DFF8A4A0A0463FE002B1904740463A
:1062E00004F068FDAC4218D004342268002AF9D0CA
:1062F0001388002BF6D0013B9BB21380002B18BFF4
:10630000012623689A68D86893F802C0BCF1000F90
:10631000E3D0C3F804902760DFE79BF800309AF8D9
:106320000020DBB2934208D1A6B1114C04F18005E4
:1063300000264FF0FF393746D6E704F075FC40469B
:1063400004F038FD9BF800309AF80020DBB293424D
:10635000EBD1E9E7054B1B7C1BB9404604F02AFD55
:10636000E3E7024800F0CAFBF7E700BF083400206B
:1063700008370020F0360020F136002008B5FE2155
:10638000014806F089FA08BDF4330020704710B5C3
:106390000446082104F092FC204610BD10B582B0DE
:1063A000074C002100910B460A46204606F0E8FA09
:1063B000044A0549204606F071FE02B010BD00BF38
:1063C000FC330020D03000208D63020008017047AC
:1063D000080970470268084B1A6042685A60826870
:1063E0009A60C268DA6002691A6142695A61826918
:1063F0009A61C269DA617047B8FB00207047704744
:1064000008B5034B01221A60024805F0FDF908BDEA
:10641000009000405836002010B50446002205497F
:1064200004F0FAFE044B03F1080222603833636182
:10643000204610BD0090D003C8F80400032900D9FD
:10644000704708B50B460021024AD05605F050FAB5
:1064500008BD00BFC4F80400032900D9704708B57F
:106460000B460121024AD05605F042FA08BD00BF92
:10647000C4F80400032900D9704710B51446084633
:1064800000230C222146024C205605F061FA10BD73
:10649000C0F804002DE9F8439046012827D00A28C7
:1064A00027D00B2818BF4FF0FF381DD1124DB8F17F
:1064B000000F17DD4C1E04EB08074FF00D0906E036
:1064C0002B681B68317828469847BC420CD00134B1
:1064D000264623780A2BF3D12B681B6849462846A9
:1064E0009847EDE74FF000084046BDE8F883034DBC
:1064F000DDE7024DDBE700BF0836002058360020FC
:106500000020704710B503681F4C23604368636028
:106510008368A360C368E3600369236143696361BF
:106520008369A361C369E361184822F05FFB2168B6
:10653000174822F0D3FA6168164822F0CFFAA16812
:10654000154822F0CBFAE168144822F0C7FA216915
:10655000134822F0C3FA6169124822F0BFFAA16918
:10656000114822F0BBFAE169104822F0B7FAEFF3C4
:1065700008810F4822F0B2FA0E480368DB6898479A
:1065800004F0BAFB10BD00BFB8FB00201CF80400EB
:106590002CF804003CF804004CF804005CF80400FB
:1065A0006CF804007CF804008CF804009CF80400EB
:1065B000ACF804005836002004207146084203D08D
:1065C000EFF30980FFF79EBFEFF30880FFF79ABF54
:1065D00070470000084BD3F8003163B1064B00222E
:1065E000C3F800211EF0040F0CBFEFF30880EFF397
:1065F000098002490847704700000140D563020046
:1066000000B585B03A48FFF7FBFE0021684604F06C
:106610004DFC384BD3F800311BBB364BD3F804315B
:1066200043BB344BD3F808316BBB324BD3F80C313E
:10663000002B31D12F4BD3F81031002B35D12D4BFE
:10664000D3F81431002B39D12A4BD3F81831002B51
:106650003DD1284BD3F81C31002B41D105B05DF85A
:1066600004FB0020234BC3F800010246694605F0F5
:10667000DDFFD2E700221F4BC3F804216946012049
:1066800005F0D4FFCDE700221A4BC3F80821694674
:10669000022005F0CBFFC8E70022164BC3F80C21FF
:1066A0006946032005F0C2FFC4E70022114BC3F87E
:1066B00010216946042005F0B9FFC0E700220D4B08
:1066C000C3F814216946052005F0B0FFBCE700229D
:1066D000084BC3F818216946062005F0A7FFB8E764
:1066E000054805F093FC034B0022C3F81C21B5E7D5
:1066F00008340020006000400836002008B5034838
:10670000FFF77EFE024805F05DF808BD0834002062
:106710005836002010B5114C2046FFF771FE0021BD
:106720002046FFF78BFE0E4BD3F8403143B90C4B9C
:10673000D3F844315BB900210848FFF78DFE10BD46
:10674000074B0022C3F8402105F0CEFDF3E7044BD0
:106750000022C3F8442105F0D9FDECE708340020FD
:106760000010014008B51B48FFF74AFE1A4BD3F84A
:10677000403143B1184B0022C3F84021174BB3F905
:106780000430934221DA144BD3F844311BB1124B3D
:106790000022C3F84421104BD3F848311BB10E4BF3
:1067A0000022C3F848210C4BD3F84C3163B10A4B9B
:1067B0000022C3F84C21094BB3F90430934203DBA8
:1067C0001146162005F094F808BD0121162005F0A9
:1067D0008FF8D8E70834002000A00040D430002013
:1067E00010B50446542104F069FA204610BD10B5D6
:1067F0000446502104F062FA204610BD70B582B004
:10680000184D402401940094082306221649284676
:1068100004F04CFF154E32461549284606F03EFC62
:10682000144D009423460B220C21284605F0D8FB7A
:1068300032461149284606F031FC192300931823EB
:1068400017220E490E4804F0A9FD1A231B224FF00F
:1068500040210C4805F008F90B48FFF7DDFD02B0B8
:1068600070BD00BF5836002000200040D03000200E
:10687000FD63020008360020FF6302000030004084
:1068800060340020703400200834002030B583B01C
:10689000044604F099FA914B1A6822F002021A6039
:1068A0001A6822F001021A6003F54F634FF000628C
:1068B0005A60A3F540634FF48032C3F88021402230
:1068C00083F8102393F810335A09EC23134113F083
:1068D000010F08D0824B9B68002B40F0E080814B79
:1068E0004FF480321A600121112004F0C3FF01210E
:1068F000122004F0BFFF0121132004F0BBFF01218F
:10690000142004F0B7FF00212046FFF7A5FD012168
:106910002046FFF7A1FD02212046FFF79DFD032140
:106920002046FFF799FD02210D2004F0A3FF02216C
:106930000E2004F09FFF02210F2004F09BFF022194
:10694000102004F097FF674B4022C3F8802160229B
:1069500083F8062393F806335A09EC23134113F006
:10696000010F07D05E4B9B68002B40F09E805D4B73
:1069700040221A605B4B0422C3F88021602283F816
:10698000022393F802335A09EC23134113F0010F49
:1069900007D0534B9B68002B40F08D80514B042255
:1069A0001A60514D2868002302221946806822F09F
:1069B00059F92868002302221946406822F052F94A
:1069C0002868002302221946C06822F04BF94FF0D4
:1069D00080420123C2F87835C2F8183502F5827278
:1069E0000021116012680192019A404A1360FC3242
:1069F0001368002BFCD001233D4A1360043213605E
:106A0000384B4FF40032C3F88021602283F8112301
:106A100093F811335A09EC23134113F0010F07D0F7
:106A20002F4B9B68002B4CD12E4B4FF400321A6039
:106A3000304B01221A6005F00FFC002104F14800E0
:106A400004F034FA274B4FF48062C3F880214022CF
:106A500083F80A2393F80A335A09EC23134113F0FD
:106A6000010F07D01E4B9B68002B30D11D4B4FF4FC
:106A700080621A600121162004F0FCFE002116201D
:106A800004F036FF1C4B4FF40022C3F8042501220A
:106A9000C3F804231A6004F05DF803B030BD104A57
:106AA000136843F4803313601DE70D4A136843F005
:106AB000400313605EE70A4A136843F0040313605F
:106AC0006FE7074A136843F400331360B0E7044AE2
:106AD000136843F480631360CCE700BF10E000E06C
:106AE0000037002000E100E0703100200800004085
:106AF000041001400010014000000140037C03B974
:106B0000704710B504460F4805F028FD38B10D4810
:106B100005F026FDA8B90B4805F027FD88B90A48FD
:106B200005F01CFD50B1084805F01AFD48B90648AB
:106B300005F01BFD28B9044804F060FE204604F06F
:106B40007BF910BD083600205836002072DF7047F0
:106B500073DF704710B50446002303604360836011
:106B6000C36003744374012383744FF4047004F00E
:106B700097F880B303462060FF2202700121017163
:106B8000427902F0FE026FF34102427100228260FC
:106B90004FF44860D8601A829A74C3F81320DA75EB
:106BA0001A7659769A76D97E01F0F00141F01001FB
:106BB000D97603F13401D9611A8403F591715962D0
:106BC0001A854FF6FF729A85DA8540F2F31119861D
:106BD0005A86204610BD00220249034805F0F0FF06
:106BE000F7E700BF34FA040058FA04002DE9F04139
:106BF000B0B00646002530AC44F8945D624F2346A1
:106C0000027C6249384606F037F82346727C6049B8
:106C1000384606F031F8376807AB059306958DF8CE
:106C20001C507368B2689A4216D02C46DFF87C81FB
:106C3000234403F10C0207CA8DE807000ECB05A818
:106C400002F000F8013573681834B268D21AD21015
:106C500008FB02F2AA42EBD805A90CA801F0C2FF7A
:106C60003C8D0D9B1C440C980EAB984201D004F057
:106C700021F8EE2C27D90023049305A912A801F0CE
:106C8000B1FF04AB139A43493F4806F053F81298FA
:106C900014AB984201D004F00DF83B4C04AB3A8D94
:106CA0003D49204606F046F804ABEE223B4920461B
:106CB00006F040F8059807AB984201D003F0FAFFC0
:106CC00030B0BDE8F0813B8D7C6A1C4405A918A852
:106CD00001F088FF189D05A91EA801F083FF1F9AE7
:106CE0002946204620F0EBFD1E9820AB984201D0AB
:106CF00003F0E0FF18981AAB984201D003F0DAFFD6
:106D000005A924A801F06EFF3A8D259B13443B850D
:106D1000249826AB984201D003F0CCFF3A1D07F12E
:106D20001C013846FFF712FF044605A92AA801F006
:106D300059FF3B8D2B9A9B1A3B852A982CAB984286
:106D400001D003F0B7FF34B10023224614490E48A6
:106D500005F092FFAEE701213878FFF7F9FE024611
:106D600028B100230F49084805F086FFA2E700225A
:106D70000D49054805F024FF059807AB98429FD0C0
:106D800003F098FF9CE700BF58FA040094F9040050
:106D9000ACF90400C4F90400DCF90400E8F90400CB
:106DA000ECF9040010FA040028FA0400ABAAAAAA1D
:106DB00070477CDF7047000008B5044B1B681BB1AF
:106DC0000146184600F050FD08BD00BFD036002037
:106DD0002D4B1B7803B1704730B583B0044603F0E8
:106DE000E5F8024630B100232849294805F0A2FF02
:106DF00003B030BD02A9002341F8043D012003F097
:106E00006FF9024628B100232249214805F092FF7C
:106E1000EEE702A850F8045D03F0B6F9024670B13F
:106E2000042805D000231C49194805F083FFDFE73B
:106E30000023019A1949164805F0DAFFD8E7019AAC
:106E4000AA421BD1104B01221A706268002ACFD0CF
:106E50009DF8003003F0F0036FF3071302A800F869
:106E6000083D92B22168FFF7A4FF02460028BFD078
:106E700000230B49064805F05DFFB9E700230949E7
:106E8000034805F0B5FFDDE7AC36002098FA0400B2
:106E9000ACFA0400BCFA040000FB0400D8FA0400B9
:106EA0002CFB040018FB040010B504460748FFF74C
:106EB000A7FAA31E012B00D910BD054B18680028A6
:106EC000FAD0214603F00AFFF6E700BF083400209D
:106ED000F436002010B504461348FFF791FA2388D2
:106EE000102B15D0112B19D0104B1B6823B102F0B9
:106EF00019F8214600F0ACFA0D4B1B6823B102F0E3
:106F000025F82146FFF754FF2046FFF755FF10BD37
:106F100000220849084805F053FEE5E7002207492A
:106F2000054805F04DFEDFE708340020CC36002090
:106F3000B03600206CFA0400ACFA040080FA0400B9
:106F40000379002BFCD101230371704700230371E7
:106F5000704781600023037170470379002BFCD1D7
:106F6000806870478ADF70478BDF704710B5044632
:106F70000023436001220272154AC2600374436118
:106F80000377036200F11C0242628262C3624FF423
:106F9000847003F085FE206098B1037803F0F80355
:106FA0006FF3C403037000234370A02242808280E9
:106FB0008360037300F118030361EE23838220468C
:106FC00010BD00220349044805F0FAFDF7E700BFB1
:106FD00054FB0400F0FB040004FC040003681A786E
:106FE00061F382021A70704710B5044600220B4903
:106FF0000B4805F0E5FDFFF7B7FF40B90123237209
:10700000002222740749064805F0DAFD10BD024649
:1070100000230549024805F02FFEF7E78CFB04002A
:1070200004FC0400B0FB040098FB040070B50646A5
:107030000C4631B970BD204603F03CFE2C46002DB5
:10704000F8D0E1683046FFF7F1FFA568206904F148
:1070500018039842EFD003F02DFEECE72DE9F8433A
:107060008468071D7CB34E68D1F80090B84606E0EE
:10707000AB1B002BA6BFA046A468E46874B1656989
:107080002A46B54228BF3246002AF1D04946206937
:1070900020F006FC03460028EAD0EAE7474512D074
:1070A000D8F814403246A64228BF224632B1D8F85A
:1070B0001010484620F0F4FB034600B9331B002BA8
:1070C00001DB404600E03846BDE8F8832DE9F84F83
:1070D0008146884617468C6801F1040B002C37D096
:1070E0005668D2F800A008E0731B002BB9BFA36854
:1070F0000122E36800227BB11C4665693246AE423C
:1071000028BF2A46002AEFD02169504620F0C8FB4C
:1071100003460028E8D0E8E7DAB92546D4F814A0F9
:107120007E685246B24528BF32462AB13968206986
:1071300020F0B6FB034608B9AAEB0603002B5DDB83
:10714000C9F80040002389F804304846BDE8F88FAC
:107150005C46D8F80C50A54250D0204606F0ECFE14
:1071600025460446DAE701261DE0D3F800E0D3F80F
:1071700004C09868DA68C4F818E0C4F81CC020623B
:10718000626222E05D45EED07E686C693246A642BE
:1071900028BF22462AB12969386820F081FB0346BE
:1071A00000B9331BDE0F2C2003F07AFD044610F1EA
:1071B000100F12D000F1180101613B4653F8082B63
:1071C0009A42D2D00261BA6882617A6862613B6099
:1071D00000237B603B72BB69A3625B462A46214663
:1071E000304606F0ABFED8F814300133C8F814303E
:1071F000C9F80040012389F80430A6E7002DC1D169
:1072000000249DE770B582B0054669B10E46541A58
:1072100001940F2C0FD82868012C14D0ACB1224651
:10722000314620F04CFB10E012B9002301930CE032
:10723000094816F00BFF002201A914F09DFE2860FA
:10724000019BAB60E7E733780370019B6B602A68B2
:107250000021D15402B070BD14FC04002DE9F04FA0
:1072600089B006460F4615461C4600230A46474984
:10727000474805F05FFD337C03F0FF08002BFAD18F
:10728000012333747563002C54D1756A06F11C0A0E
:10729000AA4543D00DF10C094FF0A80B15E0606929
:1072A00004F11C03984201D003F004FD5946204626
:1072B00003F004FD0198484501D003F0FBFC28468B
:1072C00006F026FE0546824528D0CDF804902969AF
:1072D0006A694FF000030A4401A8FFF793FFAC6A04
:1072E0000794002CE6D0D4F88C0004F19403984263
:1072F00001D003F0DFFCE06D04F16403984201D09B
:1073000003F0D8FCE06C08B103F0D4FCE06A04F1AF
:1073100034039842C3D003F0CDFCC0E7316A06F1D4
:107320001800FFF783FE00233362C6F824A0C6F8D6
:1073300028A0F362306800F11001B7F5803F1AD23F
:1073400007EB870707EB8707BB009BB2C380FFF7FC
:1073500009FE024688B9002232729DF8483086F84C
:1073600031300C490A4805F02BFC4FF0010840462B
:1073700009B0BDE8F08F0023E8E700230649044880
:1073800005F07AFC00233374F1E700BFBCFB040076
:1073900004FC0400E4FB0400D0FB04002DE9F84FDA
:1073A00082460C4615469B462C2003F079FC064687
:1073B00010300BD006F118033361216962694FF078
:1073C00000030A44FFF71EFFA36AB36223783370F9
:1073D0000023B360F3607560E16839B9A5689DB3B7
:1073E00037464FF02C094FF0000813E05B46324659
:1073F0005046FFF7D3FFF060F0E72B782370C4F816
:107400000880C4F80C80BC606760E968A9B9AD6801
:107410002746CDB1484603F043FC04461030ECD07B
:1074200004F11803236129696A694FF000030A44D3
:10743000FFF7E8FEAB6AA362DFE75B4622465046F1
:10744000FFF7ACFFE060E2E73046BDE8F88F0000F0
:107450002DE9F047ADF5147D05460C460B881B2B36
:1074600005D01D2B32D00DF5147DBDE8F0870B7AC9
:10747000012BF8D1037200230374446B002CF2D06B
:107480008DF8E8317B937AAA7C927D927E93016A93
:10749000A9B179A8029002ABFFF780FF024600E095
:1074A0001A469368002BFBD17C92024600E01A46F4
:1074B000D368002BFBD17D92EB6A7E937B9079A8F9
:1074C000A0477B9979A8FFF7B1FDCCE7067A002E9B
:1074D000C9D10B31684600F07FFA69467FA800F0F9
:1074E00081FA05F118087FA94046FFF7B7FD074666
:1074F0007F9881AB984201D003F0DCFB05F11C03BF
:107500009F421CD0BF6A6B4693E80600384600F0E5
:10751000A9FD94F91B10384600F0D4FDA28C002A76
:1075200036D12946384600F0D0FD6868002800F0C2
:107530004D8195F83030002B00F048817EE0237AB1
:1075400013F0080F1ED195F83120EB6A9A428AD9C0
:10755000A82003F0A5FB074600F0E4FC002F82D032
:107560006B4693E80600384600F07CFD94F91B104A
:10757000384600F0A7FDA28C5AB92946384600F0DB
:10758000A4FD2FE000229D499D4805F019FB6AE704
:107590000126237A13F0080F00F01E81384600F010
:1075A000ABFD8146384600F0AAFD0246494602A8D6
:1075B00020F085F9384600F0A2FDA28C216A02ABCA
:1075C000184420F07CF9384600F099FDA28C024462
:1075D00002A9384600F09EFE2946384600F075FDA7
:1075E000002EA2D169468EA800F0FCF989AB8793E2
:1075F0008E9B90AA934200F0F4808793909B89938E
:107600008F9B889390AB8E9300238F938DF840329D
:107610008D9787AA414685A8FFF758FD879889ABC3
:10762000984201D003F046FB8E9890AB984201D06F
:1076300003F040FB6868002800F0C8800368DB683E
:1076400039469847D5F80480D8F80030D3F8089028
:107650003B788DF808307B788DF80930BB788DF851
:107660000A30FB788DF80B303A1D92E80300039046
:10767000ADF81010BB7A8DF81230BB89ADF814301C
:107680003B69069309AB07937969BA694FF0000328
:107690000A4407A8FFF7B6FD0FAB0D93F96A3A6BE2
:1076A0004FF000030A440DA8FFF7ACFD7B6C139369
:1076B000B7F94830ADF850303C6DFB6CE41AE2107D
:1076C000504B03FB02F30022159216921792002BE7
:1076D00000F090804C4A934200F28A80204603F0EA
:1076E000DFFA8446CDF854C0CDF858C064441794EE
:1076F000FA6C3B6D9A4222D002F1180EA3EB0E0AEF
:107700004FEADA0A414B03FB0AFA2AF0604A0AF10F
:10771000010A0AEB4A0A0CEBCA0ABCF1000F08D0B6
:107720006446AEF118060FCE0FC496E8030084E855
:1077300003000CF1180C0EF1180ED445EDD1CDF864
:1077400058C097F958308DF860301BAB1993F96D1C
:107750003A6E4FF000030A4419A8FFF753FD1FAC1F
:1077600007F174060FCE0FC496E8030084E8030007
:1077700027AC2594D7F88C10D7F890204FF0000351
:107780000A4425A8FFF73EFD97F8A4308DF8AC30E9
:1077900002A94046C8472598A04201D003F08AFAC2
:1077A00019981BAB984201D003F084FA159808B1E0
:1077B00003F080FA0D980FAB984201D003F07AFAEB
:1077C000079809AB984201D003F074FA2968103188
:1077D0000020FFF7C7FB46E6216A384600F09AFD15
:1077E000FAE689AC94AB13E90F0084E80F0007E7D1
:1077F00016F026FC4FF0000C74E700BF64FB040099
:1078000004FC0400ABAAAAAAAAAAAA0AABAAAA0ABA
:1078100075DF7047B5DF704770B506460C4651B14D
:10782000E1683046FFF7F8FFA568204603F042FA0A
:107830002C46002DF4D170BD836804309BB110B488
:10784000098804461A8A8A4226BF1C469B68DB6860
:10785000002BF7D1A04203D0238A8B4298BF204649
:107860005DF8044B704770472DE9F04184B0054640
:107870000C468B88ADF80E300B88112B5AD034D9BA
:10788000122B75D0552B28D104AE002346F8083DA5
:10789000DFF840813346CA884B49404605F04AFA32
:1078A000E788B7F5007FA8BF4FF4007733463A4624
:1078B0004649404605F0E0F93A46BDF80E10284624
:1078C00001F0EAFE3946BDF80E00FFF7A3FF33468C
:1078D00002463F49404605F02DFA214605F1480091
:1078E00001F03CFF04B0BDE8F081102BF5D101F0B0
:1078F00081FE0028F1D00368227E1B789A42ECD1E9
:10790000BDF80E3000222946284601F009FF638A9F
:10791000228ABDF80E10E08A0190A08A00902846C5
:1079200001F06CFEE86F0028D7D003689B682946F9
:107930009847D2E70DF10E010C30FFF77DFF05F1FE
:1079400010018142C9D006F05BFB03F0B3F92B6A4A
:10795000013B2B62E86F18B10368DB682946984742
:10796000284601F047FE0028B7D0FFF73FF9B4E7FB
:107970000DF10E010C30FFF75FFF05F11003984287
:10798000ABD0828B23899A4203D1428B63899A427E
:1079900011D004F10801BDF80E00FFF739FF63892B
:1079A0002289BDF80E10E0890190A0890090284638
:1079B00001F024FE91E7C28BA3899A42E9D1028C9F
:1079C000E3899A42E5D188E78CFC04009CFC040022
:1079D000A4FC040054FC04000A6802608A888280C7
:1079E000704700002DE9F041C2B006460F4602ACD8
:1079F00014A817F0D1F8BB4BA3640025C4F8B85005
:107A000084F8BC5084F8BD50C4F8C050C4F8C450C9
:107A1000C4F8C850C4F8CC50DFF8D882D8F8083081
:107A2000236053F80C3CD8F80C20E25065602368C2
:107A300053F80C0C2946204406F0B7FFD8F8103054
:107A4000A36053F80C3C42AA1344D8F8142043F81E
:107A5000F82CA36853F80C0C294604AB184406F024
:107A6000A4FFD8F80430236053F80C3CD8F8182051
:107A7000E2509D4B236003F12802A2641433A360FB
:107A80009A4BE36025616561A561E56125626562E8
:107A90000CA805F079FE964BE3601823E36210AB67
:107AA0002363656384F8385005A914A806F07DFFA8
:107AB000A36853F80C4C04AB1C4494F8753053B9CC
:107AC000E56F002D00F09C812B7F002B00F09A8148
:107AD000012384F87530302384F87430049B53F804
:107AE0000C3C42AA1344022243F8F02C049B53F8A6
:107AF0000C2C04AB1A44D36823F04A0343F0080368
:107B0000D360397804A80DF0C3FA3A238DF8073012
:107B100001220DF107010DF02FFA049B53F80C4CD4
:107B200004AB1C4494F8753053B9E56F002D00F098
:107B300072812B7F002B00F07081012384F8753057
:107B4000302384F87430049B53F80C3C42AA13444D
:107B5000022243F8F02C049B53F80C2C04AB1A447B
:107B6000D36823F04A0343F00803D360797804A86C
:107B70000DF08EFA3A238DF8063001220DF1060140
:107B80000DF0FAF9049B53F80C4C04AB1C4494F828
:107B9000753053B9E56F002D00F048812B7F002B25
:107BA00000F04681012384F87530302384F8743066
:107BB000049B53F80C3C42AA1344022243F8F02CD5
:107BC000049B53F80C2C04AB1A44D36823F04A03EB
:107BD00043F00803D360B97804A80DF059FA3A23AA
:107BE0008DF8053001220DF105010DF0C5F9049B5A
:107BF00053F80C4C04AB1C4494F8753053B9E56F42
:107C0000002D00F01E812B7F002B00F01C81012332
:107C100084F87530302384F87430049B53F80C3C9E
:107C200042AA1344022243F8F02C049B53F80C2C74
:107C300004AB1A44D36823F04A0343F00803D3602B
:107C4000F97804A80DF024FA3A238DF804300122C3
:107C500001A90DF091F9049B53F80C4C04AB1C44A2
:107C600094F8753053B9E56F002D00F0F5802B7F47
:107C7000002B00F0F380012384F87530302384F862
:107C80007430049B53F80C3C42AA1344022243F87C
:107C9000F02C049B53F80C2C04AB1A44D36823F04B
:107CA0004A0343F00803D360397904A80DF0F0F9D2
:107CB0003A238DF8033001220DF103010DF05CF938
:107CC000049B53F80C4C04AB1C4494F87530B3B9C6
:107CD000E56F002D00F0CB802B7F002B00F0C980DA
:107CE0000AE000BF0C080500002A05006008050036
:107CF00008290500CC290500012384F875303023BC
:107D000084F87430049B53F80C3C42AA13440222BA
:107D100043F8F02C049B53F80C2C04AB1A44D368A2
:107D200023F04A0343F00803D360797904A80DF0E7
:107D3000AFF906F1080434600023736033720A9AC5
:107D4000002A00F0CD8008998A4240F2A0803EAD22
:107D50003C9509993CA8FFF755FA33683C9AAA422A
:107D600000F090809C4200F0C080B16832603D9A83
:107D700072603E9AB260002B00F0BC803C933E9152
:107D800000233D933C9A13703C983EAB984201D03F
:107D900002F090FF5D4B029303F12802149214331A
:107DA00004935B4B05930E9810AB984201D002F000
:107DB00081FF02AC574B05930CA806F0DDFA564B39
:107DC0005A68226052F80C2C9969A1501A69A26075
:107DD00052F80C2C42A90A44596942F8F81C9A68D6
:107DE000226052F80C2CDB68A350002363604B4BDD
:107DF000A36414A816F010FF304642B0BDE8F0812D
:107E000016F021F9284614F080F82B689B69202190
:107E1000284698475CE616F016F9284614F075F8DF
:107E20002B689B6920212846984786E616F00BF9B7
:107E3000284614F06AF82B689B6920212846984749
:107E4000B0E616F000F9284614F05FF82B689B693D
:107E5000202128469847DAE616F0F5F8284614F06F
:107E600054F82B689B6920212846984703E716F0B1
:107E7000EAF8284614F049F82B689B692021284627
:107E8000984739E73CA9304614F003F978E738AD54
:107E900036954FF000030A46099936A8FFF7B2F964
:107EA0003368369AAA4216D09C4226D0B168326016
:107EB000379A7260389AB26023B3369338910023B0
:107EC0003793369A1370369838AB98423FF462AFC6
:107ED00002F0F0FE5EE736A9304614F0DAF8EEE77D
:107EE0000EA9304614F0D5F854E732603D9B73601C
:107EF0003E9BB3603EAB3C9342E73260379B73607E
:107F0000389BB36038AB3693D9E700BF002A050031
:107F10000829050060080500CC2905000C080500AB
:107F2000704700002DE9F04782B004462D49043027
:107F3000FFF752FD04F1140A04F11C0363610025EC
:107F4000A561257704F12C0904F13403E36225636C
:107F500084F83450E5642565656504F15C0804F136
:107F60006403E365256684F8645004F1740001F04D
:107F70003DFC04F18C0704F19403C4F88C30C4F880
:107F8000905084F89450A572A5812561164E0095F5
:107F90003346A2692946504614F012FA009533463A
:107FA000226B2946484614F00BFA4FF40043A4F81C
:107FB000483000953346226E2946404614F000FAB8
:107FC00084F85850656400953346D4F890202946CB
:107FD000384614F0F5F92570E570204602B0BDE88A
:107FE000F08700BFD0FC04009800050003464868F5
:107FF00018600A899A801846704780897047B0F9DE
:108000004800704770B406460446CD6C0FCD0FC4CF
:1080100095E8030084E80300304670BC704790F98F
:1080200058007047007870478069003018BF012001
:108030007047006B003018BF01207047B0F948004E
:1080400010F5004018BF01207047026DC06C101A77
:1080500018BF0120704790F958000028D4BF0020B5
:108060000120704710B483B004466B4683E80600D5
:1080700093E803006060218103B05DF8044B704712
:1080800008B50A4681810123037000230249034891
:1080900004F0F2FD08BD00BFE4FC0400F4FC0400A1
:1080A00010B504462C3013F0F4FF0123A370002315
:1080B000E26A0249024804F065FF10BDD4FD0400E5
:1080C000F4FC0400A0F8481070474164704708B5FC
:1080D0000123C3705C3013F0DCFF08BD08B50A460D
:1080E00080F8581000230249024804F0C5FD08BD7D
:1080F000D8FC0400F4FC0400D0F88C007047D0F8E1
:10810000900070472DE9F04F83B01646046843682D
:108110001B1BDA104A4B03FB02F34A4A934209D075
:1081200081460D46ABB15A00934206D90C1BDFF8CD
:1081300014A111E0444815F08CFF424B934228BF34
:1081400013469A460C1B3AB94FF000080AE046461F
:1081500036E00C1B4FF0010A0AEB4A00C00002F0A7
:108160009FFD804618EB040405D00FCE0FC496E89F
:10817000030084E80300D9F800E0AE45E7D00EF133
:10818000180CA5EB0C0B4FEADB0B304B03FB0BFB86
:108190002BF0604B0BF1010B0BEB4B0B08EBCB0BFC
:1081A000464646B13446ACF118070FCF0FC497E8E6
:1081B000030084E8030018360CF1180C5E45F0D17A
:1081C00006F1180BD9F80430AB4225D005F1180C94
:1081D000A3EB0C03DB081D4A02FB03F323F060430F
:1081E000019303EB430306EBC30630365F4647B10A
:1081F0003C46ACF118050FCD0FC495E8030084E8A8
:10820000030018370CF1180CB742F0D1019B013371
:1082100003EB43030BEBC30BBEF1000F02D0704620
:1082200002F048FDC9F80080C9F804B00AEB4A0A18
:1082300008EBCA03C9F8083003B0BDE8F08F00BFEF
:10824000ABAAAAAAAAAAAA0A40FE0400ABAAAA0A32
:1082500084B070B586B006460BA880E80E00346D79
:10826000736D9C421FD034B105460FCD0FC495E805
:10827000030084E80300336D183333650BA96846A7
:1082800001F0D6FA0023009A0A490B4804F07AFE5E
:10829000009802AB984201D002F00CFD06B0BDE898
:1082A000704004B070470BAA214606F14C00FFF75E
:1082B00029FFE3E708FD0400F4FC040070B582B078
:1082C000054669B10E46541A01940F2C0FD8286840
:1082D000012C14D0ACB1224631461FF0F0FA10E068
:1082E00012B9002301930CE0094815F0AFFE0022FB
:1082F00001A913F041FE2860019BAB60E7E73378EA
:108300000370019B6B602A680021D15402B070BDDC
:1083100014FC04002DE9F04FE9B006468846934668
:108320001CAC1A944FF000038A181AA8FFF7C6FF76
:10833000D6F88C301A9AA2424DD006F194018B42A5
:1083400000F00882D6F89410C6F88C201B9AC6F864
:1083500090201C9AC6F89420002B00F003821A93F8
:108360001C9100231B931A9A13701A981CAB984205
:1083700001D002F09FFCA94D002400942B46326BE3
:10838000214606F12C0014F01BF886F85840347092
:10839000B472F470F36C336506F114031846059358
:1083A00000942B46B269214614F00AF8199419ABCF
:1083B0005A469B499B4804F0BDFC049698F800502F
:1083C0006B1C1C44E4B265B908F101085C45F5D3A7
:1083D00069B0BDE8F08F1AA906F18C0013F059FEC0
:1083E000BFE798F8017008F10206013DEDB20DF10A
:1083F00064094B463A468C498A4804F0F9FCCDF8AA
:1084000000902B4632468949864804F04FFD072FDD
:1084100000F0968010D9192F58D02CD80A2F4DD0A3
:10842000162F00F0B280092F35D019AB3A4680499B
:108430007C4804F0DDFC46E0032F08D8022F4BD225
:10844000012FF2D198F80230049A93723BE0052F85
:108450005CD938AF002310223146384601F090F93C
:108460003BAB93E807008DE8070097E80E000498FF
:10847000FFF7EEFE27E0212F00F02181FF2F71D0C2
:10848000202FD2D1032D00F2D98019AA694965485D
:1084900004F096FB17E022AF20974FF0000372190B
:1084A000314620A8FFF70AFF20A90498FFF7F8FD3E
:1084B0002098B84207D002F0FDFB04E098F90210C2
:1084C0000498FFF70BFE06EB05087FE7B8F80210EB
:1084D0000498FFF7D5FDF6E75FEA550AF3D0B146F9
:1084E00006EB4A0A26AF0DF1A40839F8021B3846FC
:1084F00001F070F998E807008DE8070097E80E0092
:108500000498FFF7A5FED145EFD1DCE75FEA950AB5
:10851000D9D0B14606EB8A0A2CAF0DF1BC0859F848
:10852000041B384601F05CF998E807008DE8070065
:1085300097E80E000498FFF78BFECA45EFD1C2E71B
:1085400032AF002310223146384601F019F935AB1D
:1085500093E807008DE8070097E80E000498FFF7FE
:1085600077FEB0E740AF3E974FF0000372193146F7
:108570003EA8FFF7A3FE3EA9059813F08AFD3E989A
:10858000B842A0D002F096FB9DE7012D40D9B8F883
:10859000021044A801F01EF90DF11C0C44AF0FCFDE
:1085A000ACE80F0097E803008CE803000123049A6D
:1085B000D37002F1740C07AFBE46BEE80F00049FF3
:1085C0007867CCF80410CCF80820CCF80C30DEF832
:1085D0000000CCF810009EF804308CF81430022D06
:1085E0007FF671AF08F104014CAF4A97AA1E4FF015
:1085F00000030A444AA8FFF761FE4AA90498FFF75E
:1086000066FD4A98B8423FF45EAF02F053FB5AE76A
:1086100019AA0949034804F0D3FA54E79800050061
:108620005CFE0400F4FC04001CFD040024FD0400B6
:10863000C0FD04005CFD04002CFD0400D8F802100D
:1086400050A801F0CDF80DF1340C50AF0FCFACE8CD
:108650000F0097E803008CE803000123049AD3700D
:1086600002F1740C0DAFBE46BEE80F00049F7867A0
:10867000CCF80410CCF80820CCF80C30DEF8000060
:10868000CCF810009EF804308CF81430042D7FF6DE
:108690001AAF08F1060158AF56972A1F4FF0000392
:1086A0000A4456A8FFF70AFE56A90498FFF70FFDE3
:1086B0005698B8423FF407AF02F0FCFA03E70F2DDB
:1086C00005D819AA29492A4804F07AFAFBE60023BA
:1086D000102231465CA801F053F80DF14C0C5CAF50
:1086E0000FCFACE80F0097E803008CE803000123EC
:1086F000049AD37002F1740C13AFBE46BEE80F00AB
:10870000049F7867CCF80410CCF80820CCF80C3023
:10871000DEF80000CCF810009EF804308CF814301D
:10872000102D7FF6D0AE08F1120164AF6297A5F16B
:1087300010024FF000030A4462A8FFF7BFFD62A9D0
:108740000498FFF7C4FC6298B8423FF4BCAE02F054
:10875000B1FAB8E6C6F88C201B9BC6F890301C9B7B
:10876000C6F894301CAB1A93FBE500BF8CFD0400E7
:10877000F4FC040010B504460B4600F10802026048
:1087800049699A694FF000030A44FEF73BFD204611
:1087900010BD10B504460B4600F108020260C96A1C
:1087A0001A6B4FF000030A44FEF72CFD204610BD63
:1087B0002DE9F04FE3B007460E4602AC14A816F0C0
:1087C000EBF98B4BA3640025C4F8B85084F8BC5077
:1087D00084F8BD50C4F8C050C4F8C450C4F8C850A0
:1087E000C4F8CC50DFF82082D8F80830236053F862
:1087F0000C3CD8F80C20E2506560236853F80C0C50
:108800002946204406F0D1F8D8F81030A36053F878
:108810000C3C0DF11009D8F8142049F80320A36886
:1088200053F80C0C2946484406F0BFF8D8F8043039
:10883000236053F80C3CD8F81820E2506D4B2360AD
:1088400003F12802A2641433A3606B4BE36025613B
:108850006561A561E561256265620CA804F094FF7D
:10886000664BE3601823E36210AB2363656384F80F
:10887000385005A914A806F098F80A22604948461D
:108880000CF07AFB331D93E803003C90ADF8F41034
:108890003CA936A8FFF7A6F8379A369948460CF057
:1088A0006BFB369838AB984201D002F003FA336B79
:1088B000002B7BD13378002B40F08380B369002BF1
:1088C00040F08980326DF36C9A4240F0138196F942
:1088D0005830002B00F3288101224A4904A80CF0EB
:1088E0004BFB07F108043C6000237B603B720A9A53
:1088F000002A00F052810898824240F225810999AD
:108900005EAD5C955CA8FEF77DFC3B685C9AAA4274
:1089100000F015819C4200F04581B9683A605D9A8B
:108920007A605E9ABA60002B00F041815C935E91A0
:1089300000235D935C9A13705C985EAB984201D003
:1089400002F0B8F92B4B029303F12802149214336E
:1089500004932A4B05930E9810AB984201D002F075
:10896000A9F902AC244B05930CA805F005FD264B94
:108970005A68226052F80C2C9969A1501A69A260B9
:1089800052F80C2C586904A988509A68226052F851
:108990000C2CDB68A35000236360154BA36414A860
:1089A00016F03AF9384663B0BDE8F08F082217494F
:1089B00004A80CF0E1FA326BF16A04A80CF0DCFABE
:1089C00078E70E22124904A80CF0D6FAB18904A85F
:1089D0000CF062FB72E714220E4904A80CF0CCFAEA
:1089E0004FF000090DF5807A3EE015F02CFB00BF3A
:1089F0000C080500002A050060080500082905008C
:108A0000E0FD04003CFE0400CC290500ECFD040060
:108A1000F8FD040008FE0400012385F875303023BA
:108A200085F87430236853F80C3C234402229A6082
:108A3000236853F80C2C2244D36823F04A0343F0F4
:108A40000803D360314644A8FFF794FE449B13F813
:108A5000081020460CF01CFB449846AB984201D00D
:108A600002F028F909F101095FFA89F831463EA8B8
:108A7000FFF780FE3F9C3E98504501D002F01AF966
:108A8000A04524D220238DF8073001220DF10701E3
:108A900004A80CF071FA0446036853F80C5C054412
:108AA00095F87530002BBAD1D5F87CB0BBF1000F2A
:108AB0009BD09BF81C30002BAED1584613F025FA02
:108AC000DBF800309B69202158469847A4E7049BB7
:108AD00053F80C3C04AA134400229A60049B53F8F8
:108AE0000C3C04AA1344DA6822F04A0242F0020263
:108AF000DA60E7E60F22334904A80CF03DFA31466C
:108B000050A8FFF77FFA50A94AA800F091FE4B9AAF
:108B10004A9904A80CF030FA4A984CAB98423FF4BA
:108B2000D6AE02F0C7F8D2E60B22274904A80CF013
:108B300023FA96F9581004A80CF0AAFACCE65CA91E
:108B4000384613F0A6FAF3E6099958AD56954FF05A
:108B50000003024656A8FEF755FB3B68569AAA4208
:108B600016D09C4226D0B9683A60579A7A60589AD3
:108B7000BA6023B35693589100235793569A1370B3
:108B8000569858AB98423FF4DDAE02F093F8D9E620
:108B900056A9384613F07DFAEEE70EA9384613F0D1
:108BA00078FACFE63A605D9B7B605E9BBB605EAB14
:108BB0005C93BDE63A60579B7B60589BBB6058ABAB
:108BC0005693D9E720FE040030FE040008B54A6839
:108BD000436813441F2B00D908BD096813F074FCC7
:108BE000FAE7000070B582B0044600F108030360A4
:108BF0000E684D6876B101950F2D10D82068012DB3
:108C000016D0C5B9019B636022680021D15420466B
:108C100002B070BD002DEED0094815F017FA002201
:108C200001A9204613F0A8F92060019BA360E5E7A5
:108C300033780370E6E72A4631461EF040FEE1E74E
:108C400014FC040084B0F0B5BBB0044641A880E831
:108C50000E0000F0CFFD202871D0802800F0D780D2
:108C6000102804D03BB0BDE8F04004B070470323A7
:108C70008DF80C308DF80D300CAD0A954FF00003D7
:108C80000DF10E0203A90AA8FFF718FB12AB10930F
:108C90004FF000030DF5857242A910A8FFF70EFBF7
:108CA0000B98119A81180A9BAB4214BF0C9D0F259B
:108CB000A94207D912AD109EAE4214BF129D0F25D6
:108CC000A9422BD910990AA813F0FEFB054606AB62
:108CD00004932E4656F8083BB34227D00493AB6862
:108CE00006936B6805932E6000236B602B7204A9BA
:108CF0002046FFF76BFF049806AB984201D001F0C5
:108D0000D9FF109812AB984201D001F0D3FF0A9816
:108D10000CAB9842A6D001F0CDFFA3E70090002253
:108D2000114610A813F04CFB0546D0E706AF2B46C2
:108D300053F8080F59689A68DB680FC7D1E7052315
:108D40008DF80C308DF80D301EAD1C954FF00003E2
:108D50000DF10E0203A91CA8FFF7B0FA24AB229371
:108D60004FF0000343AA42A922A8FFF7A7FA1D98D3
:108D7000239A81181C9BAB4214BF1E9D0F25A9424C
:108D800007D924AD229EAE4214BF249D0F25A942CF
:108D90002CD922991CA813F097FB054618AB169303
:108DA0002E4656F8083BB34228D01693AB6818936A
:108DB0006B6817932E6000236B602B7216A92046F8
:108DC000FFF704FF169818AB984201D001F072FF2C
:108DD000229824AB984201D001F06CFF1C981EAB86
:108DE00098423FF43FAF01F065FF3BE7009000225F
:108DF000114622A813F0E4FA0546CFE718AF2B4638
:108E000053F8080F59689A68DB680FC7D0E7112339
:108E10008DF80C3007238DF80D3030AD2E954FF0C6
:108E200000030DF10E0203A92EA8FFF747FA36AB97
:108E300034934FF0000346AA42A934A8FFF73EFA44
:108E40002F98359A81182E9BAB4214BF309D0F2569
:108E5000A94207D936AD349EAE4214BF369D0F25C8
:108E6000A9422CD934992EA813F02EFB05462AAB23
:108E700028932E4656F8083BB34228D02893AB6877
:108E80002A936B6829932E6000236B602B7228A9AC
:108E90002046FFF79BFE28982AAB984201D001F0AC
:108EA00009FF349836AB984201D001F003FF2E98A9
:108EB00030AB98423FF4D6AE01F0FCFED2E6009013
:108EC0000022114634A813F07BFA0546CFE72AAFFB
:108ED0002B4653F8080F59689A68DB680FC7D0E72C
:108EE00070B50E46C468051DAC4209D031462069F4
:108EF00001F0EFFE204605F00BF804468542F5D15F
:108F000070BD70B50E46C468051DAC4209D031462F
:108F1000206902F080F9204604F0FAFF04468542F9
:108F2000F5D170BD084B1B6813B1074B186870472B
:108F300010B5382001F0B4FE0446FEF717F8024BD6
:108F40001C60014B186810BDCC36002010B50C4BCE
:108F50001B683BB100220B490B4803F031FE084B64
:108F6000186810BD142001F09BFE0446FDF7F2FDC9
:108F7000034B1C6000220549034803F021FEE9E78A
:108F8000B0360020B0FE040080FE04009CFE040009
:108F900010B504468168FEF73FFC204610BD71B154
:108FA00010B40C461988238A8B4226BF2246A46837
:108FB000E468002CF7D110465DF8044B704710466A
:108FC0007047F8B5054617468C6824B110884FF0F5
:108FD000000C01260AE00C1DCB68A3421BD02046E2
:108FE00004F0AAFF214604460CE01C46238A834273
:108FF00087BFA3683246E3686246002BF5D1002A9A
:10900000EAD12146228A3B889A4208D32C60002369
:109010006B602846F8BD00232B606C60F9E70023E5
:109020002B606960F5E72DE9F04782B006460D46F2
:109030009846242001F034FE044610F1100708D0B1
:10904000D8F800301B880382002242618261C2612D
:109050000262A94606F10408454513D0B4F810A0F1
:109060002B8A9A4537D2F268954250D0284604F0B0
:1090700063FF0246038A534524D2C368002B4AD0BB
:109080002A460EE0736923B13269118A238A994214
:1090900041D33A4631466846FFF793FFDDF800902A
:1090A000019A002A42D00120B9F1000F34D0434682
:1090B000214604F043FF736901337361204602B017
:1090C000BDE8F0873A4631466846FFF77AFFDDF89B
:1090D0000090019AE5E79A4528D9326995421AD05D
:1090E000284604F015FF0246038A534506D9EB686B
:1090F0000BB18146D5E7CDB12A460FE03A4631465D
:109100006846FFF75EFFDDF80090019AC9E79146D7
:10911000C7E70120CBE742B19045FAD0208A138AF5
:1091200098422CBF00200120C1E79146204601F063
:10913000C1FD4846C3E72DE9F04383B005468846A4
:1091400014466846FFF73DFF009B019E36B92B6031
:1091500000232B71284603B0BDE8F0830BB34FF01A
:109160000109242001F09CFD074610F1100F08D0E2
:10917000224632F8043B038200F114040FCA84E84B
:109180000F0008F1040332463946484604F0D6FE83
:10919000D8F814300133C8F814302F6001232B7134
:1091A000D8E708F104039E4209D0B4F80090338A4E
:1091B00099452CBF4FF000094FF00109D1E74FF05E
:1091C0000109CEE708B50648002303718360021D3C
:1091D000C26002614361034A034903F05FFF08BDB7
:1091E000B4360020D0300020918F020080F830206B
:1091F00041607047406970472DE9F8430646814257
:109200006AD04D680C682F1B4FEAE70E644A02FBD8
:109210000EFE0068B3681B1ADB1002FB03F37345F4
:109220005DD373681B1ADA105D4D05FB02FCE64541
:1092300040F29480002B1FDD18341830234653F879
:10924000185DD3F80490D3F80880D3F80CE040F808
:10925000185C40F8149C40F8108C40F80CEC1D6928
:1092600040F8085C1B7D00F8043C0CF1FF3C18340E
:109270001830BCF1000FE1DCD6F804C03368ACEB69
:10928000030E0B689E444B689E4522D00EF1180ECB
:10929000A3EB0E084FEAD808424B03FB08F828F06E
:1092A000604808F1010808EB48080CEBC808BCF15D
:1092B000000F08D06446AEF118050FCD0FC495E835
:1092C000030084E803000CF1180C0EF1180EC445DD
:1092D000EDD133681F4477603046BDE8F883BEF1B6
:1092E000000F38D0304B9E4533D8384601F0D8FCBB
:1092F0008146AC4223D004F1180CA5EB0C084FEAD0
:10930000D808284B03FB08F828F0604808F101084A
:1093100008EB480809EBC808CE46BEF1000F08D09C
:109320007446ACF118050FCD0FC495E8030084E82E
:1093300003000EF1180E0CF1180CF045EDD1306859
:1093400008B101F0B7FCC6F8009009EB0703B36061
:10935000BFE714F075FE4FF00009CAE7002FB8DD33
:1093600018341830234653F8181DD3F80480D3F866
:1093700008C0DD6840F8181C40F8148C40F810CC88
:1093800040F80C5C196940F8081C1B7D00F8043C8F
:109390000EF1FF3E18341830BEF1000FE2DC98E702
:1093A000ABAAAAAAABAAAA0AAAAAAA0A2DE9F04FAE
:1093B00085B0044688469346CB689E6A337803702E
:1093C00073784370B3788370F378C370331D93E878
:1093D000030060602181B37AA372B389A3813369EA
:1093E000236104F11400019004F11C0363617169AD
:1093F000B2694FF000030A44FDF704FF04F12C00AA
:10940000029004F13403E362F16A326B4FF000031F
:109410000A44FDF7F7FE736C6364B6F94830A4F8AC
:10942000483004F14C030393356DF36CED1AEA10E8
:109430006D4B03FB02F30022E26422656265002BA0
:1094400000F0CF80694A934200F2C980284601F0BB
:1094500027FC8446C4F84CC0C4F850C06544656518
:10946000F26C336D9A4225D002F1180EA3EB0E096F
:109470004FEAD9095E4B03FB09F929F0604909F16C
:10948000010909EB49090CEBC909234664469C46CE
:1094900044B12546AEF118070FCF0FC597E803007A
:1094A00085E8030018340EF1180E4C45F0D16346E0
:1094B000A4461C46C4F850C096F9583084F8583079
:1094C00004F15C0904F16403E365F16D326E4FF061
:1094D00000030A444846FDF795FE04F1740506F1C1
:1094E00074070FCF0FC597E8030085E8030004F168
:1094F0008C0A04F19403C4F88C30D6F88C10D6F89A
:1095000090204FF000030A445046FDF77BFE96F88A
:10951000A43084F8A430D8F80C6008F1040846455B
:1095200059D00027B56A2B7823706B786370AB78BD
:10953000A370EB78E3702B1D93E80300606021813A
:10954000AB7AA372AB89A3812B69236105F1140166
:10955000019812F09EFD05F12C01029812F099FD80
:109560006B6C6364B5F94830A4F8483005F14C01E0
:109570000398FFF741FE95F9583084F8583005F10B
:109580005C01484612F085FD2A4652F8741FD2F855
:1095900004E0D2F808C0D0686167C4F878E0C4F885
:1095A0007CC0C4F880001169C4F88410127D84F86E
:1095B000882005F18C01504612F06BFD95F8A4301F
:1095C00084F8A430BB4506D00137304604F0A0FC37
:1095D00006464045A6D1204605B0BDE8F08F14F000
:1095E0002FFD4FF0000C35E7ABAAAAAAAAAAAA0A37
:1095F000ABAAAA0A08B5FFF7A9FC08BD2DE9F043FC
:109600008BB00546914698460AAB23F81A1D00F127
:109610000C0719463846FEF70FF905F11006864289
:1096200034D00446A0F81C90A0F81A80BDF8483049
:10963000C383BDF84C3003840DF10E0332466969D3
:109640003846FFF7ACFC864204D0BDF80E20038AF2
:109650009A420BD20AAB0DF10E0243F8042D08AA70
:1096600000920C4A01463846FFF7DDFC04AE00F1DB
:10967000140595E80F0086E80F00143494E80F00F5
:1096800085E80F0096E80F0084E80F000BB0BDE8F6
:10969000F08300BFC0FE04002DE9F0418AB005460A
:1096A00090460AAB23F81A1D00F10C0719463846FC
:1096B000FEF7C2F805F1100686422CD00446A0F849
:1096C00018800DF10E03324669693846FFF767FCD2
:1096D000864204D0BDF80E20038A9A420BD20AAB10
:1096E0000DF10E0243F8042D08AA00920B4A014620
:1096F0003846FFF798FC04AE00F1140595E80F001A
:1097000086E80F00143494E80F0085E80F0096E80F
:109710000F0084E80F000AB0BDE8F081C0FE04002D
:1097200010B58CB004460022CDF80A20CDF80E20EA
:10973000ADF81220ADF81C3001911723ADF80830B8
:1097400001AB0FCB0DF1300C0CE90F0007AA04F1AF
:109750000C0105A8FFF7EFFC0CB010BD70B50E466C
:10976000446A00F11C05AC4209D03146206901F081
:109770004DFD204604F0CCFB04468542F5D170BD7A
:1097800070B5044600202075102A0DD110222280C9
:1097900083B104F113030139E01C11F8012F03F820
:1097A00001299842F9D10DE002460849084803F022
:1097B00007FA09E00E684D688868CA686660A560A7
:1097C000E060226101232375204670BD40FF040044
:1097D00038FF040002220280818001220275704756
:1097E0000422028041600122027570470022027546
:1097F0007047000008B5037D8BB10288042A0AD0A7
:10980000102A0AD0022A0CD000230749074803F087
:1098100033FA002004E0202002E0802000E0002055
:1098200008BD1020FCE700BFC4FE040038FF0400A0
:109830002DE9F041D8B005460B7D002B00F0998151
:109840000E4612A815F0A8F9B64B129300242E94D8
:109850008DF8BC408DF8BD403094319432943394EF
:10986000B14FBB68009353F80C3CFA684DF80320E5
:109870000194009B53F80C0C2146684405F095F8C0
:109880003B69029353F80C2C02AB79699950029A08
:1098900052F80C0C2146184405F087F87B680093B9
:1098A00053F80C3CBA694DF80320A04B009303F128
:1098B00028021292143302939D4B0393049405944F
:1098C00006940794089409940AA803F05DFF994B45
:1098D000039318230B930EAB0C930D948DF8384023
:1098E00003A912A805F061F83388022B00F04C811F
:1098F000042B00F0EC81029951F80C2C02AB1A44B5
:10990000D36823F04A0343F00803D36051F80C4CAA
:1099100002AB1C4494F8753053B9E76F002F00F088
:109920007B823B7F002B00F07982012384F8753025
:10993000302384F87430029B53F80C3C02AA134481
:1099400002249C60F17C10460BF0A2FB03460268E7
:1099500052F80C2C13449C60B17C0BF099FB03462D
:10996000026852F80C2C13449C60717C0BF090FB45
:109970000346026852F80C2C13449C60317C0BF0B7
:1099800087FB80466C4F012239460BF0F5FAD8F878
:10999000003053F80C3C43449C60F17B40460BF094
:1099A00077FB0346026852F80C2C13449C60B17B91
:1099B0000BF06EFB8046012239460BF0DDFAD8F839
:1099C000003053F80C3C43449C60717B40460BF0E4
:1099D0005FFB0346026852F80C2C13449C60317BF9
:1099E0000BF056FB8046012239460BF0C5FAD8F839
:1099F000003053F80C3C43449C60F17A40460BF035
:109A000047FB0346026852F80C2C13449C60B17A61
:109A10000BF03EFB8046012239460BF0ADFAD8F838
:109A2000003053F80C3C43449C60717A40460BF084
:109A30002FFB0346026852F80C2C13449C60317AC9
:109A40000BF026FB0346026852F80C2C13449C6072
:109A5000F1790BF01DFB0346026852F80C2C1344FD
:109A60009C60B1790BF014FB0346026852F80C2C91
:109A700013449C6071790BF00BFB0346026852F8AB
:109A80000C2C13449C6031790BF002FB05F10804A7
:109A90002C6000236B602B72089A002A00F0F6817C
:109AA0000698824240F2C881079954AE529652A855
:109AB000FDF7A8FB2B68529AB24200F0B8819C4295
:109AC00000F00982A9682A60539A6A60549AAA60D1
:109AD000002B00F005825293549100235393529A25
:109AE0001370529854AB984201D001F0E3F80F4B39
:109AF000009303F128021292143302930D4B039347
:109B00000C980EAB984201D001F0D4F8084B0393A7
:109B10000AA804F031FC044B5A68009252F80C2C4D
:109B200099690BE00C080500CC290500002A050006
:109B3000600805000829050008FF04004DF8021020
:109B40001A69029252F80C2C586902A988509A6836
:109B5000009252F80C2CDB684DF802300023019380
:109B6000A94B129312A815F057F8284658B0BDE833
:109B7000F08100F108030360A4494FF000030A4696
:109B80000639FEF79BFBF0E70422A14902A80BF07F
:109B9000F3F9029951F80C2C02AB1A44D36823F064
:109BA0004A0343F00803D36051F80C4C02AB1C4449
:109BB00094F8753043B9E76F002F47D03B7F002BF7
:109BC00046D0012384F87530302384F87430029B2A
:109BD00053F80C3C02AA134404229A60B18802A8EC
:109BE0000BF05AFA1C228B490BF0C6F905F1080458
:109BF0002C6000236B602B72089A002A62D00698B2
:109C0000824233D907993CAE3A963AA8FDF7FAFA60
:109C10002B683A9AB24224D09C4200F03C81A96859
:109C20002A603B9A6A603C9AAA60002B00F0388157
:109C30003A933C9100233B933A9A13703A983CAB89
:109C400098423FF454AF01F035F850E714F0FBF9B7
:109C5000384612F05AF93B689B69202138469847EC
:109C6000AFE73AA9284612F014FAE3E7079936AEAF
:109C700034964FF00003024634A8FDF7C3FA2B6870
:109C8000349AB24219D09C4200F00D81A9682A6032
:109C9000359A6A60369AAA60002B00F009813493E5
:109CA000369100233593349A1370349836AB98422A
:109CB0003FF41DAF00F0FEFF19E734A9284612F06B
:109CC000E8F9EEE70CA9284612F0E3F90FE702994C
:109CD00051F80C2C02AB1A44D36823F04A0343F02A
:109CE0000803D36051F80C4C02AB1C4494F8753057
:109CF00043B9E76F002F48D03B7F002B47D00123AB
:109D000084F87530302384F87430029B53F80C3C8F
:109D100002AA134408229A6071680DEB02000BF04E
:109D2000BBF91C223B490BF027F905F108042C6014
:109D300000236B602B72089A002A60D0069882423A
:109D400033D9079948AE469646A8FDF75BFA2B68CB
:109D5000469AB24224D09C4200F0AD80A9682A60A5
:109D6000479A6A60489AAA60002B00F0A98046933F
:109D7000489100234793469A1370469848AB9842FF
:109D80003FF4B5AE00F096FFB1E614F05CF938464A
:109D900012F0BBF83B689B69202138469847AEE734
:109DA00046A9284612F075F9E3E7079942AE4096B6
:109DB0004FF00003024640A8FDF724FA2B68409AB2
:109DC000B24217D09C427ED0A9682A60419A6A604C
:109DD000429AAA60002B7BD040934291002341938A
:109DE000409A1370409842AB98423FF480AE00F026
:109DF00061FF7CE640A9284612F04BF9EEE70CA97A
:109E0000284612F046F972E60C080500DEFE040052
:109E1000E0FE0400E8FE040014F015F9384612F0E4
:109E200074F83B689B692021384698477DE552A924
:109E3000284612F02EF950E607994EAE4C964FF098
:109E4000000302464CA8FDF7DDF92B684C9AB2429C
:109E500017D09C4247D0A9682A604D9A6A604E9AF2
:109E6000AA60002B44D04C934E9100234D934C9A02
:109E700013704C984EAB98423FF439AE00F01AFF85
:109E800035E64CA9284612F004F9EEE70CA928465D
:109E900012F0FFF82BE62A603B9B6B603C9BAB60AB
:109EA0003CAB3A93C6E62A60359B6B60369BAB6051
:109EB00036AB3493F5E62A60479B6B60489BAB60FA
:109EC00048AB469355E72A60419B6B60429BAB6071
:109ED00042AB409382E72A60539B6B60549BAB601C
:109EE00054AB5293F9E52A604D9B6B604E9BAB607F
:109EF0004EAB4C93B9E700BF10DF704710B582B08E
:109F000004460C49684600F0A3FD019B63B11A6842
:109F100059682046904748B1684600F0A2FD019B71
:109F2000002BF4D1002002E0002000E0112002B05C
:109F300010BD00BF64FF040010B582B0044609499B
:109F4000684600F085FD019B4BB11A6859682046B0
:109F50009047684600F085FD019B002BF5D102B0CB
:109F600010BD00BF7CFF040008B50E4B93F81633FC
:109F70005A09EC23134113F0010F0DD00A4B9B68D3
:109F80002BB1094A136843F48003136008E0054BC2
:109F90004FF480021A6003E042F2020000F06DFD0F
:109FA00008BD00BF00E100E00037002010B582B01E
:109FB0001B4B1B786BBB1B4B01221A700020FFF759
:109FC0009DFF112829D00020FFF7B6FF164B1B6814
:109FD000019302A8002300F8053D00F077FD134926
:109FE00001A8FFF789FF0446B0FA80F040090C4B46
:109FF00018709DF8030000F095FD5CB90023094A34
:10A0000013700B4A1370FFF7AFFF0120FFF794FFA7
:10A0100000E00824204602B010BD0024FAE700BF8B
:10A02000D5360020D436002060FF040099AA020033
:10A03000D6360020014B1878704700BFD536002077
:10A0400000B583B00849684600F002FD019B43B1AA
:10A050001A6858689047684600F003FD019B002B82
:10A06000F6D103B05DF804FB70FF040008B5FFF7FC
:10A07000E7FF08BD60DF704769DF704761DF704749
:10A08000154B1B7833B330B5ADF2144D40F2044498
:10A09000124DADF802400DF1020103A8FFF7EEFFEB
:10A0A00088B9294601A800F0D3FC029B002BF0D010
:10A0B0001A68596803A8904701A800F0D2FC029BD7
:10A0C000002BF5D1E5E7052801D000F0D6FC0DF214
:10A0D000144D30BD704700BFD736002088FF040004
:10A0E00000294CD0F0B585B00D460646254A0A60D9
:10A0F00000240194029403948DF8040001278DF844
:10A1000006700623ADF8083001A92020FFF7B4FF40
:10A110000194029403948DF805702A6801A94020E7
:10A12000FFF7AAFF0194029403948DF804604FF4A2
:10A130000073ADF806302A6801A92320FFF79CFFC1
:10A140000194029403948DF804702A6801A938469A
:10A15000FFF792FF029403944FF4B06301932A68CF
:10A1600001A9A120FFF788FF0194029403942A68B3
:10A1700001A9A020FFF780FF204605B0F0BD0E200A
:10A18000704700BFD030002008B5FFF773FF0346CB
:10A1900010B9024A01211170184608BDD7360020B7
:10A1A0004BDF704710B584B00E4C01A8FFF7F8FFE5
:10A1B00088B9214602A800F04BFC039B002BF4D089
:10A1C0001A6859680198904702A800F04AFC039B5E
:10A1D000002BF5D1E9E7052801D000F04EFC04B0D2
:10A1E00010BD00BF94FF04000649074A074B9B1AA5
:10A1F00003DD043BC858D050FBDC00F039FAFCF713
:10A200001FF8000078480500D0300020D833002027
:10A21000FEE7FEE7FEE7FEE7FEE7FEE7FEE7FEE716
:10A22000FEE7FEE7704700002DE9F0418CB088465C
:10A23000002102A800F03AFE0C4B1C6823685D6BFD
:10A24000029E049F414606A8FEF7B2FA069B0093C1
:10A250003B46324606492046A847069808AB984236
:10A2600001D000F027FD0CB0BDE8F081BCF804007F
:10A270006801050010B50446042100F01FFD2046CA
:10A2800010BD00002DE9F04FC7B082464FF0000925
:10A290007F4B83F800907F4B1C6823685D6BFEF753
:10A2A000A9FF02467C492046A847DFF81CB288E097
:10A2B00023685D6B0AA93AA8FEF76BFA3A9A7749C8
:10A2C0002046A8473A983CAB984200F09F8000F0A7
:10A2D000F1FC9BE023685D6B0AA8FDF78EFE024649
:10A2E0006F492046A84797E06E49204602F05AF889
:10A2F0000AA904A8FEF73EFA059B7BB100252A4671
:10A30000694E049923685B6B8A5C31462046984706
:10A310000135EDB22A46059B9D42F2D3049806AB67
:10A3200098427FD000F0C6FC7CE00AA904A8FDF7A3
:10A3300069FE23685D6B04A940A8FFF779FA409A8B
:10A340005A492046A847409842AB984270D000F046
:10A35000B1FC6DE00AA8FDF762FE23685B6B024664
:10A3600053492046984768E00AA8FDF748FE23684D
:10A370005B6B02464F492046984763E023685B6B5E
:10A380004D49204698472D982FAB984201D000F0B8
:10A3900091FC219823AB984201D000F08BFC1D98D2
:10A3A00008B100F087FC159817AB984201D000F077
:10A3B00081FC0F9811AB984201D000F07BFC09F1B1
:10A3C00001095046FEF716FF484554DD4A465146FE
:10A3D0000AA8FEF7EBFF0AA902A8FDF707FE23680B
:10A3E0005D6B02A934A8FDF7FDFA349B4A46594635
:10A3F0002046A847349836AB984201D000F05AFC6A
:10A400000AA8FDF716FE00287FF452AF0AA8FDF750
:10A4100009FE00287FF45EAF0AA8FDF705FE0028BC
:10A420007FF462AF0AA8FDF710FE00287FF47DAF2D
:10A430000AA8FDF710FE00288CD10AA8FDF7FEFD42
:10A44000002891D123685B6B1C4920469847002562
:10A45000DFF85480EEB20AA8FDF751FE0135B04294
:10A460008CD923685F6B0AA8FDF746FE825D4146E2
:10A470002046B847EEE7124B186800230093114AB4
:10A480000A21FCF7EBFE024B187047B0BDE8F08FD5
:10A49000D8360020BCF8040074000500A8000500B0
:10A4A000B4000500CC000500E4000500EC00050048
:10A4B00000010500140105002C0105002401050020
:10A4C000DC36002085A202009C00050000B583B0A8
:10A4D000124B1B7873B9124B186800230093114A72
:10A4E0000A21FCF7BBFE0D4B187090B90E481EF008
:10A4F0007DFB0BE00D490E4B186801F06DFF084B1A
:10A500001868FCF771FD054B00221A7003B05DF866
:10A5100004FB08481EF06AFBF8E700BFD8360020AD
:10A52000DC36002085A2020058010500300105003C
:10A53000BCF804004401050010B588B02F4B186822
:10A5400003685B6A03224FF4E13198472C481EF000
:10A550004DFB2C4C204600F0A3FC01462A481EF07F
:10A56000BDFA204600F09CFC10F0060F2DD1274AC2
:10A5700000212448FBF77EFF04AC029400230393E0
:10A580008DF8103002A8FCF723FC0298A04201D0FD
:10A5900000F090FBFEF7C6FC1D4C206000221D4918
:10A5A000FEF724FE01212068FCF718FD2068002337
:10A5B0000093194A0A21FCF751FE184B1870C8B9CC
:10A5C00017481EF013FB08B010BD204600F06AFCCF
:10A5D0000446836842680168C068009011481EF014
:10A5E0007DFAA36962692169E06900900E481EF056
:10A5F00075FABCE70D481EF0F9FAE4E7BCF8040070
:10A60000B8FF040008340020D8FF0400CDA40200E5
:10A61000DC360020E430002085A20200D83600207D
:10A6200058010500ECFF040024000500600005004F
:10A6300008B5034A0349044802F030FD08BD00BFD5
:10A64000D030002025A20200E4300020BFF34F8F5D
:10A650000549CA6802F4E062044B1343CB60BFF3C0
:10A660004F8F00BFFDE700BF00ED00E00400FA05DA
:10A6700008B5B34B1B78062B3BD0B14B1B78062B90
:10A680005CD0AF4B1B78062B7DD0AD4B1B78062BD7
:10A6900000F0A280AA4B1B78062B00F0B580A94BD6
:10A6A0001B68062B00F0EA80A74AD2F8883043F4F2
:10A6B0007003C2F88830BFF34F8FBFF36F8F4FF036
:10A6C0001023D3F80C3213F0010F40F0E2804FF06A
:10A6D0001023D3F80032002BC0F2FC804FF010237F
:10A6E000D3F80432002BC0F2F580984B984A1A60D8
:10A6F00008BD984B1B6813F00F0F13D1964B1B68C6
:10A7000003F0F002302A03D003F0E003402B09D11C
:10A71000924B1B68C3F30423914A1360884B1B7848
:10A72000062B20D18B4B1B6813F00F0F06D18A4BE1
:10A730001B6803F0F003302B00F0F480854B1B689E
:10A7400013F00F0F13D1844B1B6803F0F002302A73
:10A7500003D003F0E003402B09D1824B1B68C3F305
:10A760004233814A1360764B1B78062B23D1794BF9
:10A770001B6813F00F0F06D1774B1B6803F0F00333
:10A78000302B00F0D380734B1B6813F00F0F17D1E1
:10A79000714B1B6803F0F002302A03D003F0E00392
:10A7A000402B0DD14FF080430022C3F80C21C3F899
:10A7B0001021C3F83825624B1B78062B40F0F4803B
:10A7C000644B1B6813F00F0F06D1634B1B6803F03B
:10A7D000F003302B00F0B0805E4B1B6813F00F0FBE
:10A7E00006D15D4B1B6803F0F003302B00F0D080E6
:10A7F000584B1B6813F00F0F06D1574B1B6803F023
:10A80000F003502B00F0D680524B1B6813F00F0F53
:10A8100014D1514B1B6803F0F002302A03D003F02F
:10A82000E003402B0AD1514B1B6803F04F03504A01
:10A830001360434B1B78062B7FF431AF454B1B68ED
:10A8400013F00F0F7FF42BAF434B1B6803F0F002A4
:10A85000302A04D003F0E003402B7FF420AF4FF008
:10A860008043D3F8003413F0010F3FF418AF4FF0DA
:10A8700080436FF00102C3F8002410E73D4B1B68D2
:10A88000062B7FF411AF3C4A136843F480631360D6
:10A890000AE73A4B0122C3F804251A46D2F80034DD
:10A8A000002BFBD04FF01022D2F80C3223F0010322
:10A8B000C2F80C32314AD2F80034002BFBD02F4BB7
:10A8C0000022C3F804251A46D2F80034002BFBD02E
:10A8D000FFF7BCFE294B0122C3F804251A46D2F823
:10A8E0000034002BFBD04FF010231522C3F80022B8
:10A8F000224AD2F80034002BFBD04FF0102315224F
:10A90000C3F804221D4AD2F80034002BFBD01B4BA5
:10A910000022C3F804251A46D2F80034002BFBD0DD
:10A92000FFF794FE164B174A1A60A6E6164AD3683C
:10A9300023F08073D360A4E6144B03221A60A4E6CC
:10A94000E00F00F03001001000ED00E0E8300020E2
:10A950000090D003E40F00F0E80F00F02403001093
:10A9600040350140440200103C05004058020010F0
:10A97000E40E0040340100103C17004000E00140AC
:10A9800074C007400DF0ADBAF0ED00E0A005004046
:10A990002C4B05221A60783301221A60703B00228A
:10A9A0001A60043B3F221A60274B1B78062B3FF4AA
:10A9B0001FAF3EE74FF08052D2F80414234BC3F888
:10A9C0002015D2F80814C3F82415D2F80C14C3F8D3
:10A9D0002815D2F81014C3F82C15D2F81414C3F8A3
:10A9E0003015D2F81814C3F83415D2F81C14C3F873
:10A9F0004015D2F82014C3F84415D2F82414C3F833
:10AA00004815D2F82814C3F84C15D2F82C14C3F802
:10AA10005015D2F83014C3F85415D2F83414C3F8D2
:10AA20006015D2F83814C3F86415D2F83C14C3F892
:10AA30006815D2F84014C3F86C15D2F84424C3F852
:10AA4000702527E610560040E00F00F000C00040DF
:10AA500001600B6843604A68934204BF002343606F
:10AA60007047436843B1026891680B444360526881
:10AA7000934204BF00234360704700B585B00021B6
:10AA800001910291039001AA44F2010000F004F840
:10AA900005B05DF804FB000072B6094B1B6813F0AB
:10AAA000010F00D000BEBFF34F8F0649CA6802F401
:10AAB000E062054B1343CB60BFF34F8F00BFFDE750
:10AAC000F0ED00E000ED00E00400FA05EFF3108285
:10AAD00072B6114B9B68C3B930B40F4901238B6028
:10AAE0000E4BD3F880400E4D2C400C60C3F88050C4
:10AAF000D3F884404C604FF0FF31C3F8841000233A
:10AB0000037002B962B630BC7047012303700AB902
:10AB100062B67047704700BF0037002000E100E0D8
:10AB2000FC06FFBD084B9B686BB160B9EFF3108169
:10AB300072B6054B1868054A1060586850600022CC
:10AB40009A6001B962B670470037002000E100E06A
:10AB500041DF704710B50024054B1C70054B1C608D
:10AB6000BFF35F8F04490548FFF772FF204610BD11
:10AB7000E8360020EC36002080010500E036002099
:10AB800000B583B002A8002300F8013DFFF79EFF47
:10AB9000F1EE103A23F09F03E1EE103ABFF35F8F1E
:10ABA000094B4022C3F884219DF80700FFF7BAFF44
:10ABB000FFF740FA28B920BF40BF20BF03B05DF8BF
:10ABC00004FBFFF7C5FFF9E700E100E038B50546F3
:10ABD0000C4600F0A3F8114B1B7801335A4203F0E6
:10ABE0007F0302F07F0258BF5342DBB20C4A127857
:10ABF000D2B29A420FD009490878C0B2094A42F845
:10AC00003050087802EBC00254600B70012400F051
:10AC10008FF8204638BD0024F9E700BFF136002048
:10AC2000F03600206C48002038B50D4D2B78DCB292
:10AC300000F074F82B7801335A4203F07F0302F0DE
:10AC40007F0258BF5342DBB22B7000F071F8054B06
:10AC500053F8342003EBC4035868904738BD00BF55
:10AC6000F03600206C48002038B5054600F056F854
:10AC700028461CF067FD044600F05AF824B12A4625
:10AC8000002120461CF03FFE204638BD10B504468A
:10AC900000F044F820461CF05DFD00F049F810BDBE
:10ACA00008B580B2FFF7E0FF08BD08B580B2FFF736
:10ACB000DBFF08BD08B5FFF7E9FF08BD08B5FFF7E2
:10ACC000E5FF08BD08B5FFF7E1FF08BD08B51CF0BA
:10ACD0008BF808B51C30FEF714F908BD037ADBB217
:10ACE000012B00D07047022902D002230372F9E73A
:10ACF0000323037270470000BFF34F8F0549CA68F2
:10AD000002F4E062044B1343CB60BFF34F8F00BFEC
:10AD1000FDE700BF00ED00E00400FA0572B6034A4B
:10AD200013780133DBB21370704700BFFC3600208C
:10AD3000034A1378013BDBB2137003B962B6704764
:10AD4000FC3600204FF0FF3070474FF400534B604B
:10AD5000002070474FF0FF30704700207047000020
:10AD600008B50C4B1B684BB10A4B19680B180A4A03
:10AD7000934207D8074A1360084608BD054B074AA7
:10AD80001A60F1E70246044B05481DF0A7FE4FF09C
:10AD9000FF31F1E7F8360020B8BB0020704C0020EE
:10ADA0008C010500FEE74FF0FF307047012070472F
:10ADB00070470000024B034AC3F80026704700BFEB
:10ADC000000001403546526E38B50446194B012249
:10ADD000C3F804251A601A46D2F80031002BFBD0C4
:10ADE000144B0022C3F80021D3F8080580B21A469C
:10ADF000D2F80031002BFBD00E4BD3F808250125EB
:10AE00005D6040EA022080B21DF0F8FE4FF0804302
:10AE1000D3F800242262C3F8002403F51043002273
:10AE2000C3F80425C3F810250322C3F808251D60C4
:10AE300038BD00BF00D0004008B5034B01225A6066
:10AE4000FFF79EFE08BD00BF0090004038B50446E5
:10AE50001546104B036041600F4B83604FF0FF338A
:10AE6000C36001230374143002F010F90B4B03F19B
:10AE700008022260383363610C2384F82430A56211
:10AE800000220023C4E90C23C4E90E230023236419
:10AE9000204638BDC80105000024F400E00105008B
:10AEA000006A704700487047B8FB0020002863D054
:10AEB0002DE9F04B0646FFF731FF314DD5E90E2362
:10AEC000C6E9002301F0F8F980464FF000092B6C29
:10AED000984247D3C41A69F10005FFF729FF01F032
:10AEE000FBF96901620141EAD463121B63EB0503BC
:10AEF000590241EAD25157023A1941EB05034FEA90
:10AF0000831C4CEA926C4FEA821BBBEB02086CEB91
:10AF100003090246002318EB040049EB05011BF06E
:10AF2000E3FDB060174B83FB0023C217D2EBA343B2
:10AF300010D0D6E90045E11845F10002C6E900123B
:10AF4000104A82FB0032C317C3EBA2430E4A02FB36
:10AF50001300B0600D4C96E80F0084E80F0000204D
:10AF6000BDE8F08B01F0BBF9054B1B6CC01A18EB68
:10AF7000000449F10005B0E74FF0FF30704700BF13
:10AF80000834002083DE1B4340420F00D8FB002022
:10AF90002DE9F04784B08A46914698460C9F0D9E55
:10AFA0000E9D0F9C00216846FFF780FF68461CF04D
:10AFB000BFF902684168D0F808C0D0F80CE0036916
:10AFC000BAF1000F04D0406900F26C70AAF80000DA
:10AFD000B9F1000F02D0013389F80030B8F1000F49
:10AFE00001D088F800E00FB187F800C006B13170D9
:10AFF00005B12A700CB1029B236004B0BDE8F08754
:10B00000A0F11400FFF7C4BF2DE9F0438FB006464E
:10B01000894690461F4600210AA8FFF747FF0AA865
:10B020001CF086F901AC05460FCD0FC40FCD0FC43F
:10B030002B682360CDF80C90CDF808800EA840F85E
:10B04000347D1CF043FDDDE90A23904271EB0303DC
:10B0500003DA044A002380185941C6E90C010FB0F5
:10B06000BDE8F08380510100A0F11400FFF7CCBFD0
:10B0700031B3F0B585B00C46054600216846FFF7B0
:10B0800015FFD5E91267DDE90023921B63EB070387
:10B0900010461946C4E900012A6D029B9B1AA36061
:10B0A000002B01DB05B0F0BD10F1FF3641F1FF3799
:10B0B000C4E9006703F5742303F51073A360F1E797
:10B0C0007047A0F11400FFF7D3BF0000002869D03B
:10B0D0002DE9F04F87B0044680684FF40043009399
:10B0E0000023324A1946C0F5742000F5107001F0B3
:10B0F0007DF90646002102A8FFF7D8FE2C4FD7E9BC
:10B100001289DDE90223B2EB080263EB09039246E0
:10B110009B46049D3B6DED1A23D4FFF7FFFDD4E958
:10B1200000232349C1E90E23202E23D8D4E90001AE
:10B13000B0EB0A0061EB0B0106460F461C4AC2E960
:10B140001267A3685B1B1365002B1FDBFFF7F0FD85
:10B15000184D94E80F0085E80F00002007B0BDE807
:10B16000F08F12F1FF3A4BF1FF3B05F5742505F521
:10B170001075D2E701F0A0F80644304601F0C0F89F
:10B1800001F0AAF8361A0A4B1E64CFE710F1FF301F
:10B1900041F1FF31C2E9120103F5742303F5107385
:10B1A0001365D3E74FF0FF30704700BF40420F00F8
:10B1B00008340020D8FB002010B58EB0139CA1F2FB
:10B1C0006C710A91013A099208939DF840300793F7
:10B1D0009DF8443006930EA89DF8483040F8243D71
:10B1E0001CF074FCCDE90001054B9C4288BF002493
:10B1F000029400216846FFF769FF0EB010BD00BF42
:10B200003F420F00A0F11400FFF7D6BF08B504308D
:10B21000FDF766FE08BD704710B50446FFF716FE41
:10B22000024B236030336361204610BD34020500B9
:10B2300083680422C3F8082383680022C3F8082126
:10B240008368C3F81C158268D2F80831002BFBD044
:10B250000023C2F808318368D3F81805C0B27047DC
:10B2600038B5044683680025C3F80055294690F98F
:10B270000C0000F0FFFA294694F90D0000F0FAFAEC
:10B28000294694F90E0000F0F5FA38BD70B5044671
:10B290000E46154601F012FA012194F90C0000F057
:10B2A000E9FA012194F90D0000F0E4FA002194F983
:10B2B0000E0000F0DFFAA268314B94F90C1013F87D
:10B2C0002110C2F80815A26894F90D1013F8211086
:10B2D000C2F80C15A26894F90E1013F82130C2F8C8
:10B2E0001035284B9E421BD9A3684FF00042C3F88B
:10B2F0002425003518BF0125204601F0E1F908B1E9
:10B3000045F00405204601F0DFF908B145F00205DB
:10B31000A368C3F85455A3680122C3F8002570BD83
:10B32000194B9E4205D9A3684FF08042C3F82425EB
:10B33000DFE7164B9E4205D9A3684FF00052C3F8D1
:10B340002425D6E7124B9E4205D9A3684FF08052C0
:10B35000C3F82425CDE70F4B9E4205D9A3684FF0D3
:10B360000062C3F82425C4E70B4B9E42A3688CBF40
:10B370004FF080624FF00072C3F82425B9E700BF98
:10B3800014F90400FF117A00FF083D007F841E00BD
:10B390003F420F001FA107008FD0030030B4054DBE
:10B3A000056081609DF9081001734273837330BC9E
:10B3B000704700BF80020500437C3BB9836C0422C8
:10B3C000C3F80423826C0123136043747047437CE9
:10B3D00043B1836C0422C3F80823836C01225A60B2
:10B3E000002343747047000030B4012416491BE069
:10B3F000836C9C60438D9BB2826C456AEB5CC2F8A7
:10B400001C35826CD2F81C31002BFBD0438D5A1CAA
:10B41000058C92FBF5F305FB13239BB24385438D0B
:10B42000028D9BB2934207D0EFF31083012BDFD044
:10B430000B78002BF3D0DBE7836C8022C3F8082362
:10B440000023C37430BC7047FC36002038B590F937
:10B450005030002BC0F2888090F95120002AC0F2B1
:10B460008380012202FA03F34FF0A042C2F80835AC
:10B4700090F9503003F5E073032442F8234090F92B
:10B48000513003F5E0730C2442F82340836C90F9AB
:10B490005020C3F80C25836C90F95120C3F8142573
:10B4A000B1F5966F32D0B1F5166F5ED0B1F5965FFB
:10B4B00061D0B1F5165F63D0B1F5615F65D0B1F5CC
:10B4C000964F68D0B1F5E14F6AD0B1F5164F6CD008
:10B4D000B1F5614F6ED0B1F5963F70D0B1F5E13F57
:10B4E00072D0B1F5613F74D0474B994276D0B1F537
:10B4F000E12F79D0B1F5612F7BD0444B994233D104
:10B50000836C4FF08052C3F8242504E0836C4FF421
:10B510009E22C3F824250446836C0025C3F86C558D
:10B52000836C0422C3F80025836CC3F80851836C34
:10B53000C3F81C51826C4FF0FF33C2F80835826C9F
:10B54000C2F81035836C01229A6031490A201BF041
:10B5500035FDE0642B46022229461DF083FB637C07
:10B56000002B4BD10123237438BD836C4FF41D2273
:10B57000C3F82425CFE7836C264AC3F82425CAE7FD
:10B58000836C254AC3F82425C5E7836C4FF46C12FD
:10B59000C3F82425BFE7836C204AC3F82425BAE703
:10B5A000836C1F4AC3F82425B5E7836C1D4AC3F892
:10B5B0002425B0E7836C1C4AC3F82425ABE7836CD1
:10B5C0001A4AC3F82425A6E7836C194AC3F8242530
:10B5D000A1E7836C174AC3F824259CE7836C4FF0DE
:10B5E0008062C3F8242596E7836C134AC3F82425A8
:10B5F00091E7836C114AC3F824258CE72368DB6A42
:10B6000020469847AEE700BF90D0030040420F00AD
:10B610008C02050000B013000050270000A04E006F
:10B6200000F0750000509D0000F0EB0000903A0122
:10B6300000E0D70100B0AF0300705F0700D0BE0E7E
:10B6400038B5044600250574836CC3F8005590F99D
:10B6500050204FF0A04302F5E072032043F822008F
:10B6600094F95010012202FA01F1C3F80C1594F973
:10B67000511001F5E07143F8210094F951108A400E
:10B68000C3F80C25E06C1BF06FFCE56438BD0EB40C
:10B6900000B582B003AA52F8041B0192C06C1CF0E2
:10B6A000B7FD02B05DF804EB03B07047F8B504468F
:10B6B0000F4616461D46BDF81C20BDF8181000F0B8
:10B6C00021FF064B2360A7640023E36484F85060E5
:10B6D00084F8515084F852302046F8BD9802050095
:10B6E000438D5A1C018C92FBF1F301FB13239BB297
:10B6F0004385038D428D9BB293420ED0836C012211
:10B700009A60438D9BB2826C416ACB5CC2F81C3557
:10B71000836C8022C3F804237047836C8022C3F8B3
:10B7200008230023C3747047037C43B12DE9F04123
:10B730000E46044605464FF00008214F06E0002063
:10B740007047A36CD3F81C21012A0CD023689B6896
:10B750002846984768B9EFF31083012BF1D03B7866
:10B76000002BF3D0EDE7C3F81C812846FFF7B8FFA4
:10B77000ECE7FFF7D3FAB4F828801FFA88F8678D52
:10B78000BFB23146284600F069FEB84504D0FFF745
:10B79000CFFA0120BDE8F081E37C002BF7D1012333
:10B7A000E374A26C8021C2F80413A26C9360638DD1
:10B7B0009BB2A26C616ACB5CC2F81C35E7E700BFA4
:10B7C000FC36002010B50446836CD3F8082122B95A
:10B7D000A36CD3F81C2152B910BD0022C3F8082174
:10B7E000836CD3F81815C9B200F0CBFEF0E7002245
:10B7F000C3F81C212046FFF773FFEDE7826C01239D
:10B80000D36180F852307047037C63B190F85230B6
:10B810004BB1836C01229A60437C0BB1836C1A603C
:10B82000002380F852307047104B13F820301B0271
:10B830000B2912D00C2913D00A2908BF43F4403336
:10B8400043F00103094A02EB800090F9012002F560
:10B85000A272074941F82230704743F00113F1E723
:10B8600043F4003343F00103ECE700BF14F9040094
:10B8700000600040002836DB39B1012910D00229D0
:10B8800019D0032923D000207047184B13F820301B
:10B8900003F5E0734FF0A04242F8231001207047F7
:10B8A000124B13F8203003F5E07301204FF0A04253
:10B8B00042F8230070470D4B13F8203003F5E07376
:10B8C0004FF0A0420C2142F8231001207047074B93
:10B8D00013F8203003F5E0734FF0A042042142F842
:10B8E0002310012070470020704700BF14F90400A6
:10B8F000002816DB51B10C4B13F82030012000FA60
:10B9000003F34FF0A042C2F808357047064B13F816
:10B910002030012000FA03F34FF0A042C2F80C35AA
:10B9200070470020704700BF14F90400031E0ADBB3
:10B930004FF0A042D2F81005044A12F82330D84044
:10B9400000F0010070474FF0FF30704714F9040019
:10B950002DE9F843051E3ADB204C04EB850494F9ED
:10B9600001C0BCF1000F35DB98460E461C4F4FEA74
:10B970008C0404EB0C0307EBC3034FF0000983F8BE
:10B980000390C3F804901146E8B2FFF74DFF134847
:10B9900000EB850595F9012002EB8203DB00F91825
:10B9A00007F8039081F801804E6046B1012303FA45
:10B9B00002F20C4BC3F804234846BDE8F883012388
:10B9C00003FA02F2074BC3F808230020F5E76FF0F3
:10B9D0000200F2E76FF00400EFE700BF14F9040083
:10B9E000C834002000600040094B99420AD8094B36
:10B9F0009942036D8CBF4FF080624FF0CC72C3F858
:10BA000024257047036D4FF0CD62C3F8242570479D
:10BA10007F1A06008FD0030010B5036D114A90F90C
:10BA2000541012F8211090F9554012F82420C3F850
:10BA30000815C3F80C25036DD3F82425B2F1CD6F9A
:10BA40000DD0D3F82425B2F1806F08D0D3F8242587
:10BA5000B2F1CC7F1CBF4FF0CC72C3F8242500F0AC
:10BA600021FE10BD14F9040030B442F21075858037
:10BA700000258571C571057280F8295080F82A501B
:10BA800080F84B5080F84C50044D0560016580F8FB
:10BA9000542080F8553030BC704700BFD8020500F4
:10BAA00010B4036D134A90F9541012F8211090F954
:10BAB000554012F82420C3F80815C3F80C25036D6F
:10BAC000D3F82425B2F1CD6F0DD0D3F82425B2F1EF
:10BAD000806F08D0D3F82425B2F1CC7F1CBF4FF083
