:020000022000DC
:10600000B8FB002019AC020041AC0200D1650200CF
:1060100045AC020047AC020049AC020000000000A1
:106020000000000000000000000000004BAC020077
:106030004DAC0200000000004FAC020051AC020069
:1060400053AC020053AC02001567020053AC0200CF
:1060500053AC020053AC02001966020053AC0200BC
:1060600053AC020053AC02007D67020053AC020047
:1060700053AC020053AC020053AC020053AC02001C
:10608000ED6502002D67020053AC020053AC020024
:1060900053AC020053AC02009DAA020053AC0200B4
:1060A00053AC020053AC020053AC020053AC0200EC
:1060B00053AC020053AC02000000000000000000DE
:1060C00053AC020053AC020053AC020053AC0200CC
:1060D00053AC020053AC020053AC020000000000BD
:1060E00000000000000000000000000000000000B0
:1060F00000000000000000000000000000000000A0
:10610000000000000000000000000000000000008F
:10611000000000000000000000000000000000007F
:10612000000000000000000000000000000000006F
:10613000000000000000000000000000000000005F
:10614000000000000000000000000000000000004F
:10615000000000000000000000000000000000003F
:10616000000000000000000000000000000000002F
:10617000000000000000000000000000000000001F
:10618000000000000000000000000000000000000F
:1061900000000000000000000000000000000000FF
:1061A00000000000000000000000000000000000EF
:1061B00000000000000000000000000000000000DF
:1061C00000000000000000000000000000000000CF
:1061D00000000000000000000000000000000000BF
:1061E00000000000000000000000000000000000AF
:1061F000000000000000000000000000000000009F
:1062000010B5054C237833B9044B13B10448AFF3F0
:1062100000800123237010BDE03300200000000047
:10622000E461050008B5034B1BB103490348AFF314
:10623000008008BD00000000E4330020E461050098
:10624000154B002B08BF134B9D46A3F5803A002148
:106250008B460F461348144A121A22F054FD0F4B76
:10626000002B00D098470E4B002B00D09847002001
:10627000002104000D000D48002802D00C48AFF3A7
:10628000008022F015FB2000290000F013F822F016
:1062900005F800BF00000800B8FB00200000000067
:1062A00000000000E0330020C44C0020000000008B
:1062B000000000002DE9F84F72B62C4C204600F08B
:1062C000F1FA62B6204605F0FDFC04F0D1FDDFF8DE
:1062D000A4B0DFF8A4A0A0463FE002B1904740463A
:1062E00005F0F0FCAC4218D004342268002AF9D042
:1062F0001388002BF6D0013B9BB21380002B18BFF4
:10630000012623689A68D86893F802C0BCF1000F90
:10631000E3D0C3F804902760DFE79BF800309AF8D9
:106320000020DBB2934208D1A6B1114C04F18005E4
:1063300000264FF0FF393746D6E705F0ADF9404665
:1063400005F0C0FC9BF800309AF80020DBB29342C5
:10635000EBD1E9E7054B1B7C1BB9404605F0B2FCCD
:10636000E3E7024800F0D6FBF7E700BF1034002057
:106370005C370020443700204537002008B5FE2157
:10638000014807F02DFC08BDFC330020704710B514
:106390000446082105F0CAF9204610BD10B582B0A8
:1063A000074C002100910B460A46204607F08CFC62
:1063B000044A0549204608F073F802B010BD00BF3A
:1063C00004340020D03000208D63020008017047A3
:1063D000080970470268084B1A6042685A60826870
:1063E0009A60C268DA6002691A6142695A61826918
:1063F0009A61C269DA617047B8FB00207047704744
:1064000008B5034B01221A60024806F07DFB08BD67
:10641000009000406036002010B504460022054977
:1064200006F07AF8044B03F1080222603833636106
:10643000204610BD0090D003CC0C0500032900D9E4
:10644000704708B50B460021024AD05606F0D0FB33
:1064500008BD00BFC80C0500032900D9704708B566
:106460000B460121024AD05606F0C2FB08BD00BF10
:10647000C80C0500032900D9704708B5024B5856CF
:1064800006F0D4FB08BD00BFC80C0500032900D9E5
:10649000704710B51446084600230C222146024CD2
:1064A000205606F0E9FB10BDC40C05002DE9F843A9
:1064B0009046012827D00A2827D00B2818BF4FF074
:1064C000FF381DD1124DB8F1000F17DD4C1E04EB43
:1064D00008074FF00D0906E02B681B683178284645
:1064E0009847BC420CD00134264623780A2BF3D1BE
:1064F0002B681B68494628469847EDE74FF000088F
:106500004046BDE8F883024DDDE7024DDBE700BF02
:1065100010360020603600200020704710B5036858
:106520001F4C2360436863608368A360C368E360B3
:1065300003692361436963618369A361C369E3619B
:10654000184823F053FD2168174823F0C7FC616801
:10655000164823F0C3FCA168154823F0BFFCE1688E
:10656000144823F0BBFC2169134823F0B7FC616990
:10657000124823F0B3FCA169114823F0AFFCE16994
:10658000104823F0ABFCEFF308810F4823F0A6FC82
:106590000E480368DB68984705F036FB10BD00BF66
:1065A000B8FB00201C0C05002C0C05003C0C050061
:1065B0004C0C05005C0C05006C0C05007C0C050007
:1065C0008C0C05009C0C0500AC0C0500103600205E
:1065D00004207146084203D0EFF30980FFF79EBF05
:1065E000EFF30880FFF79ABF70470000084BD3F81D
:1065F000003163B1064B0022C3F800211EF0040FE6
:106600000CBFEFF30880EFF3098002490847704799
:1066100000000140D563020000B585B03A48FFF79D
:10662000EFFE0021684605F0C3FB384BD3F800317C
:106630001BBB364BD3F8043143BB344BD3F8083182
:106640006BBB324BD3F80C31002B31D12F4BD3F82D
:106650001031002B35D12D4BD3F81431002B39D10B
:106660002A4BD3F81831002B3DD1284BD3F81C31DD
:10667000002B41D105B05DF804FB0020234BC3F88B
:1066800000010246694607F063F9D2E700221F4B7A
:10669000C3F804216946012007F05AF9CDE700222A
:1066A0001A4BC3F808216946022007F051F9C8E7E0
:1066B0000022164BC3F80C216946032007F048F965
:1066C000C4E70022114BC3F810216946042007F0EB
:1066D0003FF9C0E700220D4BC3F81421694605209D
:1066E00007F036F9BCE70022084BC3F818216946C9
:1066F000062007F02DF9B8E7054806F01BFE034B0E
:106700000022C3F81C21B5E71034002000600040CF
:106710001036002008B50348FFF772FE024806F065
:10672000D1F908BD103400206036002010B5114C9E
:106730002046FFF765FE00212046FFF77FFE0E4B47
:10674000D3F8403143B90C4BD3F844315BB9002145
:106750000848FFF781FE10BD074B0022C3F8402117
:1067600006F056FFF3E7044B0022C3F8442106F07D
:1067700061FFECE7103400200010014008B51B4811
:10678000FFF73EFE1A4BD3F8403143B1184B0022BD
:10679000C3F84021174BB3F90430934221DA144B6C
:1067A000D3F844311BB1124B0022C3F84421104BE3
:1067B000D3F848311BB10E4B0022C3F848210C4BD3
:1067C000D3F84C3163B10A4B0022C3F84C21094B7A
:1067D000B3F90430934203DB1146162006F008FAA1
:1067E00008BD0121162006F003FAD8E71034002076
:1067F00000A00040D430002010B50446502104F021
:1068000095FF204610BD10B50446542104F08EFFBC
:10681000204610BD70B582B0184D40240094234628
:1068200008220621284606F06FFD154E324615490E
:10683000284607F035FE144D019400940B230C22DA
:106840001249284606F0B2F832461149284607F0A8
:1068500027FE19230093182317220E490E4805F02E
:106860001DFF1A231B224FF040210C4806F090FA1E
:106870000B48FFF7D1FD02B070BD00BF10360020FD
:10688000D0300020FD630200603600200020004070
:10689000FF6302000030004068340020783400209C
:1068A0001034002030B583B0044605F015FA914B42
:1068B0001A6822F002021A601A6822F001021A60B5
:1068C00003F54F634FF000625A60A3F540634FF445
:1068D0008032C3F88021402283F8102393F81033CC
:1068E0005A09EC23134113F0010F08D0824B9B6827
:1068F000002B40F0E080814B4FF480321A60012180
:10690000112006F037F90121122006F033F9012198
:10691000132006F02FF90121142006F02BF9002195
:106920002046FFF799FD01212046FFF795FD022142
:106930002046FFF791FD03212046FFF78DFD022140
:106940000D2006F017F902210E2006F013F902219E
:106950000F2006F00FF90221102006F00BF9674B0B
:106960004022C3F88021602283F8062393F806337F
:106970005A09EC23134113F0010F07D05E4B9B68BB
:10698000002B40F09E805D4B40221A605B4B04223E
:10699000C3F88021602283F8022393F802335A0956
:1069A000EC23134113F0010F07D0534B9B68002BCE
:1069B00040F08D80514B04221A60514D286800230D
:1069C00002221946806823F04DFB2868002302222A
:1069D0001946406823F046FB286800230222194626
:1069E000C06823F03FFB4FF080420123C2F87835A6
:1069F000C2F8183502F58272002111601268019206
:106A0000019A404A1360FC321368002BFCD001232A
:106A10003D4A136004321360384B4FF40032C3F820
:106A20008021602283F8112393F811335A09EC2353
:106A3000134113F0010F07D02F4B9B68002B4CD153
:106A40002E4B4FF400321A60304B01221A6006F0D0
:106A500097FD002104F1480005F0AAF9274B4FF4F7
:106A60008062C3F88021402283F80A2393F80A3316
:106A70005A09EC23134113F0010F07D01E4B9B68FA
:106A8000002B30D11D4B4FF480621A60012116207B
:106A900006F070F80021162006F0AAF81C4B4FF4FF
:106AA0000022C3F804250122C3F804231A6004F06D
:106AB00089FD03B030BD104A136843F4803313607E
:106AC0001DE70D4A136843F0400313605EE70A4A6E
:106AD000136843F0040313606FE7074A136843F435
:106AE00000331360B0E7044A136843F48063136013
:106AF000CCE700BF10E000E05437002000E100E0E8
:106B000074310020080000400410014000100140D2
:106B100000000140037C03B9704710B504460F48DC
:106B200006F0A0FE38B10D4806F09EFEA8B90B484D
:106B300006F09FFE88B90A4806F094FE50B1084856
:106B400006F092FE48B9064806F093FE28B90448BC
:106B500005F0D4FF204605F0F7F810BD10360020F0
:106B60006036002072DF704773DF704710B504464F
:106B70000023036043608360C36003744374012394
:106B800083744FF4047004F0C3FD80B303462060A7
:106B9000FF22027001210171427902F0FE026FF3BF
:106BA00041024271002282604FF44860D8601A822C
:106BB0009A74C3F81320DA751A7659769A76D97EC4
:106BC00001F0F00141F01001D97603F13401D961EF
:106BD0001A8403F5917159621A854FF6FF729A85EE
:106BE000DA8540F2F31119865A86204610BD00223C
:106BF0000249034807F088F9F7E700BF4C0E05008B
:106C0000700E0500094BA3FB0131490AB1F5804F15
:106C100028BF4FF48041202938BF202103688AB261
:106C2000DA6040F2712000FB01F070475917B7D1CC
:106C30002DE9F041B0B00646002530AC44F8945D33
:106C4000624F2346027C6249384607F0B9F9234671
:106C5000727C6049384607F0B3F9376807AB059393
:106C600006958DF81C507368B2689A4216D02C466F
:106C7000DFF87C81234403F10C0207CA8DE807008A
:106C80000ECB05A801F0B8FD013573681834B26861
:106C9000D21AD21008FB02F2AA42EBD805A90CA81E
:106CA00001F030FD3C8D0D9B1C440C980EAB9842BE
:106CB00001D004F037FDEE2C27D90023049305A959
:106CC00012A801F01FFD04AB139A43493F4807F097
:106CD000D5F9129814AB984201D004F023FD3B4C37
:106CE00004AB3A8D3D49204607F0C8F904ABEE22CB
:106CF0003B49204607F0C2F9059807AB984201D0FE
:106D000004F010FD30B0BDE8F0813B8D7C6A1C447E
:106D100005A918A801F0F6FC189D05A91EA801F008
:106D2000F1FC1F9A2946204621F0C9FF1E9820AB8E
:106D3000984201D004F0F6FC18981AAB984201D0A2
:106D400004F0F0FC05A924A801F0DCFC3A8D259B99
:106D500013443B85249826AB984201D004F0E2FC12
:106D60003A1D07F11C013846FFF7FCFE044605A951
:106D70002AA801F0C7FC3B8D2B9A9B1A3B852A98C9
:106D80002CAB984201D004F0CDFC34B10023224654
:106D900014490E4807F014F9AEE701213878FFF7DF
:106DA000E3FE024628B100230F49084807F008F91E
:106DB000A2E700220D49054807F0A6F8059807ABA1
:106DC00098429FD004F0AEFC9CE700BF700E050017
:106DD000AC0D0500C40D0500DC0D0500F40D05002B
:106DE000000E0500040E0500280E0500400E0500EB
:106DF000ABAAAAAAF0B599B005460E460468684643
:106E000001F080FC019F009802AB984201D004F091
:106E100089FCEE2F10D9314606A801F073FC00233F
:106E2000079A1749174807F029F9069808AB9842BE
:106E300023D004F077FC20E031460CA801F062FC7E
:106E40000D9B23840C980EAB984201D004F06AFC91
:106E5000E769314612A801F055FC228C1299384698
:106E600021F02DFF129814AB984201D004F05AFC87
:106E700001232B74207800F00BF819B0F0BD00BF8F
:106E8000980D0500700E050070477CDF704700000C
:106E9000054B1B78984202D0FF2B01D070477047FA
:106EA000014B1870704700BFE430002008B5044B58
:106EB0001B681BB10146184600F0D0FC08BD00BF9E
:106EC000DC3600202D4B1B7803B1704730B583B002
:106ED000044603F083FD024630B1002328492948C7
:106EE00007F0CCF803B030BD02A9002341F8043DFF
:106EF000012003F00DFE024628B10023224921485B
:106F000007F0BCF8EEE702A850F8045D03F054FE69
:106F1000024670B1042805D000231C49194807F027
:106F2000ADF8DFE70023019A1949164807F004F984
:106F3000D8E7019AAA421BD1104B01221A7062684D
:106F4000002ACFD09DF8003003F0F0036FF3071351
:106F500002A800F8083D92B22168FFF796FF0246AA
:106F60000028BFD000230B49064807F087F8B9E78F
:106F700000230949034807F0DFF8DDE7B4360020B5
:106F8000B00E0500C40E0500D40E0500180F050054
:106F9000F00E0500440F0500300F050010B5044643
:106FA0000748FFF72DFAA31E012B00D910BD054B92
:106FB00018680028FAD0214604F019FEF6E700BF51
:106FC000103400204837002010B504461348FFF75E
:106FD00017FA2388102B15D0112B19D0104B1B68D2
:106FE00023B102F03FF9214600F0E2F90D4B1B6896
:106FF00023B102F04BF92146FFF746FF2046FFF789
:1070000055FF10BD00220849084806F07DFFE5E75E
:1070100000220749054806F077FFDFE7103400201B
:10702000D8360020B8360020840E0500C40E0500B6
:10703000980E05000379002BFCD1012303717047E2
:107040000023037170478160002303717047037947
:10705000002BFCD1806870478ADF704710B504466A
:107060000023436001220272154AC2600374436127
:107070000377036200F11C0242628262C3624FF432
:10708000847004F045FB206098B1037803F0F803A6
:107090006FF3C403037000234370A02242808280F8
:1070A0008360037300F118030361EE23838220469B
:1070B00010BD00220349044806F026FFF7E700BF91
:1070C0006C0F0500A40F0500B80F050070B506464B
:1070D0000C4631B970BD204604F024FB2C46002D2F
:1070E000F8D0E1683046FFF7F1FFA568206904F1A8
:1070F00018039842EFD004F015FBECE72DE9F843B4
:107100008468071D7CB34E68D1F80090B84606E04D
:10711000AB1B002BA6BFA046A468E46874B16569E8
:107120002A46B54228BF3246002AF1D04946206996
:1071300021F0B6FD03460028EAD0EAE7474512D021
:10714000D8F814403246A64228BF224632B1D8F8B9
:107150001010484621F0A4FD034600B9331B002B54
:1071600001DB404600E03846BDE8F8832DE9F84FE2
:107170008146884617468C6801F1040B002C37D0F5
:107180005668D2F800A008E0731B002BB9BFA368B3
:107190000122E36800227BB11C4665693246AE429B
:1071A00028BF2A46002AEFD02169504621F078FDF9
:1071B00003460028E8D0E8E7DAB92546D4F814A059
:1071C0007E685246B24528BF32462AB139682069E6
:1071D00021F066FD034608B9AAEB0603002B5DDB30
:1071E000C9F80040002389F804304846BDE8F88F0C
:1071F0005C46D8F80C50A54250D0204608F09EF8C6
:1072000025460446DAE701261DE0D3F800E0D3F86E
:1072100004C09868DA68C4F818E0C4F81CC020629A
:10722000626222E05D45EED07E686C693246A6421D
:1072300028BF22462AB12969386821F031FD03466A
:1072400000B9331BDE0F2C2004F062FA044610F163
:10725000100F12D000F1180101613B4653F8082BC2
:107260009A42D2D00261BA6882617A6862613B60F8
:1072700000237B603B72BB69A3625B462A462146C2
:10728000304608F05DF8D8F814300133C8F81430EF
:10729000C9F80040012389F80430A6E7002DC1D1C8
:1072A00000249DE770B582B0054669B10E46541AB8
:1072B00001940F2C0FD82868012C14D0ACB12246B1
:1072C000314621F0FCFC10E012B9002301930CE0E0
:1072D000094818F0BBF8002201A916F04DF8286003
:1072E000019BAB60E7E733780370019B6B602A6812
:1072F0000021D15402B070BDC80F05002DE9F84F30
:1073000082460C4615469B462C2004F001FA0646A0
:1073100010300BD006F118033361216962694FF018
:1073200000030A44FFF7BEFFA36AB36223783370F9
:107330000023B360F3607560E16839B9A5689DB357
:1073400037464FF02C094FF0000813E05B463246F9
:107350005046FFF7D3FFF060F0E72B782370C4F8B6
:107360000880C4F80C80BC606760E968A9B9AD68A2
:107370002746CDB1484604F0CBF904461030ECD096
:1073800004F11803236129696A694FF000030A4474
:10739000FFF788FFAB6AA362DFE75B4622465046F1
:1073A000FFF7ACFFE060E2E73046BDE8F88F000091
:1073B0002DE9F047ADF5147D05460C460B881B2BD7
:1073C00005D01D2B32D00DF5147DBDE8F0870B7A6A
:1073D000012BF8D1037200230374446B002CF2D00C
:1073E0008DF8E8317B937AAA7C927D927E93016A34
:1073F000A9B179A8029002ABFFF780FF024600E036
:107400001A469368002BFBD17C92024600E01A4694
:10741000D368002BFBD17D92EB6A7E937B9079A899
:10742000A0477B9979A8FFF751FECCE7067A002E9A
:10743000C9D10B31684600F0C9FA69467FA800F04F
:10744000CBFA05F118087FA94046FFF757FE07461B
:107450007F9881AB984201D004F064F905F11C03D8
:107460009F421CD0BF6A6B4693E80600384600F086
:10747000B5FD94F91B10384600F0E0FDA28C002AFF
:1074800036D12946384600F0DCFD6868002800F057
:107490004D8195F83030002B00F048817EE0237A52
:1074A00013F0080F1ED195F83120EB6A9A428AD961
:1074B000A82004F02DF9074600F02CFD002F82D003
:1074C0006B4693E80600384600F088FD94F91B10DF
:1074D000384600F0B3FDA28C5AB92946384600F070
:1074E000B0FD2FE000229D499D4806F00DFD6AE7A2
:1074F0000126237A13F0080F00F01E81384600F0B1
:10750000B7FD8146384600F0B6FD0246494602A85E
:1075100021F0D5FB384600F0AEFDA28C216A02AB0B
:10752000184421F0CCFB384600F0A5FDA28C0244A3
:1075300002A9384600F0AAFE2946384600F081FD2F
:10754000002EA2D169468EA800F046FA89AB879337
:107550008E9B90AA934200F0F4808793909B89932E
:107560008F9B889390AB8E9300238F938DF840323E
:107570008D9787AA414685A8FFF7F8FD879889ABC4
:10758000984201D004F0CEF88E9890AB984201D08A
:1075900004F0C8F86868002800F0C8800368DB6859
:1075A00039469847D5F80480D8F80030D3F80890C9
:1075B0003B788DF808307B788DF80930BB788DF8F2
:1075C0000A30FB788DF80B303A1D92E803000390E7
:1075D000ADF81010BB7A8DF81230BB89ADF81430BD
:1075E0003B69069309AB07937969BA694FF00003C9
:1075F0000A4407A8FFF756FE0FAB0D93F96A3A6BE2
:107600004FF000030A440DA8FFF74CFE7B6C139368
:10761000B7F94830ADF850303C6DFB6CE41AE2101D
:10762000504B03FB02F30022159216921792002B87
:1076300000F090804C4A934200F28A80204604F089
:1076400067F88446CDF854C0CDF858C06444179408
:10765000FA6C3B6D9A4222D002F1180EA3EB0E0A8F
:107660004FEADA0A414B03FB0AFA2AF0604A0AF1B0
:10767000010A0AEB4A0A0CEBCA0ABCF1000F08D057
:107680006446AEF118060FCE0FC496E8030084E8F6
:1076900003000CF1180C0EF1180ED445EDD1CDF805
:1076A00058C097F958308DF860301BAB1993F96DBD
:1076B0003A6E4FF000030A4419A8FFF7F3FD1FAC20
:1076C00007F174060FCE0FC496E8030084E80300A8
:1076D00027AC2594D7F88C10D7F890204FF00003F2
:1076E0000A4425A8FFF7DEFD97F8A4308DF8AC30EA
:1076F00002A94046C8472598A04201D004F012F8DC
:1077000019981BAB984201D004F00CF8159808B1F9
:1077100004F008F80D980FAB984201D004F002F87D
:10772000079809AB984201D003F0FCFF296810319B
:107730000020FFF791FC46E6216A384600F0A6FDDE
:10774000FAE689AC94AB13E90F0084E80F0007E771
:1077500017F076FE4FF0000C74E700BF7C0F0500B9
:10776000B80F0500ABAAAAAAAAAAAA0AABAAAA0A93
:1077700075DF7047B5DF70470022426002744261D6
:1077800000F110018161C16102621149416280F81A
:107790002820C262016380F834208263C16380F8CC
:1077A0004020426480F84C20026500F14C014165A4
:1077B0008165C26580F86420826600F16401C1665B
:1077C000016742678267C2674FF6FF7202807047A7
:1077D0006C0F050010B5094C00230A4608492046E5
:1077E00006F0EEFB00220749204606F08DFB002242
:1077F0000549204606F088FB10BD00BF08100500B3
:10780000F40F0500181005003010050070B506468D
:107810000C4651B1E1683046FFF7F8FFA5682046F5
:1078200003F080FF2C46002DF4D170BD8368043036
:107830009BB110B4098804461A8A8A4226BF1C46A6
:107840009B68DB68002BF7D1A04203D0238A8B42D0
:1078500098BF20465DF8044B704770472DE9F04112
:1078600084B005460C468B88ADF80E300B88112B82
:107870005AD034D9122B75D0552B28D104AE002301
:1078800046F8083DDFF840813346CA884B494046F8
:1078900006F0F4FBE788B7F5007FA8BF4FF4007748
:1078A00033463A464649404606F08AFB3A46BDF81A
:1078B0000E10284601F052FF3946BDF80E00FFF7C2
:1078C00059FF334602463F49404606F0D7FB214662
:1078D00005F1480002F052FA04B0BDE8F081102B27
:1078E000F5D101F0E9FE0028F1D00368227E1B7873
:1078F0009A42ECD1BDF80E3000222946284601F00C
:1079000071FF638A228ABDF80E10E08A0190A08A76
:107910000090284601F0D4FEE86F0028D7D0036815
:107920009B6829469847D2E70DF10E010C30FFF70E
:107930007DFF05F110018142C9D007F063FD03F01E
:10794000F1FE2B6A013B2B62E86F18B10368DB681C
:1079500029469847284601F0AFFE0028B7D0FFF728
:1079600067F9B4E70DF10E010C30FFF75FFF05F189
:1079700010039842ABD0828B23899A4203D1428B69
:1079800063899A4211D004F10801BDF80E00FFF797
:10799000EFFE63892289BDF80E10E0890190A0896D
:1079A0000090284601F08CFE91E7C28BA3899A4291
:1079B000E9D1028CE3899A42E5D188E740100500BD
:1079C0005010050058100500081005000A680260F4
:1079D0008A888280704700002DE9F041C2B00646D7
:1079E0000F4602AC14A818F0D7FABB4BA3640025CD
:1079F000C4F8B85084F8BC5084F8BD50C4F8C050E6
:107A0000C4F8C450C4F8C850C4F8CC50DFF8D882C9
:107A1000D8F80830236053F80C3CD8F80C20E2501A
:107A20006560236853F80C0C2946204408F0BFF920
:107A3000D8F81030A36053F80C3C42AA1344D8F88D
:107A4000142043F8F82CA36853F80C0C294604AB17
:107A5000184408F0ACF9D8F80430236053F80C3C13
:107A6000D8F81820E2509D4B236003F12802A2644D
:107A70001433A3609A4BE36025616561A561E561FC
:107A8000256265620CA807F081F8964BE360182325
:107A9000E36210AB2363656384F8385005A914A82A
:107AA00008F085F9A36853F80C4C04AB1C4494F817
:107AB000753053B9E56F002D00F09C812B7F002BB2
:107AC00000F09A81012384F87530302384F87430F3
:107AD000049B53F80C3C42AA1344022243F8F02CB6
:107AE000049B53F80C2C04AB1A44D36823F04A03CC
:107AF00043F00803D360397804A80EF0CBFC3A2396
:107B00008DF8073001220DF107010EF037FC049BC0
:107B100053F80C4C04AB1C4494F8753053B9E56F22
:107B2000002D00F072812B7F002B00F0708101236B
:107B300084F87530302384F87430049B53F80C3C7F
:107B400042AA1344022243F8F02C049B53F80C2C55
:107B500004AB1A44D36823F04A0343F00803D3600C
:107B6000797804A80EF096FC3A238DF806300122AD
:107B70000DF106010EF002FC049B53F80C4C04AB13
:107B80001C4494F8753053B9E56F002D00F048811E
:107B90002B7F002B00F04681012384F875303023C1
:107BA00084F87430049B53F80C3C42AA134402221C
:107BB00043F8F02C049B53F80C2C04AB1A44D36804
:107BC00023F04A0343F00803D360B97804A80EF009
:107BD00061FC3A238DF8053001220DF105010EF00C
:107BE000CDFB049B53F80C4C04AB1C4494F875304B
:107BF00053B9E56F002D00F01E812B7F002B00F0A4
:107C00001C81012384F87530302384F87430049B80
:107C100053F80C3C42AA1344022243F8F02C049B74
:107C200053F80C2C04AB1A44D36823F04A0343F0F6
:107C30000803D360F97804A80EF02CFC3A238DF8E1
:107C40000430012201A90EF099FB049B53F80C4C5F
:107C500004AB1C4494F8753053B9E56F002D00F067
:107C6000F5802B7F002B00F0F380012384F8753022
:107C7000302384F87430049B53F80C3C42AA13441C
:107C8000022243F8F02C049B53F80C2C04AB1A444A
:107C9000D36823F04A0343F00803D360397904A87A
:107CA0000EF0F8FB3A238DF8033001220DF10301A9
:107CB0000EF064FB049B53F80C4C04AB1C4494F88A
:107CC0007530B3B9E56F002D00F0CB802B7F002B12
:107CD00000F0C9800AE000BFA42105009843050018
:107CE000F8210500A042050064430500012384F843
:107CF0007530302384F87430049B53F80C3C42AA4E
:107D00001344022243F8F02C049B53F80C2C04ABD0
:107D10001A44D36823F04A0343F00803D360797907
:107D200004A80EF0B7FB06F108043460002373606A
:107D300033720A9A002A00F0CD8008998A4240F2F4
:107D4000A0803EAD3C9509993CA8FFF7ABFA33689B
:107D50003C9AAA4200F090809C4200F0C080B1683A
:107D600032603D9A72603E9AB260002B00F0BC8097
:107D70003C933E9100233D933C9A13703C983EAB5C
:107D8000984201D003F0CEFC5D4B029303F1280230
:107D90001492143304935B4B05930E9810AB9842E6
:107DA00001D003F0BFFC02AC574B05930CA807F0C1
:107DB000E5FC564B5A68226052F80C2C9969A15088
:107DC0001A69A26052F80C2C42A90A44596942F877
:107DD000F81C9A68226052F80C2CDB68A350002330
:107DE00063604B4BA36414A818F016F9304642B0F8
:107DF000BDE8F08117F027FB284615F086FA2B68BE
:107E00009B692021284698475CE617F01CFB284612
:107E100015F07BFA2B689B6920212846984786E657
:107E200017F011FB284615F070FA2B689B6920218A
:107E300028469847B0E617F006FB284615F065FA85
:107E40002B689B69202128469847DAE617F0FBFA51
:107E5000284615F05AFA2B689B6920212846984736
:107E600003E717F0F0FA284615F04FFA2B689B69E4
:107E700020212846984739E73CA9304615F009FBF0
:107E800078E738AD36954FF000030A46099936A8D1
:107E9000FFF708FA3368369AAA4216D09C4226D0D9
:107EA000B1683260379A7260389AB26023B3369301
:107EB000389100233793369A1370369838AB98422E
:107EC0003FF462AF03F02EFC5EE736A9304615F0B2
:107ED000E0FAEEE70EA9304615F0DBFA54E732601F
:107EE0003D9B73603E9BB3603EAB3C9342E7326088
:107EF000379B7360389BB36038AB3693D9E700BFCC
:107F000098430500A0420500F821050064430500E0
:107F1000A42105002DE9F04782B004462D49043024
:107F2000FFF754FD04F1140A04F11C0363610025FA
:107F3000A561257704F12C0904F13403E36225637C
:107F400084F83450E5642565656504F15C0804F146
:107F50006403E365256684F8645004F1740002F05C
:107F600097F804F18C0704F19403C4F88C30C4F83A
:107F7000905084F89450A572A5812561164E009505
:107F80003346A2692946504615F01AFC009533463F
:107F9000226B2946484615F013FC4FF40043A4F821
:107FA000483000953346226E2946404615F008FCBD
:107FB00084F85850656400953346D4F890202946DB
:107FC000384615F0FDFB2570E570204602B0BDE88F
:107FD000F08700BF841005002417050010B483B09B
:107FE00004466B4683E8060093E803006060218145
:107FF00003B05DF8044B704708B50A468181012340
:10800000037000230249034805F0DAFF08BD00BFF2
:1080100098100500A810050010B504462C3015F086
:1080200038FA0123A3700023E26A0249024806F0ED
:10803000ABF910BD88110500A8100500A0F8481084
:1080400070474164704708B50123C3705C3015F078
:1080500020FA08BD08B50A4680F8581000230249E6
:10806000024805F0ADFF08BD8C100500A810050002
:10807000D0F88C007047D0F8900070472DE9F04F91
:1080800083B01646046843681B1BDA104A4B03FB97
:1080900002F34A4A934209D081460D46ABB15A00D9
:1080A000934206D90C1BDFF814A111E0444817F0E5
:1080B000D0F9424B934228BF13469A460C1B3AB95B
:1080C0004FF000080AE0464636E00C1B4FF0010A6C
:1080D0000AEB4A00C00003F01BFB804618EB0404C7
:1080E00005D00FCE0FC496E8030084E80300D9F84A
:1080F00000E0AE45E7D00EF1180CA5EB0C0B4FEAF3
:10810000DB0B304B03FB0BFB2BF0604B0BF1010B3C
:108110000BEB4B0B08EBCB0B464646B13446ACF1B0
:1081200018070FCF0FC497E8030084E80300183640
:108130000CF1180C5E45F0D106F1180BD9F804309B
:10814000AB4225D005F1180CA3EB0C03DB081D4A4C
:1081500002FB03F323F06043019303EB430306EBBD
:10816000C30630365F4647B13C46ACF118050FCD2B
:108170000FC495E8030084E8030018370CF1180CCD
:10818000B742F0D1019B013303EB43030BEBC30B6D
:10819000BEF1000F02D0704603F0C4FAC9F80080A7
:1081A000C9F804B00AEB4A0A08EBCA03C9F8083058
:1081B00003B0BDE8F08F00BFABAAAAAAAAAAAA0A78
:1081C00094110500ABAAAA0A84B070B586B0064621
:1081D0000BA880E80E00346D736D9C421FD034B143
:1081E00005460FCD0FC495E8030084E80300336D06
:1081F000183333650BA9684601F06CFF0023009A21
:108200000A490B4806F0C0F8009802AB984201D02A
:1082100003F088FA06B0BDE8704004B070470BAABE
:10822000214606F14C00FFF729FFE3E7BC100500EB
:10823000A810050070B582B0054669B10E46541A03
:1082400001940F2C0FD82868012C14D0ACB1224611
:10825000314620F034FD10E012B9002301930CE008
:10826000094817F0F3F8002201A915F085F82860F5
:10827000019BAB60E7E733780370019B6B602A6872
:108280000021D15402B070BDC80F05002DE9F04F98
:10829000E9B00646884693461CAC1A944FF000039A
:1082A0008A181AA8FFF7C6FFD6F88C301A9AA2428D
:1082B0004DD006F194018B4200F00882D6F894105C
:1082C000C6F88C201B9AC6F890201C9AC6F89420F9
:1082D000002B00F003821A931C9100231B931A9A1F
:1082E00013701A981CAB984201D003F01BFAA94DE9
:1082F000002400942B46326B214606F12C0015F029
:108300005FFA86F858403470B472F470F36C3365D9
:1083100006F114031846059300942B46B2692146D2
:1083200015F04EFA199419AB5A469B499B4805F033
:10833000A5FE049698F800506B1C1C44E4B265B985
:1083400008F101085C45F5D369B0BDE8F08F1AA9C2
:1083500006F18C0015F09DF8BFE798F8017008F160
:108360000206013DEDB20DF164094B463A468C49D7
:108370008A4805F0E1FECDF800902B463246894947
:10838000864805F095FF072F00F0968010D9192F29
:1083900058D02CD80A2F4DD0162F00F0B280092FBC
:1083A00035D019AB3A4680497C4805F0C5FE46E019
:1083B000032F08D8022F4BD2012FF2D198F80230A8
:1083C000049A93723BE0052F5CD938AF002310224A
:1083D0003146384601F026FE3BAB93E807008DE8B6
:1083E000070097E80E000498FFF7EEFE27E0212F24
:1083F00000F02181FF2F71D0202FD2D1032D00F268
:10840000D98019AA6949654805F07EFD17E022AFB9
:1084100020974FF000037219314620A8FFF70AFF9A
:1084200020A90498FFF7F8FD2098B84207D003F080
:1084300079F904E098F902100498FFF70BFE06EBB7
:1084400005087FE7B8F802100498FFF7D5FDF6E7B6
:108450005FEA550AF3D0B14606EB4A0A26AF0DF1A2
:10846000A40839F8021B384601F006FE98E8070018
:108470008DE8070097E80E000498FFF7A5FED145A8
:10848000EFD1DCE75FEA950AD9D0B14606EB8A0A5C
:108490002CAF0DF1BC0859F8041B384601F0F2FD71
:1084A00098E807008DE8070097E80E000498FFF7AA
:1084B0008BFECA45EFD1C2E732AF0023102231460E
:1084C000384601F0AFFD35AB93E807008DE80700B3
:1084D00097E80E000498FFF777FEB0E740AF3E97AD
:1084E0004FF00003721931463EA8FFF7A3FE3EA9E4
:1084F000059814F0CEFF3E98B842A0D003F012F9D0
:108500009DE7012D40D9B8F8021044A801F0B4FD50
:108510000DF11C0C44AF0FCFACE80F0097E803003F
:108520008CE803000123049AD37002F1740C07AFA6
:10853000BE46BEE80F00049F7867CCF80410CCF864
:108540000820CCF80C30DEF80000CCF810009EF8C3
:1085500004308CF81430022D7FF671AF08F104015D
:108560004CAF4A97AA1E4FF000030A444AA8FFF7EF
:1085700061FE4AA90498FFF766FD4A98B8423FF4A5
:108580005EAF03F0CFF85AE719AA0949034805F08E
:10859000BBFC54E724170500B0110500A810050026
:1085A000D0100500D8100500741105001011050049
:1085B000E0100500D8F8021050A801F063FD0DF19D
:1085C000340C50AF0FCFACE80F0097E803008CE8F5
:1085D00003000123049AD37002F1740C0DAFBE4660
:1085E000BEE80F00049F7867CCF80410CCF8082090
:1085F000CCF80C30DEF80000CCF810009EF8043007
:108600008CF81430042D7FF61AAF08F1060158AF2C
:1086100056972A1F4FF000030A4456A8FFF70AFE98
:1086200056A90498FFF70FFD5698B8423FF407AFDC
:1086300003F078F803E70F2D05D819AA29492A482D
:1086400005F062FCFBE60023102231465CA801F035
:10865000E9FC0DF14C0C5CAF0FCFACE80F0097E8D4
:1086600003008CE803000123049AD37002F1740C18
:1086700013AFBE46BEE80F00049F7867CCF8041025
:10868000CCF80820CCF80C30DEF80000CCF8100054
:108690009EF804308CF81430102D7FF6D0AE08F11F
:1086A000120164AF6297A5F110024FF000030A4473
:1086B00062A8FFF7BFFD62A90498FFF7C4FC6298A7
:1086C000B8423FF4BCAE03F02DF8B8E6C6F88C20F3
:1086D0001B9BC6F890301C9BC6F894301CAB1A93B9
:1086E000FBE500BF40110500A810050008B54A6869
:1086F000436813441F2B00D908BD096815F0E4F83E
:10870000FAE7000070B582B0044600F10803036088
:108710000E684D6876B101950F2D10D82068012D97
:1087200016D0C5B9019B636022680021D154204650
:1087300002B070BD002DEED0094816F087FE002271
:1087400001A9204614F018FE2060019BA360E5E714
:1087500033780370E6E72A46314620F0B0FAE1E7C5
:10876000C80F050084B070B5064605A880E80E0065
:10877000B468F3689C420ED034B105460FCD0FC4E7
:1087800095E8030084E80300B3681833B360BDE8DC
:10879000704004B0704705AA2146301DFFF76EFCFB
:1087A000F5E730B591B005460CAB0A930C4601B322
:1087B000084622F069FD22184FF0000321460AA85E
:1087C000FFF738FD04AC0AA9204601F09BFB07AB7C
:1087D00093E807008DE8070094E80E002846FFF7AD
:1087E000C1FF0A980CAB984201D002F09BFF11B078
:1087F00030BD4FF0FF32DFE784B0F0B5BBB00446C8
:1088000041A880E80E0001F047FC202871D08028A4
:1088100000F0D780102804D03BB0BDE8F04004B091
:10882000704703238DF80C308DF80D300CAD0A9590
:108830004FF000030DF10E0203A90AA8FFF7FAFC9E
:1088400012AB10934FF000030DF5857242A910A8EA
:10885000FFF7F0FC0B98119A81180A9BAB4214BFEA
:108860000C9D0F25A94207D912AD109EAE4214BF30
:10887000129D0F25A9422BD910990AA815F024F8AA
:10888000054606AB04932E4656F8083BB34227D064
:108890000493AB6806936B6805932E6000236B60AE
:1088A0002B7204A92046FFF721FF049806AB9842DB
:1088B00001D002F037FF109812AB984201D002F0BD
:1088C00031FF0A980CAB9842A6D002F02BFFA3E729
:1088D00000900022114610A814F072FF0546D0E760
:1088E00006AF2B4653F8080F59689A68DB680FC724
:1088F000D1E705238DF80C308DF80D301EAD1C9599
:108900004FF000030DF10E0203A91CA8FFF792FC23
:1089100024AB22934FF0000343AA42A922A8FFF7F9
:1089200089FC1D98239A81181C9BAB4214BF1E9D85
:108930000F25A94207D924AD229EAE4214BF249D23
:108940000F25A9422CD922991CA814F0BDFF054679
:1089500018AB16932E4656F8083BB34228D0169310
:10896000AB6818936B6817932E6000236B602B72B3
:1089700016A92046FFF7BAFE169818AB984201D008
:1089800002F0D0FE229824AB984201D002F0CAFE39
:108990001C981EAB98423FF43FAF02F0C3FE3BE78A
:1089A00000900022114622A814F00AFF0546CFE7E6
:1089B00018AF2B4653F8080F59689A68DB680FC741
:1089C000D0E711238DF80C3007238DF80D3030AD32
:1089D0002E954FF000030DF10E0203A92EA8FFF70C
:1089E00029FC36AB34934FF0000346AA42A934A8C1
:1089F000FFF720FC2F98359A81182E9BAB4214BFAD
:108A0000309D0F25A94207D936AD349EAE4214BF22
:108A1000369D0F25A9422CD934992EA814F054FF65
:108A200005462AAB28932E4656F8083BB34228D079
:108A30002893AB682A936B6829932E6000236B60A0
:108A40002B7228A92046FFF751FE28982AAB98429E
:108A500001D002F067FE349836AB984201D002F0A4
:108A600061FE2E9830AB98423FF4D6AE02F05AFE2B
:108A7000D2E600900022114634A814F0A1FE05466B
:108A8000CFE72AAF2B4653F8080F59689A68DB687E
:108A90000FC7D0E7F0B58FB006460C460022254937
:108AA000254805F031FA636801338DF80430FF235F
:108AB0008DF805300AAB08934FF000030DF1060264
:108AC00001A908A8FFF7B6FB6268216808A814F09E
:108AD000FBFE044604AB0293054655F8083BAB4247
:108AE0001FD0029383680493636803932560002377
:108AF0006360237202A93046FFF7F8FD029804ABC9
:108B0000984201D002F00EFE08980AAB984201D0BC
:108B100002F008FE00220949074805F0F5F90FB0F8
:108B2000F0BD04AF034653F8080F59689A68DB6834
:108B30000FC7D9E7C4110500DC110500F4110500C9
:108B4000F0B58FB006460C4600230A682549264832
:108B500005F01AFC636801338DF8043009238DF8A1
:108B600005300AAB08934FF000030DF1060201A98E
:108B700008A8FFF75FFB6268216808A814F0A4FE4C
:108B8000044604AB0293054655F8083BAB421FD0A0
:108B900002938368049363680393256000236360F2
:108BA000237202A93046FFF7A1FD029804AB984258
:108BB00001D002F0B7FD08980AAB984201D002F04C
:108BC000B1FD00220949084805F09EF90FB0F0BD3B
:108BD00004AF034653F8080F59689A68DB680FC75B
:108BE000D9E700BF0C120500DC11050018120500C2
:108BF0007047B0F85000704770B4064604460D1D2B
:108C00000FCD0FC495E8030084E80300304670BC24
:108C1000704710B504465C3101F076FE204610BD69
:108C200070B506460D46074C00230A460649204605
:108C300005F0E0FA756500220449204605F064F964
:108C400070BD00BF58120500241205003412050043
:108C500031B990F8523023F0200380F85230704739
:108C600090F8523043F0200380F85230704731B909
:108C700090F8523023F0100380F85230704790F88B
:108C8000523043F0100380F85230704731B990F8F9
:108C9000523023F0020380F85230704790F852307F
:108CA00043F0020380F85230704700002DE9F0478E
:108CB00090B081468A46174610AE002346F8343DF0
:108CC000DFF894800096D3B20A462049404605F06A
:108CD000EFFA0AAC09F104050FCD0FC495E80300C3
:108CE00084E803000AA904A801F0F4F93346049AC1
:108CF0001749404605F048FB049806AB984201D05E
:108D000002F010FDB7F5167F0DD83A46514609F12D
:108D10005C0001F0C3FD00220E490F4805F0F4F895
:108D200010B0BDE8F08710AC002344F8383D0A4D80
:108D300023463A460949284605F042F923464FF4AE
:108D400016720749284605F03BF9E9E77812050055
:108D500084120500C8120500581205009C12050077
:108D6000AC12050008B54A680968FFF79FFF08BD07
:108D700031B990F8523023F0040380F85230704734
:108D800090F8523043F0040380F85230704731B904
:108D900090F8523023F0080380F85230704790F872
:108DA000523043F0080380F85230704784B02DE908
:108DB000F041044607AE86E80E00DDF83480074631
:108DC000304B47F8043B384601F062F9002584F83F
:108DD0002050656204F12003A362E362256384F8F6
:108DE0003850E56304F1380323646364A564E564E3
:108DF00004F15C0001F028FD1123A4F8903084F800
:108E00009250214BC4F8943084F89850C4F89C5088
:108E1000C4F8A03084F8A450C4F8A8500FCE606005
:108E20007960BA60FB603068386133793B754FF622
:108E3000FF73A4F8503084F85250656518F0080F9D
:108E40001CBF012384F8523008F001012046FFF7CF
:108E50001DFFC8F340012046FFF799FFC8F38001CA
:108E60002046FFF704FFC8F300112046FFF7F0FE8D
:108E7000C8F340112046FFF77BFF2046BDE8F041D4
:108E800004B07047DC1205006C0F050070B5064693
:108E90000C4631B970BD204602F044FC2C46002D32
:108EA000F8D0E1683046FFF7F1FFA568606904F18A
:108EB0001C039842EFD002F035FCECE770B5064693
:108EC0000C4651B1E1683046FFF7F8FFA56820462F
:108ED00002F028FC2C46002DF4D170BD10B50446DC
:108EE0000D4B0360806F04F18003984201D002F0C3
:108EF00019FCE06D04F16403984201D002F012FC09
:108F0000E16B04F13400FFF7D9FF616A04F11C0042
:108F1000FFF7BCFF204610BDDC12050010B504466B
:108F2000FFF7DCFFAC21204602F000FC204610BD1C
:108F300084B0F0B58BB011AC84E80E00C468071D96
:108F4000BC421DD014AE11AD216904A8FFF754FE38
:108F500096E807008DE8070095E80E0004A801F0E8
:108F60001DFC38B9204606F0D5F904468742EBD1FE
:108F7000002000E020690BB0BDE8F04004B070476D
:108F80000020F8E738B5C3680363021D934207D099
:108F900004461D69184606F0BDF92063284638BD11
:108FA0000025FBE738B5036B021D934207D004464A
:108FB0001D69184606F0AEF92063284638BD002525
:108FC000FBE770B50E46C468051DAC4209D03146BA
:108FD000206902F007FE204606F09CF9044685420F
:108FE000F5D170BD2DE9F04707460E4615468C6851
:108FF00001F10408D4B111684FF0000C012000E029
:109000001C462369994239BFA3680246E368624659
:10901000002BF5D15AB9A14622692B689A4252D346
:109020003C6000233B713846BDE8F0874446D6F8E3
:109030000C90A14547D0204606F080F9A146044691
:10904000EAE74FF0010A17E0D3F800E0D3F804C0D4
:109050009868DA68C4F81CE0C4F820C06062A262B4
:109060001EE0C845EDD02A68D9F810309A422CBFCE
:109070004FF0000A4FF0010A2C2002F049FB044691
:1090800010F1100F12D02B68036100F11C01416137
:109090006A6805F10C039A42D6D04261EA68C2615F
:1090A000AA68A2616B600023AB602B7343464A46FB
:1090B0002146504606F044F97369013373613C6000
:1090C00001233B71AFE7B9F1000FCAD10024A7E734
:1090D00082B030B591B004460D4614A981E80C0069
:1090E0000AA800F0F7FF039506AB04930A9B0CAAAD
:1090F000934220D004930C9B06930B9B05930CABDF
:109100000A9300230B938DF8303003AA214601A85F
:10911000FFF768FF049806AB984201D002F002FB0B
:109120000A980CAB984201D002F0FCFA11B0BDE8ED
:10913000304002B0704706AD10AB13E90F0085E870
:109140000F00DAE770B4064604460D1D0FCD0FC4BC
:1091500095E8030084E80300304670BC704784B093
:10916000F0B58BB011AC84E80E00C468071DBC429A
:109170001DD014AE11AD216904A8FFF7E3FF96E8F6
:1091800007008DE8070095E80E0004A801F006FB33
:1091900038B9204606F0BEF804468742EBD10020DD
:1091A00000E020690BB0BDE8F04004B0704700203B
:1091B000F8E770B50E46C468051DAC4209D03146CB
:1091C000206903F0A7F9204606F0A4F8044685427A
:1091D000F5D170BD38B5C3680363021D934207D053
:1091E00004461D69184606F095F82063284638BDE8
:1091F0000025FBE738B5036B021D934207D00446F8
:109200001D69184606F086F82063284638BD0025FB
:10921000FBE7000070B50E4D00220E49284604F011
:1092200073FE802002F074FA0646FEF7A5FA0A4C97
:1092300026600A4B19884A1C1A80304600F076F9DD
:1092400000220749284604F05FFE206870BD00BF79
:10925000F412050010130500DC360020D43600207F
:1092600020130500084B1B6813B1074B18687047A3
:1092700010B5382002F04CFA0446FDF7EFFE024B21
:109280001C60014B186810BDD836002010B50C4B7F
:109290001B683BB100220B490B4804F035FE084B1C
:1092A000186810BD142002F033FA0446FDF75EFC86
:1092B000034B1C6000220549034804F025FEE9E742
:1092C000B836002044130500F412050030130500E1
:1092D00010B504468168FEF799FA204610BD71B1B9
:1092E00010B40C461988238A8B4226BF2246A468F4
:1092F000E468002CF7D110465DF8044B7047104627
:109300007047F8B5054617468C6824B110884FF0B1
:10931000000C01260AE00C1DCB68A3421BD020469E
:1093200006F00CF8214604460CE01C46238A8342D2
:1093300087BFA3683246E3686246002BF5D1002A56
:10934000EAD12146228A3B889A4208D32C60002326
:109350006B602846F8BD00232B606C60F9E70023A2
:109360002B606960F5E72DE9F04782B006460D46AF
:109370009846242002F0CCF9044610F1100708D0DA
:10938000D8F800301B880382002242618261C261EA
:109390000262A94606F10408454513D0B4F810A0AE
:1093A0002B8A9A4537D2F268954250D0284605F06C
:1093B000C5FF0246038A534524D2C368002B4AD016
:1093C0002A460EE0736923B13269118A238A9942D1
:1093D00041D33A4631466846FFF793FFDDF80090E7
:1093E000019A002A42D00120B9F1000F34D043463F
:1093F000214605F0A5FF736901337361204602B071
:10940000BDE8F0873A4631466846FFF77AFFDDF857
:109410000090019AE5E79A4528D9326995421AD019
:10942000284605F077FF0246038A534506D9EB68C4
:109430000BB18146D5E7CDB12A460FE03A46314619
:109440006846FFF75EFFDDF80090019AC9E7914694
:10945000C7E70120CBE742B19045FAD0208A138AB2
:1094600098422CBF00200120C1E79146204602F01F
:1094700059F94846C3E72DE9F04383B005468846CD
:1094800014466846FFF73DFF009B019E36B92B60EE
:1094900000232B71284603B0BDE8F0830BB34FF0D7
:1094A0000109242002F034F9074610F1100F08D00A
:1094B000224632F8043B038200F114040FCA84E808
:1094C0000F0008F1040332463946484605F038FFDC
:1094D000D8F814300133C8F814302F6001232B71F1
:1094E000D8E708F104039E4209D0B4F80090338A0B
:1094F00099452CBF4FF000094FF00109D1E74FF01B
:109500000109CEE708B50648002303718360021DF8
:10951000C26002614361034A034904F0C1FF08BD10
:10952000BC360020D0300020D192020008B5018066
:10953000FEF750F908BD000084B0F0B597B00646BC
:109540001DA880E80E00014604A800F0C3FD00231A
:10955000049A2F492F4804F017FF049806AB98424D
:1095600001D002F0DFF806F148070023039320AB97
:1095700093E807008DE807001DAB0ECB384600F0DE
:10958000D2FB78B11DA90AA800F0A4FD00230A9A15
:109590002149204804F0F8FE0A980CAB984201D00B
:1095A00002F0C0F810AC1DAD0FCD0FC495E803005C
:1095B00084E80300942002F0ABF80446BDF88C3038
:1095C000039316AB13E907008DE8070010AB0ECB31
:1095D000204600F025F99DF890302370039420ABCD
:1095E00093E807008DE807001DAB0ECB384600F06E
:1095F0004DFC3146204602F091FD00220749054806
:1096000004F082FC204617B0BDE8F04004B070477B
:10961000541305006813050074130500D4130500E6
:1096200070B594B010AB0E9379B306460D4608465C
:1096300021F02AFE044607900F2829D80E98012C05
:109640002FD0002C30D1079B0F9314A951F8182D5F
:109650000025D55408AC204600F054FC04950F2397
:1096600003930BAB93E807008DE8070094E80E0026
:109670003046FFF761FF04460E9810AB984201D0C8
:1096800002F050F8204614B070BD0A4815F0DEFE16
:10969000002207A90EA813F06FFE0E90079B1093EF
:1096A000CCE72B780370CEE7224629461FF007FB54
:1096B000C9E700BFC80F050008B5FFF7E7FD08BD03
:1096C0002DE9F0438BB00546914698460AAB23F846
:1096D0001A1D00F10C0719463846FEF7A7F805F1E8
:1096E0001006864234D00446A0F81C90A0F81A80D8
:1096F000BDF84830C383BDF84C3003840DF10E0330
:10970000324669693846FFF7EAFD864204D0BDF863
:109710000E20038A9A420BD20AAB0DF10E0243F8D7
:10972000042D08AA00920C4A01463846FFF71BFE9A
:1097300004AE00F1140595E80F0086E80F0014341C
:1097400094E80F0085E80F0096E80F0084E80F000A
:109750000BB0BDE8F08300BFE81305002DE9F04130
:109760008AB0054690460AAB23F81A1D00F10C0793
:1097700019463846FEF75AF805F1100686422CD0F5
:109780000446A0F818800DF10E0332466969384688
:10979000FFF7A5FD864204D0BDF80E20038A9A4249
:1097A0000BD20AAB0DF10E0243F8042D08AA009269
:1097B0000B4A01463846FFF7D6FD04AE00F114050A
:1097C00095E80F0086E80F00143494E80F0085E850
:1097D0000F0096E80F0084E80F000AB0BDE8F081A2
:1097E000E813050010B58CB004460022CDF80A201D
:1097F000CDF80E20ADF81220ADF81C3001911723E2
:10980000ADF8083001AB0FCB0DF1300C0CE90F00B7
:1098100007AA04F10C0105A8FFF72DFE0CB010BD3E
:1098200084B0F8B5044607AE86E80E000025057042
:109830000572C56000F1080303614361856180F82A
:109840002050456200F120038362C36205634563D3
:10985000C563056400F14407384600F019FC164B57
:10986000E36584F860506566A36684F86C502567EC
:10987000636784F87850E567C4F8803084F88450D2
:10988000C4F88850C4F890500FCE6064A164E264BC
:10989000236530686065337984F858304FF6FF737C
:1098A00023872564E563BDF83430A4F88C30204666
:1098B000BDE8F84004B070476C0F050070B4064670
:1098C000044601F144050FCD0FC495E8030084E878
:1098D0000300304670BC70472DE9F041CCB005461E
:1098E0000F4612A816F058FBA74B129300242E9493
:1098F0008DF8BC408DF8BD4030943194329433944F
:10990000A24EB368009353F80C3CF2684DF8032064
:109910000194009B53F80C0C2146684406F047FA6A
:109920003369029353F80C3C0DF10808726948F84A
:109930000320029B53F80C0C2146404406F037FAF2
:109940007368009353F80C3CB2694DF80320904BB8
:10995000009303F128021292143302938D4B039368
:109960000494059406940794089409940AA805F0B1
:109970000DF9894B039318230B930EAB0C930D94A5
:109980008DF8384003A912A806F011FA062283497F
:1099900040460CF0F3FC3AAC07F144060FCE0FC47E
:1099A00096E8030084E803003AA934A800F092FB8B
:1099B000359A349940460CF0E1FC04460C22784973
:1099C0000CF0DCFC236853F80C2C2244D36823F001
:1099D0004A0343F00803D360236853F80C6C264411
:1099E00096F875305BB9D6F87C80B8F1000F7DD061
:1099F00098F81C30002B7BD0012386F8753030237B
:109A000086F87430236853F80C3C234402229A6091
:109A1000398F20460CF042FD349836AB984201D085
:109A200001F080FE05F108042C6000236B602B72AE
:109A3000089A002A00F093800698824267D9079915
:109A400048AE469646A8FDF72DFC2B68469AB242D2
:109A500058D09C4200F08880A9682A60479A6A60C2
:109A6000489AAA60002B00F0848046934891002316
:109A70004793469A1370469848AB984201D001F03C
:109A800051FE434B009303F12802129214330293C8
:109A9000414B03930C980EAB984201D001F042FE6B
:109AA0003C4B03930AA805F069FE384B5A680092B4
:109AB00052F80C2C99694DF802101A69029252F86A
:109AC0000C2C586902A988509A68009252F80C2C04
:109AD000DB684DF80230002301932B4B129312A840
:109AE00016F09AFA28464CB0BDE8F08115F0ABFCB0
:109AF000404613F00AFCD8F800309B69202140460C
:109B0000984779E746A9284613F0C3FCAFE70799C1
:109B100042AE40964FF00003024640A8FDF7C2FB5C
:109B20002B68409AB24215D09C4225D0A9682A6081
:109B3000419A6A60429AAA601BB340934291002303
:109B40004193409A1370409842AB984299D001F0EB
:109B5000E9FD96E740A9284613F09BFCEFE70CA926
:109B6000284613F096FC8CE72A60479B6B60489B65
:109B7000AB6048AB46937AE72A60419B6B60429B9F
:109B8000AB6042AB4093DAE7A421050064430500D3
:109B900098430500F8210500A0420500C414050003
:109BA000CC14050070B5A4B004460D462C4E00221E
:109BB0002C49304604F0A8F90023059329460CA847
:109BC000FFF71AF80CA906A800F084FA05AB069A6C
:109BD0002549304604F0D8FB069808AB984201D0DE
:109BE00001F0A0FD214612A8FFF776FE0023129A8D
:109BF0001E491B4804F0C8FB129814AB984201D0D0
:109C000001F090FD043418AE29463046FEF7F4FF0B
:109C10001BAB93E807008DE8070096E80E0020468E
:109C2000FFF786F920B1002211490D4804F06CF9C4
:109C30001EAE29463046FEF7DFFF24AB13E90F00C6
:109C40008DE80F0096E80C0029462046FFF740FA01
:109C500000220849024804F057F924B070BD00BF43
:109C600098140500EC1305000414050020140500E9
:109C70002C1405007014050084B070B58AB0064637
:109C80000FAC84E80E0004AD0FCC0FC594E80300C0
:109C900085E80300AC2001F03BFD0446159B0393CF
:109CA0000AAB13E907008DE8070004AB0ECB204692
:109CB000FFF77CF821463046FFF774FF20460AB0D4
:109CC000BDE8704004B0704770B590B005461646C8
:109CD0000CAB0A930C4619B3084621F0D5FA2218AA
:109CE0004FF0000321460AA8FEF7A4FA04AC0AA923
:109CF000204600F007F9039607AB93E807008DE8CC
:109D0000070094E80E002846FFF7B6FF04460A98BD
:109D10000CAB984201D001F005FD204610B070BD9B
:109D20004FF0FF32DCE784B0F0B58BB011AC84E8C3
:109D30000E00446A00F11C07BC421DD014AE11ADE8
:109D4000216904A8FFF7BAFD96E807008DE807002F
:109D500095E80E0004A800F021FD38B9204605F072
:109D6000D9FA04468742EBD1002000E020690BB00D
:109D7000BDE8F04004B070470020F8E770B50E462B
:109D8000446A00F11C05AC4209D03146206902F05A
:109D90005DFA204605F0BEFA04468542F5D170BD55
:109DA0002DE9F04707460E4615468C6801F1040878
:109DB000D4B111684FF0000C012000E01C4623696B
:109DC000994239BFA3680246E3686246002BF5D189
:109DD0005AB9A14622692B689A4252D33C600023AB
:109DE0003B713846BDE8F0874446D6F80C90A14553
:109DF00047D0204605F0A2FAA1460446EAE74FF014
:109E0000010A17E0D3F800E0D3F804C09868DA68D4
:109E1000C4F81CE0C4F820C06062A2621EE0C8451D
:109E2000EDD02A68D9F810309A422CBF4FF0000AC2
:109E30004FF0010A2C2001F06BFC044610F1100FCA
:109E400012D02B68036100F11C0141616A6805F1C1
:109E50000C039A42D6D04261EA68C261AA68A26144
:109E60006B600023AB602B7343464A462146504645
:109E700005F066FA7369013373613C6001233B713D
:109E8000AFE7B9F1000FCAD10024A7E784B030B51D
:109E900091B0044615A880E80E0001460AA800F01B
:109EA00019F91B9B039306AB04930A9B0CAA9342DC
:109EB00021D004930C9B06930B9B05930CAB0A9348
:109EC00000230B938DF8303003AA04F1180101A888
:109ED000FFF766FF049806AB984201D001F022FC20
:109EE0000A980CAB984201D001F01CFC11B0BDE8FF
:109EF000304004B0704706AD10AB13E90F0085E8A1
:109F00000F00D9E738B50446012303754B68042BCD
:109F100024D0082B4BD0102B6AD0242B76D10546A9
:109F2000102325F8143B08680022835C2D2B08BF02
:109F30000132815C83185B78392984BF0739C9B243
:109F4000392B84BF073BDBB203F00F0343EA011355
:109F500005F8013D0232232AE7D926E002230380D7
:109F60000023838009680B784A78392B84BF073B2C
:109F7000DBB2392A84BF073AD2B21B01DBB202F04E
:109F80000F0213431B0283808A78C978392A84BF61
:109F9000073AD2B2392984BF0739C9B21201D2B205
:109FA00001F00F010A4313448380204638BD042387
:109FB00003800023436009680131182011F8013C37
:109FC0000A78392B84BF073BDBB2392A84BF073AB2
:109FD000D2B21B01DBB202F00F021343834062686E
:109FE000134463600838023110F1080FE6D1DCE752
:109FF0000346102223F8132B0A68013A033012F8A3
:10A00000011F03F801198342F9D1CEE70022034969
:10A01000034803F079FF00232375C6E724150500E4
:10A020005015050070B5044600202075102A0DD18A
:10A030001022228083B104F113030139E01C11F8CE
:10A04000012F03F801299842F9D10DE00246084991
:10A05000084803F059FF09E00E684D688868CA682F
:10A060006660A560E060226101232375204670BD13
:10A07000581505005015050002220280818001223A
:10A080000275704704220280416001220275704708
:10A09000002202757047000008B5037D8BB102886D
:10A0A000042A0AD0102A0AD0022A0CD00023074919
:10A0B000074803F085FF002004E0202002E0802014
:10A0C00000E0002008BD1020FCE700BFDC14050004
:10A0D000501505002DE9F041D8B005460B7D002B49
:10A0E00000F099810E4612A815F056FFB64B129358
:10A0F00000242E948DF8BC408DF8BD4030943194EE
:10A1000032943394B14FBB68009353F80C3CFA6817
:10A110004DF803200194009B53F80C0C2146684431
:10A1200005F045FE3B69029353F80C2C02AB7969AC
:10A130009950029A52F80C0C2146184405F037FE4B
:10A140007B68009353F80C3CBA694DF80320A04B90
:10A15000009303F128021292143302939D4B039350
:10A160000494059406940794089409940AA804F0AA
:10A170000DFD994B039318230B930EAB0C930D9489
:10A180008DF8384003A912A805F011FE3388022B80
:10A1900000F04C81042B00F0EC81029951F80C2C5A
:10A1A00002AB1A44D36823F04A0343F00803D36098
:10A1B00051F80C4C02AB1C4494F8753053B9E76F5E
:10A1C000002F00F07B823B7F002B00F0798201237F
:10A1D00084F87530302384F87430029B53F80C3CBB
:10A1E00002AA134402249C60F17C10460CF052F940
:10A1F0000346026852F80C2C13449C60B17C0CF0AE
:10A2000049F90346026852F80C2C13449C60717C97
:10A210000CF040F90346026852F80C2C13449C6081
:10A22000317C0CF037F980466C4F012239460CF036
:10A23000A5F8D8F8003053F80C3C43449C60F17BFF
:10A2400040460CF027F90346026852F80C2C1344E0
:10A250009C60B17B0CF01EF98046012239460CF05F
:10A260008DF8D8F8003053F80C3C43449C60717B67
:10A2700040460CF00FF90346026852F80C2C1344C8
:10A280009C60317B0CF006F98046012239460CF0C7
:10A2900075F8D8F8003053F80C3C43449C60F17AD0
:10A2A00040460CF0F7F80346026852F80C2C1344B1
:10A2B0009C60B17A0CF0EEF88046012239460CF031
:10A2C0005DF8D8F8003053F80C3C43449C60717A38
:10A2D00040460CF0DFF80346026852F80C2C134499
:10A2E0009C60317A0CF0D6F80346026852F80C2CC8
:10A2F00013449C60F1790CF0CDF80346026852F8E3
:10A300000C2C13449C60B1790CF0C4F8034602682D
:10A3100052F80C2C13449C6071790CF0BBF8034686
:10A32000026852F80C2C13449C6031790CF0B2F89E
:10A3300005F108042C6000236B602B72089A002A38
:10A3400000F0F6810698824240F2C881079954AE27
:10A35000529652A8FCF7A6FF2B68529AB24200F020
:10A36000B8819C4200F00982A9682A60539A6A6009
:10A37000549AAA60002B00F0058252935491002356
:10A380005393529A1370529854AB984201D001F0F3
:10A39000C9F90F4B009303F1280212921433029370
:10A3A0000D4B03930C980EAB984201D001F0BAF913
:10A3B000084B03930AA805F0E1F9044B5A68009290
:10A3C00052F80C2C99690BE0A421050064430500A8
:10A3D00098430500F8210500A0420500201505005E
:10A3E0004DF802101A69029252F80C2C586902A911
:10A3F00088509A68009252F80C2CDB684DF80230B5
:10A4000000230193A94B129312A815F005FE2846CC
:10A4100058B0BDE8F08100F108030360A4494FF093
:10A4200000030A460639FDF705FFF0E70422A149BB
:10A4300002A80BF0A3FF029951F80C2C02AB1A44AE
:10A44000D36823F04A0343F00803D36051F80C4C5F
:10A4500002AB1C4494F8753043B9E76F002F47D026
:10A460003B7F002B46D0012384F87530302384F8DD
:10A470007430029B53F80C3C02AA134404229A60E5
:10A48000B18802A80CF00AF81C228B490BF076FF69
:10A4900005F108042C6000236B602B72089A002AD7
:10A4A00062D00698824233D907993CAE3A963AA8D0
:10A4B000FCF7F8FE2B683A9AB24224D09C4200F096
:10A4C0003C81A9682A603B9A6A603C9AAA60002B8A
:10A4D00000F038813A933C9100233B933A9A1370F1
:10A4E0003A983CAB98423FF454AF01F01BF950E767
:10A4F00014F0A9FF384612F008FF3B689B69202141
:10A5000038469847AFE73AA9284612F0C2FFE3E77A
:10A51000079936AE34964FF00003024634A8FCF794
:10A52000C1FE2B68349AB24219D09C4200F00D81D2
:10A53000A9682A60359A6A60369AAA60002B00F0F2
:10A5400009813493369100233593349A13703498EB
:10A5500036AB98423FF41DAF01F0E4F819E734A997
:10A56000284612F096FFEEE70CA9284612F091FF5C
:10A570000FE7029951F80C2C02AB1A44D36823F070
:10A580004A0343F00803D36051F80C4C02AB1C445F
:10A5900094F8753043B9E76F002F48D03B7F002B0C
:10A5A00047D0012384F87530302384F87430029B3F
:10A5B00053F80C3C02AA134408229A6071680DEB10
:10A5C00002000BF06BFF1C223B490BF0D7FE05F19C
:10A5D00008042C6000236B602B72089A002A60D05C
:10A5E0000698824233D9079948AE469646A8FCF7AA
:10A5F00059FE2B68469AB24224D09C4200F0AD80AE
:10A60000A9682A60479A6A60489AAA60002B00F0FD
:10A61000A9804693489100234793469A1370469821
:10A6200048AB98423FF4B5AE01F07CF8B1E614F0C7
:10A630000AFF384612F069FE3B689B6920213846C4
:10A640009847AEE746A9284612F023FFE3E70799AB
:10A6500042AE40964FF00003024640A8FCF722FEAF
:10A660002B68409AB24217D09C427ED0A9682A60DB
:10A67000419A6A60429AAA60002B7BD04093429133
:10A6800000234193409A1370409842AB98423FF4A4
:10A6900080AE01F047F87CE640A9284612F0F9FEAA
:10A6A000EEE70CA9284612F0F4FE72E6A42105009C
:10A6B000F6140500F81405000015050014F0C3FE9B
:10A6C000384612F022FE3B689B69202138469847A5
:10A6D0007DE552A9284612F0DCFE50E607994EAE01
:10A6E0004C964FF0000302464CA8FCF7DBFD2B68AC
:10A6F0004C9AB24217D09C4247D0A9682A604D9A22
:10A700006A604E9AAA60002B44D04C934E9100236D
:10A710004D934C9A13704C984EAB98423FF439AE1F
:10A7200001F000F835E64CA9284612F0B2FEEEE73B
:10A730000CA9284612F0ADFE2BE62A603B9B6B600D
:10A740003C9BAB603CAB3A93C6E62A60359B6B60A2
:10A75000369BAB6036AB3493F5E62A60479B6B6063
:10A76000489BAB6048AB469355E72A60419B6B60C2
:10A77000429BAB6042AB409382E72A60539B6B6085
:10A78000549BAB6054AB5293F9E52A604D9B6B60D0
:10A790004E9BAB604EAB4C93B9E700BF84B030B575
:10A7A0008DB011AC84E80E00047D74B39DF8584060
:10A7B0005CB30546BDF8443002889A420CD1022BA6
:10A7C00033D0042B39D01022011D12A81EF068FAD4
:10A7D000B0FA80F4640918E011A96846FFF77AFC22
:10A7E000294606A8FFF776FC019A079B9A4212D0E9
:10A7F0000024069808AB984201D000F093FF00981F
:10A8000002AB984201D000F08DFF20460DB0BDE8AC
:10A81000304004B07047002AEBD0069900981EF033
:10A820003FFAB0FA80F46409E3E7BDF84840838852
:10A830009C4214BF00240124E7E74368129C9C4219
:10A8400014BF00240124E0E7F0B583B0044600F112
:10A850000803036000254560057200F11C0700F144
:10A860002403C361056280F82450094E00953346E5
:10A870002A46294612F0A4FF00953346226A29464B
:10A88000384612F09DFF2583204603B0F0BD00BF7F
:10A8900024170500C0697047006A704730B587B05B
:10A8A000044602AD00954FF000030A446846FDF7E8
:10A8B000C1FCE369009AAA4218D004F124018B423A
:10A8C0001AD0616AE261019A2262029A6262C3B19D
:10A8D0000093029100230193009A1370009802AB39
:10A8E000984201D000F01EFF07B030BD694604F168
:10A8F0001C0012F0CEFDEDE7E261019B2362029B9A
:10A90000636202AB0093E5E710B504460B4600F125
:10A9100008020260C9691A6A4FF000030A44FCF792
:10A92000C1FC204610BD10DF7047000010B582B09A
:10A9300004460C49684600F0C3FD019B63B11A68E8
:10A9400059682046904748B1684600F0C2FD019B17
:10A95000002BF4D1002002E0002000E0112002B022
:10A9600010BD00BF7C15050010B582B00446094932
:10A97000684600F0A5FD019B4BB11A685968204656
:10A980009047684600F0A5FD019B002BF5D102B071
:10A9900010BD00BF9415050008B50E4B93F8163393
:10A9A0005A09EC23134113F0010F0DD00A4B9B6899
:10A9B0002BB1094A136843F48003136008E0054B88
:10A9C0004FF480021A6003E042F2020000F08DFDB5
:10A9D00008BD00BF00E100E05437002010B582B090
:10A9E0001B4B1B786BBB1B4B01221A700020FFF71F
:10A9F0009DFF112829D00020FFF7B6FF164B1B68DA
:10AA0000019302A8002300F8053D00F097FD1349CB
:10AA100001A8FFF788FF0446B0FA80F040090C4B0C
:10AA200018709DF8030000F0B5FD5CB90023094AD9
:10AA300013700B4A1370FFF7AFFF0120FFF794FF6D
:10AA400000E00824204602B010BD0024FAE700BF51
:10AA5000E1360020E03600207815050009B5020037
:10AA6000E2360020014B1878704700BFE136002025
:10AA700000B583B00849684600F022FD019B43B150
:10AA80001A6858689047684600F023FD019B002B28
:10AA9000F6D103B05DF804FB8815050008B5FFF793
:10AAA000E7FF08BD60DF704769DF704761DF70470F
:10AAB000154B1B7833B330B5ADF2144D40F204445E
:10AAC000124DADF802400DF1020103A8FFF7EEFFB1
:10AAD00088B9294601A800F0F3FC029B002BF0D0B6
:10AAE0001A68596803A8904701A800F0F2FC029B7D
:10AAF000002BF5D1E5E7052801D000F0F6FC0DF2BA
:10AB0000144D30BD704700BFE3360020A01505008E
:10AB100000294CD0F0B585B00D460646254A0A609E
:10AB200000240194029403948DF8040001278DF809
:10AB300006700623ADF8083001A92020FFF7B4FF06
:10AB40000194029403948DF805702A6801A94020AD
:10AB5000FFF7AAFF0194029403948DF804604FF468
:10AB60000073ADF806302A6801A92320FFF79CFF87
:10AB70000194029403948DF804702A6801A9384660
:10AB8000FFF792FF029403944FF4B06301932A6895
:10AB900001A9A120FFF788FF0194029403942A6879
:10ABA00001A9A020FFF780FF204605B0F0BD0E20D0
:10ABB000704700BFD030002008B5FFF773FF034691
:10ABC00010B9024A01211170184608BDE336002071
:10ABD0004BDF704710B584B00E4C01A8FFF7F8FFAB
:10ABE00088B9214602A800F06BFC039B002BF4D02F
:10ABF0001A6859680198904702A800F06AFC039B04
:10AC0000002BF5D1E9E7052801D000F06EFC04B077
:10AC100010BD00BFAC1505000649074A074B9B1A3B
:10AC200003DD043BC858D050FBDC00F059FAFBF7B9
:10AC300007FB000010620500D0300020E033002048
:10AC4000FEE7FEE7FEE7FEE7FEE7FEE7FEE7FEE7DC
:10AC5000FEE7FEE708B502481FF0C8F908BD00BFCF
:10AC60008017050010B586B06846FDF7D2FF0C4886
:10AC70001FF0BCF9019B3BB9009802AB984201D090
:10AC800000F050FD06B010BD064C20461FF0AEF996
:10AC900000981FF0ABF920461FF0A8F9ECE700BFC1
:10ACA00094170500A817050010B50446024B036071
:10ACB000FDF79EFF204610BDC015050010B50446E7
:10ACC000044B0360FDF794FF0421204600F02EFDA5
:10ACD000204610BDC015050008B500F095FF08BD61
:10ACE00038B5044600210A48FBF7C4FB094D236828
:10ACF0001B6920469847002808DD23685B692046C9
:10AD00009847C1B228461FF0E9F8F0E738BD00BF08
:10AD1000103400201C17050070B505460146074891
:10AD2000FBF7A8FB064B1C6823685E6B02F0E8FC8F
:10AD30002B46024603492046B04770BD1034002020
:10AD4000BC0C05002817050008B50220FFF7E4FF3A
:10AD500008BD000000B583B00190014606481FF011
:10AD6000BDF806489DF8043003709DF80530437027
:10AD700003B05DF804FB00BFD0150500E4360020E9
:10AD8000054B00221A70012159709A70D87008443E
:10AD900018711846704700BFE836002010B5002033
:10ADA000FFF7BAFF09481FF021F90120FFF7E8FF7C
:10ADB000074B1B681A685468052201461846A047CD
:10ADC000014604481FF08AF810BD00BF5017050067
:10ADD000C00C05007017050070B50E4615461C46E0
:10ADE000FFF7B8FF104B04221A7007225A70002296
:10ADF0009A700178D970417819715E719D71DC711A
:10AE00009DF8101019729DF8141059729A721A4612
:10AE100003F10A01184612F8013B847A2344837235
:10AE20008A42F8D1004870BDF036002010B582B0DB
:10AE30000120FFF771FF0C2301930A2300930B23DA
:10AE40000E22072140F2E470FFF7C6FF064B1B6895
:10AE50001A6854680B2201461846A0470146034869
:10AE60001FF03CF802B010BDC00C050070170500C3
:10AE70002DE9F0419EB000216648FBF7DFFA664BF2
:10AE80001D682B685B6A03224FF4E131284698471E
:10AE9000624B1C6823685B6A03224FF4E131204651
:10AEA00098472B685B6B5E492846984708AD069526
:10AEB0005C494FF000030A460B3906A8FDF7BAF9C2
:10AEC00006A8FBF7FFFF0698A84201D000F02AFC75
:10AED000FEF7A0F90546014653481EF0FFFF53490F
:10AEE0002846FEF79DFB064651481FF07FF82122B9
:10AEF00050493046FEF7E8FE07460DF13808CDF818
:10AF000030804D494FF000030A460A390CA8FDF77E
:10AF100091F90CA93846FDF725FF0C98404501D062
:10AF200000F000FC45493846FDF77AFE44481FF022
:10AF30005DF8304601F08FF942481FF057F802AB38
:10AF40000093002301938DF8083014AE12963E4909
:10AF50000A460C3912A8FDF76DF912A96846FDF7EB
:10AF6000EFFD1298B04201D000F0DCFB1AAE18964B
:10AF700036494FF000030A46093918A8FDF75AF977
:10AF800018A96846FDF786FD1898B04201D000F078
:10AF9000C9FB2846FEF790FB05462449FDF701FC56
:10AFA0002B492846FBF72EFE69462846FBF722FF71
:10AFB0002846FBF73DFE27481FF018F82368DB6A98
:10AFC0002046984700222449204602F05EFC114C9E
:10AFD000224A00212046FBF759FA214A0121204646
:10AFE000FBF754FA1F4A02212046FBF74FFA1E4A8C
:10AFF00003212046FBF74AFA0021032002F0A0FCBF
:10B00000009802AB984201D000F08CFB1EB0BDE866
:10B01000F08100BF10340020BC0C0500C00C0500FE
:10B02000EC1505002716050028160500401605003A
:10B03000681605007C160500AE160500E8300020F5
:10B04000B0160500CC160500F0160500FD1605002B
:10B0500040420F0000170500E1AC02009DAD020068
:10B060002DAE020049AD0200D9AC020070B50D4D05
:10B07000284602F0BFFC0C4C0C4E224631462846B6
:10B0800003F00EFA0A4D284602F0B4FC224631467F
:10B09000284603F005FA22460649074803F000FA5D
:10B0A00070BD00BFFC360020D030002005DA020061
:10B0B00018370020A9AC0200E8300020BFF34F8F02
:10B0C0000549CA6802F4E062044B1343CB60BFF346
:10B0D0004F8F00BFFDE700BF00ED00E00400FA0560
:10B0E00008B5B34B1B78062B3BD0B14B1B78062B16
:10B0F0005CD0AF4B1B78062B7DD0AD4B1B78062B5D
:10B1000000F0A280AA4B1B78062B00F0B580A94B5B
:10B110001B68062B00F0EA80A74AD2F8883043F477
:10B120007003C2F88830BFF34F8FBFF36F8F4FF0BB
:10B130001023D3F80C3213F0010F40F0E2804FF0EF
:10B140001023D3F80032002BC0F2FC804FF0102304
:10B15000D3F80432002BC0F2F580984B984A1A605D
:10B1600008BD984B1B6813F00F0F13D1964B1B684B
:10B1700003F0F002302A03D003F0E003402B09D1A2
:10B18000924B1B68C3F30423914A1360884B1B78CE
:10B19000062B20D18B4B1B6813F00F0F06D18A4B67
:10B1A0001B6803F0F003302B00F0F480854B1B6824
:10B1B00013F00F0F13D1844B1B6803F0F002302AF9
:10B1C00003D003F0E003402B09D1824B1B68C3F38B
:10B1D0004233814A1360764B1B78062B23D1794B7F
:10B1E0001B6813F00F0F06D1774B1B6803F0F003B9
:10B1F000302B00F0D380734B1B6813F00F0F17D167
:10B20000714B1B6803F0F002302A03D003F0E00317
:10B21000402B0DD14FF080430022C3F80C21C3F81E
:10B220001021C3F83825624B1B78062B40F0F480C0
:10B23000644B1B6813F00F0F06D1634B1B6803F0C0
:10B24000F003302B00F0B0805E4B1B6813F00F0F43
:10B2500006D15D4B1B6803F0F003302B00F0D0806B
:10B26000584B1B6813F00F0F06D1574B1B6803F0A8
:10B27000F003502B00F0D680524B1B6813F00F0FD9
:10B2800014D1514B1B6803F0F002302A03D003F0B5
:10B29000E003402B0AD1514B1B6803F04F03504A87
:10B2A0001360434B1B78062B7FF431AF454B1B6873
:10B2B00013F00F0F7FF42BAF434B1B6803F0F0022A
:10B2C000302A04D003F0E003402B7FF420AF4FF08E
:10B2D0008043D3F8003413F0010F3FF418AF4FF060
:10B2E00080436FF00102C3F8002410E73D4B1B6858
:10B2F000062B7FF411AF3C4A136843F4806313605C
:10B300000AE73A4B0122C3F804251A46D2F8003462
:10B31000002BFBD04FF01022D2F80C3223F00103A7
:10B32000C2F80C32314AD2F80034002BFBD02F4B3C
:10B330000022C3F804251A46D2F80034002BFBD0B3
:10B34000FFF7BCFE294B0122C3F804251A46D2F8A8
:10B350000034002BFBD04FF010231522C3F800223D
:10B36000224AD2F80034002BFBD04FF010231522D4
:10B37000C3F804221D4AD2F80034002BFBD01B4B2B
:10B380000022C3F804251A46D2F80034002BFBD063
:10B39000FFF794FE164B174A1A60A6E6164AD368C2
:10B3A00023F08073D360A4E6144B03221A60A4E652
:10B3B000E00F00F03001001000ED00E0EC30002064
:10B3C0000090D003E40F00F0E80F00F02403001019
:10B3D00040350140440200103C0500405802001076
:10B3E000E40E0040340100103C17004000E0014032
:10B3F00074C007400DF0ADBAF0ED00E0A0050040CC
:10B400002C4B05221A60783301221A60703B00220F
:10B410001A60043B3F221A60274B1B78062B3FF42F
:10B420001FAF3EE74FF08052D2F80414234BC3F80D
:10B430002015D2F80814C3F82415D2F80C14C3F858
:10B440002815D2F81014C3F82C15D2F81414C3F828
:10B450003015D2F81814C3F83415D2F81C14C3F8F8
:10B460004015D2F82014C3F84415D2F82414C3F8B8
:10B470004815D2F82814C3F84C15D2F82C14C3F888
:10B480005015D2F83014C3F85415D2F83414C3F858
:10B490006015D2F83814C3F86415D2F83C14C3F818
:10B4A0006815D2F84014C3F86C15D2F84424C3F8D8
:10B4B000702527E610560040E00F00F000C0004065
:10B4C00001600B6843604A68934204BF00234360F5
:10B4D0007047436843B1026891680B444360526807
:10B4E000934204BF00234360704700B585B000213C
:10B4F00001910291039001AA44F2010000F004F8C6
:10B5000005B05DF804FB000072B6094B1B6813F030
:10B51000010F00D000BEBFF34F8F0649CA6802F486
:10B52000E062054B1343CB60BFF34F8F00BFFDE7D5
:10B53000F0ED00E000ED00E00400FA05EFF310820A
:10B5400072B6114B9B68C3B930B40F4901238B60AD
:10B550000E4BD3F880400E4D2C400C60C3F8805049
:10B56000D3F884404C604FF0FF31C3F884100023BF
:10B57000037002B962B630BC7047012303700AB988
:10B5800062B67047704700BF5437002000E100E00A
:10B59000FC06FFBD084B9B686BB160B9EFF31081EF
:10B5A00072B6054B1868054A106058685060002252
:10B5B0009A6001B962B670475437002000E100E09C
:10B5C00041DF704710B50024054B1C70054B1C6013
:10B5D000BFF35F8F04490548FFF772FF204610BD97
:10B5E0003C37002040370020B017050034370020DA
:10B5F00000B583B002A8002300F8013DFFF79EFFCD
:10B60000F1EE103A23F09F03E1EE103ABFF35F8FA3
:10B61000094B4022C3F884219DF80700FFF7BAFFC9
:10B62000FFF720FA28B920BF40BF20BF03B05DF864
:10B6300004FBFFF7C5FFF9E700E100E038B5054678
:10B640000C4600F0F3FA114B1B7801335A4203F019
:10B650007F0302F07F0258BF5342DBB20C4A1278DC
:10B66000D2B29A420FD009490878C0B2094A42F8CA
:10B670003050087802EBC00254600B70012400F0D7
:10B68000DFFA204638BD0024F9E700BF4537002027
:10B6900044370020C048002038B50D4D2B78DCB26F
:10B6A00000F0C4FA2B7801335A4203F07F0302F012
:10B6B0007F0258BF5342DBB22B7000F0C1FA054B3A
:10B6C00053F8342003EBC4035868904738BD00BFDB
:10B6D00044370020C048002038B5054600F0A6FADF
:10B6E00028461DF02FFA044600F0AAFA24B12A4693
:10B6F000002120461DF007FB204638BD10B504464A
:10B7000000F094FA20461DF025FA00F099FA10BDD9
:10B7100008B580B2FFF7E0FF08BD08B580B2FFF7BB
:10B72000DBFF08BD08B5FFF7E9FF08BD08B5FFF767
:10B73000E5FF08BD08B5FFF7E1FF08BD08B51CF03F
:10B7400053FDAADF70470000F0B5A3B0B0F8502059
:10B750004FF6FF739A4223D104460D46D1F890600C
:10B760002EB300231593071D3846FEF795FC80285D
:10B7700023D10C2205F1480104F108001DF090FAD4
:10B78000D8B9022205F1560104F116001DF088FA1D
:10B7900098B9627D237D03EB0223ADF8503015E0AC
:10B7A0000022D549D54802F0AFFB23B0F0BD0022FE
:10B7B000D349D24802F0A8FBF7E73846FEF76CFC05
:10B7C000102840F0D6802389ADF85030BDF85020C5
:10B7D0003388934200F0D380B378002B00F0E080F0
:10B7E0008DF852300023ADF84C304FF001030222A7
:10B7F00062F342038DF84E30B4F8903013F0010F2D
:10B8000000F0D2809DF84C20012161F3030261F326
:10B8100007128DF84C2013F0100F00F0E2809DF815
:10B820004D30012262F3030362F307138DF84D30AC
:10B8300000230C930D930E930F9310931193129377
:10B8400004F11C0616AF42F602113846FEF714FC4E
:10B8500019AB93E807008DE8070097E80E00304623
:10B86000FDF77DFC28B194F8523013F0300F40F012
:10B87000F08094F8523013F0010F05D09DF830207D
:10B8800042F001028DF8302013F0020F05D09DF830
:10B89000302042F002028DF8302013F0040F05D062
:10B8A0009DF8302042F004028DF8302013F0080F8C
:10B8B00005D09DF8302042F008028DF8302013F0BA
:10B8C000100F05D09DF8302042F010028DF8302086
:10B8D00013F0200F05D09DF8302042F020028DF8A3
:10B8E000302013F0400F05D09DF8303043F0400376
:10B8F0008DF830300023089309930A9314AB069314
:10B9000013AB07939DF84E3013F0010F14BF4FF4A3
:10B9100000734FF4FF73ADF8243004F15C07384630
:10B92000FEF7BAFF002840F0208104AB06AA0CA95C
:10B93000288FFFF706FF0746002800F0208100232C
:10B94000024670496D4802F03BFB0C2F7FF42DAF8F
:10B950006D4D6A4C0023BDF820202946204602F098
:10B960008DFB0023BDF824202946204602F086FBEB
:10B970001BE700226549614802F0C6FA15E722ACD0
:10B98000002344F8343D5D4D23466149284602F0CA
:10B99000D3FB234632885F49284602F0CDFB04E7FB
:10B9A00001238DF852301DE713F0020F0AD09DF8E5
:10B9B0004C20012161F30302022161F307128DF88B
:10B9C0004C2028E713F0040F3FF425AF9DF84C20DE
:10B9D000012161F30302032161F307128DF84C206A
:10B9E00019E713F0200F0AD09DF84D30012262F3C1
:10B9F0000303022262F307138DF84D3018E713F0AA
:10BA0000400F0AD09DF84D30012262F30303032258
:10BA100062F307138DF84D300AE713F0800F0AD058
:10BA20009DF84D30022262F30303012262F30713F3
:10BA30008DF84D30FCE613F4807F3FF4F9AE9DF8AD
:10BA40004D30022262F3030362F307138DF84D3089
:10BA5000EEE60023ADF82C308DF82E30038D13F078
:10BA6000010F1ED09DF82C20012161F3030261F328
:10BA700007128DF82C2013F0100F2ED09DF82D30CA
:10BA8000012262F3030362F307138DF82D309DF852
:10BA90002E30012262F342038DF82E300BAB11934E
:10BAA000E7E613F0020F0AD09DF82C20012161F384
:10BAB0000302022161F307128DF82C20DBE713F05B
:10BAC000040FD8D09DF82C20012161F3030203213B
:10BAD00061F307128DF82C20CDE713F0200F1BD057
