:020000022000DC
:10600000B8FB002045AC02006DAC0200D165020077
:1060100071AC020073AC020075AC0200000000001D
:1060200000000000000000000000000077AC02004B
:1060300079AC0200000000007BAC02007DAC0200E5
:106040007FAC02007FAC0200156702007FAC02004B
:106050007FAC02007FAC0200196602007FAC020038
:106060007FAC02007FAC02007D6702007FAC0200C3
:106070007FAC02007FAC02007FAC02007FAC02006C
:10608000ED6502002D6702007FAC02007FAC0200CC
:106090007FAC02007FAC0200C9AA02007FAC020004
:1060A0007FAC02007FAC02007FAC02007FAC02003C
:1060B0007FAC02007FAC0200000000000000000086
:1060C0007FAC02007FAC02007FAC02007FAC02001C
:1060D0007FAC02007FAC02007FAC02000000000039
:1060E00000000000000000000000000000000000B0
:1060F00000000000000000000000000000000000A0
:10610000000000000000000000000000000000008F
:10611000000000000000000000000000000000007F
:10612000000000000000000000000000000000006F
:10613000000000000000000000000000000000005F
:10614000000000000000000000000000000000004F
:10615000000000000000000000000000000000003F
:10616000000000000000000000000000000000002F
:10617000000000000000000000000000000000001F
:10618000000000000000000000000000000000000F
:1061900000000000000000000000000000000000FF
:1061A00000000000000000000000000000000000EF
:1061B00000000000000000000000000000000000DF
:1061C00000000000000000000000000000000000CF
:1061D00000000000000000000000000000000000BF
:1061E00000000000000000000000000000000000AF
:1061F000000000000000000000000000000000009F
:1062000010B5054C237833B9044B13B10448AFF3F0
:1062100000800123237010BDE8330020000000003F
:106220005C66050008B5034B1BB103490348AFF397
:10623000008008BD00000000EC3300205C66050013
:10624000154B002B08BF134B9D46A3F5803A002148
:106250008B460F461348144A121A22F0FCFE0F4BCD
:10626000002B00D098470E4B002B00D09847002001
:10627000002104000D000D48002802D00C48AFF3A7
:10628000008022F0BDFC2000290000F013F822F06D
:10629000ADF900BF00000800B8FB002000000000BE
:1062A00000000000E8330020D04C00200000000077
:1062B000000000002DE9F84F72B62C4C204600F08B
:1062C000F1FA62B6204605F08BFE04F0EBFEDFF833
:1062D000A4B0DFF8A4A0A0463FE002B1904740463A
:1062E00005F07EFEAC4218D004342268002AF9D0B2
:1062F0001388002BF6D0013B9BB21380002B18BFF4
:10630000012623689A68D86893F802C0BCF1000F90
:10631000E3D0C3F804902760DFE79BF800309AF8D9
:106320000020DBB2934208D1A6B1114C04F18005E4
:1063300000264FF0FF393746D6E705F023FB4046ED
:1063400005F04EFE9BF800309AF80020DBB2934235
:10635000EBD1E9E7054B1B7C1BB9404605F040FE3D
:10636000E3E7024800F0D6FBF7E700BF183400204F
:1063700068370020503700205137002008B5FE2133
:10638000014807F0D5FD08BD04340020704710B562
:106390000446082105F040FB204610BD10B582B030
:1063A000074C002100910B460A46204607F034FEB8
:1063B000044A0549204608F01BFA02B010BD00BF90
:1063C0000C340020D03000208D630200080170479B
:1063D000080970470268084B1A6042685A60826870
:1063E0009A60C268DA6002691A6142695A61826918
:1063F0009A61C269DA617047B8FB00207047704744
:1064000008B5034B01221A60024806F00BFD08BDD7
:10641000009000406836002010B50446002205496F
:1064200006F008FA044B03F1080222603833636176
:10643000204610BD0090D0031C100500032900D990
:10644000704708B50B460021024AD05606F05EFDA3
:1064500008BD00BF18100500032900D9704708B512
:106460000B460121024AD05606F050FD08BD00BF80
:1064700018100500032900D9704708B5024B58567B
:1064800006F062FD08BD00BF18100500032900D901
:10649000704710B51446084600230C222146024CD2
:1064A000205606F077FD10BD141005002DE9F843C5
:1064B0009046012827D00A2827D00B2818BF4FF074
:1064C000FF381DD1124DB8F1000F17DD4C1E04EB43
:1064D00008074FF00D0906E02B681B683178284645
:1064E0009847BC420CD00134264623780A2BF3D1BE
:1064F0002B681B68494628469847EDE74FF000088F
:106500004046BDE8F883024DDDE7024DDBE700BF02
:1065100018360020683600200020704710B5036848
:106520001F4C2360436863608368A360C368E360B3
:1065300003692361436963618369A361C369E3619B
:10654000184823F0FBFE2168174823F06FFE6168AE
:10655000164823F06BFEA168154823F067FEE1683A
:10656000144823F063FE2169134823F05FFE61693C
:10657000124823F05BFEA169114823F057FEE16940
:10658000104823F053FEEFF308810F4823F04EFE2E
:106590000E480368DB68984705F0C4FC10BD00BFD7
:1065A000B8FB00206C0F05007C0F05008C0F050068
:1065B0009C0F0500AC0F0500BC0F0500CC0F0500BB
:1065C000DC0F0500EC0F0500FC0F0500183600205D
:1065D00004207146084203D0EFF30980FFF79EBF05
:1065E000EFF30880FFF79ABF70470000084BD3F81D
:1065F000003163B1064B0022C3F800211EF0040FE6
:106600000CBFEFF30880EFF3098002490847704799
:1066100000000140D563020000B585B03A48FFF79D
:10662000EFFE0021684605F051FD384BD3F80031EC
:106630001BBB364BD3F8043143BB344BD3F8083182
:106640006BBB324BD3F80C31002B31D12F4BD3F82D
:106650001031002B35D12D4BD3F81431002B39D10B
:106660002A4BD3F81831002B3DD1284BD3F81C31DD
:10667000002B41D105B05DF804FB0020234BC3F88B
:1066800000010246694607F00BFBD2E700221F4BD0
:10669000C3F804216946012007F002FBCDE7002280
:1066A0001A4BC3F808216946022007F0F9FAC8E737
:1066B0000022164BC3F80C216946032007F0F0FABC
:1066C000C4E70022114BC3F810216946042007F0EB
:1066D000E7FAC0E700220D4BC3F8142169460520F4
:1066E00007F0DEFABCE70022084BC3F81821694620
:1066F000062007F0D5FAB8E7054806F0A9FF034BD6
:106700000022C3F81C21B5E71834002000600040C7
:106710001836002008B50348FFF772FE024806F05D
:106720005FFB08BD183400206836002010B5114CFE
:106730002046FFF765FE00212046FFF77FFE0E4B47
:10674000D3F8403143B90C4BD3F844315BB9002145
:106750000848FFF781FE10BD074B0022C3F8402117
:1067600007F0E4F8F3E7044B0022C3F8442107F0F4
:10677000EFF8ECE7183400200010014008B51B4882
:10678000FFF73EFE1A4BD3F8403143B1184B0022BD
:10679000C3F84021174BB3F90430934221DA144B6C
:1067A000D3F844311BB1124B0022C3F84421104BE3
:1067B000D3F848311BB10E4B0022C3F848210C4BD3
:1067C000D3F84C3163B10A4B0022C3F84C21094B7A
:1067D000B3F90430934203DB1146162006F096FB12
:1067E00008BD0121162006F091FBD8E718340020DF
:1067F00000A00040D430002010B50446502105F020
:106800000BF9204610BD10B50446542105F004F9DB
:10681000204610BD70B582B0184D40240094234628
:1068200008220621284606F0FDFE154E324615497F
:10683000284607F0DDFF144D019400940B230C2231
:106840001249284606F040FA32461149284607F018
:10685000CFFF19230093182317220E490E4806F084
:10686000ABF81A231B224FF040210C4806F01EFC07
:106870000B48FFF7D1FD02B070BD00BF18360020F5
:10688000D0300020FD630200683600200020004068
:10689000FF6302000030004070340020803400208C
:1068A0001834002030B583B0044605F0A3FB914BAB
:1068B0001A6822F002021A601A6822F001021A60B5
:1068C00003F54F634FF000625A60A3F540634FF445
:1068D0008032C3F88021402283F8102393F81033CC
:1068E0005A09EC23134113F0010F08D0824B9B6827
:1068F000002B40F0E080814B4FF480321A60012180
:10690000112006F0C5FA0121122006F0C1FA01217A
:10691000132006F0BDFA0121142006F0B9FA002177
:106920002046FFF799FD01212046FFF795FD022142
:106930002046FFF791FD03212046FFF78DFD022140
:106940000D2006F0A5FA02210E2006F0A1FA022180
:106950000F2006F09DFA0221102006F099FA674BED
:106960004022C3F88021602283F8062393F806337F
:106970005A09EC23134113F0010F07D05E4B9B68BB
:10698000002B40F09E805D4B40221A605B4B04223E
:10699000C3F88021602283F8022393F802335A0956
:1069A000EC23134113F0010F07D0534B9B68002BCE
:1069B00040F08D80514B04221A60514D286800230D
:1069C00002221946806823F0F5FC28680023022281
:1069D0001946406823F0EEFC28680023022219467D
:1069E000C06823F0E7FC4FF080420123C2F87835FD
:1069F000C2F8183502F58272002111601268019206
:106A0000019A404A1360FC321368002BFCD001232A
:106A10003D4A136004321360384B4FF40032C3F820
:106A20008021602283F8112393F811335A09EC2353
:106A3000134113F0010F07D02F4B9B68002B4CD153
:106A40002E4B4FF400321A60304B01221A6006F0D0
:106A500025FF002104F1480005F038FB274B4FF4D7
:106A60008062C3F88021402283F80A2393F80A3316
:106A70005A09EC23134113F0010F07D01E4B9B68FA
:106A8000002B30D11D4B4FF480621A60012116207B
:106A900006F0FEF90021162006F038FA1C4B4FF4E0
:106AA0000022C3F804250122C3F804231A6004F06D
:106AB000FFFE03B030BD104A136843F48033136007
:106AC0001DE70D4A136843F0400313605EE70A4A6E
:106AD000136843F0040313606FE7074A136843F435
:106AE00000331360B0E7044A136843F48063136013
:106AF000CCE700BF10E000E06037002000E100E0DC
:106B00007C310020080000400410014000100140CA
:106B100000000140037C03B9704710B504460F48DC
:106B200007F02EF838B10D4807F02CF8A8B90B483B
:106B300007F02DF888B90A4807F022F850B1084844
:106B400007F020F848B9064807F021F828B90448AA
:106B500006F062F9204605F085FA10BD18360020CF
:106B60006836002072DF704773DF704710B5044647
:106B70000023036043608360C36003744374012394
:106B800083744FF4047004F039FF80B3034620602F
:106B9000FF22027001210171427902F0FE026FF3BF
:106BA00041024271002282604FF44860D8601A822C
:106BB0009A74C3F81320DA751A7659769A76D97EC4
:106BC00001F0F00141F01001D97603F13401D961EF
:106BD0001A8403F5917159621A854FF6FF729A85EE
:106BE000DA8540F2F31119865A86204610BD00223C
:106BF0000249034807F030FBF7E700BF9C1105008E
:106C0000C0110500094BA3FB0131490AB1F5804FC2
:106C100028BF4FF48041202938BF202103688AB261
:106C2000DA6040F2712000FB01F070475917B7D1CC
:106C30002DE9F041B0B00646002530AC44F8945D33
:106C4000624F2346027C6249384607F061FB2346C7
:106C5000727C6049384607F05BFB376807AB0593E9
:106C600006958DF81C507368B2689A4216D02C466F
:106C7000DFF87C81234403F10C0207CA8DE807008A
:106C80000ECB05A801F0B8FD013573681834B26861
:106C9000D21AD21008FB02F2AA42EBD805A90CA81E
:106CA00001F030FD3C8D0D9B1C440C980EAB9842BE
:106CB00001D004F0ADFEEE2C27D90023049305A9E2
:106CC00012A801F01FFD04AB139A43493F4807F097
:106CD0007DFB129814AB984201D004F099FE3B4C16
:106CE00004AB3A8D3D49204607F070FB04ABEE2221
:106CF0003B49204607F06AFB059807AB984201D054
:106D000004F086FE30B0BDE8F0813B8D7C6A1C4407
:106D100005A918A801F0F6FC189D05A91EA801F008
:106D2000F1FC1F9A2946204622F071F91E9820ABEB
:106D3000984201D004F06CFE18981AAB984201D02A
:106D400004F066FE05A924A801F0DCFC3A8D259B21
:106D500013443B85249826AB984201D004F058FE9A
:106D60003A1D07F11C013846FFF7FCFE044605A951
:106D70002AA801F0C7FC3B8D2B9A9B1A3B852A98C9
:106D80002CAB984201D004F043FE34B100232246DC
:106D900014490E4807F0BCFAAEE701213878FFF736
:106DA000E3FE024628B100230F49084807F0B0FA75
:106DB000A2E700220D49054807F04EFA059807ABF7
:106DC00098429FD004F024FE9CE700BFC01105004C
:106DD000FC100500141105002C11050044110500DC
:106DE000501105005411050078110500901105009F
:106DF000ABAAAAAAF0B599B005460E460468684643
:106E000001F080FC019F009802AB984201D004F091
:106E1000FFFDEE2F10D9314606A801F073FC0023C8
:106E2000079A1749174807F0D1FA069808AB984215
:106E300023D004F0EDFD20E031460CA801F062FC07
:106E40000D9B23840C980EAB984201D004F0E0FD1A
:106E5000E769314612A801F055FC228C1299384698
:106E600022F0D5F8129814AB984201D004F0D0FD6E
:106E700001232B74207800F00BF819B0F0BD00BF8F
:106E8000E8100500C011050070477CDF7047000066
:106E9000054B1B78984202D0FF2B01D070477047FA
:106EA000014B1870704700BFE430002008B5044B58
:106EB0001B681BB10146184600F0D0FC08BD00BF9E
:106EC000E43600202D4B1B7803B1704730B583B0FA
:106ED000044603F099FD024630B1002328492948B1
:106EE00007F074FA03B030BD02A9002341F8043D55
:106EF000012003F023FE024628B100232249214845
:106F000007F064FAEEE702A850F8045D03F06AFEA9
:106F1000024670B1042805D000231C49194807F027
:106F200055FADFE70023019A1949164807F0ACFA31
:106F3000D8E7019AAA421BD1104B01221A7062684D
:106F4000002ACFD09DF8003003F0F0036FF3071351
:106F500002A800F8083D92B22168FFF796FF0246AA
:106F60000028BFD000230B49064807F02FFAB9E7E5
:106F700000230949034807F087FADDE7BC36002003
:106F80000012050014120500241205006812050005
:106F900040120500941205008012050010B5044649
:106FA0000748FFF72DFAA31E012B00D910BD054B92
:106FB00018680028FAD0214604F0A7FFF6E700BFC2
:106FC000183400205437002010B504461348FFF74A
:106FD00017FA2388102B15D0112B19D0104B1B68D2
:106FE00023B102F055F9214600F0E2F90D4B1B6880
:106FF00023B102F061F92146FFF746FF2046FFF773
:1070000055FF10BD00220849084807F025F9E5E7BB
:1070100000220749054807F01FF9DFE71834002070
:10702000E0360020C0360020D411050014120500FF
:10703000E81105000379002BFCD10123037170478F
:107040000023037170478160002303717047037947
:10705000002BFCD1806870478ADF704710B504466A
:107060000023436001220272154AC2600374436127
:107070000377036200F11C0242628262C3624FF432
:10708000847004F0BBFC206098B1037803F0F8032F
:107090006FF3C403037000234370A02242808280F8
:1070A0008360037300F118030361EE23838220469B
:1070B00010BD00220349044807F0CEF8F7E700BFEF
:1070C000BC120500F41205000813050070B5064651
:1070D0000C4631B970BD204604F09AFC2C46002DB8
:1070E000F8D0E1683046FFF7F1FFA568206904F1A8
:1070F00018039842EFD004F08BFCECE72DE9F8433D
:107100008468071D7CB34E68D1F80090B84606E04D
:10711000AB1B002BA6BFA046A468E46874B16569E8
:107120002A46B54228BF3246002AF1D04946206996
:1071300021F05EFF03460028EAD0EAE7474512D077
:10714000D8F814403246A64228BF224632B1D8F8B9
:107150001010484621F04CFF034600B9331B002BAA
:1071600001DB404600E03846BDE8F8832DE9F84FE2
:107170008146884617468C6801F1040B002C37D0F5
:107180005668D2F800A008E0731B002BB9BFA368B3
:107190000122E36800227BB11C4665693246AE429B
:1071A00028BF2A46002AEFD02169504621F020FF4F
:1071B00003460028E8D0E8E7DAB92546D4F814A059
:1071C0007E685246B24528BF32462AB139682069E6
:1071D00021F00EFF034608B9AAEB0603002B5DDB86
:1071E000C9F80040002389F804304846BDE8F88F0C
:1071F0005C46D8F80C50A54250D0204608F046FA1C
:1072000025460446DAE701261DE0D3F800E0D3F86E
:1072100004C09868DA68C4F818E0C4F81CC020629A
:10722000626222E05D45EED07E686C693246A6421D
:1072300028BF22462AB12969386821F0D9FE0346C1
:1072400000B9331BDE0F2C2004F0D8FB044610F1EC
:10725000100F12D000F1180101613B4653F8082BC2
:107260009A42D2D00261BA6882617A6862613B60F8
:1072700000237B603B72BB69A3625B462A462146C2
:10728000304608F005FAD8F814300133C8F8143045
:10729000C9F80040012389F80430A6E7002DC1D1C8
:1072A00000249DE770B582B0054669B10E46541AB8
:1072B00001940F2C0FD82868012C14D0ACB12246B1
:1072C000314621F0A4FE10E012B9002301930CE036
:1072D000094818F063FA002201A916F0F5F92860B0
:1072E000019BAB60E7E733780370019B6B602A6812
:1072F0000021D15402B070BD181305002DE9F84FDC
:1073000082460C4615469B462C2004F077FB064629
:1073100010300BD006F118033361216962694FF018
:1073200000030A44FFF7BEFFA36AB36223783370F9
:107330000023B360F3607560E16839B9A5689DB357
:1073400037464FF02C094FF0000813E05B463246F9
:107350005046FFF7D3FFF060F0E72B782370C4F8B6
:107360000880C4F80C80BC606760E968A9B9AD68A2
:107370002746CDB1484604F041FB04461030ECD01E
:1073800004F11803236129696A694FF000030A4474
:10739000FFF788FFAB6AA362DFE75B4622465046F1
:1073A000FFF7ACFFE060E2E73046BDE8F88F000091
:1073B0002DE9F047ADF5147D05460C460B881B2BD7
:1073C00005D01D2B32D00DF5147DBDE8F0870B7A6A
:1073D000012BF8D1037200230374446B002CF2D00C
:1073E0008DF8E8317B937AAA7C927D927E93016A34
:1073F000A9B179A8029002ABFFF780FF024600E036
:107400001A469368002BFBD17C92024600E01A4694
:10741000D368002BFBD17D92EB6A7E937B9079A899
:10742000A0477B9979A8FFF751FECCE7067A002E9A
:10743000C9D10B31684600F0C9FA69467FA800F04F
:10744000CBFA05F118087FA94046FFF757FE07461B
:107450007F9881AB984201D004F0DAFA05F11C0361
:107460009F421CD0BF6A6B4693E80600384600F086
:10747000B5FD94F91B10384600F0E0FDA28C002AFF
:1074800036D12946384600F0DCFD6868002800F057
:107490004D8195F83030002B00F048817EE0237A52
:1074A00013F0080F1ED195F83120EB6A9A428AD961
:1074B000A82004F0A3FA074600F02CFD002F82D08C
:1074C0006B4693E80600384600F088FD94F91B10DF
:1074D000384600F0B3FDA28C5AB92946384600F070
:1074E000B0FD2FE000229D499D4806F0B5FE6AE7F9
:1074F0000126237A13F0080F00F01E81384600F0B1
:10750000B7FD8146384600F0B6FD0246494602A85E
:1075100021F07DFD384600F0AEFDA28C216A02AB61
:10752000184421F074FD384600F0A5FDA28C0244F9
:1075300002A9384600F0AAFE2946384600F081FD2F
:10754000002EA2D169468EA800F046FA89AB879337
:107550008E9B90AA934200F0F4808793909B89932E
:107560008F9B889390AB8E9300238F938DF840323E
:107570008D9787AA414685A8FFF7F8FD879889ABC4
:10758000984201D004F044FA8E9890AB984201D012
:1075900004F03EFA6868002800F0C8800368DB68E1
:1075A00039469847D5F80480D8F80030D3F80890C9
:1075B0003B788DF808307B788DF80930BB788DF8F2
:1075C0000A30FB788DF80B303A1D92E803000390E7
:1075D000ADF81010BB7A8DF81230BB89ADF81430BD
:1075E0003B69069309AB07937969BA694FF00003C9
:1075F0000A4407A8FFF756FE0FAB0D93F96A3A6BE2
:107600004FF000030A440DA8FFF74CFE7B6C139368
:10761000B7F94830ADF850303C6DFB6CE41AE2101D
:10762000504B03FB02F30022159216921792002B87
:1076300000F090804C4A934200F28A80204604F089
:10764000DDF98446CDF854C0CDF858C06444179491
:10765000FA6C3B6D9A4222D002F1180EA3EB0E0A8F
:107660004FEADA0A414B03FB0AFA2AF0604A0AF1B0
:10767000010A0AEB4A0A0CEBCA0ABCF1000F08D057
:107680006446AEF118060FCE0FC496E8030084E8F6
:1076900003000CF1180C0EF1180ED445EDD1CDF805
:1076A00058C097F958308DF860301BAB1993F96DBD
:1076B0003A6E4FF000030A4419A8FFF7F3FD1FAC20
:1076C00007F174060FCE0FC496E8030084E80300A8
:1076D00027AC2594D7F88C10D7F890204FF00003F2
:1076E0000A4425A8FFF7DEFD97F8A4308DF8AC30EA
:1076F00002A94046C8472598A04201D004F088F965
:1077000019981BAB984201D004F082F9159808B182
:1077100004F07EF90D980FAB984201D004F078F98F
:10772000079809AB984201D004F072F9296810312A
:107730000020FFF791FC46E6216A384600F0A6FDDE
:10774000FAE689AC94AB13E90F0084E80F0007E771
:1077500018F01EF84FF0000C74E700BFCC120500C3
:1077600008130500ABAAAAAAAAAAAA0AABAAAA0A3F
:1077700075DF7047B5DF70470022426002744261D6
:1077800000F110018161C16102621149416280F81A
:107790002820C262016380F834208263C16380F8CC
:1077A0004020426480F84C20026500F14C014165A4
:1077B0008165C26580F86420826600F16401C1665B
:1077C000016742678267C2674FF6FF7202807047A7
:1077D000BC12050010B5094C00230A460849204692
:1077E00006F096FD00220749204606F035FD0022EE
:1077F0000549204606F030FD10BD00BF58130500B6
:1078000044130500681305008013050070B5064693
:107810000C4651B1E1683046FFF7F8FFA5682046F5
:1078200004F0F6F82C46002DF4D170BD83680430C6
:107830009BB110B4098804461A8A8A4226BF1C46A6
:107840009B68DB68002BF7D1A04203D0238A8B42D0
:1078500098BF20465DF8044B704770472DE9F04112
:1078600084B005460C468B88ADF80E300B88112B82
:107870005AD034D9122B75D0552B28D104AE002301
:1078800046F8083DDFF840813346CA884B494046F8
:1078900006F09CFDE788B7F5007FA8BF4FF400779E
:1078A00033463A464649404606F032FD3A46BDF870
:1078B0000E10284601F068FF3946BDF80E00FFF7AC
:1078C00059FF334602463F49404606F07FFD2146B8
:1078D00005F1480002F068FA04B0BDE8F081102B11
:1078E000F5D101F0FFFE0028F1D00368227E1B785D
:1078F0009A42ECD1BDF80E3000222946284601F00C
:1079000087FF638A228ABDF80E10E08A0190A08A60
:107910000090284601F0EAFEE86F0028D7D00368FF
:107920009B6829469847D2E70DF10E010C30FFF70E
:107930007DFF05F110018142C9D007F00BFF04F073
:1079400067F82B6A013B2B62E86F18B10368DB68AC
:1079500029469847284601F0C5FE0028B7D0FFF712
:1079600067F9B4E70DF10E010C30FFF75FFF05F189
:1079700010039842ABD0828B23899A4203D1428B69
:1079800063899A4211D004F10801BDF80E00FFF797
:10799000EFFE63892289BDF80E10E0890190A0896D
:1079A0000090284601F0A2FE91E7C28BA3899A427B
:1079B000E9D1028CE3899A42E5D188E7901305006A
:1079C000A0130500A8130500581305000A680260FB
:1079D0008A888280704700002DE9F041C2B00646D7
:1079E0000F4602AC14A818F07FFCBB4BA364002523
:1079F000C4F8B85084F8BC5084F8BD50C4F8C050E6
:107A0000C4F8C450C4F8C850C4F8CC50DFF8D882C9
:107A1000D8F80830236053F80C3CD8F80C20E2501A
:107A20006560236853F80C0C2946204408F067FB76
:107A3000D8F81030A36053F80C3C42AA1344D8F88D
:107A4000142043F8F82CA36853F80C0C294604AB17
:107A5000184408F054FBD8F80430236053F80C3C69
:107A6000D8F81820E2509D4B236003F12802A2644D
:107A70001433A3609A4BE36025616561A561E561FC
:107A8000256265620CA807F029FA964BE36018237B
:107A9000E36210AB2363656384F8385005A914A82A
:107AA00008F02DFBA36853F80C4C04AB1C4494F86D
:107AB000753053B9E56F002D00F09C812B7F002BB2
:107AC00000F09A81012384F87530302384F87430F3
:107AD000049B53F80C3C42AA1344022243F8F02CB6
:107AE000049B53F80C2C04AB1A44D36823F04A03CC
:107AF00043F00803D360397804A80EF073FE3A23EC
:107B00008DF8073001220DF107010EF0DFFD049B17
:107B100053F80C4C04AB1C4494F8753053B9E56F22
:107B2000002D00F072812B7F002B00F0708101236B
:107B300084F87530302384F87430049B53F80C3C7F
:107B400042AA1344022243F8F02C049B53F80C2C55
:107B500004AB1A44D36823F04A0343F00803D3600C
:107B6000797804A80EF03EFE3A238DF80630012203
:107B70000DF106010EF0AAFD049B53F80C4C04AB6A
:107B80001C4494F8753053B9E56F002D00F048811E
:107B90002B7F002B00F04681012384F875303023C1
:107BA00084F87430049B53F80C3C42AA134402221C
:107BB00043F8F02C049B53F80C2C04AB1A44D36804
:107BC00023F04A0343F00803D360B97804A80EF009
:107BD00009FE3A238DF8053001220DF105010EF062
:107BE00075FD049B53F80C4C04AB1C4494F87530A1
:107BF00053B9E56F002D00F01E812B7F002B00F0A4
:107C00001C81012384F87530302384F87430049B80
:107C100053F80C3C42AA1344022243F8F02C049B74
:107C200053F80C2C04AB1A44D36823F04A0343F0F6
:107C30000803D360F97804A80EF0D4FD3A238DF838
:107C40000430012201A90EF041FD049B53F80C4CB5
:107C500004AB1C4494F8753053B9E56F002D00F067
:107C6000F5802B7F002B00F0F380012384F8753022
:107C7000302384F87430049B53F80C3C42AA13441C
:107C8000022243F8F02C049B53F80C2C04AB1A444A
:107C9000D36823F04A0343F00803D360397904A87A
:107CA0000EF0A0FD3A238DF8033001220DF10301FF
:107CB0000EF00CFD049B53F80C4C04AB1C4494F8E0
:107CC0007530B3B9E56F002D00F0CB802B7F002B12
:107CD00000F0C9800AE000BF202605001448050016
:107CE000742605001C470500E0470500012384F8C1
:107CF0007530302384F87430049B53F80C3C42AA4E
:107D00001344022243F8F02C049B53F80C2C04ABD0
:107D10001A44D36823F04A0343F00803D360797907
:107D200004A80EF05FFD06F10804346000237360C0
:107D300033720A9A002A00F0CD8008998A4240F2F4
:107D4000A0803EAD3C9509993CA8FFF7ABFA33689B
:107D50003C9AAA4200F090809C4200F0C080B1683A
:107D600032603D9A72603E9AB260002B00F0BC8097
:107D70003C933E9100233D933C9A13703C983EAB5C
:107D8000984201D003F044FE5D4B029303F12802B8
:107D90001492143304935B4B05930E9810AB9842E6
:107DA00001D003F035FE02AC574B05930CA807F049
:107DB0008DFE564B5A68226052F80C2C9969A150DE
:107DC0001A69A26052F80C2C42A90A44596942F877
:107DD000F81C9A68226052F80C2CDB68A350002330
:107DE00063604B4BA36414A818F0BEFA304642B04F
:107DF000BDE8F08117F0CFFC284615F02EFC2B686B
:107E00009B692021284698475CE617F0C4FC284669
:107E100015F023FC2B689B6920212846984786E6AD
:107E200017F0B9FC284615F018FC2B689B69202137
:107E300028469847B0E617F0AEFC284615F00DFC32
:107E40002B689B69202128469847DAE617F0A3FCA7
:107E5000284615F002FC2B689B692021284698478C
:107E600003E717F098FC284615F0F7FB2B689B6991
:107E700020212846984739E73CA9304615F0B1FC47
:107E800078E738AD36954FF000030A46099936A8D1
:107E9000FFF708FA3368369AAA4216D09C4226D0D9
:107EA000B1683260379A7260389AB26023B3369301
:107EB000389100233793369A1370369838AB98422E
:107EC0003FF462AF03F0A4FD5EE736A9304615F03B
:107ED00088FCEEE70EA9304615F083FC54E73260CB
:107EE0003D9B73603E9BB3603EAB3C9342E7326088
:107EF000379B7360389BB36038AB3693D9E700BFCC
:107F0000144805001C47050074260500E0470500DD
:107F1000202605002DE9F04782B004462D490430A3
:107F2000FFF754FD04F1140A04F11C0363610025FA
:107F3000A561257704F12C0904F13403E36225637C
:107F400084F83450E5642565656504F15C0804F146
:107F50006403E365256684F8645004F1740002F05C
:107F6000ADF804F18C0704F19403C4F88C30C4F824
:107F7000905084F89450A572A5812561164E009505
:107F80003346A2692946504615F0C2FD0095334696
:107F9000226B2946484615F0BBFD4FF40043A4F878
:107FA000483000953346226E2946404615F0B0FD14
:107FB00084F85850656400953346D4F890202946DB
:107FC000384615F0A5FD2570E570204602B0BDE8E5
:107FD000F08700BFD4130500BC1B050010B483B0AC
:107FE00004466B4683E8060093E803006060218145
:107FF00003B05DF8044B704708B50A468181012340
:10800000037000230249034806F082F908BD00BF4F
:10801000E8130500F813050010B504462C3015F0E0
:10802000E0FB0123A3700023E26A0249024806F044
:1080300053FB10BDD8140500F8130500A0F8481034
:1080400070474164704708B50123C3705C3015F078
:10805000C8FB08BD08B50A4680F85810002302493D
:10806000024806F055F908BDDC130500F8130500B9
:10807000D0F88C007047D0F8900070472DE9F04F91
:1080800083B01646046843681B1BDA104A4B03FB97
:1080900002F34A4A934209D081460D46ABB15A00D9
:1080A000934206D90C1BDFF814A111E0444817F0E5
:1080B00078FB424B934228BF13469A460C1B3AB9B1
:1080C0004FF000080AE0464636E00C1B4FF0010A6C
:1080D0000AEB4A00C00003F091FC804618EB040450
:1080E00005D00FCE0FC496E8030084E80300D9F84A
:1080F00000E0AE45E7D00EF1180CA5EB0C0B4FEAF3
:10810000DB0B304B03FB0BFB2BF0604B0BF1010B3C
:108110000BEB4B0B08EBCB0B464646B13446ACF1B0
:1081200018070FCF0FC497E8030084E80300183640
:108130000CF1180C5E45F0D106F1180BD9F804309B
:10814000AB4225D005F1180CA3EB0C03DB081D4A4C
:1081500002FB03F323F06043019303EB430306EBBD
:10816000C30630365F4647B13C46ACF118050FCD2B
:108170000FC495E8030084E8030018370CF1180CCD
:10818000B742F0D1019B013303EB43030BEBC30B6D
:10819000BEF1000F02D0704603F03AFCC9F800802F
:1081A000C9F804B00AEB4A0A08EBCA03C9F8083058
:1081B00003B0BDE8F08F00BFABAAAAAAAAAAAA0A78
:1081C000E4140500ABAAAA0A84B070B586B00646CE
:1081D0000BA880E80E00346D736D9C421FD034B143
:1081E00005460FCD0FC495E8030084E80300336D06
:1081F000183333650BA9684601F082FF0023009A0B
:108200000A490B4806F068FA009802AB984201D080
:1082100003F0FEFB06B0BDE8704004B070470BAA47
:10822000214606F14C00FFF729FFE3E70C14050097
:10823000F813050070B582B0054669B10E46541AB0
:1082400001940F2C0FD82868012C14D0ACB1224611
:10825000314620F0DCFE10E012B9002301930CE05F
:10826000094817F09BFA002201A915F02DFA2860A1
:10827000019BAB60E7E733780370019B6B602A6872
:108280000021D15402B070BD181305002DE9F04F44
:10829000E9B00646884693461CAC1A944FF000039A
:1082A0008A181AA8FFF7C6FFD6F88C301A9AA2428D
:1082B0004DD006F194018B4200F00882D6F894105C
:1082C000C6F88C201B9AC6F890201C9AC6F89420F9
:1082D000002B00F003821A931C9100231B931A9A1F
:1082E00013701A981CAB984201D003F091FBA94D72
:1082F000002400942B46326B214606F12C0015F029
:1083000007FC86F858403470B472F470F36C33652F
:1083100006F114031846059300942B46B2692146D2
:1083200015F0F6FB199419AB5A469B499B4806F089
:108330004DF8049698F800506B1C1C44E4B265B9E3
:1083400008F101085C45F5D369B0BDE8F08F1AA9C2
:1083500006F18C0015F045FABFE798F8017008F1B6
:108360000206013DEDB20DF164094B463A468C49D7
:108370008A4806F089F8CDF800902B4632468949A4
:10838000864806F03DF9072F00F0968010D9192F86
:1083900058D02CD80A2F4DD0162F00F0B280092FBC
:1083A00035D019AB3A4680497C4806F06DF846E076
:1083B000032F08D8022F4BD2012FF2D198F80230A8
:1083C000049A93723BE0052F5CD938AF002310224A
:1083D0003146384601F03CFE3BAB93E807008DE8A0
:1083E000070097E80E000498FFF7EEFE27E0212F24
:1083F00000F02181FF2F71D0202FD2D1032D00F268
:10840000D98019AA6949654805F026FF17E022AF0F
:1084100020974FF000037219314620A8FFF70AFF9A
:1084200020A90498FFF7F8FD2098B84207D003F080
:10843000EFFA04E098F902100498FFF70BFE06EB40
:1084400005087FE7B8F802100498FFF7D5FDF6E7B6
:108450005FEA550AF3D0B14606EB4A0A26AF0DF1A2
:10846000A40839F8021B384601F01CFE98E8070002
:108470008DE8070097E80E000498FFF7A5FED145A8
:10848000EFD1DCE75FEA950AD9D0B14606EB8A0A5C
:108490002CAF0DF1BC0859F8041B384601F008FE5A
:1084A00098E807008DE8070097E80E000498FFF7AA
:1084B0008BFECA45EFD1C2E732AF0023102231460E
:1084C000384601F0C5FD35AB93E807008DE807009D
:1084D00097E80E000498FFF777FEB0E740AF3E97AD
:1084E0004FF00003721931463EA8FFF7A3FE3EA9E4
:1084F000059815F076F93E98B842A0D003F088FAB6
:108500009DE7012D40D9B8F8021044A801F0CAFD3A
:108510000DF11C0C44AF0FCFACE80F0097E803003F
:108520008CE803000123049AD37002F1740C07AFA6
:10853000BE46BEE80F00049F7867CCF80410CCF864
:108540000820CCF80C30DEF80000CCF810009EF8C3
:1085500004308CF81430022D7FF671AF08F104015D
:108560004CAF4A97AA1E4FF000030A444AA8FFF7EF
:1085700061FE4AA90498FFF766FD4A98B8423FF4A5
:108580005EAF03F045FA5AE719AA0949034805F016
:1085900063FE54E7BC1B050000150500F813050039
:1085A0002014050028140500C414050060140500FB
:1085B00030140500D8F8021050A801F079FD0DF133
:1085C000340C50AF0FCFACE80F0097E803008CE8F5
:1085D00003000123049AD37002F1740C0DAFBE4660
:1085E000BEE80F00049F7867CCF80410CCF8082090
:1085F000CCF80C30DEF80000CCF810009EF8043007
:108600008CF81430042D7FF61AAF08F1060158AF2C
:1086100056972A1F4FF000030A4456A8FFF70AFE98
:1086200056A90498FFF70FFD5698B8423FF407AFDC
:1086300003F0EEF903E70F2D05D819AA29492A48B6
:1086400005F00AFEFBE60023102231465CA801F08B
:10865000FFFC0DF14C0C5CAF0FCFACE80F0097E8BE
:1086600003008CE803000123049AD37002F1740C18
:1086700013AFBE46BEE80F00049F7867CCF8041025
:10868000CCF80820CCF80C30DEF80000CCF8100054
:108690009EF804308CF81430102D7FF6D0AE08F11F
:1086A000120164AF6297A5F110024FF000030A4473
:1086B00062A8FFF7BFFD62A90498FFF7C4FC6298A7
:1086C000B8423FF4BCAE03F0A3F9B8E6C6F88C207C
:1086D0001B9BC6F890301C9BC6F894301CAB1A93B9
:1086E000FBE500BF90140500F813050008B54A68C3
:1086F000436813441F2B00D908BD096815F08CFA94
:10870000FAE7000070B582B0044600F10803036088
:108710000E684D6876B101950F2D10D82068012D97
:1087200016D0C5B9019B636022680021D154204650
:1087300002B070BD002DEED0094817F02FF80022CE
:1087400001A9204614F0C0FF2060019BA360E5E76B
:1087500033780370E6E72A46314620F058FCE1E71B
:108760001813050084B070B5064605A880E80E0011
:10877000B468F3689C420ED034B105460FCD0FC4E7
:1087800095E8030084E80300B3681833B360BDE8DC
:10879000704004B0704705AA2146301DFFF76EFCFB
:1087A000F5E730B591B005460CAB0A930C4601B322
:1087B000084622F011FF22184FF0000321460AA8B4
:1087C000FFF738FD04AC0AA9204601F0B1FB07AB66
:1087D00093E807008DE8070094E80E002846FFF7AD
:1087E000C1FF0A980CAB984201D003F011F911B007
:1087F00030BD4FF0FF32DFE784B0F0B5BBB00446C8
:1088000041A880E80E0001F05DFC202871D080288E
:1088100000F0D780102804D03BB0BDE8F04004B091
:10882000704703238DF80C308DF80D300CAD0A9590
:108830004FF000030DF10E0203A90AA8FFF7FAFC9E
:1088400012AB10934FF000030DF5857242A910A8EA
:10885000FFF7F0FC0B98119A81180A9BAB4214BFEA
:108860000C9D0F25A94207D912AD109EAE4214BF30
:10887000129D0F25A9422BD910990AA815F0CCF901
:10888000054606AB04932E4656F8083BB34227D064
:108890000493AB6806936B6805932E6000236B60AE
:1088A0002B7204A92046FFF721FF049806AB9842DB
:1088B00001D003F0ADF8109812AB984201D003F04C
:1088C000A7F80A980CAB9842A6D003F0A1F8A3E74A
:1088D00000900022114610A815F01AF90546D0E7BD
:1088E00006AF2B4653F8080F59689A68DB680FC724
:1088F000D1E705238DF80C308DF80D301EAD1C9599
:108900004FF000030DF10E0203A91CA8FFF792FC23
:1089100024AB22934FF0000343AA42A922A8FFF7F9
:1089200089FC1D98239A81181C9BAB4214BF1E9D85
:108930000F25A94207D924AD229EAE4214BF249D23
:108940000F25A9422CD922991CA815F065F90546D6
:1089500018AB16932E4656F8083BB34228D0169310
:10896000AB6818936B6817932E6000236B602B72B3
:1089700016A92046FFF7BAFE169818AB984201D008
:1089800003F046F8229824AB984201D003F040F857
:108990001C981EAB98423FF43FAF03F039F83BE719
:1089A00000900022114622A815F0B2F80546CFE744
:1089B00018AF2B4653F8080F59689A68DB680FC741
:1089C000D0E711238DF80C3007238DF80D3030AD32
:1089D0002E954FF000030DF10E0203A92EA8FFF70C
:1089E00029FC36AB34934FF0000346AA42A934A8C1
:1089F000FFF720FC2F98359A81182E9BAB4214BFAD
:108A0000309D0F25A94207D936AD349EAE4214BF22
:108A1000369D0F25A9422CD934992EA815F0FCF8C3
:108A200005462AAB28932E4656F8083BB34228D079
:108A30002893AB682A936B6829932E6000236B60A0
:108A40002B7228A92046FFF751FE28982AAB98429E
:108A500001D002F0DDFF349836AB984201D002F02D
:108A6000D7FF2E9830AB98423FF4D6AE02F0D0FF3D
:108A7000D2E600900022114634A815F049F80546C8
:108A8000CFE72AAF2B4653F8080F59689A68DB687E
:108A90000FC7D0E7F0B58FB006460C460022254937
:108AA000254805F0D9FB636801338DF80430FF23B6
:108AB0008DF805300AAB08934FF000030DF1060264
:108AC00001A908A8FFF7B6FB6268216808A815F09D
:108AD000A3F8044604AB0293054655F8083BAB42A5
:108AE0001FD0029383680493636803932560002377
:108AF0006360237202A93046FFF7F8FD029804ABC9
:108B0000984201D002F084FF08980AAB984201D045
:108B100002F07EFF00220949074805F09DFB0FB0D7
:108B2000F0BD04AF034653F8080F59689A68DB6834
:108B30000FC7D9E7141505002C15050044150500CD
:108B4000F0B58FB006460C4600230A682549264832
:108B500005F0C2FD636801338DF8043009238DF8F8
:108B600005300AAB08934FF000030DF1060201A98E
:108B700008A8FFF75FFB6268216808A815F04CF8A9
:108B8000044604AB0293054655F8083BAB421FD0A0
:108B900002938368049363680393256000236360F2
:108BA000237202A93046FFF7A1FD029804AB984258
:108BB00001D002F02DFF08980AAB984201D002F0D4
:108BC00027FF00220949084805F046FB0FB0F0BD19
:108BD00004AF034653F8080F59689A68DB680FC75B
:108BE000D9E700BF5C1505002C15050068150500C8
:108BF0007047000010B5064C00220649204605F0DB
:108C00002BFB00220449204605F026FB10BD00BFC7
:108C1000381605006016050074160500B0F85000FF
:108C2000704770B4064604460D1D0FCD0FC495E87D
:108C3000030084E80300304670BC704710B504465A
:108C40005C3101F077FE204610BD000070B506468D
:108C50000D46074C00230A460649204605F072FCE3
:108C6000756500220449204605F0F6FA70BD00BF84
:108C7000A8150500741505008415050031B990F894
:108C8000523023F0200380F85230704790F8523071
:108C900043F0200380F85230704731B990F85230D9
:108CA00023F0100380F85230704790F8523043F0B0
:108CB000100380F85230704731B990F8523023F0E9
:108CC000020380F85230704790F8523043F00203AC
:108CD00080F85230704700002DE9F04790B081468F
:108CE0008A46174610AE002346F8343DDFF89480DC
:108CF0000096D3B20A462049404605F081FC0AACF2
:108D000009F104050FCD0FC495E8030084E80300C2
:108D10000AA904A801F0F4F93346049A1749404619
:108D200005F0DAFC049806AB984201D002F070FE20
:108D3000B7F5167F0DD83A46514609F15C0001F0AF
:108D4000C3FD00220E490F4805F086FA10B0BDE8B9
:108D5000F08710AC002344F8383D0A4D23463A46CC
:108D60000949284605F0D4FA23464FF416720749FC
:108D7000284605F0CDFAE9E7C8150500D415050029
:108D800018160500A8150500EC150500FC150500D2
:108D900008B54A680968FFF79FFF08BD31B990F828
:108DA000523023F0040380F85230704790F852306C
:108DB00043F0040380F85230704731B990F85230D4
:108DC00023F0080380F85230704790F8523043F097
:108DD000080380F85230704784B02DE9F041044612
:108DE00007AE86E80E00DDF834800746304B47F8C2
:108DF000043B384601F062F9002584F82050656292
:108E000004F12003A362E362256384F83850E5632C
:108E100004F1380323646364A564E56404F15C0031
:108E200001F028FD1123A4F8903084F89250214BD2
:108E3000C4F8943084F89850C4F89C50C4F8A0301A
:108E400084F8A450C4F8A8500FCE60607960BA606E
:108E5000FB603068386133793B754FF6FF73A4F8D7
:108E6000503084F85250656518F0080F1CBF01237C
:108E700084F8523008F001012046FFF71DFFC8F3C7
:108E800040012046FFF799FFC8F380012046FFF715
:108E900004FFC8F300112046FFF7F0FEC8F34011AD
:108EA0002046FFF77BFF2046BDE8F04104B0704745
:108EB00088160500BC12050070B506460C4631B98F
:108EC00070BD204602F0A4FD2C46002DF8D0E168CC
:108ED0003046FFF7F1FFA568606904F11C03984272
:108EE000EFD002F095FDECE770B506460C4651B1A7
:108EF000E1683046FFF7F8FFA568204602F088FDDC
:108F00002C46002DF4D170BD10B504460D4B036006
:108F1000806F04F18003984201D002F079FDE06D8A
:108F200004F16403984201D002F072FDE16B04F198
:108F30003400FFF7D9FF616A04F11C00FFF7BCFFA2
:108F4000204610BD8816050010B50446FFF7DCFF6B
:108F5000AC21204602F060FD204610BD84B0F0B583
:108F60008BB011AC84E80E00C468071DBC421DD054
:108F700014AE11AD216904A8FFF753FE96E807006F
:108F80008DE8070095E80E0004A801F01DFC38B933
:108F9000204606F067FB04468742EBD1002000E044
:108FA00020690BB0BDE8F04004B070470020F8E73E
:108FB00038B5C3680363021D934207D004461D6998
:108FC000184606F04FFB2063284638BD0025FBE716
:108FD00038B5036B021D934207D004461D6918463D
:108FE00006F040FB2063284638BD0025FBE770B53E
:108FF0000E46C468051DAC4209D03146206902F016
:1090000067FF204606F02EFB04468542F5D170BD71
:109010002DE9F04707460E4615468C6801F1040815
:10902000D4B111684FF0000C012000E01C46236908
:10903000994239BFA3680246E3686246002BF5D126
:109040005AB9A14622692B689A4252D33C60002348
:109050003B713846BDE8F0874446D6F80C90A145F0
:1090600047D0204606F012FBA1460446EAE74FF03F
:10907000010A17E0D3F800E0D3F804C09868DA6872
:10908000C4F81CE0C4F820C06062A2621EE0C845BB
:10909000EDD02A68D9F810309A422CBF4FF0000A60
:1090A0004FF0010A2C2002F0A9FC044610F1100F29
:1090B00012D02B68036100F11C0141616A6805F15F
:1090C0000C039A42D6D04261EA68C261AA68A261E2
:1090D0006B600023AB602B7343464A4621465046E3
:1090E00006F0D6FA7369013373613C6001233B716A
:1090F000AFE7B9F1000FCAD10024A7E782B030B5BD
:1091000091B004460D4614A981E80C000AA800F0AD
:10911000F7FF039506AB04930A9B0CAA934220D059
:1091200004930C9B06930B9B05930CAB0A930023B3
:109130000B938DF8303003AA214601A8FFF768FF92
:10914000049806AB984201D002F062FC0A980CAB7E
:10915000984201D002F05CFC11B0BDE8304002B092
:10916000704706AD10AB13E90F0085E80F00DAE792
:1091700070B4064604460D1D0FCD0FC495E80300DC
:1091800084E80300304670BC704784B0F0B58BB003
:1091900011AC84E80E00C468071DBC421DD014AE9B
:1091A00011AD216904A8FFF7E3FF96E807008DE8F9
:1091B000070095E80E0004A801F006FB38B9204628
:1091C00006F050FA04468742EBD1002000E0206907
:1091D0000BB0BDE8F04004B070470020F8E770B570
:1091E0000E46C468051DAC4209D03146206903F023
:1091F0001FFB204606F036FA04468542F5D170BDC5
:1092000038B5C3680363021D934207D004461D6945
:10921000184606F027FA2063284638BD0025FBE7EC
:1092200038B5036B021D934207D004461D691846EA
:1092300006F018FA2063284638BD0025FBE7000039
:1092400070B50E4D00220E49284605F005F8802025
:1092500002F0D4FB0646FEF78FFA0A4C26600A4B52
:1092600019884A1C1A80304600F076F90022074916
:10927000284604F0F1FF206870BD00BFA01605006D
:10928000BC160500E4360020DC360020CC160500B4
:10929000084B1B6813B1074B1868704710B538208E
:1092A00002F0ACFB0446FDF7D9FE024B1C60014BFB
:1092B000186810BDE036002010B50C4B1B683BB1A0
:1092C00000220B490B4804F0C7FF084B186810BD7B
:1092D000142002F093FB0446FDF748FC034B1C608E
:1092E00000220549034804F0B7FFE9E7C036002033
:1092F000F0160500A0160500DC16050010B50446A2
:109300008168FEF783FA204610BD71B110B40C4697
:109310001988238A8B4226BF2246A468E468002C61
:10932000F7D110465DF8044B704710467047F8B50A
:10933000054617468C6824B110884FF0000C0126B2
:109340000AE00C1DCB68A3421BD0204606F09EF914
:10935000214604460CE01C46238A834287BFA3684B
:109360003246E3686246002BF5D1002AEAD1214655
:10937000228A3B889A4208D32C6000236B602846DF
:10938000F8BD00232B606C60F9E700232B60696057
:10939000F5E72DE9F04782B006460D4698462420B1
:1093A00002F02CFB044610F1100708D0D8F800306A
:1093B0001B880382002242618261C2610262A94667
:1093C00006F10408454513D0B4F810A02B8A9A453D
:1093D00037D2F268954250D0284606F057F9024637
:1093E000038A534524D2C368002B4AD02A460EE094
:1093F000736923B13269118A238A994241D33A466B
:1094000031466846FFF793FFDDF80090019A002A85
:1094100042D00120B9F1000F34D04346214606F076
:1094200037F9736901337361204602B0BDE8F087F4
:109430003A4631466846FFF77AFFDDF80090019A18
:10944000E5E79A4528D9326995421AD0284606F0B0
:1094500009F90246038A534506D9EB680BB18146E8
:10946000D5E7CDB12A460FE03A4631466846FFF7C8
:109470005EFFDDF80090019AC9E79146C7E7012039
:10948000CBE742B19045FAD0208A138A98422CBF8C
:1094900000200120C1E79146204602F0B9FA484673
:1094A000C3E72DE9F04383B0054688461446684675
:1094B000FFF73DFF009B019E36B92B6000232B7107
:1094C000284603B0BDE8F0830BB34FF00109242018
:1094D00002F094FA074610F1100F08D0224632F835
:1094E000043B038200F114040FCA84E80F0008F162
:1094F000040332463946484606F0CAF8D8F8143014
:109500000133C8F814302F6001232B71D8E708F11C
:1095100004039E4209D0B4F80090338A99452CBFC9
:109520004FF000094FF00109D1E74FF00109CEE7F4
:1095300008B50648002303718360021DC260026102
:109540004361034A034905F053F908BDC4360020BE
:10955000D0300020FD92020008B50180FEF73AF9F4
:1095600008BD000084B0F0B597B006461DA880E89D
:109570000E00014604A800F0C3FD0023049A2F4901
:109580002F4805F0A9F8049806AB984201D002F0E4
:109590003FFA06F148070023039320AB93E8070046
:1095A0008DE807001DAB0ECB384600F0D2FB78B13A
:1095B0001DA90AA800F0A4FD00230A9A2149204809
:1095C00005F08AF80A980CAB984201D002F020FA14
:1095D00010AC1DAD0FCD0FC495E8030084E8030067
:1095E000942002F00BFA0446BDF88C30039316ABBE
:1095F00013E907008DE8070010AB0ECB204600F002
:1096000025F99DF890302370039420AB93E8070070
:109610008DE807001DAB0ECB384600F04DFC3146FF
:10962000204602F009FF00220749054804F014FE15
:10963000204617B0BDE8F04004B0704700170500A1
:1096400014170500201705008017050070B594B0A9
:1096500010AB0E9379B306460D46084621F0BCFFC9
:10966000044607900F2829D80E98012C2FD0002CE3
:1096700030D1079B0F9314A951F8182D0025D5540C
:1096800008AC204600F054FC04950F2303930BAB69
:1096900093E807008DE8070094E80E003046FFF7D6
:1096A00061FF04460E9810AB984201D002F0B0F969
:1096B000204614B070BD0A4816F070F8002207A9C1
:1096C0000EA814F001F80E90079B1093CCE72B78AE
:1096D0000370CEE7224629461FF099FCC9E700BF78
:1096E0001813050008B5FFF7E7FD08BD2DE9F043A5
:1096F0008BB00546914698460AAB23F81A1D00F137
:109700000C0719463846FEF791F805F11006864217
:1097100034D00446A0F81C90A0F81A80BDF8483058
:10972000C383BDF84C3003840DF10E0332466969E2
:109730003846FFF7EAFD864204D0BDF80E20038AC2
:109740009A420BD20AAB0DF10E0243F8042D08AA7F
:1097500000920C4A01463846FFF71BFE04AE00F1AA
:10976000140595E80F0086E80F00143494E80F0004
:1097700085E80F0096E80F0084E80F000BB0BDE805
:10978000F08300BF941705002DE9F0418AB005462B
:1097900090460AAB23F81A1D00F10C07194638460B
:1097A000FEF744F805F1100686422CD00446A0F8D6
:1097B00018800DF10E03324669693846FFF7A5FDA2
:1097C000864204D0BDF80E20038A9A420BD20AAB1F
:1097D0000DF10E0243F8042D08AA00920B4A01462F
:1097E0003846FFF7D6FD04AE00F1140595E80F00EA
:1097F00086E80F00143494E80F0085E80F0096E81F
:109800000F0084E80F000AB0BDE8F081941705004E
:1098100010B58CB004460022CDF80A20CDF80E20F9
:10982000ADF81220ADF81C3001911723ADF80830C7
:1098300001AB0FCB0DF1300C0CE90F0007AA04F1BE
:109840000C0105A8FFF72DFE0CB010BD84B0F8B5D3
:10985000044607AE86E80E00002505700572C56057
:1098600000F1080303614361856180F8205045627F
:1098700000F120038362C36205634563C563056429
:1098800000F14407384600F019FC164BE36584F8F4
:1098900060506566A36684F86C502567636784F83A
:1098A0007850E567C4F8803084F88450C4F8885054
:1098B000C4F890500FCE6064A164E2642365306800
:1098C0006065337984F858304FF6FF732387256439
:1098D000E563BDF83430A4F88C302046BDE8F8408C
:1098E00004B07047BC12050070B40646044601F18E
:1098F00044050FCD0FC495E8030084E8030030460B
:1099000070BC70472DE9F041CCB005460F4612A857
:1099100016F0EAFCA74B129300242E948DF8BC405D
:109920008DF8BD403094319432943394A24EB36894
:10993000009353F80C3CF2684DF803200194009B0F
:1099400053F80C0C2146684406F0D9FB33690293A6
:1099500053F80C3C0DF10808726948F80320029B8B
:1099600053F80C0C2146404406F0C9FB7368009381
:1099700053F80C3CB2694DF80320904B009303F16F
:1099800028021292143302938D4B0393049405948E
:1099900006940794089409940AA805F09FFA894B45
:1099A000039318230B930EAB0C930D948DF8384052
:1099B00003A912A806F0A3FB0622834940460CF037
:1099C00085FE3AAC07F144060FCE0FC496E80300BB
:1099D00084E803003AA934A800F092FB359A349940
:1099E00040460CF073FE04460C2278490CF06EFEE3
:1099F000236853F80C2C2244D36823F04A0343F025
:109A00000803D360236853F80C6C264496F875302D
:109A10005BB9D6F87C80B8F1000F7DD098F81C3087
:109A2000002B7BD0012386F87530302386F8743004
:109A3000236853F80C3C234402229A60398F204655
:109A40000CF0D4FE349836AB984201D001F0E0FF20
:109A500005F108042C6000236B602B72089A002A21
:109A600000F093800698824267D9079948AE4696DF
:109A700046A8FDF717FC2B68469AB24258D09C4284
:109A800000F08880A9682A60479A6A60489AAA60AC
:109A9000002B00F084804693489100234793469A18
:109AA0001370469848AB984201D001F0B1FF434B88
:109AB000009303F12802129214330293414B039353
:109AC0000C980EAB984201D001F0A2FF3C4B0393DF
:109AD0000AA805F0FBFF384B5A68009252F80C2C8C
:109AE00099694DF802101A69029252F80C2C5869C3
:109AF00002A988509A68009252F80C2CDB684DF845
:109B00000230002301932B4B129312A816F02CFC69
:109B100028464CB0BDE8F08115F03DFE404613F0FC
:109B20009CFDD8F800309B6920214046984779E792
:109B300046A9284613F055FEAFE7079942AE409676
:109B40004FF00003024640A8FDF7ACFB2B68409A9B
:109B5000B24215D09C4225D0A9682A60419A6A6019
:109B6000429AAA601BB34093429100234193409ACA
:109B70001370409842AB984299D001F049FF96E7A4
:109B800040A9284613F02DFEEFE70CA9284613F054
:109B900028FE8CE72A60479B6B60489BAB6048AB14
:109BA00046937AE72A60419B6B60429BAB6042AB75
:109BB0004093DAE720260500E04705001448050039
:109BC000742605001C47050070180500781805006C
:109BD00070B5A4B004460D462C4E00222C493046E8
:109BE00004F03AFB0023059329460CA8FFF719F867
:109BF0000CA906A800F084FA05AB069A2549304660
:109C000004F06AFD069808AB984201D001F000FF0D
:109C1000214612A8FFF776FE0023129A1E491B4820
:109C200004F05AFD129814AB984201D001F0F0FEF6
:109C3000043418AE29463046FEF7F3FF1BAB93E819
:109C400007008DE8070096E80E002046FFF786F92A
:109C500020B1002211490D4804F0FEFA1EAE29463B
:109C60003046FEF7DEFF24AB13E90F008DE80F004E
:109C700096E80C0029462046FFF740FA00220849E2
:109C8000024804F0E9FA24B070BD00BF4418050092
:109C900098170500B0170500CC170500D817050068
:109CA0001C18050084B070B58AB006460FAC84E875
:109CB0000E0004AD0FCC0FC594E8030085E8030047
:109CC000AC2001F09BFE0446159B03930AAB13E9FD
:109CD00007008DE8070004AB0ECB2046FFF77CF8A9
:109CE00021463046FFF774FF20460AB0BDE87040B9
:109CF00004B0704770B590B0054616460CAB0A9399
:109D00000C4619B3084621F067FC22184FF00003F7
:109D100021460AA8FEF78EFA04AC0AA9204600F0F4
:109D200007F9039607AB93E807008DE8070094E86E
:109D30000E002846FFF7B6FF04460A980CAB98427F
:109D400001D001F065FE204610B070BD4FF0FF322B
:109D5000DCE784B0F0B58BB011AC84E80E00446A47
:109D600000F11C07BC421DD014AE11AD216904A83E
:109D7000FFF7BAFD96E807008DE8070095E80E00AA
:109D800004A800F021FD38B9204605F06BFC04461C
:109D90008742EBD1002000E020690BB0BDE8F04025
:109DA00004B070470020F8E770B50E46446A00F131
:109DB0001C05AC4209D03146206902F0D5FB204693
:109DC00005F050FC04468542F5D170BD2DE9F04701
:109DD00007460E4615468C6801F10408D4B1116897
:109DE0004FF0000C012000E01C462369994239BF66
:109DF000A3680246E3686246002BF5D15AB9A14632
:109E000022692B689A4252D33C6000233B7138464A
:109E1000BDE8F0874446D6F80C90A14547D02046CF
:109E200005F034FCA1460446EAE74FF0010A17E0CA
:109E3000D3F800E0D3F804C09868DA68C4F81CE0EE
:109E4000C4F820C06062A2621EE0C845EDD02A6856
:109E5000D9F810309A422CBF4FF0000A4FF0010A97
:109E60002C2001F0CBFD044610F1100F12D02B680E
:109E7000036100F11C0141616A6805F10C039A421B
:109E8000D6D04261EA68C261AA68A2616B60002311
:109E9000AB602B7343464A462146504605F0F8FB1B
:109EA0007369013373613C6001233B71AFE7B9F122
:109EB000000FCAD10024A7E784B030B591B00446A2
:109EC00015A880E80E0001460AA800F019F91B9BAE
:109ED000039306AB04930A9B0CAA934221D00493EC
:109EE0000C9B06930B9B05930CAB0A9300230B93DF
:109EF0008DF8303003AA04F1180101A8FFF766FFBE
:109F0000049806AB984201D001F082FD0A980CAB90
:109F1000984201D001F07CFD11B0BDE8304004B0A2
:109F2000704706AD10AB13E90F0085E80F00D9E7C5
:109F300038B50446012303754B68042B24D0082B45
:109F40004BD0102B6AD0242B76D10546102325F850
:109F5000143B08680022835C2D2B08BF0132815C12
:109F600083185B78392984BF0739C9B2392B84BF7C
:109F7000073BDBB203F00F0343EA011305F8013D91
:109F80000232232AE7D926E00223038000238380BC
:109F900009680B784A78392B84BF073BDBB2392A32
:109FA00084BF073AD2B21B01DBB202F00F021343A7
:109FB0001B0283808A78C978392A84BF073AD2B2D3
:109FC000392984BF0739C9B21201D2B201F00F0199
:109FD0000A4313448380204638BD042303800023B2
:109FE000436009680131182011F8013C0A78392BC7
:109FF00084BF073BDBB2392A84BF073AD2B21B01C8
:10A00000DBB202F00F0213438340626813446360C3
:10A010000838023110F1080FE6D1DCE703461022C0
:10A0200023F8132B0A68013A033012F8011F03F8D2
:10A0300001198342F9D1CEE700220349034804F015
:10A040000BF900232375C6E7D0180500FC1805009E
:10A0500070B5044600202075102A0DD110222280F0
:10A0600083B104F113030139E01C11F8012F03F847
:10A0700001299842F9D10DE002460849084804F048
:10A08000EBF809E00E684D688868CA686660A560EC
:10A09000E060226101232375204670BD041905008C
:10A0A000FC1805000222028081800122027570479F
:10A0B000042202804160012202757047002202756D
:10A0C0007047000008B5037D8BB10288042A0AD0CE
:10A0D000102A0AD0022A0CD000230749074804F0AE
:10A0E00017F9002004E0202002E0802000E000209A
:10A0F00008BD1020FCE700BF88180500FC1805000B
:10A100002DE9F041D8B005460B7D002B00F0998178
:10A110000E4612A816F0E8F8B64B129300242E94BF
:10A120008DF8BC408DF8BD40309431943294339416
:10A13000B14FBB68009353F80C3CFA684DF803200C
:10A140000194009B53F80C0C2146684405F0D7FF9E
:10A150003B69029353F80C2C02AB79699950029A2F
:10A1600052F80C0C2146184405F0C9FF7B68009397
:10A1700053F80C3CBA694DF80320A04B009303F14F
:10A1800028021292143302939D4B03930494059476
:10A1900006940794089409940AA804F09FFE994B2A
:10A1A000039318230B930EAB0C930D948DF838404A
:10A1B00003A912A805F0A3FF3388022B00F04C81FD
:10A1C000042B00F0EC81029951F80C2C02AB1A44DC
:10A1D000D36823F04A0343F00803D36051F80C4CD2
:10A1E00002AB1C4494F8753053B9E76F002F00F0B0
:10A1F0007B823B7F002B00F07982012384F875304D
:10A20000302384F87430029B53F80C3C02AA1344A8
:10A2100002249C60F17C10460CF0E4FA03460268CC
:10A2200052F80C2C13449C60B17C0CF0DBFA034612
:10A23000026852F80C2C13449C60717C0CF0D2FA2A
:10A240000346026852F80C2C13449C60317C0CF0DD
:10A25000C9FA80466C4F012239460CF037FAD8F81B
:10A26000003053F80C3C43449C60F17B40460CF0BA
:10A27000B9FA0346026852F80C2C13449C60B17B77
:10A280000CF0B0FA8046012239460CF01FFAD8F8DB
:10A29000003053F80C3C43449C60717B40460CF00A
:10A2A000A1FA0346026852F80C2C13449C60317BDF
:10A2B0000CF098FA8046012239460CF007FAD8F8DB
:10A2C000003053F80C3C43449C60F17A40460CF05B
:10A2D00089FA0346026852F80C2C13449C60B17A48
:10A2E0000CF080FA8046012239460CF0EFF9D8F8DC
:10A2F000003053F80C3C43449C60717A40460CF0AB
:10A3000071FA0346026852F80C2C13449C60317AAF
:10A310000CF068FA0346026852F80C2C13449C6057
:10A32000F1790CF05FFA0346026852F80C2C1344E2
:10A330009C60B1790CF056FA0346026852F80C2C76
:10A3400013449C6071790CF04DFA0346026852F890
:10A350000C2C13449C6031790CF044FA05F108048C
:10A360002C6000236B602B72089A002A00F0F681A3
:10A370000698824240F2C881079954AE529652A87C
:10A38000FCF790FF2B68529AB24200F0B8819C42D1
:10A3900000F00982A9682A60539A6A60549AAA60F8
:10A3A000002B00F005825293549100235393529A4C
:10A3B0001370529854AB984201D001F029FB0F4B17
:10A3C000009303F128021292143302930D4B03936E
:10A3D0000C980EAB984201D001F01AFB084B039386
:10A3E0000AA805F073FB044B5A68009252F80C2C33
:10A3F00099690BE020260500E04705001448050098
:10A40000742605001C470500CC1805004DF8021005
:10A410001A69029252F80C2C586902A988509A685D
:10A42000009252F80C2CDB684DF8023000230193A7
:10A43000A94B129312A815F097FF284658B0BDE813
:10A44000F08100F108030360A4494FF000030A46BD
:10A450000639FDF7EFFEF0E70422A14902A80CF04F
:10A4600035F9029951F80C2C02AB1A44D36823F049
:10A470004A0343F00803D36051F80C4C02AB1C4470
:10A4800094F8753043B9E76F002F47D03B7F002B1E
:10A4900046D0012384F87530302384F87430029B51
:10A4A00053F80C3C02AA134404229A60B18802A813
:10A4B0000CF09CF91C228B490CF008F905F10804FA
:10A4C0002C6000236B602B72089A002A62D00698D9
:10A4D000824233D907993CAE3A963AA8FCF7E2FE9D
:10A4E0002B683A9AB24224D09C4200F03C81A96881
:10A4F0002A603B9A6A603C9AAA60002B00F038817F
:10A500003A933C9100233B933A9A13703A983CABB0
:10A5100098423FF454AF01F07BFA50E715F03BF955
:10A52000384613F09AF83B689B69202138469847D3
:10A53000AFE73AA9284613F054F9E3E7079936AE96
:10A5400034964FF00003024634A8FCF7ABFE2B68AC
:10A55000349AB24219D09C4200F00D81A9682A6059
:10A56000359A6A60369AAA60002B00F0098134930C
:10A57000369100233593349A1370349836AB984251
:10A580003FF41DAF01F044FA19E734A9284613F04F
:10A5900028F9EEE70CA9284613F023F90FE70299F2
:10A5A00051F80C2C02AB1A44D36823F04A0343F051
:10A5B0000803D36051F80C4C02AB1C4494F875307E
:10A5C00043B9E76F002F48D03B7F002B47D00123D2
:10A5D00084F87530302384F87430029B53F80C3CB7
:10A5E00002AA134408229A6071680DEB02000CF075
:10A5F000FDF81C223B490CF069F805F108042C60B9
:10A6000000236B602B72089A002A60D00698824261
:10A6100033D9079948AE469646A8FCF743FE2B6807
:10A62000469AB24224D09C4200F0AD80A9682A60CC
:10A63000479A6A60489AAA60002B00F0A980469366
:10A64000489100234793469A1370469848AB984226
:10A650003FF4B5AE01F0DCF9B1E615F09CF83846F0
:10A6600012F0FBFF3B689B69202138469847AEE714
:10A6700046A9284613F0B5F8E3E7079942AE40969D
:10A680004FF00003024640A8FCF70CFE2B68409AEE
:10A69000B24217D09C427ED0A9682A60419A6A6073
:10A6A000429AAA60002B7BD04093429100234193B1
:10A6B000409A1370409842AB98423FF480AE01F04C
:10A6C000A7F97CE640A9284613F08BF8EEE70CA921
:10A6D000284613F086F872E620260500A218050029
:10A6E000A4180500AC18050015F055F8384612F00E
:10A6F000B4FF3B689B692021384698477DE552A905
:10A70000284613F06EF850E607994EAE4C964FF07F
:10A71000000302464CA8FCF7C5FD2B684C9AB242D8
:10A7200017D09C4247D0A9682A604D9A6A604E9A19
:10A73000AA60002B44D04C934E9100234D934C9A29
:10A7400013704C984EAB98423FF439AE01F060F96B
:10A7500035E64CA9284613F044F8EEE70CA9284644
:10A7600013F03FF82BE62A603B9B6B603C9BAB6091
:10A770003CAB3A93C6E62A60359B6B60369BAB6078
:10A7800036AB3493F5E62A60479B6B60489BAB6021
:10A7900048AB469355E72A60419B6B60429BAB6098
:10A7A00042AB409382E72A60539B6B60549BAB6043
:10A7B00054AB5293F9E52A604D9B6B604E9BAB60A6
:10A7C0004EAB4C93B9E700BF84B030B58DB011AC3F
:10A7D00084E80E00047D74B39DF858405CB30546D0
:10A7E000BDF8443002889A420CD1022B33D0042B9E
:10A7F00039D01022011D12A81EF0FAFBB0FA80F425
:10A80000640918E011A96846FFF77AFC294606A8F2
:10A81000FFF776FC019A079B9A4212D00024069813
:10A8200008AB984201D001F0F3F8009802AB9842CF
:10A8300001D001F0EDF820460DB0BDE8304004B085
:10A840007047002AEBD0069900981EF0D1FBB0FAB1
:10A8500080F46409E3E7BDF8484083889C4214BF54
:10A8600000240124E7E74368129C9C4214BF0024A3
:10A870000124E0E7F0B583B0044600F1080303606B
:10A8800000254560057200F11C0700F12403C36137
:10A89000056280F82450094E009533462A46294621
:10A8A00013F036F900953346226A2946384613F0EC
:10A8B0002FF92583204603B0F0BD00BFBC1B050067
:10A8C000C0697047006A704730B587B0044602AD72
:10A8D00000954FF000030A446846FDF7ABFCE369BE
:10A8E000009AAA4218D004F124018B421AD0616A5E
:10A8F000E261019A2262029A6262C3B100930291FC
:10A9000000230193009A1370009802AB984201D083
:10A9100001F07EF807B030BD694604F11C0012F06A
:10A9200060FFEDE7E261019B2362029B636202AB81
:10A930000093E5E710B504460B4600F108020260FB
:10A94000C9691A6A4FF000030A44FCF7ABFC2046C1
:10A9500010BD10DF7047000010B582B004460C49EE
:10A96000684600F023FF019B63B11A6859682046CE
:10A97000904748B1684600F022FF019B002BF4D1BC
:10A98000002002E0002000E0112002B010BD00BF56
:10A990002819050010B582B004460949684600F040
:10A9A00005FF019B4BB11A685968204690476846DD
:10A9B00000F005FF019B002BF5D102B010BD00BFD8
:10A9C0004019050008B50E4B93F816335A09EC23CD
:10A9D000134113F0010F0DD00A4B9B682BB1094AAC
:10A9E000136843F48003136008E0054B4FF48002C2
:10A9F0001A6003E042F2020000F0EDFE08BD00BF65
:10AA000000E100E06037002010B582B01B4B1B78DE
:10AA10006BBB1B4B01221A700020FFF79DFF112812
:10AA200029D00020FFF7B6FF164B1B68019302A840
:10AA3000002300F8053D00F0F7FE134901A8FFF7D9
:10AA400088FF0446B0FA80F040090C4B18709DF85E
:10AA5000030000F015FF5CB90023094A13700B4A8C
:10AA60001370FFF7AFFF0120FFF794FF00E0082409
:10AA7000204602B010BD0024FAE700BFE9360020EE
:10AA8000E836002024190500F5B70200EA36002058
:10AA9000014B1878704700BFE936002000B583B03D
:10AAA0000849684600F082FE019B43B11A68586865
:10AAB0009047684600F083FE019B002BF6D103B05F
:10AAC0005DF804FB3419050008B5FFF7E7FF08BD82
:10AAD00060DF704769DF704761DF7047154B1B7897
:10AAE00033B330B5ADF2144D40F20444124DADF81D
:10AAF00002400DF1020103A8FFF7EEFF88B92946D5
:10AB000001A800F053FE029B002BF0D01A68596890
:10AB100003A8904701A800F052FE029B002BF5D13C
:10AB2000E5E7052801D000F056FE0DF2144D30BDCA
:10AB3000704700BFEB3600204C19050000294CD0AF
:10AB4000F0B585B00D460646254A0A6000240194FA
:10AB5000029403948DF8040001278DF806700623F3
:10AB6000ADF8083001A92020FFF7B4FF019402944A
:10AB700003948DF805702A6801A94020FFF7AAFF09
:10AB80000194029403948DF804604FF40073ADF8BF
:10AB900006302A6801A92320FFF79CFF0194029444
:10ABA00003948DF804702A6801A93846FFF792FFD4
:10ABB000029403944FF4B06301932A6801A9A12081
:10ABC000FFF788FF0194029403942A6801A9A0204A
:10ABD000FFF780FF204605B0F0BD0E20704700BF94
:10ABE000D030002008B5FFF773FF034610B9024AC2
:10ABF00001211170184608BDEB3600204BDF70476D
:10AC000010B584B00E4C01A8FFF7F8FF88B92146B3
:10AC100002A800F0CBFD039B002BF4D01A68596802
:10AC20000198904702A800F0CAFD039B002BF5D1C4
:10AC3000E9E7052801D000F0CEFD04B010BD00BF4B
:10AC4000581905000649074A074B9B1A03DD043BC8
:10AC5000C858D050FBDC00F0B9FBFBF7F1FA00005C
:10AC600088660500D0300020E8330020FEE7FEE7CC
:10AC7000FEE7FEE7FEE7FEE7FEE7FEE7FEE7FEE7AC
:10AC800000B599B069460DF15F000B465A1A03F8FA
:10AC9000012B8342FAD1054B186803685B685F2279
:10ACA0006946984719B05DF804FB00BF1010050015
:10ACB00008B502481FF042FB08BD00BFFC1B0500A1
:10ACC00008B502481FF03AFB08BD00BFFC1B050099
:10ACD00008B502481FF032FB08BD00BFFC1B050091
:10ACE00010B586B06846FDF7A9FF0C481FF026FB9B
:10ACF000019B3BB9009802AB984201D000F088FE5E
:10AD000006B010BD064C20461FF018FB00981FF03F
:10AD100015FB20461FF012FBECE700BF101C0500DE
:10AD2000241C050010B586B06846FDF787FF0C4867
:10AD30001FF004FB019B3BB9009802AB984201D085
:10AD400000F066FE06B010BD064C20461FF0F6FA75
:10AD500000981FF0F3FA20461FF0F0FAECE700BF6E
:10AD6000101C0500241C050010B50446024B0360AE
:10AD7000FDF73EFF204610BD6C19050010B50446D6
:10AD8000044B0360FDF734FF0421204600F044FE2D
:10AD9000204610BD6C19050010B50446024B036037
:10ADA000FDF726FF204610BD8419050010B50446A6
:10ADB000044B0360FDF71CFF0421204600F02CFE2D
:10ADC000204610BD8419050010B50446024B0360EF
:10ADD000FDF70EFF204610BD9C19050010B5044676
:10ADE000044B0360FDF704FF0421204600F014FE2D
:10ADF000204610BD9C19050038B504460A4D23684D
:10AE00001B6920469847002807DD23685B692046B8
:10AE100098472B6801332B60F1E7034B196803480F
:10AE20001FF004FA38BD00BF04370020A81B05003E
:10AE300070B5054601460748FBF71CFB064B1C682E
:10AE400023685E6B02F0EAFD2B460246034920466A
:10AE5000B04770BD183400200C100500581B0500C9
:10AE600000B583B00190014606481FF0DFF906489F
:10AE70009DF8043003709DF80530437003B05DF811
:10AE800004FB00BFAC190500EC360020054B002286
:10AE90001A70012159709A70D870084418711846B8
:10AEA000704700BFF036002010B50020FFF7C0FF4C
:10AEB0000D481FF043FA0120FFF7E8FF0B4B1C6819
:10AEC00023685B68052201462046984701460848EA
:10AED0001FF0ACF9FF220021204602F07AFE014665
:10AEE00004481FF0A3F910BD801B050010100500D9
:10AEF000A01B0500B01B05002DE9F04704461646CF
:10AF0000984620F069FB8146C5B205F10B0705F1B3
:10AF1000070A384600F077FD0223037080F801A08D
:10AF20004FEA1A2A80F802A0C670330A0371330C64
:10AF30004371360E867180F807804FEA182880F832
:10AF4000088080F809904DB1631E00F109025C1978
:10AF500013F8011F02F8011FA342F9D16FB1421E7D
:10AF600044190A34002312F8011F0B44DBB2A24239
:10AF7000F9D10544AB72BDE8F0870023F9E7000082
:10AF8000F8B50220FFF754FF14481FF0D7F94FF42B
:10AF9000806300224FF400611148FFF7ADFF0746C0
:10AFA000441E00F112060F4D14F8011F28461FF031
:10AFB0003DF9B442F8D10C481FF0C0F90B4B1868AA
:10AFC00003685B68132239469847014608481FF01A
:10AFD0002DF917B1384600F023FDF8BDC01B050060
:10AFE000E41B0500F01B05000C1C050010100500FB
:10AFF000A01B050070B50E4615461C46FFF730FF36
:10B00000104B04221A7007225A7000229A7001789D
:10B01000D970417819715E719D71DC719DF81010C5
:10B0200019729DF8141059729A721A4603F10A01A6
:10B03000184612F8013B847A234483728A42F8D17D
:10B04000004870BDF836002010B582B00120FFF72F
:10B05000EFFE0C2301930A2300930B230E220721FA
:10B0600040F2E470FFF7C6FF0B4B1C6823685B6877
:10B070000B22014620469847014608481FF0D6F8A3
:10B08000FF220021204602F0A4FD014604481FF0E3
:10B09000CDF802B010BD00BF10100500A01B0500C8
:10B0A000B01B05002DE9F041AAB000218548FBF74F
:10B0B000C5F9854B1D682B685B6A03224FF4E131AB
:10B0C00028469847814B1C6823685B6A03224FF42B
:10B0D000E131204698472B685B6B7D4928469847AD
:10B0E00008AD06957B494FF000030A460B3906A8C8
:10B0F000FDF7A0F806A8FBF7E5FE0698A84201D0E8
:10B1000000F086FCFEF79CF80646014672481FF0E8
:10B110008DF872493046FEF799FA054670481FF0DF
:10B120000DF921226F492846FEF7E4FD07460DF18F
:10B130003808CDF830806C494FF000030A460939D1
:10B140000CA8FDF777F80CA93846FDF721FE0C98FE
:10B15000404501D000F05CFC64493846FDF776FDBF
:10B16000012263492846FEF7C5FD07460DF1500848
:10B17000CDF848805F494FF000030A46043912A811
:10B18000FDF758F812A93846FDF702FE129840451F
:10B1900001D000F03DFC58493846FDF757FD21220B
:10B1A00056492846FEF7A6FD07460DF16808CDF87A
:10B1B000608053494FF000030A46063918A8FDF78E
:10B1C00039F818A93846FDF7E3FD1898404501D035
:10B1D00000F01EFC4B493846FDF738FD4A481FF089
:10B1E000ADF8284601F0C5F948481FF0A7F802ABB2
:10B1F0000093002301938DF8083020AD1E9544493B
:10B200000A460C391EA8FDF715F81EA96846FDF779
:10B2100097FC1E98A84201D000F0FAFB26AD2495B9
:10B220003C494FF000030A46093924A8FDF702F80B
:10B2300024A96846FDF72EFC2498A84201D000F00E
:10B24000E7FB3046FEF74EFA05462449FDF7A9FA1A
:10B2500031492846FBF7D6FC69462846FBF7CAFD6C
:10B260002846FBF7E5FC2D481FF068F82368DB6AE9
:10B270002046984700222A49204602F0AEFC114C95
:10B28000284A00212046FBF701F9274A01212046E0
:10B29000FBF7FCF8254A02212046FBF7F7F8244A81
:10B2A00003212046FBF7F2F80021032002F0F0FC16
:10B2B000009802AB984201D000F0AAFB2AB0BDE88A
:10B2C000F08100BF183400200C100500101005009C
:10B2D000C8190500031A0500041A05001C1A050008
:10B2E000441A0500581A0500891A0500E8300020A4
:10B2F0008C1A0500B81A0500F0300020BC1A0500B1
:10B30000EA1A0500EC300020EC1A0500081B0500C5
:10B310002C1B0500391B050040420F003C1B05009B
:10B32000F9AD0200A9AE020049B0020081AF0200EF
:10B3300081AC020070B5124D284602F003FD114C9D
:10B34000114E22463146284603F052FA0F4D284648
:10B3500002F0F8FC22463146284603F049FA22461C
:10B360000B490C4803F044FA22460B490B4803F002
:10B370003FFA22460A490B4803F03AFA70BD00BF73
:10B3800008370020D030002055DD0200243700208F
:10B3900069AD0200E830002099AD0200F0300020D5
:10B3A000C9AD0200EC300020BFF34F8F0549CA68D9
:10B3B00002F4E062044B1343CB60BFF34F8F00BF36
:10B3C000FDE700BF00ED00E00400FA0508B5B34B4F
:10B3D0001B78062B3BD0B14B1B78062B5CD0AF4BB8
:10B3E0001B78062B7DD0AD4B1B78062B00F0A2807E
:10B3F000AA4B1B78062B00F0B580A94B1B68062BC7
:10B4000000F0EA80A74AD2F8883043F47003C2F80B
:10B410008830BFF34F8FBFF36F8F4FF01023D3F8F7
:10B420000C3213F0010F40F0E2804FF01023D3F8FC
:10B430000032002BC0F2FC804FF01023D3F804320E
:10B44000002BC0F2F580984B984A1A6008BD984BC3
:10B450001B6813F00F0F13D1964B1B6803F0F0021B
:10B46000302A03D003F0E003402B09D1924B1B6834
:10B47000C3F30423914A1360884B1B78062B20D119
:10B480008B4B1B6813F00F0F06D18A4B1B6803F020
:10B49000F003302B00F0F480854B1B6813F00F0F86
:10B4A00013D1844B1B6803F0F002302A03D003F061
:10B4B000E003402B09D1824B1B68C3F34233814A1E
:10B4C0001360764B1B78062B23D1794B1B6813F046
:10B4D0000F0F06D1774B1B6803F0F003302B00F001
:10B4E000D380734B1B6813F00F0F17D1714B1B6880
:10B4F00003F0F002302A03D003F0E003402B0DD11B
:10B500004FF080430022C3F80C21C3F81021C3F888
:10B510003825624B1B78062B40F0F480644B1B6887
:10B5200013F00F0F06D1634B1B6803F0F003302BB1
:10B5300000F0B0805E4B1B6813F00F0F06D15D4B1F
:10B540001B6803F0F003302B00F0D080584B1B68D1
:10B5500013F00F0F06D1574B1B6803F0F003502B6D
:10B5600000F0D680524B1B6813F00F0F14D1514BD3
:10B570001B6803F0F002302A03D003F0E003402BF5
:10B580000AD1514B1B6803F04F03504A1360434BE1
:10B590001B78062B7FF431AF454B1B6813F00F0F60
:10B5A0007FF42BAF434B1B6803F0F002302A04D02A
:10B5B00003F0E003402B7FF420AF4FF08043D3F83B
:10B5C000003413F0010F3FF418AF4FF080436FF0D9
:10B5D0000102C3F8002410E73D4B1B68062B7FF4E3
:10B5E00011AF3C4A136843F4806313600AE73A4B97
:10B5F0000122C3F804251A46D2F80034002BFBD0F0
:10B600004FF01022D2F80C3223F00103C2F80C32B2
:10B61000314AD2F80034002BFBD02F4B0022C3F864
:10B6200004251A46D2F80034002BFBD0FFF7BCFEED
:10B63000294B0122C3F804251A46D2F80034002B06
:10B64000FBD04FF010231522C3F80022224AD2F873
:10B650000034002BFBD04FF010231522C3F8042236
:10B660001D4AD2F80034002BFBD01B4B0022C3F83C
:10B6700004251A46D2F80034002BFBD0FFF794FEC5
:10B68000164B174A1A60A6E6164AD36823F0807351
:10B69000D360A4E6144B03221A60A4E6E00F00F086
:10B6A0003001001000ED00E0F43000200090D003E5
:10B6B000E40F00F0E80F00F02403001040350140D3
:10B6C000440200103C05004058020010E40E004007
:10B6D000340100103C17004000E0014074C00740F6
:10B6E0000DF0ADBAF0ED00E0A00500402C4B0522B6
:10B6F0001A60783301221A60703B00221A60043B02
:10B700003F221A60274B1B78062B3FF41FAF3EE702
:10B710004FF08052D2F80414234BC3F82015D2F80E
:10B720000814C3F82415D2F80C14C3F82815D2F85D
:10B730001014C3F82C15D2F81414C3F83015D2F82D
:10B740001814C3F83415D2F81C14C3F84015D2F8F5
:10B750002014C3F84415D2F82414C3F84815D2F8BD
:10B760002814C3F84C15D2F82C14C3F85015D2F88D
:10B770003014C3F85415D2F83414C3F86015D2F855
:10B780003814C3F86415D2F83C14C3F86815D2F81D
:10B790004014C3F86C15D2F84424C3F8702527E68A
:10B7A00010560040E00F00F000C0004001600B6840
:10B7B00043604A68934204BF002343607047436874
:10B7C00043B1026891680B4443605268934204BFDE
:10B7D00000234360704700B585B0002101910291BC
:10B7E000039001AA44F2010000F004F805B05DF8EE
:10B7F00004FB000072B6094B1B6813F0010F00D068
:10B8000000BEBFF34F8F0649CA6802F4E062054BE1
:10B810001343CB60BFF34F8F00BFFDE7F0ED00E0B7
:10B8200000ED00E00400FA05EFF3108272B6114B50
:10B830009B68C3B930B40F4901238B600E4BD3F81A
:10B8400080400E4D2C400C60C3F88050D3F88440EB
:10B850004C604FF0FF31C3F884100023037002B92D
:10B8600062B630BC7047012303700AB962B67047F4
:10B87000704700BF6037002000E100E0FC06FFBD1C
:10B88000084B9B686BB160B9EFF3108172B6054B42
:10B890001868054A10605868506000229A6001B923
:10B8A00062B670476037002000E100E041DF70477A
:10B8B00010B50024054B1C70054B1C60BFF35F8F57
:10B8C00004490548FFF772FF204610BD48370020A5
:10B8D0004C3700202C1C05004037002000B583B0F9
:10B8E00002A8002300F8013DFFF79EFFF1EE103A99
:10B8F00023F09F03E1EE103ABFF35F8F094B402224
:10B90000C3F884219DF80700FFF7BAFFFFF7C0F8DE
:10B9100028B920BF40BF20BF03B05DF804FBFFF78C
:10B92000C5FFF9E700E100E038B505460C4600F038
:10B930000BFB114B1B7801335A4203F07F0302F0DB
:10B940007F0258BF5342DBB20C4A1278D2B29A42FD
:10B950000FD009490878C0B2094A42F83050087837
:10B9600002EBC00254600B70012400F0F7FA20468D
:10B9700038BD0024F9E700BF5137002050370020C0
:10B98000CC48002038B50D4D2B78DCB200F0DCFA45
:10B990002B7801335A4203F07F0302F07F0258BF35
:10B9A0005342DBB22B7000F0D9FA054B53F8342028
:10B9B00003EBC4035868904738BD00BF50370020E0
:10B9C000CC48002038B5054600F0BEFA28461DF0E8
:10B9D00061FA044600F0C2FA24B12A46002120464A
:10B9E0001DF039FB204638BD10B5044600F0ACFA16
:10B9F00020461DF057FA00F0B1FA10BD08B580B22C
:10BA0000FFF7E0FF08BD08B580B2FFF7DBFF08BD18
:10BA100008B5FFF7E9FF08BD08B5FFF7E5FF08BD6A
:10BA200008B5FFF7E1FF08BD08B51CF085FDAADFEA
:10BA300070470000F0B5A3B0B0F850204FF6FF7388
:10BA40009A4223D104460D46D1F890602EB30023CC
:10BA50001593071D3846FEF735FB802823D10C22AD
:10BA600005F1480104F108001DF0C2FAD8B902221C
:10BA700005F1560104F116001DF0BAFA98B9627D7D
:10BA8000237D03EB0223ADF8503015E00022D549A9
:10BA9000D54802F0E1FB23B0F0BD0022D349D248E3
:10BAA00002F0DAFBF7E73846FEF70CFB102840F00F
:10BAB000D6802389ADF85030BDF8502033889342AA
:10BAC00000F0D380B378002B00F0E0808DF8523086
:10BAD0000023ADF84C304FF00103022262F3420321
