:020000022000DC
:10600000B8FB0020D1A20200F9A2020099650200AB
:10601000FDA20200FFA2020001A302000000000096
:1060200000000000000000000000000003A30200C8
:1060300005A302000000000007A3020009A302005C
:106040000BA302000BA30200DD6602000BA30200FB
:106050000BA302000BA30200E16502000BA30200E8
:106060000BA302000BA30200456702000BA3020072
:106070000BA302000BA302000BA302000BA3020060
:10608000B5650200F56602000BA302000BA3020037
:106090000BA302000BA3020055A102000BA30200F8
:1060A0000BA302000BA302000BA302000BA3020030
:1060B0000BA302000BA30200000000000000000080
:1060C0000BA302000BA302000BA302000BA3020010
:1060D0000BA302000BA302000BA3020000000000B0
:1060E00000000000000000000000000000000000B0
:1060F00000000000000000000000000000000000A0
:10610000000000000000000000000000000000008F
:10611000000000000000000000000000000000007F
:10612000000000000000000000000000000000006F
:10613000000000000000000000000000000000005F
:10614000000000000000000000000000000000004F
:10615000000000000000000000000000000000003F
:10616000000000000000000000000000000000002F
:10617000000000000000000000000000000000001F
:10618000000000000000000000000000000000000F
:1061900000000000000000000000000000000000FF
:1061A00000000000000000000000000000000000EF
:1061B00000000000000000000000000000000000DF
:1061C00000000000000000000000000000000000CF
:1061D00000000000000000000000000000000000BF
:1061E00000000000000000000000000000000000AF
:1061F000000000000000000000000000000000009F
:1062000010B5054C237833B9044B13B10448AFF3F0
:1062100000800123237010BD08330020000000001F
:10622000344C050008B5034B1BB103490348AFF3D9
:10623000008008BD000000000C330020344C050035
:10624000154B002B08BF134B9D46A3F5803A002148
:106250008B460F461348144A121A21F094FD0F4B37
:10626000002B00D098470E4B002B00D09847002001
:10627000002104000D000D48002802D00C48AFF3A7
:10628000008021F055FB2000290000F013F821F0D8
:1062900045F800BF00000800B8FB00200000000027
:1062A00000000000083300209C4B0020000000008C
:1062B000000000002DE9F84F72B62C4C204600F08B
:1062C000D5FA62B6204604F0D7FE04F053F8DFF8A2
:1062D000A4B0DFF8A4A0A0463FE002B1904740463A
:1062E00004F0CAFEAC4218D004342268002AF9D067
:1062F0001388002BF6D0013B9BB21380002B18BFF4
:10630000012623689A68D86893F802C0BCF1000F90
:10631000E3D0C3F804902760DFE79BF800309AF8D9
:106320000020DBB2934208D1A6B1114C04F18005E4
:1063300000264FF0FF393746D6E704F087FB40468A
:1063400004F09AFE9BF800309AF80020DBB29342EA
:10635000EBD1E9E7054B1B7C1BB9404604F08CFEF2
:10636000E3E7024800F0BAFBF7E700BF383300204C
:10637000343600201C3600201D36002008B5FE21D2
:10638000014806F04DFD08BD24330020704710B5CC
:106390000446082104F0A4FB204610BD10B582B0CD
:1063A000074C002100910B460A46204606F0ACFD42
:1063B000044A0549204607F0B1F802B010BD00BFFD
:1063C0002C330020003000208D630200080170474C
:1063D000080970470268084B1A6042685A60826870
:1063E0009A60C268DA6002691A6142695A61826918
:1063F0009A61C269DA617047B8FB00207047704744
:1064000008B5034B01221A60024805F057FD08BD8C
:10641000009000408835002010B504460022054950
:1064200005F054FA044B03F108022260383363612B
:10643000204610BD0090D00344FD0400032900D97C
:10644000704708B50B460021024AD05605F084FD7E
:1064500008BD00BF40FD0400032900D9704708B5FE
:106460000B460121024AD05605F076FD08BD00BF5B
:1064700040FD04002DE9F8439046012827D00A2862
:1064800027D00B2818BF4FF0FF381DD1124DB8F19F
:10649000000F17DD4C1E04EB08074FF00D0906E056
:1064A0002B681B68317828469847BC420CD00134D1
:1064B000264623780A2BF3D12B681B6849462846C9
:1064C0009847EDE74FF000084046BDE8F883034DDC
:1064D000DDE7024DDBE700BF3835002088350020BE
:1064E0000020704710B503681F4C23604368636049
:1064F0008368A360C368E3600369236143696361E0
:106500008369A361C369E361184822F0AFFD216884
:10651000174822F023FD6168164822F01FFDA1688C
:10652000154822F01BFDE168144822F017FD21698F
:10653000134822F013FD6169124822F00FFDA16992
:10654000114822F00BFDE169104822F007FDEFF33E
:1065500008810F4822F002FD0E480368DB68984767
:1065600004F02CFD10BD00BFB8FB00209CFC040013
:10657000ACFC0400BCFC0400CCFC0400DCFC04000B
:10658000ECFC0400FCFC04000CFD04001CFD0400F9
:106590002CFD04008835002004207146084203D0F9
:1065A000EFF30980FFF79EBFEFF30880FFF79ABF74
:1065B00070470000084BD3F8003163B1064B00224E
:1065C000C3F800211EF0040F0CBFEFF30880EFF3B7
:1065D000098002490847704700000140D563020066
:1065E00000B585B03A48FFF70BFF0021684604F07C
:1065F000B9FD384BD3F800311BBB364BD3F804310F
:1066000043BB344BD3F808316BBB324BD3F80C315E
:10661000002B31D12F4BD3F81031002B35D12D4B1E
:10662000D3F81431002B39D12A4BD3F81831002B71
:106630003DD1284BD3F81C31002B41D105B05DF87A
:1066400004FB0020234BC3F800010246694606F014
:10665000B1FAD2E700221F4BC3F80421694601209A
:1066600006F0A8FACDE700221A4BC3F808216946C4
:10667000022006F09FFAC8E70022164BC3F80C214F
:106680006946032006F096FAC4E70022114BC3F8CE
:1066900010216946042006F08DFAC0E700220D4B58
:1066A000C3F814216946052006F084FABCE70022ED
:1066B000084BC3F818216946062006F07BFAB8E7B4
:1066C000054805F08BFF034B0022C3F81C21B5E7FA
:1066D00038330020006000403835002008B50348FA
:1066E000FFF78EFE024805F0C7FB08BD38330020D7
:1066F0008835002010B5114C2046FFF781FE00219F
:106700002046FFF79BFE0E4BD3F8403143B90C4BAC
:10671000D3F844315BB900210848FFF79DFE10BD56
:10672000074B0022C3F8402106F0C6F8F3E7044BFC
:106730000022C3F8442106F0D1F8ECE738330020FA
:106740000010014008B51B48FFF75AFE1A4BD3F85A
:10675000403143B1184B0022C3F84021174BB3F925
:106760000430934221DA144BD3F844311BB1124B5D
:106770000022C3F84421104BD3F848311BB10E4B13
:106780000022C3F848210C4BD3F84C3163B10A4BBB
:106790000022C3F84C21094BB3F90430934203DBC8
:1067A0001146162005F0D8FB08BD0121162005F082
:1067B000D3FBD8E73833002000A00040043000208D
:1067C00010B50446542104F08BF9204610BD10B5D5
:1067D0000446502104F084F9204610BD70B582B003
:1067E000184D402401940094082306221649284697
:1067F00005F0B6FA154E32461549284606F08EFECB
:10680000144D009423460B220C21284605F0D0FE9F
:1068100032461149284606F081FE192300931823B9
:1068200017220E490E4805F013F91A231B224FF0C8
:1068300040210C4805F000FC0B48FFF7EDFD02B0CD
:1068400070BD00BF883500200020004000300020CF
:10685000FD63020038350020FF6302000030004075
:1068600090330020A03300203833002030B583B0AF
:10687000044604F00BFC914B1A6822F002021A60E5
:106880001A6822F001021A6003F54F634FF00062AC
:106890005A60A3F540634FF48032C3F88021402250
:1068A00083F8102393F810335A09EC23134113F0A3
:1068B000010F08D0824B9B68002B40F0E080814B99
:1068C0004FF480321A600121112005F007FB0121ED
:1068D000122005F003FB0121132005F0FFFA01212E
:1068E000142005F0FBFA00212046FFF7B5FD012139
:1068F0002046FFF7B1FD02212046FFF7ADFD032141
:106900002046FFF7A9FD02210D2005F0E7FA02213C
:106910000E2005F0E3FA02210F2005F0DFFA022134
:10692000102005F0DBFA674B4022C3F8802160227B
:1069300083F8062393F806335A09EC23134113F026
:10694000010F07D05E4B9B68002B40F09E805D4B93
:1069500040221A605B4B0422C3F88021602283F836
:10696000022393F802335A09EC23134113F0010F69
:1069700007D0534B9B68002B40F08D80514B042275
:106980001A60514D2868002302221946806822F0BF
:10699000A9FB2868002302221946406822F0A2FBC6
:1069A0002868002302221946C06822F09BFB4FF0A2
:1069B00080420123C2F87835C2F8183502F5827298
:1069C0000021116012680192019A404A1360FC3262
:1069D0001368002BFCD001233D4A1360043213607E
:1069E000384B4FF40032C3F88021602283F8112322
:1069F00093F811335A09EC23134113F0010F07D018
:106A00002F4B9B68002B4CD12E4B4FF400321A6059
:106A1000304B01221A6005F007FF002104F1480005
:106A200004F0A0FB274B4FF48062C3F88021402282
:106A300083F80A2393F80A335A09EC23134113F01D
:106A4000010F07D01E4B9B68002B30D11D4B4FF41C
:106A500080621A600121162005F040FA00211620FC
:106A600005F07AFA1C4B4FF40022C3F804250122EA
:106A7000C3F804231A6003F07FFF03B030BD104A4F
:106A8000136843F4803313601DE70D4A136843F025
:106A9000400313605EE70A4A136843F0040313607F
:106AA0006FE7074A136843F400331360B0E7044A02
:106AB000136843F480631360CCE700BF10E000E08C
:106AC0002C36002000E100E0A0300020080000404B
:106AD000041001400010014000000140037C03B994
:106AE000704710B504460F4805F0FCFF38B10D485B
:106AF00005F0FAFFA8B90B4805F0FBFF88B90A4872
:106B000005F0F0FF50B1084805F0EEFF48B906481F
:106B100005F0EFFF28B9044805F0CAF9204604F053
:106B2000EDFA10BD383500208835002072DF70473F
:106B300073DF704710B50446002303604360836031
:106B4000C36003744374012383744FF4047003F02F
:106B5000B9FF80B303462060FF220270012101715A
:106B6000427902F0FE026FF341024271002282601C
:106B70004FF44860D8601A829A74C3F81320DA750B
:106B80001A7659769A76D97E01F0F00141F010011B
:106B9000D97603F13401D9611A8403F591715962F0
:106BA0001A854FF6FF729A85DA8540F2F31119863D
:106BB0005A86204610BD00220249034806F0C4FA56
:106BC000F7E700BF74FE040098FE0400094BA3FB26
:106BD0000131490AB1F5804F28BF4FF48041202987
:106BE00038BF202103688AB2DA6040F2712000FBCE
:106BF00001F070475917B7D12DE9F041B0B00768DF
:106C000008AB0693002307938DF820304368826811
:106C10009A4218D0064600242546DFF868812344AE
:106C200003F10C0207CA8DE807000ECB06A801F09D
:106C3000ABFC013573681834B268D21AD21008FB65
:106C400002F2AA42EBD806A90CA801F023FC3C8D65
:106C50000D9B1C440C980EAB984201D003F03CFFF6
:106C6000EE2C27D90023059306A912A801F012FCE7
:106C700005AB139A3D493E4806F020FB129814AB31
:106C8000984201D003F028FF394C05AB3A8D3949C1
:106C9000204606F013FB05ABEE223749204606F0EE
:106CA0000DFB069808AB984201D003F015FF30B0F9
:106CB000BDE8F0813B8D7C6A1C4406A918A801F050
:106CC000E9FB189D06A91EA801F0E4FB1F9A2946BE
:106CD000204621F034F81E9820AB984201D003F0F2
:106CE000FBFE18981AAB984201D003F0F5FE06A9F6
:106CF00024A801F0CFFB3A8D259B13443B852498B3
:106D000026AB984201D003F0E7FE3A1D07F11C01C3
:106D10003846FFF70BFF044606A92AA801F0BAFB84
:106D20003B8D2B9A9B1A3B852A982CAB984201D01D
:106D300003F0D2FE34B10023224610490C4806F07D
:106D40005FFAAEE701213878FFF7F2FE024630B96C
:106D5000069808AB9842AAD003F0BEFEA7E700232E
:106D60000749034806F04CFA9BE700BF10FE0400F9
:106D700098FE040028FE040034FE040038FE0400DF
:106D80005CFE0400ABAAAAAA70477CDF7047000033
:106D900008B5044B1B681BB10146184600F0AAFC5D
:106DA00008BD00BF043600202D4B1B7803B170478F
:106DB00030B583B0044603F06DF9024630B10023CC
:106DC0002849294806F07AFA03B030BD02A9002309
:106DD00041F8043D012003F0F7F9024628B10023F1
:106DE0002249214806F06AFAEEE702A850F8045D4D
:106DF00003F03EFA024670B1042805D000231C4976
:106E0000194806F05BFADFE70023019A1949164892
:106E100006F0B2FAD8E7019AAA421BD1104B012220
:106E20001A706268002ACFD09DF8003003F0F0039A
:106E30006FF3071302A800F8083D92B22168FFF72C
:106E4000A4FF02460028BFD000230B49064806F0E5
:106E500035FAB9E700230949034806F08DFADDE762
:106E6000DC350020D8FE0400ECFE0400FCFE04002B
:106E700040FF040018FF04006CFF040058FF0400EA
:106E800010B504460748FFF7BBFAA31E012B00D933
:106E900010BD054B18680028FAD0214604F081F88F
:106EA000F6E700BF383300202036002010B5044636
:106EB0001348FFF7A5FA2388102B15D0112B19D0F2
:106EC000104B1B6823B101F05DFF214600F0E2F991
:106ED0000D4B1B6823B101F069FF2146FFF754FFFA
:106EE0002046FFF755FF10BD00220849084806F06C
:106EF0002BF9E5E700220749054806F025F9DFE709
:106F00003833002000360020E0350020ACFE0400BD
:106F1000ECFE0400C0FE04000379002BFCD1012329
:106F20000371704700230371704781600023037170
:106F300070470379002BFCD1806870478ADF704767
:106F400010B504460023436001220272154AC26054
:106F5000037443610377036200F11C0242628262A0
:106F6000C3624FF4847003F0ADFD206098B10378E4
:106F700003F0F8036FF3C403037000234370A022EF
:106F8000428082808360037300F118030361EE2363
:106F90008382204610BD00220349044806F0D4F83D
:106FA000F7E700BF94FF0400A4FF0400B8FF04004B
:106FB00070B506460C4631B970BD204603F08CFD15
:106FC0002C46002DF8D0E1683046FFF7F1FFA568A8
:106FD000206904F118039842EFD003F07DFDECE73F
:106FE0002DE9F8438468071D7CB34E68D1F8009002
:106FF000B84606E0AB1B002BA6BFA046A468E46819
:1070000074B165692A46B54228BF3246002AF1D0DC
:107010004946206920F084FE03460028EAD0EAE7CA
:10702000474512D0D8F814403246A64228BF22461F
:1070300032B1D8F81010484620F072FE034600B96D
:10704000331B002B01DB404600E03846BDE8F883E7
:107050002DE9F84F8146884617468C6801F1040BEC
:10706000002C37D05668D2F800A008E0731B002B24
:10707000B9BFA3680122E36800227BB11C466569A1
:107080003246AE4228BF2A46002AEFD02169504638
:1070900020F046FE03460028E8D0E8E7DAB92546A6
:1070A000D4F814A07E685246B24528BF32462AB1B1
:1070B0003968206920F034FE034608B9AAEB0603BC
:1070C000002B5DDBC9F80040002389F804304846F6
:1070D000BDE8F88F5C46D8F80C50A54250D0204649
:1070E00007F06AF925460446DAE701261DE0D3F8E1
:1070F00000E0D3F804C09868DA68C4F818E0C4F86F
:107100001CC02062626222E05D45EED07E686C6940
:107110003246A64228BF22462AB12969386820F0A3
:10712000FFFD034600B9331BDE0F2C2003F0CAFC21
:10713000044610F1100F12D000F1180101613B4616
:1071400053F8082B9A42D2D00261BA6882617A68F9
:1071500062613B6000237B603B72BB69A3625B465C
:107160002A462146304607F029F9D8F81430013371
:10717000C8F81430C9F80040012389F80430A6E7A4
:10718000002DC1D100249DE770B582B0054669B1DC
:107190000E46541A01940F2C0FD82868012C14D0D5
:1071A000ACB12246314620F0CAFD10E012B90023EE
:1071B00001930CE0094817F089F9002201A915F0A4
:1071C0001BF92860019BAB60E7E733780370019BF4
:1071D0006B602A680021D15402B070BDC8FF040062
:1071E0002DE9F84F82460C4615469B462C2003F0AD
:1071F00069FC064610300BD006F118033361216993
:1072000062694FF000030A44FFF7BEFFA36AB3624E
:10721000237833700023B360F3607560E16839B997
:10722000A5689DB337464FF02C094FF0000813E0D6
:107230005B4632465046FFF7D3FFF060F0E72B780D
:107240002370C4F80880C4F80C80BC606760E968EB
:10725000A9B9AD682746CDB1484603F033FC0446D2
:107260001030ECD004F11803236129696A694FF0EA
:1072700000030A44FFF788FFAB6AA362DFE75B46BF
:1072800022465046FFF7ACFFE060E2E73046BDE83B
:10729000F88F00002DE9F047ADF5147D05460C464A
:1072A0000B881B2B05D01D2B32D00DF5147DBDE8AE
:1072B000F0870B7A012BF8D1037200230374446B1F
:1072C000002CF2D08DF8E8317B937AAA7C927D92E3
:1072D0007E93016AA9B179A8029002ABFFF780FF03
:1072E000024600E01A469368002BFBD17C920246CE
:1072F00000E01A46D368002BFBD17D92EB6A7E93A7
:107300007B9079A8A0477B9979A8FFF751FECCE73D
:10731000067A002EC9D10B31684600F09BFA694607
:107320007FA800F09DFA05F118087FA94046FFF7F5
:1073300057FE07467F9881AB984201D003F0CCFB03
:1073400005F11C039F421BD0BF6A6B4693E8060001
:10735000384600F087FD94F91B10384600F098FD80
:10736000A28C82BB2946384600F095FD686800284B
:1073700000F0478195F83030002B00F0428178E032
:10738000237A13F0080F90D195F83120EB6A9A42D6
:107390008BD9A82003F096FB074600F0FFFC002FD6
:1073A00083D06B4693E80600384600F05BFD94F905
:1073B0001B10384600F06CFDA28C2AB929463846CD
:1073C00000F069FD29E00126237A13F0080F00F090
:1073D0001E81384600F068FD8146384600F067FDA2
:1073E0000246494602A820F0AAFC384600F05FFD9C
:1073F000A28C216A02AB184420F0A1FC384600F0B0
:1074000056FDA28C024402A9384600F045FE2946EA
:10741000384600F040FD002EA8D169468EA800F045
:107420001FFA89AB87938E9B90AA934200F0F48059
:107430008793909B89938F9B889390AB8E93002327
:107440008F938DF840328D9787AA414685A8FFF724
:10745000FFFD879889AB984201D003F03DFB8E98E1
:1074600090AB984201D003F037FB6868002800F029
:10747000C8800368DB6839469847D5F80480D8F897
:107480000030D3F808903B788DF808307B788DF881
:107490000930BB788DF80A30FB788DF80B303A1D37
:1074A00092E803000390ADF81010BB7A8DF812300B
:1074B000BB89ADF814303B69069309AB0793796932
:1074C000BA694FF000030A4407A8FFF75DFE0FAB4F
:1074D0000D93F96A3A6B4FF000030A440DA8FFF7C9
:1074E00053FE7B6C1393B7F94830ADF850303C6DC8
:1074F000FB6CE41AE2104E4B03FB02F300221592E0
:1075000016921792002B00F090804A4A934200F2A4
:107510008A80204603F0D6FA8446CDF854C0CDF8D0
:1075200058C064441794FA6C3B6D9A4222D002F121
:10753000180EA3EB0E0A4FEADA0A3F4B03FB0AFAD6
:107540002AF0604A0AF1010A0AEB4A0A0CEBCA0A5D
:10755000BCF1000F08D06446AEF118060FCE0FC480
:1075600096E8030084E803000CF1180C0EF1180EE5
:10757000D445EDD1CDF858C097F958308DF860302A
:107580001BAB1993F96D3A6E4FF000030A4419A82A
:10759000FFF7FAFD1FAC07F174060FCE0FC496E893
:1075A000030084E8030027AC2594D7F88C10D7F8A3
:1075B00090204FF000030A4425A8FFF7E5FD97F857
:1075C000A4308DF8AC3002A94046C8472598A042A7
:1075D00001D003F081FA19981BAB984201D003F057
:1075E0007BFA159808B103F077FA0D980FAB984223
:1075F00001D003F071FA079809AB984201D003F06B
:107600006BFA296810310020FFF798FC4DE6216ADB
:10761000384600F041FDFAE689AC94AB13E90F005F
:1076200084E80F0007E716F04BFF4FF0000C74E7FB
:10763000ABAAAAAAAAAAAA0AABAAAA0A75DF704785
:10764000B5DF7047002242600274426100F1100110
:107650008161C16102621149416280F82820C262E1
:10766000016380F834208263C16380F84020426463
:1076700080F84C20026500F14C0141658165C265CE
:1076800080F86420826600F16401C1660167426788
:107690008267C2674FF6FF720280704794FF040052
:1076A000704770B506460C4651B1E1683046FFF7A9
:1076B000F8FFA568204603F00FFA2C46002DF4D100
:1076C00070BD836804309BB110B4098804461A8ADF
:1076D0008A4226BF1C469B68DB68002BF7D1A0427C
:1076E00003D0238A8B4298BF20465DF8044B704735
:1076F000704700002DE9F04184B005460C468B88A8
:10770000ADF80E300B88112B54D02ED9122B6FD020
:10771000552B22D104AF002347F8083DDFF8308114
:107720003B46CA884849404605F0C8FDE688B6F59C
:10773000007FA8BF4FF400763B463246434940469F
:1077400005F05EFD3246BDF80E10284601F066FDDC
:107750003146BDF80E00FFF773FF214605F14800E2
:1077600001F0C0FE04B0BDE8F081102BF5D101F0AE
:1077700003FD0028F1D00368227E1B789A42ECD1E9
:10778000BDF80E3000222946284601F08BFD638AA1
:10779000228ABDF80E10E08A0190A08A0090284647
:1077A00001F0EEFCE86F0028D7D003689B682946FB
:1077B0009847D2E70DF10E010C30FFF782FF05F17B
:1077C00010018142C9D006F05BFE03F085F92B6AF7
:1077D000013B2B62E86F18B10368DB6829469847C4
:1077E000284601F0C9FC0028B7D0FFF705FAB4E736
:1077F0000DF10E010C30FFF764FF05F11003984204
:10780000ABD0828B23899A4203D1428B63899A42FF
:1078100011D004F10801BDF80E00FFF70FFF6389D6
:107820002289BDF80E10E0890190A08900902846B9
:1078300001F0A6FC91E7C28BA3899A42E9D1028CA0
:10784000E3899A42E5D188E7F4FF040014000500BB
:10785000040005000A6802608A8882807047000080
:107860002DE9F041C2B006460F4602AC14A817F04D
:10787000D3FBBB4BA3640025C4F8B85084F8BC50BC
:1078800084F8BD50C4F8C050C4F8C450C4F8C850FF
:10789000C4F8CC50DFF8D882D8F80830236053F809
:1078A0000C3CD8F80C20E2506560236853F80C0CAF
:1078B0002946204407F0B9FAD8F81030A36053F8ED
:1078C0000C3C42AA1344D8F8142043F8F82CA368BF
:1078D00053F80C0C294604AB184407F0A6FAD8F864
:1078E0000430236053F80C3CD8F81820E2509D4B2C
:1078F000236003F12802A2641433A3609A4BE3606F
:1079000025616561A561E561256265620CA806F0E7
:107910007BF9964BE3601823E36210AB2363656346
:1079200084F8385005A914A807F07FFAA36853F823
:107930000C4C04AB1C4494F8753053B9E56F002D22
:1079400000F09C812B7F002B00F09A81012384F8AA
:107950007530302384F87430049B53F80C3C42AAF1
:107960001344022243F8F02C049B53F80C2C04AB74
:107970001A44D36823F04A0343F00803D3603978EC
:1079800004A80DF0C5FD3A238DF8073001220DF152
:1079900007010DF031FD049B53F80C4C04AB1C4463
:1079A00094F8753053B9E56F002D00F072812B7F8C
:1079B000002B00F07081012384F87530302384F8A7
:1079C0007430049B53F80C3C42AA1344022243F83F
:1079D000F02C049B53F80C2C04AB1A44D36823F00E
:1079E0004A0343F00803D360797804A80DF090FDB2
:1079F0003A238DF8063001220DF106010DF0FCFC52
:107A0000049B53F80C4C04AB1C4494F8753053B9E8
:107A1000E56F002D00F048812B7F002B00F04681A0
:107A2000012384F87530302384F87430049B53F8B4
:107A30000C3C42AA1344022243F8F02C049B53F856
:107A40000C2C04AB1A44D36823F04A0343F0080318
:107A5000D360B97804A80DF05BFD3A238DF80530AA
:107A600001220DF105010DF0C7FC049B53F80C4CED
:107A700004AB1C4494F8753053B9E56F002D00F049
:107A80001E812B7F002B00F01C81012384F87530B0
:107A9000302384F87430049B53F80C3C42AA1344FE
:107AA000022243F8F02C049B53F80C2C04AB1A442C
:107AB000D36823F04A0343F00803D360F97804A89D
:107AC0000DF026FD3A238DF80430012201A90DF0B6
:107AD00093FC049B53F80C4C04AB1C4494F8753095
:107AE00053B9E56F002D00F0F5802B7F002B00F0DF
:107AF000F380012384F87530302384F87430049BBC
:107B000053F80C3C42AA1344022243F8F02C049B85
:107B100053F80C2C04AB1A44D36823F04A0343F007
:107B20000803D360397904A80DF0F2FC3A238DF8EC
:107B3000033001220DF103010DF05EFC049B53F8AC
:107B40000C4C04AB1C4494F87530B3B9E56F002DB0
:107B500000F0CB802B7F002B00F0C9800AE000BF33
:107B6000F80B0500EC2D05004C0C0500F42C05006D
:107B7000B82D0500012384F87530302384F8743063
:107B8000049B53F80C3C42AA1344022243F8F02C05
:107B9000049B53F80C2C04AB1A44D36823F04A031B
:107BA00043F00803D360797904A80DF0B1FC06F125
:107BB000080434600023736033720A9A002A00F0CC
:107BC000CD8008998A4240F2A0803EAD3C9509994B
:107BD0003CA8FFF7D9FA33683C9AAA4200F090809B
:107BE0009C4200F0C080B16832603D9A72603E9A5B
:107BF000B260002B00F0BC803C933E9100233D938B
:107C00003C9A13703C983EAB984201D002F064FF5E
:107C10005D4B029303F128021492143304935B4BDF
:107C200005930E9810AB984201D002F055FF02ACBC
:107C3000574B05930CA806F0DFFD564B5A6822609F
:107C400052F80C2C9969A1501A69A26052F80C2CB8
:107C500042A90A44596942F8F81C9A68226052F80D
:107C60000C2CDB68A350002363604B4BA36414A867
:107C700017F012FA304642B0BDE8F08116F023FC4E
:107C8000284614F082FB2B689B69202128469847E0
:107C90005CE616F018FC284614F077FB2B689B690D
:107CA00020212846984786E616F00DFC284614F059
:107CB0006CFB2B689B69202128469847B0E616F09C
:107CC00002FC284614F061FB2B689B6920212846A2
:107CD0009847DAE616F0F7FB284614F056FB2B68B7
:107CE0009B6920212846984703E716F0ECFB2846BD
:107CF00014F04BFB2B689B6920212846984739E7F5
:107D00003CA9304614F005FC78E738AD36954FF0C5
:107D100000030A46099936A8FFF736FA3368369AFF
:107D2000AA4216D09C4226D0B1683260379A72605F
:107D3000389AB26023B33693389100233793369A3A
:107D40001370369838AB98423FF462AF02F0C4FE2D
:107D50005EE736A9304614F0DCFBEEE70EA93046AC
:107D600014F0D7FB54E732603D9B73603E9BB360D9
:107D70003EAB3C9342E73260379B7360389BB36005
:107D800038AB3693D9E700BFEC2D0500F42C050085
:107D90004C0C0500B82D0500F80B05002DE9F04747
:107DA00082B004462D490430FFF754FD04F1140A53
:107DB00004F11C0363610025A561257704F12C09FA
:107DC00004F13403E362256384F83450E5642565E7
:107DD000656504F15C0804F16403E365256684F8D5
:107DE000645004F1740001F0F2FC04F18C0704F11A
:107DF0009403C4F88C30C4F8905084F89450A57261
:107E0000A5812561164E00953346A2692946504644
:107E100014F016FD00953346226B2946484614F0AF
:107E20000FFD4FF40043A4F8483000953346226E0E
:107E30002946404614F004FD84F8585065640095C6
:107E40003346D4F890202946384614F0F9FC2570C2
:107E5000E570204602B0BDE8F08700BF1C000500B9
:107E6000B8FC040010B483B004466B4683E80600F7
:107E700093E803006060218103B05DF8044B704714
:107E800010B504462C3014F044FB0123A37010BD40
:107E9000A0F8481070474164704708B50123C370CB
:107EA0005C3014F036FB08BDD0F88C007047D0F879
:107EB000900070472DE9F04F83B016460468436880
:107EC0001B1BDA104A4B03FB02F34A4A934209D0C8
:107ED00081460D46ABB15A00934206D90C1BDFF820
:107EE00014A111E0444816F0F4FA424B934228BF23
:107EF00013469A460C1B3AB94FF000080AE0464672
:107F000036E00C1B4FF0010A0AEB4A00C00002F0F9
:107F1000D9FD804618EB040405D00FCE0FC496E8B7
:107F2000030084E80300D9F800E0AE45E7D00EF185
:107F3000180CA5EB0C0B4FEADB0B304B03FB0BFBD8
:107F40002BF0604B0BF1010B0BEB4B0B08EBCB0B4E
:107F5000464646B13446ACF118070FCF0FC497E838
:107F6000030084E8030018360CF1180C5E45F0D1CC
:107F700006F1180BD9F80430AB4225D005F1180CE6
:107F8000A3EB0C03DB081D4A02FB03F323F0604361
:107F9000019303EB430306EBC30630365F4647B15C
:107FA0003C46ACF118050FCD0FC495E8030084E8FA
:107FB000030018370CF1180CB742F0D1019B0133C4
:107FC00003EB43030BEBC30BBEF1000F02D0704673
:107FD00002F082FDC9F80080C9F804B00AEB4A0A31
:107FE00008EBCA03C9F8083003B0BDE8F08F00BF42
:107FF000ABAAAAAAAAAAAA0A24000500ABAAAA0A9E
:1080000084B070B5064605A880E80E00346D736D27
:108010009C420ED034B105460FCD0FC495E8030045
:1080200084E80300336D18333365BDE8704004B055
:10803000704705AA214606F14C00FFF73BFFF4E725
:1080400070B582B0054669B10E46541A01940F2CE2
:108050000FD82868012C14D0ACB1224631461FF04D
:108060006EFE10E012B9002301930CE0094816F0EF
:108070002DFA002201A914F0BFF92860019BAB6022
:10808000E7E733780370019B6B602A680021D154C5
:1080900002B070BDC8FF04002DE9F04FE7B00646FE
:1080A000884691461AAC18944FF000038A1818A815
:1080B000FFF7C6FFD6F88C30189AA24246D006F1D8
:1080C00094018B4200F0CE81D6F89410C6F88C2033
:1080D000199AC6F890201A9AC6F89420002B00F03E
:1080E000C98118931A9100231993189A137018983C
:1080F0001AAB984201D002F0EFFCB64D0024009478
:108100002B46326B214606F12C0014F099FB86F8C1
:1081100058403470B472F470F36C336506F1140394
:108120001846059300942B46B269214614F088FB4B
:10813000049698F800506B1C1C44E4B265B908F131
:1081400001084C45F5D367B0BDE8F08F18A906F1DA
:108150008C0014F0DEF9C6E708F10206013DEDB22D
:1081600098F80130072B00F0CD801FD9192B00F0B3
:108170008E803BD80A2B00F08280162B00F0E68020
:10818000092B40F0818020AF1E974FF00003721939
:1081900031461EA8FFF754FF1EA90498FFF770FE92
:1081A0001E98B84270D002F097FC6DE0032B08D8FF
:1081B000022B73D2012B67D198F80230049A937284
:1081C00062E0052B40F2848036AF00231022314656
:1081D000384601F0D1FA39AB93E807008DE8070083
:1081E00097E80E000498FFF70BFF4DE0212B00F0FD
:1081F000F380FF2B00F09780202B45D1032D43D92E
:10820000D8F802104EA801F0DCFA0DF1300C4EAF98
:108210000FCFACE80F0097E803008CE803000123C0
:10822000049AD37002F1740C0CAFBE46BEE80F0086
:10823000049F7867CCF80410CCF80820CCF80C30F8
:10824000DEF80000CCF810009EF804308CF81430F2
:10825000042D19D908F1060156AF54972A1F4FF083
:1082600000030A4454A8FFF7EBFE54A90498FFF753
:1082700014FE5498B84207D002F02EFC04E098F89F
:108280000230049A82F8583006EB050859E7B8F82E
:108290000230049A938101231370F5E75FEA550BCE
:1082A000F2D0B24606EB4B0B24AF0DF19C083AF826
:1082B000021B384601F07FFA98E807008DE80700B6
:1082C00097E80E000498FFF79BFEDA45EFD1DBE755
:1082D0005FEA950BD8D0B24606EB8B0B2AAF0DF1B7
:1082E000B4085AF8041B384601F06BFA98E8070006
:1082F0008DE8070097E80E000498FFF781FED3454C
:10830000EFD1C1E700231022314630A801F034FA42
:1083100033AB93E807008DE8070030AB0ECB049831
:10832000FFF76EFEB0E73EAF3C974FF000037219C7
:1083300031463CA8FFF784FE3CA9059814F0E9F803
:108340003C98B842A0D002F0C7FB9DE7012D9BD915
:10835000B8F8021042A801F02EFA0DF1180C42AF45
:108360000FCFACE80F0097E803008CE8030001236F
:10837000049AD37002F1740C06AFBE46BEE80F003B
:10838000049F7867CCF80410CCF80820CCF80C30A7
:10839000DEF80000CCF810009EF804308CF81430A1
:1083A000022D7FF671AF08F104014AAF4897AA1E6B
:1083B0004FF000030A4448A8FFF742FE48A904987A
:1083C000FFF76BFD4898B8423FF45EAF02F084FBC4
:1083D0005AE700BFB8FC04000F2D7FF655AF00230D
:1083E000102231465AA801F0C7F90DF1480C5AAFD6
:1083F0000FCFACE80F0097E803008CE803000123DF
:10840000049AD37002F1740C12AFBE46BEE80F009E
:10841000049F7867CCF80410CCF80820CCF80C3016
:10842000DEF80000CCF810009EF804308CF8143010
:10843000102D7FF629AF08F1120162AF6097A5F108
:1084400010024FF000030A4460A8FFF7F9FD60A98D
:108450000498FFF722FD6098B8423FF415AF02F090
:108460003BFB11E7C6F88C20199BC6F890301A9B8D
:10847000C6F894301AAB189335E600BF08B54A68C1
:10848000436813441F2B00D908BD096814F05CFA37
:10849000FAE7000070B582B0044600F108030360FB
:1084A0000E684D6876B101950F2D10D82068012D0A
:1084B00016D0C5B9019B636022680021D1542046C3
:1084C00002B070BD002DEED0094815F0FFFF00226C
:1084D00001A9204613F090FF2060019BA360E5E70F
:1084E00033780370E6E72A4631461FF028FCE1E7BF
:1084F000C8FF040084B070B5064605A880E80E00E9
:10850000B468F3689C420ED034B105460FCD0FC459
:1085100095E8030084E80300B3681833B360BDE84E
:10852000704004B0704705AA2146301DFFF7C2FC19
:10853000F5E730B591B005460CAB0A930C4601B394
:10854000084621F0E1FE22184FF0000321460AA858
:10855000FFF776FD04AC0AA9204601F087F807ABC7
:1085600093E807008DE8070094E80E002846FFF71F
:10857000C1FF0A980CAB984201D002F0ADFA11B0DD
:1085800030BD4FF0FF32DFE784B0F0B5BBB004463A
:1085900041A880E80E0001F01DF9202871D0802844
:1085A00000F0D780102804D03BB0BDE8F04004B004
:1085B000704703238DF80C308DF80D300CAD0A9503
:1085C0004FF000030DF10E0203A90AA8FFF738FDD2
:1085D00012AB10934FF000030DF5857242A910A85D
:1085E000FFF72EFD0B98119A81180A9BAB4214BF1E
:1085F0000C9D0F25A94207D912AD109EAE4214BFA3
:10860000129D0F25A9422BD910990AA814F09CF9A4
:10861000054606AB04932E4656F8083BB34227D0D6
:108620000493AB6806936B6805932E6000236B6020
:108630002B7204A92046FFF721FF049806AB98424D
:1086400001D002F049FA109812AB984201D002F022
:1086500043FA0A980CAB9842A6D002F03DFAA3E781
:1086600000900022114610A814F0EAF80546D0E761
:1086700006AF2B4653F8080F59689A68DB680FC796
:10868000D1E705238DF80C308DF80D301EAD1C950B
:108690004FF000030DF10E0203A91CA8FFF7D0FC58
:1086A00024AB22934FF0000343AA42A922A8FFF76C
:1086B000C7FC1D98239A81181C9BAB4214BF1E9DBA
:1086C0000F25A94207D924AD229EAE4214BF249D96
:1086D0000F25A9422CD922991CA814F035F905467A
:1086E00018AB16932E4656F8083BB34228D0169383
:1086F000AB6818936B6817932E6000236B602B7226
:1087000016A92046FFF7BAFE169818AB984201D07A
:1087100002F0E2F9229824AB984201D002F0DCF991
:108720001C981EAB98423FF43FAF02F0D5F93BE7EF
:1087300000900022114622A814F082F80546CFE7E7
:1087400018AF2B4653F8080F59689A68DB680FC7B3
:10875000D0E711238DF80C3007238DF80D3030ADA4
:108760002E954FF000030DF10E0203A92EA8FFF77E
:1087700067FC36AB34934FF0000346AA42A934A8F5
:10878000FFF75EFC2F98359A81182E9BAB4214BFE1
:10879000309D0F25A94207D936AD349EAE4214BF95
:1087A000369D0F25A9422CD934992EA814F0CCF867
:1087B00005462AAB28932E4656F8083BB34228D0EC
:1087C0002893AB682A936B6829932E6000236B6013
:1087D0002B7228A92046FFF751FE28982AAB984211
:1087E00001D002F079F9349836AB984201D002F00A
:1087F00073F92E9830AB98423FF4D6AE02F06CF984
:10880000D2E600900022114634A814F019F805466B
:10881000CFE72AAF2B4653F8080F59689A68DB68F0
:108820000FC7D0E770477047B0F85000704770B47A
:10883000064604460D1D0FCD0FC495E8030084E8DD
:108840000300304670BC704710B504465C3101F03F
:10885000B7FB204610BD4165704731B990F85230E2
:1088600023F0200380F85230704790F8523043F0E4
:10887000200380F85230704731B990F8523023F01D
:10888000100380F85230704790F8523043F01003D4
:1088900080F85230704731B990F8523023F002031B
:1088A00080F85230704790F8523043F0020380F85D
:1088B0005230704731B990F8523023F0040380F8F9
:1088C0005230704790F8523043F0040380F8523031
:1088D000704731B990F8523023F0080380F85230D5
:1088E000704790F8523043F0080380F852307047D8
:1088F00084B02DE9F041044607AE86E80E00DDF8AD
:1089000034800746304B47F8043B384600F05FFFA1
:10891000002584F82050656204F12003A362E3621D
:10892000256384F83850E56304F1380323646364F5
:10893000A564E56404F15C0001F018FB1123A4F8C0
:10894000903084F89250214BC4F8943084F89850B9
:10895000C4F89C50C4F8A03084F8A450C4F8A850BF
:108960000FCE60607960BA60FB603068386133793F
:108970003B754FF6FF73A4F8503084F8525065658C
:1089800018F0080F1CBF012384F8523008F00101D1
:108990002046FFF780FFC8F340012046FFF799FF0C
:1089A000C8F380012046FFF767FFC8F30011204697
:1089B000FFF753FFC8F340112046FFF77BFF204627
:1089C000BDE8F04104B070474800050094FF040082
:1089D00070B506460C4631B970BD204602F07CF8F1
:1089E0002C46002DF8D0E1683046FFF7F1FFA5686E
:1089F000606904F11C039842EFD002F06DF8ECE7D7
:108A000070B506460C4651B1E1683046FFF7F8FFF5
:108A1000A568204602F060F82C46002DF4D170BD08
:108A200010B504460D4B0360806F04F1800398423B
:108A300001D002F051F8E06D04F16403984201D0D6
:108A400002F04AF8E16B04F13400FFF7D9FF616AE4
:108A500004F11C00FFF7BCFF204610BD48000500D4
:108A600010B50446FFF7DCFFAC21204602F038F8D1
:108A7000204610BD84B0F0B58BB011AC84E80E0078
:108A8000C468071DBC421DD014AE11AD216904A8F5
:108A9000FFF7CDFE96E807008DE8070095E80E0089
:108AA00004A801F00DFA38B9204605F071FC04461F
:108AB0008742EBD1002000E020690BB0BDE8F04018
:108AC00004B070470020F8E738B5C3680363021D9F
:108AD000934207D004461D69184605F059FC2063EF
:108AE000284638BD0025FBE738B5036B021D9342CD
:108AF00007D004461D69184605F04AFC2063284645
:108B000038BD0025FBE770B50E46C468051DAC42B4
:108B100009D03146206902F03FFA204605F038FCC2
:108B200004468542F5D170BD2DE9F04707460E4653
:108B300015468C6801F10408D4B111684FF0000C9F
:108B4000012000E01C462369994239BFA368024610
:108B5000E3686246002BF5D15AB9A14622692B6819
:108B60009A4252D33C6000233B713846BDE8F087FF
:108B70004446D6F80C90A14547D0204605F01CFC91
:108B8000A1460446EAE74FF0010A17E0D3F800E0F7
:108B9000D3F804C09868DA68C4F81CE0C4F820C0B0
:108BA0006062A2621EE0C845EDD02A68D9F8103094
:108BB0009A422CBF4FF0000A4FF0010A2C2001F01E
:108BC00081FF044610F1100F12D02B68036100F1F1
:108BD0001C0141616A6805F10C039A42D6D04261DA
:108BE000EA68C261AA68A2616B600023AB602B7364
:108BF00043464A462146504605F0E0FB736901337F
:108C000073613C6001233B71AFE7B9F1000FCAD13A
:108C10000024A7E782B030B591B004460D4614A9F0
:108C200081E80C000AA800F0E7FD039506AB049369
:108C30000A9B0CAA934220D004930C9B06930B9B97
:108C400005930CAB0A9300230B938DF8303003AAE5
:108C5000214601A8FFF768FF049806AB984201D0AF
:108C600001F03AFF0A980CAB984201D001F034FFB2
:108C700011B0BDE8304002B0704706AD10AB13E94B
:108C80000F0085E80F00DAE770B4064604460D1DB4
:108C90000FCD0FC495E8030084E80300304670BC94
:108CA000704784B0F0B58BB011AC84E80E00C46896
:108CB000071DBC421DD014AE11AD216904A8FFF7F9
:108CC000E3FF96E807008DE8070095E80E0004A88A
:108CD00001F0F6F838B9204605F05AFB0446874201
:108CE000EBD1002000E020690BB0BDE8F04004B0FB
:108CF00070470020F8E770B50E46C468051DAC4209
:108D000009D03146206902F0DFFD204605F040FB26
:108D100004468542F5D170BD38B5C3680363021DB2
:108D2000934207D004461D69184605F031FB2063C5
:108D3000284638BD0025FBE738B5036B021D93427A
:108D400007D004461D69184605F022FB206328461B
:108D500038BD0025FBE7000038B5802001F0B2FEE9
:108D60000546FEF76FFC054C2560054B19884A1C2B
:108D70001A80284600F05CF9206838BD04360020CF
:108D8000FC350020084B1B6813B1074B186870476F
:108D900010B5382001F096FE0446FEF7D1F8024BDC
:108DA0001C60014B186810BD00360020084B1B6882
:108DB00013B1074B1868704710B5142001F082FEFC
:108DC0000446FDF7B7FE024B1C60014B186810BD4E
:108DD000E035002010B504468168FEF762FC2046AD
:108DE00010BD71B110B40C461988238A8B4226BF7E
:108DF0002246A468E468002CF7D110465DF8044BC5
:108E0000704710467047F8B5054617468C6824B180
:108E100010884FF0000C01260AE00C1DCB68A3421D
:108E20001BD0204605F0C8FA214604460CE01C463B
:108E3000238A834287BFA3683246E3686246002BD9
:108E4000F5D1002AEAD12146228A3B889A4208D3EA
:108E50002C6000236B602846F8BD00232B606C60FB
:108E6000F9E700232B606960F5E72DE9F04782B050
:108E700006460D469846242001F024FE044610F1D3
:108E8000100708D0D8F800301B8803820022426106
:108E90008261C2610262A94606F10408454513D009
:108EA000B4F810A02B8A9A4537D2F268954250D078
:108EB000284605F081FA0246038A534524D2C36846
:108EC000002B4AD02A460EE0736923B13269118A19
:108ED000238A994241D33A4631466846FFF793FFC9
:108EE000DDF80090019A002A42D00120B9F1000F6C
:108EF00034D04346214605F061FA7369013373614A
:108F0000204602B0BDE8F0873A4631466846FFF792
:108F10007AFFDDF80090019AE5E79A4528D9326991
:108F200095421AD0284605F033FA0246038A534583
:108F300006D9EB680BB18146D5E7CDB12A460FE0E3
:108F40003A4631466846FFF75EFFDDF80090019A29
:108F5000C9E79146C7E70120CBE742B19045FAD077
:108F6000208A138A98422CBF00200120C1E7914635
:108F7000204601F0B1FD4846C3E72DE9F04383B038
:108F80000546884614466846FFF73DFF009B019E54
:108F900036B92B6000232B71284603B0BDE8F0835F
:108FA0000BB34FF00109242001F08CFD074610F1AE
:108FB000100F08D0224632F8043B038200F114045B
:108FC0000FCA84E80F0008F10403324639464846C8
:108FD00005F0F4F9D8F814300133C8F814302F60D4
:108FE00001232B71D8E708F104039E4209D0B4F89D
:108FF0000090338A99452CBF4FF000094FF00109CA
:10900000D1E74FF00109CEE708B506480023037108
:109010008360021DC26002614361034A034904F098
:109020007DFA08BDE435002000300020D58D020017
:1090300008B50180FEF734FB08BD000084B02DE9BF
:10904000F0478AB0814613AC84E80E0000F1480A6C
:109050004FF00008CDF80C8016AF97E807008DE8B8
:10906000070094E80E00504600F011FA04AD2646C1
:109070000FCE0FC596E8030085E80300942001F0A9
:1090800021FD0546BDF8643003930AAB13E90700E0
:109090008DE8070004AB0ECB284600F021F99DF8BF
:1090A00068302B70039597E807008DE8070094E877
:1090B0000E00504600F09EFA4946284602F008FA93
:1090C00042460549054804F03FF828460AB0BDE885
:1090D000F04704B0704700BF500005006400050071
:1090E00070B594B010AB0E9379B306460D460846A2
:1090F00021F00AF9044607900F2829D80E98012C70
:109100002FD0002C30D1079B0F9314A951F8182DA4
:109110000025D55408AC204600F0A8FA04950F238A
:1091200003930BAB93E807008DE8070094E80E006B
:109130003046FFF783FF04460E9810AB984201D0EB
:1091400001F0CAFC204614B070BD0A4815F0BEF903
:10915000002207A90EA813F04FF90E90079B109359
:10916000CCE72B780370CEE7224629461EF0E7FDB8
:10917000C9E700BFC8FF040008B5FFF717FE08BD28
:109180002DE9F0438BB00546914698460AAB23F88B
:109190001A1D00F10C0719463846FEF792FA05F140
:1091A0001006864234D00446A0F81C90A0F81A801D
:1091B000BDF84830C383BDF84C3003840DF10E0375
:1091C000324669693846FFF70CFE864204D0BDF886
:1091D0000E20038A9A420BD20AAB0DF10E0243F81D
:1091E000042D08AA00920C4A01463846FFF73DFEBE
:1091F00004AE00F1140595E80F0086E80F00143462
:1092000094E80F0085E80F0096E80F0084E80F004F
:109210000BB0BDE8F08300BF700005002DE9F04100
:109220008AB0054690460AAB23F81A1D00F10C07D8
:1092300019463846FEF745FA05F1100686422CD04D
:109240000446A0F818800DF10E03324669693846CD
:10925000FFF7C7FD864204D0BDF80E20038A9A426C
:109260000BD20AAB0DF10E0243F8042D08AA0092AE
:109270000B4A01463846FFF7F8FD04AE00F114052D
:1092800095E80F0086E80F00143494E80F0085E895
:109290000F0096E80F0084E80F000AB0BDE8F081E7
:1092A0007000050010B58CB004460022CDF80A20ED
:1092B000CDF80E20ADF81220ADF81C300191172327
:1092C000ADF8083001AB0FCB0DF1300C0CE90F00FD
:1092D00007AA04F10C0105A8FFF74FFE0CB010BD62
:1092E00084B0F8B5044607AE86E80E000025057088
:1092F0000572C56000F1080303614361856180F870
:109300002050456200F120038362C3620563456318
:10931000C563056400F14407384600F058FA164B5F
:10932000E36584F860506566A36684F86C50256731
:10933000636784F87850E567C4F8803084F8845017
:10934000C4F88850C4F890500FCE6064A164E26401
:10935000236530686065337984F858304FF6FF73C1
:1093600023872564E563BDF83430A4F88C302046AB
:10937000BDE8F84004B0704794FF040070B406469E
:10938000044601F144050FCD0FC495E8030084E8BD
:109390000300304670BC704770B590B00E46051D96
:1093A00004AC2046FFF743FA07AB93E807008DE8CB
:1093B000070094E80E002846FFF75CFB0AAC314634
:1093C0002046FFF734FA10AB13E90F008DE80F00C9
:1093D00094E80C0031462846FFF71CFC10B070BD25
:1093E00084B070B58AB006460FAC84E80E0004ADB8
:1093F0000FCC0FC594E8030085E80300AC2001F012
:1094000061FB0446159B03930AAB13E907008DE843
:10941000070004AB0ECB2046FFF76AFA2146304620
:10942000FFF7BAFF20460AB0BDE8704004B07047AD
:1094300070B590B0054616460CAB0A930C4619B3AE
:10944000084620F061FF22184FF0000321460AA8C9
:10945000FEF7F6FD04AC0AA9204600F007F90396D2
:1094600007AB93E807008DE8070094E80E00284654
:10947000FFF7B6FF04460A980CAB984201D001F002
:109480002BFB204610B070BD4FF0FF32DCE784B0FC
:10949000F0B58BB011AC84E80E00446A00F11C07F3
:1094A000BC421DD014AE11AD216904A8FFF766FFC0
:1094B00096E807008DE8070095E80E0004A800F084
:1094C000FFFC38B9204604F063FF04468742EBD125
:1094D000002000E020690BB0BDE8F04004B0704708
:1094E0000020F8E770B50E46446A00F11C05AC4256
:1094F00009D03146206902F083F8204604F048FF85
:1095000004468542F5D170BD2DE9F04707460E4669
:1095100015468C6801F10408D4B111684FF0000CB5
:10952000012000E01C462369994239BFA368024626
:10953000E3686246002BF5D15AB9A14622692B682F
:109540009A4252D33C6000233B713846BDE8F08715
:109550004446D6F80C90A14547D0204604F02CFF95
:10956000A1460446EAE74FF0010A17E0D3F800E00D
:10957000D3F804C09868DA68C4F81CE0C4F820C0C6
:109580006062A2621EE0C845EDD02A68D9F81030AA
:109590009A422CBF4FF0000A4FF0010A2C2001F034
:1095A00091FA044610F1100F12D02B68036100F1FC
:1095B0001C0141616A6805F10C039A42D6D04261F0
:1095C000EA68C261AA68A2616B600023AB602B737A
:1095D00043464A462146504604F0F0FE7369013383
:1095E00073613C6001233B71AFE7B9F1000FCAD151
:1095F0000024A7E784B030B591B0044615A880E8F0
:109600000E0001460AA800F0F7F81B9B039306AB77
:1096100004930A9B0CAA934221D004930C9B0693BB
:109620000B9B05930CAB0A9300230B938DF8303002
:1096300003AA04F1180101A8FFF766FF049806AB1E
:10964000984201D001F048FA0A980CAB984201D038
:1096500001F042FA11B0BDE8304004B0704706ADE9
:1096600010AB13E90F0085E80F00D9E7012303755C
:109670004B68042B0AD030B4082B2FD0102B4ED0BF
:10968000242B5AD00023037530BC7047022303807B
:109690000023838009680B784A78392B84BF073B05
:1096A000DBB2392A84BF073AD2B21B01DBB202F027
:1096B0000F0213431B0283808A78C978392A84BF3A
:1096C000073AD2B2392984BF0739C9B21201D2B2DE
:1096D00001F00F010A431344838070470423038081
:1096E0000023436009680131182411F8013C0A780D
:1096F000392B84BF073BDBB2392A84BF073AD2B289
:109700001B01DBB202F00F021343A3404268134473
:109710004360083C023114F1080FE6D1B4E7034678
:10972000102223F8132B0A68013AC41C12F8011FF7
:1097300003F80119A342F9D1A6E70546102325F83D
:10974000143B0C680022A35C2D2B08BF0132A15CE6
:10975000A3185B78392984BF0739C9B2392B84BF74
:10976000073BDBB203F00F0343EA011305F8013DA9
:109770000232232AE7D987E770B400240475102A3F
:1097800001D070BC7047028053B100F1130301395E
:10979000C41C11F8012F03F801299C42F9D107E0FC
:1097A0000E684D688C68CA6846608560C460026156
:1097B00001230375E5E70222028081800122027500
:1097C0007047042202804160012202757047002226
:1097D00002757047037D6BB10388042B06D0102BF4
:1097E00006D0022B0CBF10200020704720207047AD
:1097F00080207047002070472DE9F041D8B0054621
:109800000B7D002B00F099810E4612A815F004FC88
:10981000B64B129300242E948DF8BC408DF8BD40B9
:109820003094319432943394B14FBB68009353F821
:109830000C3CFA684DF803200194009B53F80C0C83
:109840002146684405F0F1FA3B69029353F80C2C69
:1098500002AB79699950029A52F80C0C21461844CF
:1098600005F0E3FA7B68009353F80C3CBA694DF8B5
:109870000320A04B009303F12802129214330293A9
:109880009D4B0393049405940694079408940994BB
:109890000AA804F0B9F9994B039318230B930EAB64
:1098A0000C930D948DF8384003A912A805F0BDFA69
:1098B0003388022B00F04C81042B00F0EC810299DC
:1098C00051F80C2C02AB1A44D36823F04A0343F03E
:1098D0000803D36051F80C4C02AB1C4494F875306B
:1098E00053B9E76F002F00F07B823B7F002B00F025
:1098F0007982012384F87530302384F87430029B18
:1099000053F80C3C02AA134402249C60F17C1046DC
:109910000BF0FEFD0346026852F80C2C13449C60C9
:10992000B17C0BF0F5FD0346026852F80C2C134491
:109930009C60717C0BF0ECFD0346026852F80C2C25
:1099400013449C60317C0BF0E3FD80466C4F012298
:1099500039460BF051FDD8F8003053F80C3C434425
:109960009C60F17B40460BF0D3FD0346026852F841
:109970000C2C13449C60B17B0BF0CAFD8046012285
:1099800039460BF039FDD8F8003053F80C3C43440D
:109990009C60717B40460BF0BBFD0346026852F8A9
:1099A0000C2C13449C60317B0BF0B2FD80460122ED
:1099B00039460BF021FDD8F8003053F80C3C4344F5
:1099C0009C60F17A40460BF0A3FD0346026852F812
:1099D0000C2C13449C60B17A0BF09AFD8046012256
:1099E00039460BF009FDD8F8003053F80C3C4344DD
:1099F0009C60717A40460BF08BFD0346026852F87A
:109A00000C2C13449C60317A0BF082FD03460268F3
:109A100052F80C2C13449C60F1790BF079FD03464D
:109A2000026852F80C2C13449C60B1790BF070FD65
:109A30000346026852F80C2C13449C6071790BF0B9
:109A400067FD0346026852F80C2C13449C60317980
:109A50000BF05EFD05F108042C6000236B602B7297
:109A6000089A002A00F0F6810698824240F2C881E6
:109A7000079954AE529652A8FDF786FB2B68529A6E
:109A8000B24200F0B8819C4200F00982A9682A60C5
:109A9000539A6A60549AAA60002B00F00582529390
:109AA000549100235393529A1370529854AB984296
:109AB00001D001F011F80F4B009303F1280212922C
:109AC000143302930D4B03930C980EAB984201D0C4
:109AD00001F002F8084B03930AA804F08DFE044B32
:109AE0005A68009252F80C2C99690BE0F80B0500AB
:109AF000B82D0500EC2D05004C0C0500F42C0500DC
:109B0000A40005004DF802101A69029252F80C2CBC
:109B1000586902A988509A68009252F80C2CDB68A8
:109B20004DF8023000230193A94B129312A815F0AF
:109B3000B3FA284658B0BDE8F08100F1080303608D
:109B4000A4494FF000030A460639FEF779FAF0E718
:109B50000422A14902A80BF04FFC029951F80C2CE9
:109B600002AB1A44D36823F04A0343F00803D360DE
:109B700051F80C4C02AB1C4494F8753043B9E76FB4
:109B8000002F47D03B7F002B46D0012384F875304F
:109B9000302384F87430029B53F80C3C02AA13441F
:109BA00004229A60B18802A80BF0B6FC1C228B49F3
:109BB0000BF022FC05F108042C6000236B602B7273
:109BC000089A002A62D00698824233D907993CAE9F
:109BD0003A963AA8FDF7D8FA2B683A9AB24224D0BE
:109BE0009C4200F03C81A9682A603B9A6A603C9ADA
:109BF000AA60002B00F038813A933C9100233B93FC
:109C00003A9A13703A983CAB98423FF454AF00F044
:109C100063FF50E714F057FC384612F0B6FB3B6880
:109C20009B69202138469847AFE73AA9284612F0A9
:109C300070FCE3E7079936AE34964FF00003024616
:109C400034A8FDF7A1FA2B68349AB24219D09C428D
:109C500000F00D81A9682A60359A6A60369AAA6078
:109C6000002B00F009813493369100233593349A08
:109C70001370349836AB98423FF41DAF00F02CFFC0
:109C800019E734A9284612F044FCEEE70CA928464F
:109C900012F03FFC0FE7029951F80C2C02AB1A446A
:109CA000D36823F04A0343F00803D36051F80C4C07
:109CB00002AB1C4494F8753043B9E76F002F48D0CD
:109CC0003B7F002B47D0012384F87530302384F884
:109CD0007430029B53F80C3C02AA134408229A6089
:109CE00071680DEB02000BF017FC1C223B490BF0D6
:109CF00083FB05F108042C6000236B602B72089A2B
:109D0000002A60D00698824233D9079948AE469619
:109D100046A8FDF739FA2B68469AB24224D09C42F5
:109D200000F0AD80A9682A60479A6A60489AAA60E4
:109D3000002B00F0A9804693489100234793469A50
:109D40001370469848AB98423FF4B5AE00F0C4FE9D
:109D5000B1E614F0B8FB384612F017FB3B689B697C
:109D6000202138469847AEE746A9284612F0D1FB95
:109D7000E3E7079942AE40964FF00003024640A841
:109D8000FDF702FA2B68409AB24217D09C427ED06F
:109D9000A9682A60419A6A60429AAA60002B7BD027
:109DA0004093429100234193409A1370409842ABF4
:109DB00098423FF480AE00F08FFE7CE640A9284632
:109DC00012F0A7FBEEE70CA9284612F0A2FB72E600
:109DD000F80B05007A0005007C00050084000500F2
:109DE00014F071FB384612F0D0FA3B689B692021D1
:109DF000384698477DE552A9284612F08AFB50E67E
:109E000007994EAE4C964FF0000302464CA8FDF762
:109E1000BBF92B684C9AB24217D09C4247D0A96834
:109E20002A604D9A6A604E9AAA60002B44D04C93E7
:109E30004E9100234D934C9A13704C984EAB984220
:109E40003FF439AE00F048FE35E64CA9284612F042
:109E500060FBEEE70CA9284612F05BFB2BE62A60BC
:109E60003B9B6B603C9BAB603CAB3A93C6E62A6085
:109E7000359B6B60369BAB6036AB3493F5E62A605E
:109E8000479B6B60489BAB6048AB469355E72A60A5
:109E9000419B6B60429BAB6042AB409382E72A6080
:109EA000539B6B60549BAB6054AB5293F9E52A60B3
:109EB0004D9B6B604E9BAB604EAB4C93B9E700BFC4
:109EC00084B030B58DB011AC84E80E00047D74B35D
:109ED0009DF858405CB30546BDF8443002889A426C
:109EE0000CD1022B33D0042B39D01022011D12A823
:109EF0001DF016FFB0FA80F4640918E011A9684655
:109F0000FFF77AFC294606A8FFF776FC019A079B23
:109F10009A4212D00024069808AB984201D000F073
:109F2000DBFD009802AB984201D000F0D5FD204641
:109F30000DB0BDE8304004B07047002AEBD0069960
:109F400000981DF0EDFEB0FA80F46409E3E7BDF877
:109F5000484083889C4214BF00240124E7E74368FB
:109F6000129C9C4214BF00240124E0E7F0B583B0AA
:109F7000044600F10803036000254560057200F106
:109F80001C0700F12403C361056280F82450094EC8
:109F9000009533462A46294612F052FC0095334676
:109FA000226A2946384612F04BFC2583204603B02E
:109FB000F0BD00BFB8FC0400C0697047006A70477C
:109FC00010B504460B4600F108020260C9691A6A1E
:109FD0004FF000030A44FDF7D7F8204610BD10DF0C
:109FE0007047000010B582B004460C49684600F086
:109FF00041FC019B63B11A6859682046904748B1FB
:10A00000684600F040FC019B002BF4D1002002E0E8
:10A01000002000E0112002B010BD00BFAC00050020
:10A0200010B582B004460949684600F023FC019B44
:10A030004BB11A68596820469047684600F023FCE7
:10A04000019B002BF5D102B010BD00BFC40005007C
:10A0500008B50E4B93F816335A09EC23134113F04D
:10A06000010F0DD00A4B9B682BB1094A136843F4CA
:10A070008003136008E0054B4FF480021A6003E090
:10A0800042F2020000F00BFC08BD00BF00E100E05E
:10A090002C36002010B582B01B4B1B786BBB1B4BC2
:10A0A00001221A700020FFF79DFF112829D00020FF
:10A0B000FFF7B6FF164B1B68019302A8002300F8B8
:10A0C000053D00F015FC134901A8FFF788FF044681
:10A0D000B0FA80F040090C4B18709DF8030000F0B6
:10A0E00033FC5CB90023094A13700B4A1370FFF765
:10A0F000AFFF0120FFF794FF00E00824204602B0E4
:10A1000010BD0024FAE700BF093600200836002001
:10A11000A8000500BDA802000A360020014B1878EF
:10A12000704700BF0936002000B583B00849684673
:10A1300000F0A0FB019B43B11A685868904768463D
:10A1400000F0A1FB019B002BF6D103B05DF804FBEE
:10A15000B800050008B5FFF7E7FF08BD60DF7047EE
:10A1600069DF704761DF7047154B1B7833B330B53B
:10A17000ADF2144D40F20444124DADF802400DF121
:10A18000020103A8FFF7EEFF88B9294601A800F0F5
:10A1900071FB029B002BF0D01A68596803A8904706
:10A1A00001A800F070FB029B002BF5D1E5E7052824
:10A1B00001D000F074FB0DF2144D30BD704700BFAC
:10A1C0000B360020D000050000294CD0F0B585B03A
:10A1D0000D460646254A0A60002401940294039421
:10A1E0008DF8040001278DF806700623ADF80830BD
:10A1F00001A92020FFF7B4FF0194029403948DF885
:10A2000005702A6801A94020FFF7AAFF0194029473
:10A2100003948DF804604FF40073ADF806302A689B
:10A2200001A92320FFF79CFF0194029403948DF869
:10A2300004702A6801A93846FFF792FF029403943C
:10A240004FF4B06301932A6801A9A120FFF788FFAA
:10A250000194029403942A6801A9A020FFF780FFCB
:10A26000204605B0F0BD0E20704700BF0030002032
:10A2700008B5FFF773FF034610B9024A01211170B8
:10A28000184608BD0B3600204BDF704710B584B070
:10A290000E4C01A8FFF7F8FF88B9214602A800F08C
:10A2A000E9FA039B002BF4D01A685968019890478B
:10A2B00002A800F0E8FA039B002BF5D1E9E7052896
:10A2C00001D000F0ECFA04B010BD00BFDC000500C6
:10A2D0000649074A074B9B1A03DD043BC858D05078
:10A2E000FBDC00F0D7F8FBF7ABFF0000604C05008B
:10A2F0000030002008330020FEE7FEE7FEE7FEE71F
:10A30000FEE7FEE7FEE7FEE7FEE7FEE710B586B0F4
:10A310006846FEF799FA019B3BB9009802AB984258
:10A3200001D000F0D9FB06B010BD054C20461EF050
:10A330009DFE00981EF09AFE20461EF097FEECE768
:10A34000FC01050010B50446024B0360FEF76AFAF3
:10A35000204610BDF000050010B50446044B036014
:10A36000FEF760FA0421204600F0BAFB204610BD3B
:10A37000F000050070B586B02A4B186803685B6A68
:10A3800003224FF4E131984727481EF06FFE02ACDC
:10A390000094264A234607CA03C323F8022B120C53
:10A3A0001A700B23019300238DF813306846FCF7D5
:10A3B000FBFC0098A04201D000F08EFBFEF7CCFC25
:10A3C000044601461A481EF0C9FD1A4D294620468A
:10A3D000FEF786FE064618481EF048FE032217497F
:10A3E0003046FFF725F81649FEF735FA15481EF0F6
:10A3F0003DFE304601F009F913481EF037FE2046B5
:10A40000FEF7BAFE04462946FEF793F80F492046A8
:10A41000FCF7DCFB2046FCF7EFFB0D481EF026FEA8
:10A4200006B070BD3CFD04000001050024010500DC
:10A430003001050048010500700105008401050098
:10A4400014300020AC010500C801050040420F0097
:10A45000E001050008B5034A0349044803F05EF82B
:10A4600008BD00BF0030002045A3020014300020CA
:10A47000BFF34F8F0549CA6802F4E062044B1343EF
:10A48000CB60BFF34F8F00BFFDE700BF00ED00E0E2
:10A490000400FA0508B5B34B1B78062B3BD0B14B33
:10A4A0001B78062B5CD0AF4B1B78062B7DD0AD4BB9
:10A4B0001B78062B00F0A280AA4B1B78062B00F01D
:10A4C000B580A94B1B68062B00F0EA80A74AD2F89A
:10A4D000883043F47003C2F88830BFF34F8FBFF366
:10A4E0006F8F4FF01023D3F80C3213F0010F40F0B0
:10A4F000E2804FF01023D3F80032002BC0F2FC8032
:10A500004FF01023D3F80432002BC0F2F580984BA3
:10A51000984A1A6008BD984B1B6813F00F0F13D1AF
:10A52000964B1B6803F0F002302A03D003F0E003DF
:10A53000402B09D1924B1B68C3F30423914A13604B
:10A54000884B1B78062B20D18B4B1B6813F00F0F09
:10A5500006D18A4B1B6803F0F003302B00F0F48027
:10A56000854B1B6813F00F0F13D1844B1B6803F04E
:10A57000F002302A03D003F0E003402B09D1824BD4
:10A580001B68C3F34233814A1360764B1B78062B5A
:10A5900023D1794B1B6813F00F0F06D1774B1B6843
:10A5A00003F0F003302B00F0D380734B1B6813F0E3
:10A5B0000F0F17D1714B1B6803F0F002302A03D044
:10A5C00003F0E003402B0DD14FF080430022C3F88D
:10A5D0000C21C3F81021C3F83825624B1B78062BD9
:10A5E00040F0F480644B1B6813F00F0F06D1634BEF
:10A5F0001B6803F0F003302B00F0B0805E4B1B684B
:10A6000013F00F0F06D15D4B1B6803F0F003302BE6
:10A6100000F0D080584B1B6813F00F0F06D1574B3A
:10A620001B6803F0F003502B00F0D680524B1B68E0
:10A6300013F00F0F14D1514B1B6803F0F002302AB6
:10A6400003D003F0E003402B0AD1514B1B6803F009
:10A650004F03504A1360434B1B78062B7FF431AFF6
:10A66000454B1B6813F00F0F7FF42BAF434B1B6858
:10A6700003F0F002302A04D003F0E003402B7FF413
:10A6800020AF4FF08043D3F8003413F0010F3FF4B4
:10A6900018AF4FF080436FF00102C3F8002410E7B9
:10A6A0003D4B1B68062B7FF411AF3C4A136843F403
:10A6B000806313600AE73A4B0122C3F804251A4667
:10A6C000D2F80034002BFBD04FF01022D2F80C321D
:10A6D00023F00103C2F80C32314AD2F80034002BC7
:10A6E000FBD02F4B0022C3F804251A46D2F80034C1
:10A6F000002BFBD0FFF7BCFE294B0122C3F8042539
:10A700001A46D2F80034002BFBD04FF0102315224C
:10A71000C3F80022224AD2F80034002BFBD04FF0BD
:10A7200010231522C3F804221D4AD2F80034002B4E
:10A73000FBD01B4B0022C3F804251A46D2F8003484
:10A74000002BFBD0FFF794FE164B174A1A60A6E6C3
:10A75000164AD36823F08073D360A4E6144B032217
:10A760001A60A4E6E00F00F03001001000ED00E0F8
:10A77000183000200090D003E40F00F0E80F00F044
:10A780002403001040350140440200103C05004005
:10A7900058020010E40E0040340100103C17004045
:10A7A00000E0014074C007400DF0ADBAF0ED00E0EC
:10A7B000A00500402C4B05221A60783301221A6054
:10A7C000703B00221A60043B3F221A60274B1B7823
:10A7D000062B3FF41FAF3EE74FF08052D2F804142F
:10A7E000234BC3F82015D2F80814C3F82415D2F867
:10A7F0000C14C3F82815D2F81014C3F82C15D2F88D
:10A800001414C3F83015D2F81814C3F83415D2F85C
:10A810001C14C3F84015D2F82014C3F84415D2F81C
:10A820002414C3F84815D2F82814C3F84C15D2F8EC
:10A830002C14C3F85015D2F83014C3F85415D2F8BC
:10A840003414C3F86015D2F83814C3F86415D2F87C
:10A850003C14C3F86815D2F84014C3F86C15D2F84C
:10A860004424C3F8702527E610560040E00F00F09E
:10A8700000C0004001600B6843604A68934204BF17
:10A88000002343607047436843B1026891680B44FA
:10A8900043605268934204BF00234360704700B591
:10A8A00085B0002101910291039001AA44F20100B8
:10A8B00000F004F805B05DF804FB000072B6094B27
:10A8C0001B6813F0010F00D000BEBFF34F8F064985
:10A8D000CA6802F4E062054B1343CB60BFF34F8FAD
:10A8E00000BFFDE7F0ED00E000ED00E00400FA0538
:10A8F000EFF3108272B6114B9B68C3B930B40F49A5
:10A9000001238B600E4BD3F880400E4D2C400C6021
:10A91000C3F88050D3F884404C604FF0FF31C3F847
:10A9200084100023037002B962B630BC7047012363
:10A9300003700AB962B67047704700BF2C3600201A
:10A9400000E100E0FC06FFBD084B9B686BB160B9FD
:10A95000EFF3108172B6054B1868054A106058680D
:10A96000506000229A6001B962B670472C36002010
:10A9700000E100E041DF704710B50024054B1C707A
:10A98000054B1C60BFF35F8F04490548FFF772FF5A
:10A99000204610BD143600201836002004020500A1
:10A9A0000C36002000B583B002A8002300F8013D5A
:10A9B000FFF79EFFF1EE103A23F09F03E1EE103A0D
:10A9C000BFF35F8F094B4022C3F884219DF8070035
:10A9D000FFF7BAFFFFF7A2FB28B920BF40BF20BF97
:10A9E00003B05DF804FBFFF7C5FFF9E700E100E005
:10A9F00038B505460C4600F0F3FA114B1B780133CD
:10AA00005A4203F07F0302F07F0258BF5342DBB289
:10AA10000C4A1278D2B29A420FD009490878C0B2D3
:10AA2000094A42F83050087802EBC00254600B70BB
:10AA3000012400F0DFFA204638BD0024F9E700BF0A
:10AA40001D3600201C3600209847002038B50D4DDB
:10AA50002B78DCB200F0C4FA2B7801335A4203F0B1
:10AA60007F0302F07F0258BF5342DBB22B7000F02D
:10AA7000C1FA054B53F8342003EBC40358689047E0
:10AA800038BD00BF1C3600209847002038B5054669
:10AA900000F0A6FA28461DF095F8044600F0AAFA40
:10AAA00024B12A46002120461DF06DF9204638BD0C
:10AAB00010B5044600F094FA20461DF08BF800F023
:10AAC00099FA10BD08B580B2FFF7E0FF08BD08B5E0
:10AAD00080B2FFF7DBFF08BD08B5FFF7E9FF08BD4F
:10AAE00008B5FFF7E5FF08BD08B5FFF7E1FF08BDB2
:10AAF00008B51CF0B9FBAADF70470000F0B5A3B0A1
:10AB0000B0F850204FF6FF739A4223D104460D4609
:10AB1000D1F890602EB300231593071D3846FEF739
:10AB200059FE802823D10C2205F1480104F10800C8
:10AB30001DF0F6F8D8B9022205F1560104F116000D
:10AB40001DF0EEF898B9627D237D03EB0223ADF88A
:10AB5000503015E00022D549D54802F0F5FA23B06F
:10AB6000F0BD0022D349D24802F0EEFAF7E73846AA
:10AB7000FEF730FE102840F0D6802389ADF8503023
:10AB8000BDF850203388934200F0D380B378002B77
:10AB900000F0E0808DF852300023ADF84C304FF0DB
:10ABA0000103022262F342038DF84E30B4F8903074
:10ABB00013F0010F00F0D2809DF84C20012161F3C9
:10ABC000030261F307128DF84C2013F0100F00F010
:10ABD000E2809DF84D30012262F3030362F3071314
:10ABE0008DF84D3000230C930D930E930F9310931B
:10ABF0001193129304F11C0616AF42F60211384667
:10AC0000FEF7D9FD19AB93E807008DE8070097E838
:10AC10000E003046FEF745F828B194F8523013F094
:10AC2000300F40F0F08094F8523013F0010F05D04F
:10AC30009DF8302042F001028DF8302013F0020F11
:10AC400005D09DF8302042F002028DF8302013F03C
:10AC5000040F05D09DF8302042F004028DF830201A
:10AC600013F0080F05D09DF8302042F008028DF84F
:10AC7000302013F0100F05D09DF8302042F0100264
:10AC80008DF8302013F0200F05D09DF8302042F0D1
:10AC900020028DF8302013F0400F05D09DF83030A1
:10ACA00043F040038DF830300023089309930A9352
:10ACB00014AB069313AB07939DF84E3013F0010FBE
:10ACC00014BF4FF400734FF4FF73ADF8243004F158
:10ACD0005C073846FFF772F9002840F0208104AB8A
:10ACE00006AA0CA9288FFFF706FF0746002800F0E8
:10ACF00020810023024670496D4802F081FA0C2F32
:10AD00007FF42DAF6D4D6A4C0023BDF820202946FD
:10AD1000204602F0D3FA0023BDF82420294620461D
:10AD200002F0CCFA1BE700226549614802F00CFAF8
:10AD300015E722AC002344F8343D5D4D23466149BC
:10AD4000284602F019FB234632885F49284602F064
:10AD500013FB04E701238DF852301DE713F0020FB7
:10AD60000AD09DF84C20012161F30302022161F316
:10AD700007128DF84C2028E713F0040F3FF425AF9D
:10AD80009DF84C20012161F30302032161F30712B6
:10AD90008DF84C2019E713F0200F0AD09DF84D30A4
:10ADA000012262F30303022262F307138DF84D3090
:10ADB00018E713F0400F0AD09DF84D30012262F3DE
:10ADC0000303032262F307138DF84D300AE713F0F3
:10ADD000800F0AD09DF84D30022262F30303012256
:10ADE00062F307138DF84D30FCE613F4807F3FF4D7
:10ADF000F9AE9DF84D30022262F3030362F30713AC
:10AE00008DF84D30EEE60023ADF82C308DF82E3065
:10AE1000038D13F0010F1ED09DF82C20012161F34A
:10AE2000030261F307128DF82C2013F0100F2ED0BF
:10AE30009DF82D30012262F3030362F307138DF8AE
:10AE40002D309DF82E30012262F342038DF82E3012
:10AE50000BAB1193E7E613F0020F0AD09DF82C20FC
:10AE6000012161F30302022161F307128DF82C2006
:10AE7000DBE713F0040FD8D09DF82C20012161F3FB
:10AE80000302032161F307128DF82C20CDE713F0A4
:10AE9000200F1BD09DF82D30012262F30303022204
:10AEA00062F307138DF82D30CBE700BF10020500C9
:10AEB0003802050050020500DC020500040305000D
:10AEC00068020500A0020500BC02050013F0400F57
:10AED0000AD09DF82D30012262F30303032262F3AE
:10AEE00007138DF82D30ACE713F0800F0AD09DF8D2
:10AEF0002D30022262F30303012262F307138DF85F
:10AF00002D309EE713F4807F9BD09DF82D300222D8
:10AF100062F3030362F307138DF82D3091E738468F
:10AF2000FFF74CF8ADF820003846FFF745F80A90D7
:10AF3000D5E600221649174802F006F9A565BDF8C6
:10AF40001030A4F850303046FDF7E6FE05460028E4
:10AF50003FF405AE42F602170AE02146284600F00B
:10AF60006FFB3046FDF7E8FE0546002D3FF4F7ADD8
:10AF700029461CA8FDF788FEBDF87030022BECD1E5
:10AF8000BDF87430BB42E8D1BDF81430AB83ECE7B8
:10AF9000180305003802050008B51C30FDF7ABFEAC
:10AFA00008BD037ADBB2012B00D07047022902D022
:10AFB00002230372F9E7032303727047BFF34F8F35
:10AFC0000549CA6802F4E062044B1343CB60BFF347
:10AFD0004F8F00BFFDE700BF00ED00E00400FA0561
:10AFE00072B6034A13780133DBB21370704700BFA7
:10AFF00028360020034A1378013BDBB2137003B9F3
:10B0000062B67047283600204FF0FF3070474FF48B
:10B0100000534B60002070474FF0FF307047002016
:10B020007047000008B50C4B1B684BB10A4B196800
:10B030000B180A4A934207D8074A1360084608BD0E
:10B04000054B074A1A60F1E70246044B05481DF01C
:10B0500085FF4FF0FF31F1E724360020B8BB002018
:10B06000A04B002040030500FEE74FF0FF30704783
:10B070000120704770470000024B034AC3F80026C6
:10B08000704700BF000001403546526E38B5044697
:10B09000194B0122C3F804251A601A46D2F8003170
:10B0A000002BFBD0144B0022C3F80021D3F8080575
:10B0B00080B21A46D2F80031002BFBD00E4BD3F8E9
:10B0C000082501255D6040EA022080B21DF0D6FF10
:10B0D0004FF08043D3F800242262C3F8002403F524
:10B0E00010430022C3F80425C3F810250322C3F837
:10B0F00008251D6038BD00BF00D0004008B5034BD7
:10B1000001225A60FFF74EFC08BD00BF00900040CE
:10B1100038B504461546104B036041600F4B836001
:10B120004FF0FF33C36001230374143002F0EEF9D3
:10B130000B4B03F108022260383363610C2384F85F
:10B140002430A56200220023C4E90C23C4E90E23A5
:10B1500000232364204638BD7C0305000024F4004E
:10B1600094030500002863D02DE9F04B0646FFF755
:10B1700037FF314DD5E90E23C6E9002301F084FBEA
:10B1800080464FF000092B6C984247D3C41A69F1EE
:10B190000005FFF72FFF01F087FB6901620141EA1B
:10B1A000D463121B63EB0503590241EAD2515702E3
:10B1B0003A1941EB05034FEA831C4CEA926C4FEAC3
:10B1C000821BBBEB02086CEB03090246002318EB61
:10B1D000040049EB05011BF0C7FEB060174B83FB71
:10B1E0000023C217D2EBA34310D0D6E90045E118E3
:10B1F00045F10002C6E90012104A82FB0032C31773
:10B20000C3EBA2430E4A02FB1300B0600D4C96E85C
:10B210000F0084E80F000020BDE8F08B01F047FB31
:10B22000054B1B6CC01A18EB000449F10005B0E790
:10B230004FF0FF30704700BF3833002083DE1B43E0
:10B2400040420F00D8FB00202DE9F04784B08A4629
:10B25000914698460C9F0D9E0E9D0F9C00216846BE
:10B26000FFF780FF68461CF0A3FA02684168D0F837
:10B2700008C0D0F80CE00369BAF1000F04D04069AF
:10B2800000F26C70AAF80000B9F1000F02D001338F
:10B2900089F80030B8F1000F01D088F800E00FB154
:10B2A00087F800C006B1317005B12A700CB1029B5D
:10B2B000236004B0BDE8F087A0F11400FFF7C4BF1D
:10B2C0002DE9F0438FB00646894690461F4600217F
:10B2D0000AA8FFF747FF0AA81CF06AFA01AC054666
:10B2E0000FCD0FC40FCD0FC42B682360CDF80C9089
:10B2F000CDF808800EA840F8347D1CF027FEDDE96B
:10B300000A23904271EB030303DA044A00238018F6
:10B310005941C6E90C010FB0BDE8F083805101002E
:10B32000A0F11400FFF7CCBF31B3F0B585B00C46E7
:10B33000054600216846FFF715FFD5E91267DDE9EC
:10B340000023921B63EB070310461946C4E9000172
:10B350002A6D029B9B1AA360002B01DB05B0F0BD98
:10B3600010F1FF3641F1FF37C4E9006703F574239C
:10B3700003F51073A360F1E77047A0F11400FFF725
:10B38000D3BF0000002869D02DE9F04F87B00446F4
:10B3900080684FF4004300930023324A1946C0F5F9
:10B3A000742000F5107001F0E5FA0646002102A8AD
:10B3B000FFF7D8FE2C4FD7E91289DDE90223B2EB63
:10B3C000080263EB090392469B46049D3B6DED1A10
:10B3D00023D4FFF705FED4E900232349C1E90E2356
:10B3E000202E23D8D4E90001B0EB0A0061EB0B0159
:10B3F00006460F461C4AC2E91267A3685B1B136529
:10B40000002B1FDBFFF7F6FD184D94E80F0085E8D1
:10B410000F00002007B0BDE8F08F12F1FF3A4BF1AA
:10B42000FF3B05F5742505F51075D2E701F02CFA00
:10B430000644304601F04CFA01F036FA361A0A4B4F
:10B440001E64CFE710F1FF3041F1FF31C2E9120174
:10B4500003F5742303F510731365D3E74FF0FF3042
:10B46000704700BF40420F0038330020D8FB002057
:10B4700010B58EB0139CA1F26C710A91013A099239
:10B4800008939DF8403007939DF8443006930EA82A
:10B490009DF8483040F8243D1CF058FDCDE90001EE
:10B4A000054B9C4288BF0024029400216846FFF7A8
:10B4B00069FF0EB010BD00BF3F420F00A0F11400A5
:10B4C000FFF7D6BFA8DF704762DF70476ADF7047BB
:10B4D000F0B585B0D0F8902032B100233C493D480A
:10B4E00001F0A8FF05B0F0BD04460D460420FFF7AB
:10B4F000CDFA0646C4F8900088B325646D4623460D
:10B5000053F8480F59689A68DB680FC500238DF817
:10B510000C308DF80D3094F8553094F8541041EA01
:10B520000321354625F8021B2B481DF017FD29463F
:10B530006846FFF7C9FF0746B8B1014627481DF026
:10B540000DFD00233A462649224801F059FED4F861
:10B550009000FFF7ADFA0023C4F89030C2E7002254
:10B5600020491C4801F0F0FDBCE7B1781E481DF0F1
:10B57000F5FC0023B2781D49164801F0FDFE04F1E8
:10B58000380231460120FFF79DFF0646D8B101463B
:10B5900017481DF0E3FC0F4F00233246154938468B
:10B5A00001F02EFE2846FFF791FF002302461249C4
:10B5B000384601F025FED4F89000FFF779FA002311
:10B5C000C4F890308EE70D481DF050FD8AE700BFAB
:10B5D000E0030500F80305002C04050054040500F1
:10B5E0008804050008040500A4040500CC04050037
:10B5F000F004050014050500340505005405050098
:10B6000008B50430FDF77FFA08BD38B5028F4FF654
:10B61000FF739A4211D00446051D2846FDF754FADF
:10B62000034650B1E36321461846FFF767FA284600
:10B63000FDF75AFA03460028F4D138BDABDF704756
:10B64000F0B589B00C46828B4FF6FF739A4226D133
:10B650000546002900F005818B6D002B00F0148158
:10B66000D3F89070061D3046FEF7B4F880282FD12D
:10B670000C2204F1080105F108001CF051FB38BB55
:10B68000022204F1160105F116001CF049FBF8B97D
:10B690006A7D2B7D03EB0223ADF81C3020E008AD62
:10B6A000002345F8203D824E2B468249304601F06A
:10B6B00063FE2B4622468049304601F0BBFE2CB18A
:10B6C0006B46A26D7D497A4801F0B4FE09B0F0BD29
:10B6D0003046FEF77FF810284ED12B89ADF81C308C
:10B6E000002302930393049305930693BB78002BE6
:10B6F00048D08DF81E3007AB02932B8D13F0010F4D
:10B7000044D09DF80430012262F3030362F307136F
:10B710008DF804302B8D13F0100F5CD09DF80530A0
:10B72000012262F3030362F307138DF805309DF8DD
:10B73000063003F0E70343F00103012262F3420302
:10B740008DF8063001AB03936B8FADF810300023FA
:10B75000ADF812302B8FADF81430EB6B069320460A
:10B76000FDF762F805F11C0202A9FFF767FF024628
:10B77000002870D16C62A9E7002251494C4801F0C1
:10B78000E3FCA3E701238DF81E30B4E713F0020FAA
:10B790000AD09DF80430012262F30303022262F30F
:10B7A00007138DF80430B5E713F0040F0AD09DF8A5
:10B7B0000430012262F30303032262F307138DF8BE
:10B7C0000430A7E79DF8043003F0F0036FF307138C
:10B7D0008DF804309EE713F0200F0AD09DF8053055
:10B7E000012262F30303022262F307138DF805308E
:10B7F0009DE713F0400F0AD09DF80530012262F357
:10B800000303032262F307138DF805308FE713F06B
:10B81000800F0AD09DF80530022262F30303012253
:10B8200062F307138DF8053081E713F4807F09D0A8
:10B830009DF80530022262F3030362F307138DF8CB
:10B84000053074E79DF8053003F0F0036FF307133C
:10B850008DF805306BE700231A49154801F02EFDDD
:10B8600034E7002608AC44F8206D114D23464FF60E
:10B87000FF721049284601F07FFD234632460E49EB
:10B88000284601F0D7FD21E708AD002345F8203D0B
:10B89000074E2B464FF6FF720649304601F06CFD0D
:10B8A0002B4622460449304601F0C4FD08E700BF9C
:10B8B0008805050078050500AC050500B405050000
:10B8C000C0050500F40505007047000010B50446EA
:10B8D000FFF71EFC024B236030336361204610BD2E
:10B8E0002006050083680422C3F808238368002229
:10B8F000C3F808218368C3F81C158268D2F80831A0
:10B90000002BFBD00023C2F808318368D3F8180558
:10B91000C0B2704738B5044683680025C3F80055A7
:10B92000294690F90C0000F0D9FA294694F90D0047
:10B9300000F0D4FA294694F90E0000F0CFFA38BD91
:10B9400070B504460E46154601F07CF9012194F9C4
:10B950000C0000F0C3FA012194F90D0000F0BEFACA
:10B96000002194F90E0000F0B9FAA268314B94F965
:10B970000C1013F82110C2F80815A26894F90D10E4
:10B9800013F82110C2F80C15A26894F90E1013F8E0
:10B990002130C2F81035284B9E421BD9A3684FF0C6
:10B9A0000042C3F82425003518BF0125204601F0C8
:10B9B0004BF908B145F00405204601F049F908B1FA
:10B9C00045F00205A368C3F85455A3680122C3F8E3
:10B9D000002570BD194B9E4205D9A3684FF08042E7
:10B9E000C3F82425DFE7164B9E4205D9A3684FF024
:10B9F0000052C3F82425D6E7124B9E4205D9A3680E
:10BA00004FF08052C3F82425CDE70F4B9E4205D955
:10BA1000A3684FF00062C3F82425C4E70B4B9E4295
:10BA2000A3688CBF4FF080624FF00072C3F82425EA
:10BA3000B9E700BF90FD0400FF117A00FF083D0048
:10BA40007F841E003F420F001FA107008FD003001C
:10BA500030B4054D056081609DF908100173427393
:10BA6000837330BC704700BF6C060500437C3BB954
:10BA7000836C0422C3F80423826C01231360437493
:10BA80007047437C43B1836C0422C3F80823836C62
:10BA900001225A60002343747047000030B401242F
:10BAA00016491BE0836C9C60438D9BB2826C456A97
:10BAB000EB5CC2F81C35826CD2F81C31002BFBD039
:10BAC000438D5A1C058C92FBF5F305FB13239BB2A7
:10BAD0004385438D028D9BB2934207D0EFF31083D1
